{
  "transactions": [
    {
      "hash": "0x9478a2cd7b70aa2f6fd1e2c0c6f14882e2b390e96b21abcaddad7c94c6fc0fe0",
      "transactionType": "CALL",
      "contractName": null,
      "contractAddress": "0xf4d2d99b401859c7b825d145ca76125455154245",
      "function": "addSupportedToken(address,address)",
      "arguments": [
        "0x4200000000000000000000000000000000000023",
        "0x3e19BBEe16243F36b331Ce550f3fF2685e972944"
      ],
      "transaction": {
        "from": "0xe0d6f93151091f24ea09474e9271bd60f2624d99",
        "to": "0xf4d2d99b401859c7b825d145ca76125455154245",
        "gas": "0x12d9a",
        "value": "0x0",
        "input": "0xc2b7be1600000000000000000000000042000000000000000000000000000000000000230000000000000000000000003e19bbee16243f36b331ce550f3ff2685e972944",
        "nonce": "0x1a",
        "chainId": "0xa0c71fd"
      },
      "additionalContracts": [],
      "isFixedGasLimit": false
    },
    {
      "hash": "0xfaa09f96e27250a56319be8b77a409f9d29b3710a09e53641dcebfc60ecdc231",
      "transactionType": "CALL",
      "contractName": null,
      "contractAddress": "0x9b6f6f895a011c2c90857596a1ae2f537b097f52",
      "function": "poolDeposit(address)",
      "arguments": [
        "0x3e19BBEe16243F36b331Ce550f3fF2685e972944"
      ],
      "transaction": {
        "from": "0xe0d6f93151091f24ea09474e9271bd60f2624d99",
        "to": "0x9b6f6f895a011c2c90857596a1ae2f537b097f52",
        "gas": "0x2a9d9",
        "value": "0x6f05b59d3b20000",
        "input": "0x5698afa50000000000000000000000003e19bbee16243f36b331ce550f3ff2685e972944",
        "nonce": "0x1b",
        "chainId": "0xa0c71fd"
      },
      "additionalContracts": [],
      "isFixedGasLimit": false
    }
  ],
  "receipts": [
    {
      "status": "0x1",
      "cumulativeGasUsed": "0x428c6",
      "logs": [
        {
          "address": "0xf4d2d99b401859c7b825d145ca76125455154245",
          "topics": [
            "0xdffbd9ded1c09446f09377de547142dcce7dc541c8b0b028142b1eba7026b9e7",
            "0x0000000000000000000000004200000000000000000000000000000000000023",
            "0x0000000000000000000000003e19bbee16243f36b331ce550f3ff2685e972944"
          ],
          "data": "0x",
          "blockHash": "0xbdf99f56352e497ab831c68059702f283376946071c286d5aec7a6c030b7c641",
          "blockNumber": "0xa4e55f",
          "transactionHash": "0x9478a2cd7b70aa2f6fd1e2c0c6f14882e2b390e96b21abcaddad7c94c6fc0fe0",
          "transactionIndex": "0x3",
          "logIndex": "0x4",
          "removed": false
        }
      ],
      "logsBloom": "0x00000040010000000000000000000000000000000004000000000000000000000000000400000000000000000000000000000000008000000000000000000000000000000000000000000000000000080000000000000000000000200000000000000000000000000000000000000000000000000000000000000000000000000000000000002000080000000000000000002040000000000000000000000000000000000000000000000000000000000000000000000000000000000000000000000000000000000000000000000200000000000000000000000000000000000000000000000000000000000000000000000000000000000000000000000000",
      "type": "0x2",
      "transactionHash": "0x9478a2cd7b70aa2f6fd1e2c0c6f14882e2b390e96b21abcaddad7c94c6fc0fe0",
      "transactionIndex": "0x3",
      "blockHash": "0xbdf99f56352e497ab831c68059702f283376946071c286d5aec7a6c030b7c641",
      "blockNumber": "0xa4e55f",
      "gasUsed": "0xce3a",
      "effectiveGasPrice": "0x1f8",
      "from": "0xe0d6f93151091f24ea09474e9271bd60f2624d99",
      "to": "0xf4d2d99b401859c7b825d145ca76125455154245",
      "contractAddress": null,
      "l1Fee": "0x7fcefca79",
      "l1GasPrice": "0x72ca8d45",
      "l1GasUsed": "0x928"
    },
    {
      "status": "0x1",
      "cumulativeGasUsed": "0x6166c",
      "logs": [
        {
          "address": "0x4200000000000000000000000000000000000023",
          "topics": [
            "0xe1fffcc4923d04b559f4d29a8bfc6cda04eb5b0d3c460751c2402c5c5cc9109c",
            "0x0000000000000000000000009b6f6f895a011c2c90857596a1ae2f537b097f52"
          ],
          "data": "0x00000000000000000000000000000000000000000000000006f05b59d3b20000",
          "blockHash": "0xbdf99f56352e497ab831c68059702f283376946071c286d5aec7a6c030b7c641",
          "blockNumber": "0xa4e55f",
          "transactionHash": "0xfaa09f96e27250a56319be8b77a409f9d29b3710a09e53641dcebfc60ecdc231",
          "transactionIndex": "0x4",
          "logIndex": "0x5",
          "removed": false
        },
        {
          "address": "0x9b6f6f895a011c2c90857596a1ae2f537b097f52",
          "topics": [
            "0x90576f1ad407b163ccea052b2d55bac158025af10ac5895369e8956eeab83434",
            "0x0000000000000000000000003e19bbee16243f36b331ce550f3ff2685e972944"
          ],
          "data": "0x00000000000000000000000000000000000000000000000006f05b59d3b20000",
          "blockHash": "0xbdf99f56352e497ab831c68059702f283376946071c286d5aec7a6c030b7c641",
          "blockNumber": "0xa4e55f",
          "transactionHash": "0xfaa09f96e27250a56319be8b77a409f9d29b3710a09e53641dcebfc60ecdc231",
          "transactionIndex": "0x4",
          "logIndex": "0x6",
          "removed": false
        }
      ],
      "logsBloom": "0x00000000010000000000000000000000000000000000000000000010000000000000000400000000000000000000000000000000000000000008000000000000000000000000000002000000000000000000000000000000800000008000000000000000000000000000000000000000000400000000000001000000000000000000002000000000000000000000000008002001000000000000000000000000000000000000000000000000000000000000210000000000000008000000000000000000000000000000000002000000000000000000000000000000000000000000000000000000000000000000000000000000000000400000000000000000",
      "type": "0x2",
      "transactionHash": "0xfaa09f96e27250a56319be8b77a409f9d29b3710a09e53641dcebfc60ecdc231",
      "transactionIndex": "0x4",
      "blockHash": "0xbdf99f56352e497ab831c68059702f283376946071c286d5aec7a6c030b7c641",
      "blockNumber": "0xa4e55f",
      "gasUsed": "0x1eda6",
      "effectiveGasPrice": "0x1f8",
      "from": "0xe0d6f93151091f24ea09474e9271bd60f2624d99",
      "to": "0x9b6f6f895a011c2c90857596a1ae2f537b097f52",
      "contractAddress": null,
      "l1Fee": "0x7c51a2c0b",
      "l1GasPrice": "0x72ca8d45",
      "l1GasUsed": "0x8e8"
    }
  ],
  "libraries": [],
  "pending": [],
  "returns": {},
  "timestamp": 1726299941,
  "chain": 168587773,
  "commit": "5fcd4f3"
}