{
  "transactions": [
    {
      "hash": "0xf3cb92170d34121277657a42536ae077d844a4fdec0cebc8dedb03f33004c308",
      "transactionType": "CALL",
      "contractName": null,
      "contractAddress": "0x9b6f6f895a011c2c90857596a1ae2f537b097f52",
      "function": "addIssuer(address,address,uint256,uint256,uint256,uint256)",
      "arguments": [
        "0x3e19BBEe16243F36b331Ce550f3fF2685e972944",
        "0xE0D6f93151091f24EA09474e9271BD60F2624d99",
        "1000",
        "1000000000000000",
        "1000000000000000",
        "2"
      ],
      "transaction": {
        "from": "0x03773f85756acac65a869e89e3b7b2fcda6be140",
        "to": "0x9b6f6f895a011c2c90857596a1ae2f537b097f52",
        "gas": "0x2e61b",
        "value": "0x0",
        "input": "0x86582d9a0000000000000000000000003e19bbee16243f36b331ce550f3ff2685e972944000000000000000000000000e0d6f93151091f24ea09474e9271bd60f2624d9900000000000000000000000000000000000000000000000000000000000003e800000000000000000000000000000000000000000000000000038d7ea4c6800000000000000000000000000000000000000000000000000000038d7ea4c680000000000000000000000000000000000000000000000000000000000000000002",
        "nonce": "0x11",
        "chainId": "0xa0c71fd"
      },
      "additionalContracts": [],
      "isFixedGasLimit": false
    },
    {
      "hash": "0x24f11a860cf987827311842993bf31d2376ead8b72840ce3c40d3aa991b5960d",
      "transactionType": "CALL",
      "contractName": null,
      "contractAddress": "0xf4d2d99b401859c7b825d145ca76125455154245",
      "function": "setPeer(uint32,bytes32)",
      "arguments": [
        "40245",
        "0x0000000000000000000000003d4cf5232061744ca5e72eab6624c96750d71ec2"
      ],
      "transaction": {
        "from": "0x03773f85756acac65a869e89e3b7b2fcda6be140",
        "to": "0xf4d2d99b401859c7b825d145ca76125455154245",
        "gas": "0xa518",
        "value": "0x0",
        "input": "0x3400288b0000000000000000000000000000000000000000000000000000000000009d350000000000000000000000003d4cf5232061744ca5e72eab6624c96750d71ec2",
        "nonce": "0x12",
        "chainId": "0xa0c71fd"
      },
      "additionalContracts": [],
      "isFixedGasLimit": false
    }
  ],
  "receipts": [
    {
      "status": "0x1",
      "cumulativeGasUsed": "0x43d05",
      "logs": [
        {
          "address": "0x9b6f6f895a011c2c90857596a1ae2f537b097f52",
          "topics": [
            "0x81f5a5da0823b41cbf403c631b7efa6c2ec9a7742d7c9cf86de6300fbaf3e00e"
          ],
          "data": "0x0000000000000000000000003e19bbee16243f36b331ce550f3ff2685e972944000000000000000000000000e0d6f93151091f24ea09474e9271bd60f2624d99",
          "blockHash": "0xeb66731ba96ef43d6ad367b41c6060d5773364c7941812d3e649539722bf9114",
          "blockNumber": "0xa4e515",
          "transactionHash": "0xf3cb92170d34121277657a42536ae077d844a4fdec0cebc8dedb03f33004c308",
          "transactionIndex": "0x2",
          "logIndex": "0x2",
          "removed": false
        }
      ],
      "logsBloom": "0x00000000000000000000000000000000000000000000000000000010020000000000000000000000000000000000000000000000000000000000000000000000000000000000000000000000000000000000000000040000000000000010000000000000000000000000000000000000000000000000000001000000000000000000000000000000000000000000000000000000000000000000000000000000000000000000000000000000000000000000200000000000000000000000000000000000000000000000000000000000000000000000000000000000000000000000000000000000000000000000000000000000000000000000000000000000",
      "type": "0x2",
      "transactionHash": "0xf3cb92170d34121277657a42536ae077d844a4fdec0cebc8dedb03f33004c308",
      "transactionIndex": "0x2",
      "blockHash": "0xeb66731ba96ef43d6ad367b41c6060d5773364c7941812d3e649539722bf9114",
      "blockNumber": "0xa4e515",
      "gasUsed": "0x21946",
      "effectiveGasPrice": "0x1fa",
      "from": "0x03773f85756acac65a869e89e3b7b2fcda6be140",
      "to": "0x9b6f6f895a011c2c90857596a1ae2f537b097f52",
      "contractAddress": null,
      "l1Fee": "0xcec6bc350",
      "l1GasPrice": "0x8534d738",
      "l1GasUsed": "0xcc4"
    },
    {
      "status": "0x1",
      "cumulativeGasUsed": "0x4b48c",
      "logs": [
        {
          "address": "0xf4d2d99b401859c7b825d145ca76125455154245",
          "topics": [
            "0x238399d427b947898edb290f5ff0f9109849b1c3ba196a42e35f00c50a54b98b"
          ],
          "data": "0x0000000000000000000000000000000000000000000000000000000000009d350000000000000000000000003d4cf5232061744ca5e72eab6624c96750d71ec2",
          "blockHash": "0xeb66731ba96ef43d6ad367b41c6060d5773364c7941812d3e649539722bf9114",
          "blockNumber": "0xa4e515",
          "transactionHash": "0x24f11a860cf987827311842993bf31d2376ead8b72840ce3c40d3aa991b5960d",
          "transactionIndex": "0x3",
          "logIndex": "0x3",
          "removed": false
        }
      ],
      "logsBloom": "0x00000000000000000000000000000000000000000000000000000000000000000000000000000000000000000000000000000000000000000800000000000000000000000000000000000000000000080000000000000000000000000000000000000000000000000000000000000000000000000000000000000000000000000000000000000000080000000000000000000000000000000000000000000000000000000000000000000000000000000000000000000000000002000000000000000000000000000000000000000200000000000000000000040000000000000000000000000000000000000000000000000000000000000000000000000000",
      "type": "0x2",
      "transactionHash": "0x24f11a860cf987827311842993bf31d2376ead8b72840ce3c40d3aa991b5960d",
      "transactionIndex": "0x3",
      "blockHash": "0xeb66731ba96ef43d6ad367b41c6060d5773364c7941812d3e649539722bf9114",
      "blockNumber": "0xa4e515",
      "gasUsed": "0x7787",
      "effectiveGasPrice": "0x1fa",
      "from": "0x03773f85756acac65a869e89e3b7b2fcda6be140",
      "to": "0xf4d2d99b401859c7b825d145ca76125455154245",
      "contractAddress": null,
      "l1Fee": "0x928a55c0a",
      "l1GasPrice": "0x8534d738",
      "l1GasUsed": "0x90c"
    }
  ],
  "libraries": [],
  "pending": [],
  "returns": {},
  "timestamp": 1726299792,
  "chain": 168587773,
  "commit": "5fcd4f3"
}