{
  "transactions": [
    {
      "hash": "0x4e8da8a2e7af6638b0b035c2b5abbffed837a836860889e2bc6e3758c7e955cd",
      "transactionType": "CALL",
      "contractName": null,
      "contractAddress": "0x472cf1b83213ded59db4fc643532d07450d8f40b",
      "function": "addSupportedToken(address,address)",
      "arguments": [
        "0x4200000000000000000000000000000000000023",
        "0xA500C712e7EbDd5040f1A212800f5f6fa20d05F8"
      ],
      "transaction": {
        "from": "0xe0d6f93151091f24ea09474e9271bd60f2624d99",
        "to": "0x472cf1b83213ded59db4fc643532d07450d8f40b",
        "gas": "0x11c4f",
        "value": "0x0",
        "input": "0xc2b7be160000000000000000000000004200000000000000000000000000000000000023000000000000000000000000a500c712e7ebdd5040f1a212800f5f6fa20d05f8",
        "nonce": "0x0",
        "chainId": "0xa0c71fd"
      },
      "additionalContracts": [],
      "isFixedGasLimit": false
    },
    {
      "hash": "0xa0c92c722e7c808bed21fe7ca5d87ec0071b62331215b48efdef06a980b81e4b",
      "transactionType": "CALL",
      "contractName": null,
      "contractAddress": "0xf430ac9b73c5fb875d8350a300e95049a19cabb1",
      "function": "poolDeposit(address)",
      "arguments": [
        "0xA500C712e7EbDd5040f1A212800f5f6fa20d05F8"
      ],
      "transaction": {
        "from": "0xe0d6f93151091f24ea09474e9271bd60f2624d99",
        "to": "0xf430ac9b73c5fb875d8350a300e95049a19cabb1",
        "gas": "0x2a9aa",
        "value": "0x6f05b59d3b20000",
        "input": "0x5698afa5000000000000000000000000a500c712e7ebdd5040f1a212800f5f6fa20d05f8",
        "nonce": "0x1",
        "chainId": "0xa0c71fd"
      },
      "additionalContracts": [],
      "isFixedGasLimit": false
    }
  ],
  "receipts": [
    {
      "status": "0x1",
      "cumulativeGasUsed": "0x20945",
      "logs": [
        {
          "address": "0x472cf1b83213ded59db4fc643532d07450d8f40b",
          "topics": [
            "0xdffbd9ded1c09446f09377de547142dcce7dc541c8b0b028142b1eba7026b9e7",
            "0x0000000000000000000000004200000000000000000000000000000000000023",
            "0x000000000000000000000000a500c712e7ebdd5040f1a212800f5f6fa20d05f8"
          ],
          "data": "0x",
          "blockHash": "0x0be6cd9f979be568a6afce390e7667f0811876b40ea7e28e6fea0fcee8f8db56",
          "blockNumber": "0x9d9eb5",
          "transactionHash": "0x4e8da8a2e7af6638b0b035c2b5abbffed837a836860889e2bc6e3758c7e955cd",
          "transactionIndex": "0x2",
          "logIndex": "0x0",
          "removed": false
        }
      ],
      "logsBloom": "0x00000040000000010000000000000000000000000004000000000000000000000000000000000000000000000000000000000000008000400000000000000000000000000000000000000000000000000000000000000000000000200000000010000000000000000000000000000000000000000000000000000000000000800000000000002000000000000000000000000040000000000000000000000000000000000000000000000000000000000000000000000000000000000000000000000000000000000000000800000000000000000000000000000000000000000000000000000000000000200000000000000000000000000000000000000000",
      "type": "0x2",
      "transactionHash": "0x4e8da8a2e7af6638b0b035c2b5abbffed837a836860889e2bc6e3758c7e955cd",
      "transactionIndex": "0x2",
      "blockHash": "0x0be6cd9f979be568a6afce390e7667f0811876b40ea7e28e6fea0fcee8f8db56",
      "blockNumber": "0x9d9eb5",
      "gasUsed": "0xcdd6",
      "effectiveGasPrice": "0xf433c",
      "from": "0xe0d6f93151091f24ea09474e9271bd60f2624d99",
      "to": "0x472cf1b83213ded59db4fc643532d07450d8f40b",
      "contractAddress": null,
      "l1Fee": "0x9c15418cdcbb",
      "l1GasPrice": "0x1170655765",
      "l1GasUsed": "0x94c"
    },
    {
      "status": "0x1",
      "cumulativeGasUsed": "0x3f6c9",
      "logs": [
        {
          "address": "0x4200000000000000000000000000000000000023",
          "topics": [
            "0xe1fffcc4923d04b559f4d29a8bfc6cda04eb5b0d3c460751c2402c5c5cc9109c",
            "0x000000000000000000000000f430ac9b73c5fb875d8350a300e95049a19cabb1"
          ],
          "data": "0x00000000000000000000000000000000000000000000000006f05b59d3b20000",
          "blockHash": "0x0be6cd9f979be568a6afce390e7667f0811876b40ea7e28e6fea0fcee8f8db56",
          "blockNumber": "0x9d9eb5",
          "transactionHash": "0xa0c92c722e7c808bed21fe7ca5d87ec0071b62331215b48efdef06a980b81e4b",
          "transactionIndex": "0x3",
          "logIndex": "0x1",
          "removed": false
        },
        {
          "address": "0xf430ac9b73c5fb875d8350a300e95049a19cabb1",
          "topics": [
            "0x90576f1ad407b163ccea052b2d55bac158025af10ac5895369e8956eeab83434",
            "0x000000000000000000000000a500c712e7ebdd5040f1a212800f5f6fa20d05f8"
          ],
          "data": "0x00000000000000000000000000000000000000000000000006f05b59d3b20000",
          "blockHash": "0x0be6cd9f979be568a6afce390e7667f0811876b40ea7e28e6fea0fcee8f8db56",
          "blockNumber": "0x9d9eb5",
          "transactionHash": "0xa0c92c722e7c808bed21fe7ca5d87ec0071b62331215b48efdef06a980b81e4b",
          "transactionIndex": "0x3",
          "logIndex": "0x2",
          "removed": false
        }
      ],
      "logsBloom": "0x00000000000000000000000000002000000000000000000000000000000000000080000000000000000000000000000000000000000000400008000000000000000000000000000002000000000000000000000000000000800000008000000010000000000000000000000000000000000000000000000000000000000000000000102000000000000000000000000008000001000000000000000000000000000000000000000000000200000000000000010000000000000000000000000000000000000000000000000800000000000000000000000000000000000000000000000000000000000000000000000000000000000080480000000000000000",
      "type": "0x2",
      "transactionHash": "0xa0c92c722e7c808bed21fe7ca5d87ec0071b62331215b48efdef06a980b81e4b",
      "transactionIndex": "0x3",
      "blockHash": "0x0be6cd9f979be568a6afce390e7667f0811876b40ea7e28e6fea0fcee8f8db56",
      "blockNumber": "0x9d9eb5",
      "gasUsed": "0x1ed84",
      "effectiveGasPrice": "0xf433c",
      "from": "0xe0d6f93151091f24ea09474e9271bd60f2624d99",
      "to": "0xf430ac9b73c5fb875d8350a300e95049a19cabb1",
      "contractAddress": null,
      "l1Fee": "0x97194f6059c5",
      "l1GasPrice": "0x1170655765",
      "l1GasUsed": "0x900"
    }
  ],
  "libraries": [],
  "pending": [],
  "returns": {},
  "timestamp": 1725346257,
  "chain": 168587773,
  "commit": "5cf640c"
}