{
  "transactions": [
    {
      "hash": "0x182364f17c4fbec7f7add4a2361edbf475c682e2e51d24eb345a3b6ce4597746",
      "transactionType": "CALL",
      "contractName": null,
      "contractAddress": "0xf430ac9b73c5fb875d8350a300e95049a19cabb1",
      "function": "poolWithdraw(uint256,address)",
      "arguments": [
        "9000000000000000",
        "0xA500C712e7EbDd5040f1A212800f5f6fa20d05F8"
      ],
      "transaction": {
        "from": "0xe0d6f93151091f24ea09474e9271bd60f2624d99",
        "to": "0xf430ac9b73c5fb875d8350a300e95049a19cabb1",
        "gas": "0x1cac8",
        "value": "0x0",
        "input": "0x5b1ca168000000000000000000000000000000000000000000000000001ff973cafa8000000000000000000000000000a500c712e7ebdd5040f1a212800f5f6fa20d05f8",
        "nonce": "0x19",
        "chainId": "0xa0c71fd"
      },
      "additionalContracts": [],
      "isFixedGasLimit": false
    }
  ],
  "receipts": [
    {
      "status": "0x1",
      "cumulativeGasUsed": "0x34f0a",
      "logs": [
        {
          "address": "0x4200000000000000000000000000000000000023",
          "topics": [
            "0x7fcf532c15f0a6db0bd6d0e038bea71d30d808c7d98cb3bf7268a95bf5081b65",
            "0x000000000000000000000000f430ac9b73c5fb875d8350a300e95049a19cabb1"
          ],
          "data": "0x000000000000000000000000000000000000000000000000001ff973cafa8000",
          "blockHash": "0xffc8c6cc75f746ad1d9b30451059829291f76746f61a799d04167c5761e70955",
          "blockNumber": "0xa4dd9d",
          "transactionHash": "0x182364f17c4fbec7f7add4a2361edbf475c682e2e51d24eb345a3b6ce4597746",
          "transactionIndex": "0x2",
          "logIndex": "0x2",
          "removed": false
        },
        {
          "address": "0xf430ac9b73c5fb875d8350a300e95049a19cabb1",
          "topics": [
            "0x6f07e6169c1653554eb707b6f6cd8f7ccf9cc29e54a0d8a71d9d5867d2057ac2",
            "0x000000000000000000000000a500c712e7ebdd5040f1a212800f5f6fa20d05f8"
          ],
          "data": "0x000000000000000000000000000000000000000000000000001ff973cafa8000",
          "blockHash": "0xffc8c6cc75f746ad1d9b30451059829291f76746f61a799d04167c5761e70955",
          "blockNumber": "0xa4dd9d",
          "transactionHash": "0x182364f17c4fbec7f7add4a2361edbf475c682e2e51d24eb345a3b6ce4597746",
          "transactionIndex": "0x2",
          "logIndex": "0x3",
          "removed": false
        }
      ],
      "logsBloom": "0x00000000000000000000000000022010000000000000000000000000000000000080000000000000000000000000000000000000000000400008000000000000000000000000000002000000000000000000000000400000000000000000000010000000000000000000000000000000000000000000040000000000000000000000100000000000000000000000000000000000000000000000000000000000000000000000000000000200000000000000010000000000000000008000000000000000000000000000000800000000000000000000000000000002000000000000000000000000000000000000000000000000000080080000000000000000",
      "type": "0x2",
      "transactionHash": "0x182364f17c4fbec7f7add4a2361edbf475c682e2e51d24eb345a3b6ce4597746",
      "transactionIndex": "0x2",
      "blockHash": "0xffc8c6cc75f746ad1d9b30451059829291f76746f61a799d04167c5761e70955",
      "blockNumber": "0xa4dd9d",
      "gasUsed": "0x14c27",
      "effectiveGasPrice": "0x1f8",
      "from": "0xe0d6f93151091f24ea09474e9271bd60f2624d99",
      "to": "0xf430ac9b73c5fb875d8350a300e95049a19cabb1",
      "contractAddress": null,
      "l1Fee": "0x59d0715c1",
      "l1GasPrice": "0x4fd95c61",
      "l1GasUsed": "0x940"
    }
  ],
  "libraries": [],
  "pending": [],
  "returns": {},
  "timestamp": 1726295968,
  "chain": 168587773,
  "commit": "5fcd4f3"
}