{
  "transactions": [
    {
      "hash": "0xe7e1ed5dcfb556cf04bb6f44af86f63bcc5e771add3957035e663f4c47bf68e1",
      "transactionType": "CALL",
      "contractName": null,
      "contractAddress": "0x3e19bbee16243f36b331ce550f3ff2685e972944",
      "function": "mint(uint256)",
      "arguments": [
        "0"
      ],
      "transaction": {
        "from": "0xe0d6f93151091f24ea09474e9271bd60f2624d99",
        "to": "0x3e19bbee16243f36b331ce550f3ff2685e972944",
        "gas": "0x3c71e",
        "value": "0x470de4df820000",
        "input": "0xa0712d680000000000000000000000000000000000000000000000000000000000000000",
        "nonce": "0x101",
        "chainId": "0x14a34"
      },
      "additionalContracts": [],
      "isFixedGasLimit": false
    },
    {
      "hash": "0x917b5df7750ffff24aafbb9497754b0651fa06b092f16eb218455ba04cee8273",
      "transactionType": "CALL",
      "contractName": null,
      "contractAddress": "0x3e19bbee16243f36b331ce550f3ff2685e972944",
      "function": "setHigherBulkLimits(uint256,bytes32,uint256[],uint256[],bool[])",
      "arguments": [
        "5",
        "0x000000000000000000000000f3c3baacdda6b57f7e45cef18886db8a226e7837",
        "[40231, 40161, 40232, 40245, 40287, 40243]",
        "[10000000000000000, 10000000000000000, 10000000000000000, 10000000000000000, 10000000000000000, 10000000000000000]",
        "[true, true, true, true, true, true]"
      ],
      "transaction": {
        "from": "0xe0d6f93151091f24ea09474e9271bd60f2624d99",
        "to": "0x3e19bbee16243f36b331ce550f3ff2685e972944",
        "gas": "0x7a518",
        "value": "0x0",
        "input": "0xda27d1840000000000000000000000000000000000000000000000000000000000000005000000000000000000000000f3c3baacdda6b57f7e45cef18886db8a226e783700000000000000000000000000000000000000000000000000000000000000a00000000000000000000000000000000000000000000000000000000000000180000000000000000000000000000000000000000000000000000000000000026000000000000000000000000000000000000000000000000000000000000000060000000000000000000000000000000000000000000000000000000000009d270000000000000000000000000000000000000000000000000000000000009ce10000000000000000000000000000000000000000000000000000000000009d280000000000000000000000000000000000000000000000000000000000009d350000000000000000000000000000000000000000000000000000000000009d5f0000000000000000000000000000000000000000000000000000000000009d330000000000000000000000000000000000000000000000000000000000000006000000000000000000000000000000000000000000000000002386f26fc10000000000000000000000000000000000000000000000000000002386f26fc10000000000000000000000000000000000000000000000000000002386f26fc10000000000000000000000000000000000000000000000000000002386f26fc10000000000000000000000000000000000000000000000000000002386f26fc10000000000000000000000000000000000000000000000000000002386f26fc100000000000000000000000000000000000000000000000000000000000000000006000000000000000000000000000000000000000000000000000000000000000100000000000000000000000000000000000000000000000000000000000000010000000000000000000000000000000000000000000000000000000000000001000000000000000000000000000000000000000000000000000000000000000100000000000000000000000000000000000000000000000000000000000000010000000000000000000000000000000000000000000000000000000000000001",
        "nonce": "0x102",
        "chainId": "0x14a34"
      },
      "additionalContracts": [],
      "isFixedGasLimit": false
    },
    {
      "hash": "0x83e2920796f832b498a3a44eb574d398394d6602bc7b52ce6b4330ef2b6c516b",
      "transactionType": "CALL",
      "contractName": null,
      "contractAddress": "0x3e19bbee16243f36b331ce550f3ff2685e972944",
      "function": "safeTransferFrom(address,address,uint256)",
      "arguments": [
        "0xE0D6f93151091f24EA09474e9271BD60F2624d99",
        "0xF3C3bAAcDDa6B57f7e45cEF18886Db8a226E7837",
        "5"
      ],
      "transaction": {
        "from": "0xe0d6f93151091f24ea09474e9271bd60f2624d99",
        "to": "0x3e19bbee16243f36b331ce550f3ff2685e972944",
        "gas": "0x1e042",
        "value": "0x0",
        "input": "0x42842e0e000000000000000000000000e0d6f93151091f24ea09474e9271bd60f2624d99000000000000000000000000f3c3baacdda6b57f7e45cef18886db8a226e78370000000000000000000000000000000000000000000000000000000000000005",
        "nonce": "0x103",
        "chainId": "0x14a34"
      },
      "additionalContracts": [],
      "isFixedGasLimit": false
    },
    {
      "hash": "0x0ebd068d9cd1b8a2b45eae305036110d9717e5430645729af0c3a943e1fa0b51",
      "transactionType": "CALL",
      "contractName": null,
      "contractAddress": "0x3e19bbee16243f36b331ce550f3ff2685e972944",
      "function": "mint(uint256)",
      "arguments": [
        "0"
      ],
      "transaction": {
        "from": "0xe0d6f93151091f24ea09474e9271bd60f2624d99",
        "to": "0x3e19bbee16243f36b331ce550f3ff2685e972944",
        "gas": "0x3c71e",
        "value": "0x470de4df820000",
        "input": "0xa0712d680000000000000000000000000000000000000000000000000000000000000000",
        "nonce": "0x104",
        "chainId": "0x14a34"
      },
      "additionalContracts": [],
      "isFixedGasLimit": false
    },
    {
      "hash": "0x7d270f806926093dfe42fa136a131aa373b05680b5a4052511976c5a3d14dcc1",
      "transactionType": "CALL",
      "contractName": null,
      "contractAddress": "0x3e19bbee16243f36b331ce550f3ff2685e972944",
      "function": "setHigherBulkLimits(uint256,bytes32,uint256[],uint256[],bool[])",
      "arguments": [
        "6",
        "0x000000000000000000000000c5531177169b4576553df6d4b4e176d0d7c3c826",
        "[40231, 40161, 40232, 40245, 40287, 40243]",
        "[10000000000000000, 10000000000000000, 10000000000000000, 10000000000000000, 10000000000000000, 10000000000000000]",
        "[true, false, true, true, true, true]"
      ],
      "transaction": {
        "from": "0xe0d6f93151091f24ea09474e9271bd60f2624d99",
        "to": "0x3e19bbee16243f36b331ce550f3ff2685e972944",
        "gas": "0x739a8",
        "value": "0x0",
        "input": "0xda27d1840000000000000000000000000000000000000000000000000000000000000006000000000000000000000000c5531177169b4576553df6d4b4e176d0d7c3c82600000000000000000000000000000000000000000000000000000000000000a00000000000000000000000000000000000000000000000000000000000000180000000000000000000000000000000000000000000000000000000000000026000000000000000000000000000000000000000000000000000000000000000060000000000000000000000000000000000000000000000000000000000009d270000000000000000000000000000000000000000000000000000000000009ce10000000000000000000000000000000000000000000000000000000000009d280000000000000000000000000000000000000000000000000000000000009d350000000000000000000000000000000000000000000000000000000000009d5f0000000000000000000000000000000000000000000000000000000000009d330000000000000000000000000000000000000000000000000000000000000006000000000000000000000000000000000000000000000000002386f26fc10000000000000000000000000000000000000000000000000000002386f26fc10000000000000000000000000000000000000000000000000000002386f26fc10000000000000000000000000000000000000000000000000000002386f26fc10000000000000000000000000000000000000000000000000000002386f26fc10000000000000000000000000000000000000000000000000000002386f26fc100000000000000000000000000000000000000000000000000000000000000000006000000000000000000000000000000000000000000000000000000000000000100000000000000000000000000000000000000000000000000000000000000000000000000000000000000000000000000000000000000000000000000000001000000000000000000000000000000000000000000000000000000000000000100000000000000000000000000000000000000000000000000000000000000010000000000000000000000000000000000000000000000000000000000000001",
        "nonce": "0x105",
        "chainId": "0x14a34"
      },
      "additionalContracts": [],
      "isFixedGasLimit": false
    },
    {
      "hash": "0xe76c032a3567d92096a30a9d5b2f34fb0f88757d04adedebee8e9060567a7008",
      "transactionType": "CALL",
      "contractName": null,
      "contractAddress": "0x3e19bbee16243f36b331ce550f3ff2685e972944",
      "function": "safeTransferFrom(address,address,uint256)",
      "arguments": [
        "0xE0D6f93151091f24EA09474e9271BD60F2624d99",
        "0xC5531177169b4576553Df6d4B4e176d0d7C3C826",
        "6"
      ],
      "transaction": {
        "from": "0xe0d6f93151091f24ea09474e9271bd60f2624d99",
        "to": "0x3e19bbee16243f36b331ce550f3ff2685e972944",
        "gas": "0x1e042",
        "value": "0x0",
        "input": "0x42842e0e000000000000000000000000e0d6f93151091f24ea09474e9271bd60f2624d99000000000000000000000000c5531177169b4576553df6d4b4e176d0d7c3c8260000000000000000000000000000000000000000000000000000000000000006",
        "nonce": "0x106",
        "chainId": "0x14a34"
      },
      "additionalContracts": [],
      "isFixedGasLimit": false
    },
    {
      "hash": "0x2199a0e8be95f7f2bdb9feddf746614f811598cfea603b6257c6e4e13ae91bc9",
      "transactionType": "CALL",
      "contractName": null,
      "contractAddress": "0x3e19bbee16243f36b331ce550f3ff2685e972944",
      "function": "mint(uint256)",
      "arguments": [
        "0"
      ],
      "transaction": {
        "from": "0xe0d6f93151091f24ea09474e9271bd60f2624d99",
        "to": "0x3e19bbee16243f36b331ce550f3ff2685e972944",
        "gas": "0x3c71e",
        "value": "0x470de4df820000",
        "input": "0xa0712d680000000000000000000000000000000000000000000000000000000000000000",
        "nonce": "0x107",
        "chainId": "0x14a34"
      },
      "additionalContracts": [],
      "isFixedGasLimit": false
    },
    {
      "hash": "0xb334218b20115bb43e49c5495074906a084d42b8a07019272bb1464ef7c3890a",
      "transactionType": "CALL",
      "contractName": null,
      "contractAddress": "0x3e19bbee16243f36b331ce550f3ff2685e972944",
      "function": "setHigherBulkLimits(uint256,bytes32,uint256[],uint256[],bool[])",
      "arguments": [
        "7",
        "0x000000000000000000000000718648c8c531f91b528a7757dd2be813c3940608",
        "[40231, 40161, 40232, 40245, 40287, 40243]",
        "[10000000000000000, 10000000000000000, 10000000000000000, 10000000000000000, 10000000000000000, 10000000000000000]",
        "[true, true, true, true, true, true]"
      ],
      "transaction": {
        "from": "0xe0d6f93151091f24ea09474e9271bd60f2624d99",
        "to": "0x3e19bbee16243f36b331ce550f3ff2685e972944",
        "gas": "0x7a518",
        "value": "0x0",
        "input": "0xda27d1840000000000000000000000000000000000000000000000000000000000000007000000000000000000000000718648c8c531f91b528a7757dd2be813c394060800000000000000000000000000000000000000000000000000000000000000a00000000000000000000000000000000000000000000000000000000000000180000000000000000000000000000000000000000000000000000000000000026000000000000000000000000000000000000000000000000000000000000000060000000000000000000000000000000000000000000000000000000000009d270000000000000000000000000000000000000000000000000000000000009ce10000000000000000000000000000000000000000000000000000000000009d280000000000000000000000000000000000000000000000000000000000009d350000000000000000000000000000000000000000000000000000000000009d5f0000000000000000000000000000000000000000000000000000000000009d330000000000000000000000000000000000000000000000000000000000000006000000000000000000000000000000000000000000000000002386f26fc10000000000000000000000000000000000000000000000000000002386f26fc10000000000000000000000000000000000000000000000000000002386f26fc10000000000000000000000000000000000000000000000000000002386f26fc10000000000000000000000000000000000000000000000000000002386f26fc10000000000000000000000000000000000000000000000000000002386f26fc100000000000000000000000000000000000000000000000000000000000000000006000000000000000000000000000000000000000000000000000000000000000100000000000000000000000000000000000000000000000000000000000000010000000000000000000000000000000000000000000000000000000000000001000000000000000000000000000000000000000000000000000000000000000100000000000000000000000000000000000000000000000000000000000000010000000000000000000000000000000000000000000000000000000000000001",
        "nonce": "0x108",
        "chainId": "0x14a34"
      },
      "additionalContracts": [],
      "isFixedGasLimit": false
    },
    {
      "hash": "0xfa6ba74a33e8f7d3f31114649bdabfcecb1feda59d2ac18f71b622c3c8a4177e",
      "transactionType": "CALL",
      "contractName": null,
      "contractAddress": "0x3e19bbee16243f36b331ce550f3ff2685e972944",
      "function": "safeTransferFrom(address,address,uint256)",
      "arguments": [
        "0xE0D6f93151091f24EA09474e9271BD60F2624d99",
        "0x718648C8c531F91b528A7757dD2bE813c3940608",
        "7"
      ],
      "transaction": {
        "from": "0xe0d6f93151091f24ea09474e9271bd60f2624d99",
        "to": "0x3e19bbee16243f36b331ce550f3ff2685e972944",
        "gas": "0x1e042",
        "value": "0x0",
        "input": "0x42842e0e000000000000000000000000e0d6f93151091f24ea09474e9271bd60f2624d99000000000000000000000000718648c8c531f91b528a7757dd2be813c39406080000000000000000000000000000000000000000000000000000000000000007",
        "nonce": "0x109",
        "chainId": "0x14a34"
      },
      "additionalContracts": [],
      "isFixedGasLimit": false
    },
    {
      "hash": "0x4265d0804d2990ca93520953e30c7ce6269b79b0b0a427b05e4a50de41fa2f47",
      "transactionType": "CALL",
      "contractName": null,
      "contractAddress": "0x3e19bbee16243f36b331ce550f3ff2685e972944",
      "function": "mint(uint256)",
      "arguments": [
        "0"
      ],
      "transaction": {
        "from": "0xe0d6f93151091f24ea09474e9271bd60f2624d99",
        "to": "0x3e19bbee16243f36b331ce550f3ff2685e972944",
        "gas": "0x3c71e",
        "value": "0x470de4df820000",
        "input": "0xa0712d680000000000000000000000000000000000000000000000000000000000000000",
        "nonce": "0x10a",
        "chainId": "0x14a34"
      },
      "additionalContracts": [],
      "isFixedGasLimit": false
    },
    {
      "hash": "0x597b02bbedb5c2e81bb645b25df831fbcdf695f72472d0b06b9c3ec505d0db56",
      "transactionType": "CALL",
      "contractName": null,
      "contractAddress": "0x3e19bbee16243f36b331ce550f3ff2685e972944",
      "function": "setHigherBulkLimits(uint256,bytes32,uint256[],uint256[],bool[])",
      "arguments": [
        "8",
        "0x00000000000000000000000008af3dcb58e47ec8db189cbc564f15cd9e1e9cab",
        "[40231, 40161, 40232, 40245, 40287, 40243]",
        "[10000000000000000, 10000000000000000, 10000000000000000, 10000000000000000, 10000000000000000, 10000000000000000]",
        "[true, false, true, true, true, true]"
      ],
      "transaction": {
        "from": "0xe0d6f93151091f24ea09474e9271bd60f2624d99",
        "to": "0x3e19bbee16243f36b331ce550f3ff2685e972944",
        "gas": "0x739a8",
        "value": "0x0",
        "input": "0xda27d184000000000000000000000000000000000000000000000000000000000000000800000000000000000000000008af3dcb58e47ec8db189cbc564f15cd9e1e9cab00000000000000000000000000000000000000000000000000000000000000a00000000000000000000000000000000000000000000000000000000000000180000000000000000000000000000000000000000000000000000000000000026000000000000000000000000000000000000000000000000000000000000000060000000000000000000000000000000000000000000000000000000000009d270000000000000000000000000000000000000000000000000000000000009ce10000000000000000000000000000000000000000000000000000000000009d280000000000000000000000000000000000000000000000000000000000009d350000000000000000000000000000000000000000000000000000000000009d5f0000000000000000000000000000000000000000000000000000000000009d330000000000000000000000000000000000000000000000000000000000000006000000000000000000000000000000000000000000000000002386f26fc10000000000000000000000000000000000000000000000000000002386f26fc10000000000000000000000000000000000000000000000000000002386f26fc10000000000000000000000000000000000000000000000000000002386f26fc10000000000000000000000000000000000000000000000000000002386f26fc10000000000000000000000000000000000000000000000000000002386f26fc100000000000000000000000000000000000000000000000000000000000000000006000000000000000000000000000000000000000000000000000000000000000100000000000000000000000000000000000000000000000000000000000000000000000000000000000000000000000000000000000000000000000000000001000000000000000000000000000000000000000000000000000000000000000100000000000000000000000000000000000000000000000000000000000000010000000000000000000000000000000000000000000000000000000000000001",
        "nonce": "0x10b",
        "chainId": "0x14a34"
      },
      "additionalContracts": [],
      "isFixedGasLimit": false
    },
    {
      "hash": "0xfb5599bcd74213168605298052757e5f2eebffc019a55b9096c6b9a925836f56",
      "transactionType": "CALL",
      "contractName": null,
      "contractAddress": "0x3e19bbee16243f36b331ce550f3ff2685e972944",
      "function": "safeTransferFrom(address,address,uint256)",
      "arguments": [
        "0xE0D6f93151091f24EA09474e9271BD60F2624d99",
        "0x08Af3DCb58e47Ec8DB189cBc564F15cD9e1E9cAb",
        "8"
      ],
      "transaction": {
        "from": "0xe0d6f93151091f24ea09474e9271bd60f2624d99",
        "to": "0x3e19bbee16243f36b331ce550f3ff2685e972944",
        "gas": "0x1e042",
        "value": "0x0",
        "input": "0x42842e0e000000000000000000000000e0d6f93151091f24ea09474e9271bd60f2624d9900000000000000000000000008af3dcb58e47ec8db189cbc564f15cd9e1e9cab0000000000000000000000000000000000000000000000000000000000000008",
        "nonce": "0x10c",
        "chainId": "0x14a34"
      },
      "additionalContracts": [],
      "isFixedGasLimit": false
    },
    {
      "hash": "0x16a34725b2080822be693ba550163634b6f68930303f4e9b61c433b8fdf49c0e",
      "transactionType": "CALL",
      "contractName": null,
      "contractAddress": "0x3e19bbee16243f36b331ce550f3ff2685e972944",
      "function": "mint(uint256)",
      "arguments": [
        "0"
      ],
      "transaction": {
        "from": "0xe0d6f93151091f24ea09474e9271bd60f2624d99",
        "to": "0x3e19bbee16243f36b331ce550f3ff2685e972944",
        "gas": "0x3c71e",
        "value": "0x470de4df820000",
        "input": "0xa0712d680000000000000000000000000000000000000000000000000000000000000000",
        "nonce": "0x10d",
        "chainId": "0x14a34"
      },
      "additionalContracts": [],
      "isFixedGasLimit": false
    },
    {
      "hash": "0xff6a9d997fda7fabb5c701b6e2ad5d54e075260e04e59fb0cb3d8874d3c825a7",
      "transactionType": "CALL",
      "contractName": null,
      "contractAddress": "0x3e19bbee16243f36b331ce550f3ff2685e972944",
      "function": "setHigherBulkLimits(uint256,bytes32,uint256[],uint256[],bool[])",
      "arguments": [
        "9",
        "0x000000000000000000000000dded85de258cc7a33a61bc6215dd766e87a97070",
        "[40231, 40161, 40232, 40245, 40287, 40243]",
        "[10000000000000000, 10000000000000000, 10000000000000000, 10000000000000000, 10000000000000000, 10000000000000000]",
        "[true, false, true, true, true, true]"
      ],
      "transaction": {
        "from": "0xe0d6f93151091f24ea09474e9271bd60f2624d99",
        "to": "0x3e19bbee16243f36b331ce550f3ff2685e972944",
        "gas": "0x739a8",
        "value": "0x0",
        "input": "0xda27d1840000000000000000000000000000000000000000000000000000000000000009000000000000000000000000dded85de258cc7a33a61bc6215dd766e87a9707000000000000000000000000000000000000000000000000000000000000000a00000000000000000000000000000000000000000000000000000000000000180000000000000000000000000000000000000000000000000000000000000026000000000000000000000000000000000000000000000000000000000000000060000000000000000000000000000000000000000000000000000000000009d270000000000000000000000000000000000000000000000000000000000009ce10000000000000000000000000000000000000000000000000000000000009d280000000000000000000000000000000000000000000000000000000000009d350000000000000000000000000000000000000000000000000000000000009d5f0000000000000000000000000000000000000000000000000000000000009d330000000000000000000000000000000000000000000000000000000000000006000000000000000000000000000000000000000000000000002386f26fc10000000000000000000000000000000000000000000000000000002386f26fc10000000000000000000000000000000000000000000000000000002386f26fc10000000000000000000000000000000000000000000000000000002386f26fc10000000000000000000000000000000000000000000000000000002386f26fc10000000000000000000000000000000000000000000000000000002386f26fc100000000000000000000000000000000000000000000000000000000000000000006000000000000000000000000000000000000000000000000000000000000000100000000000000000000000000000000000000000000000000000000000000000000000000000000000000000000000000000000000000000000000000000001000000000000000000000000000000000000000000000000000000000000000100000000000000000000000000000000000000000000000000000000000000010000000000000000000000000000000000000000000000000000000000000001",
        "nonce": "0x10e",
        "chainId": "0x14a34"
      },
      "additionalContracts": [],
      "isFixedGasLimit": false
    },
    {
      "hash": "0x423d50bf6bee631f97767208525f5fc99d4f8e62a197743810cf43500042f2b8",
      "transactionType": "CALL",
      "contractName": null,
      "contractAddress": "0x3e19bbee16243f36b331ce550f3ff2685e972944",
      "function": "safeTransferFrom(address,address,uint256)",
      "arguments": [
        "0xE0D6f93151091f24EA09474e9271BD60F2624d99",
        "0xddED85de258cC7a33A61BC6215DD766E87a97070",
        "9"
      ],
      "transaction": {
        "from": "0xe0d6f93151091f24ea09474e9271bd60f2624d99",
        "to": "0x3e19bbee16243f36b331ce550f3ff2685e972944",
        "gas": "0x1e042",
        "value": "0x0",
        "input": "0x42842e0e000000000000000000000000e0d6f93151091f24ea09474e9271bd60f2624d99000000000000000000000000dded85de258cc7a33a61bc6215dd766e87a970700000000000000000000000000000000000000000000000000000000000000009",
        "nonce": "0x10f",
        "chainId": "0x14a34"
      },
      "additionalContracts": [],
      "isFixedGasLimit": false
    }
  ],
  "receipts": [
    {
      "status": "0x1",
      "cumulativeGasUsed": "0x63605",
      "logs": [
        {
          "address": "0x3e19bbee16243f36b331ce550f3ff2685e972944",
          "topics": [
            "0xddf252ad1be2c89b69c2b068fc378daa952ba7f163c4a11628f55a4df523b3ef",
            "0x0000000000000000000000000000000000000000000000000000000000000000",
            "0x000000000000000000000000e0d6f93151091f24ea09474e9271bd60f2624d99",
            "0x0000000000000000000000000000000000000000000000000000000000000005"
          ],
          "data": "0x",
          "blockHash": "0x131c02392b6901412f543365892ccc273c55fb5e775f9127f5da0e5b51aacd50",
          "blockNumber": "0xe9b98f",
          "transactionHash": "0xe7e1ed5dcfb556cf04bb6f44af86f63bcc5e771add3957035e663f4c47bf68e1",
          "transactionIndex": "0x3",
          "logIndex": "0x1",
          "removed": false
        }
      ],
      "logsBloom": "0x00000000000000000000000000000000000000000000000400000000000000000000000000000000000000000000000000000000000000000000000000000000000010000000000000000008000000000000000000000000000000000000000000000000020000000000000400000800000000000000000000002110000000000000000000000000000000000000001000000800000000000000000000000000000000000000000000000000000000000000000000000000000000000000000000000202000000000000000000000000000000000000000000000000004020000000000000000000000000000000000000000000000000000000000000000000",
      "type": "0x2",
      "transactionHash": "0xe7e1ed5dcfb556cf04bb6f44af86f63bcc5e771add3957035e663f4c47bf68e1",
      "transactionIndex": "0x3",
      "blockHash": "0x131c02392b6901412f543365892ccc273c55fb5e775f9127f5da0e5b51aacd50",
      "blockNumber": "0xe9b98f",
      "gasUsed": "0x2bc2e",
      "effectiveGasPrice": "0x41874",
      "from": "0xe0d6f93151091f24ea09474e9271bd60f2624d99",
      "to": "0x3e19bbee16243f36b331ce550f3ff2685e972944",
      "contractAddress": null,
      "l1BaseFeeScalar": "0x44d",
      "l1BlobBaseFee": "0x1",
      "l1BlobBaseFeeScalar": "0xa118b",
      "l1Fee": "0xd8563085",
      "l1GasPrice": "0x7ace9272",
      "l1GasUsed": "0x640"
    },
    {
      "status": "0x1",
      "cumulativeGasUsed": "0xbbeec",
      "logs": [],
      "logsBloom": "0x00000000000000000000000000000000000000000000000000000000000000000000000000000000000000000000000000000000000000000000000000000000000000000000000000000000000000000000000000000000000000000000000000000000000000000000000000000000000000000000000000000000000000000000000000000000000000000000000000000000000000000000000000000000000000000000000000000000000000000000000000000000000000000000000000000000000000000000000000000000000000000000000000000000000000000000000000000000000000000000000000000000000000000000000000000000",
      "type": "0x2",
      "transactionHash": "0x917b5df7750ffff24aafbb9497754b0651fa06b092f16eb218455ba04cee8273",
      "transactionIndex": "0x4",
      "blockHash": "0x131c02392b6901412f543365892ccc273c55fb5e775f9127f5da0e5b51aacd50",
      "blockNumber": "0xe9b98f",
      "gasUsed": "0x588e7",
      "effectiveGasPrice": "0x41874",
      "from": "0xe0d6f93151091f24ea09474e9271bd60f2624d99",
      "to": "0x3e19bbee16243f36b331ce550f3ff2685e972944",
      "contractAddress": null,
      "l1BaseFeeScalar": "0x44d",
      "l1BlobBaseFee": "0x1",
      "l1BlobBaseFeeScalar": "0xa118b",
      "l1Fee": "0x1a231dee2",
      "l1GasPrice": "0x7ace9272",
      "l1GasUsed": "0xc14"
    },
    {
      "status": "0x1",
      "cumulativeGasUsed": "0x71e08",
      "logs": [
        {
          "address": "0x3e19bbee16243f36b331ce550f3ff2685e972944",
          "topics": [
            "0xddf252ad1be2c89b69c2b068fc378daa952ba7f163c4a11628f55a4df523b3ef",
            "0x000000000000000000000000e0d6f93151091f24ea09474e9271bd60f2624d99",
            "0x000000000000000000000000f3c3baacdda6b57f7e45cef18886db8a226e7837",
            "0x0000000000000000000000000000000000000000000000000000000000000005"
          ],
          "data": "0x",
          "blockHash": "0xccb491a39ed1ca60676390d08193899864c11427e51a472267d805ded6f232ad",
          "blockNumber": "0xe9b990",
          "transactionHash": "0x83e2920796f832b498a3a44eb574d398394d6602bc7b52ce6b4330ef2b6c516b",
          "transactionIndex": "0x5",
          "logIndex": "0x3",
          "removed": false
        }
      ],
      "logsBloom": "0x00000000000000000000000000000000000000000000000400020000000000000000000000000000000000000000000000000000000000000000000000000000000010000000000000000008000000000000000000000000000000000000000000000000000000000000000400000000000000000000080000002110000000000000000000000000000000000000001000000800000000000000000000000000000000000000000000000000000000000000000000000000000000000000000000000202000000000000000000000000000000000000000000000000004000000000000000000000000000000000000000000000000000000000010000000000",
      "type": "0x2",
      "transactionHash": "0x83e2920796f832b498a3a44eb574d398394d6602bc7b52ce6b4330ef2b6c516b",
      "transactionIndex": "0x5",
      "blockHash": "0xccb491a39ed1ca60676390d08193899864c11427e51a472267d805ded6f232ad",
      "blockNumber": "0xe9b990",
      "gasUsed": "0x14862",
      "effectiveGasPrice": "0x415ea",
      "from": "0xe0d6f93151091f24ea09474e9271bd60f2624d99",
      "to": "0x3e19bbee16243f36b331ce550f3ff2685e972944",
      "contractAddress": null,
      "l1BaseFeeScalar": "0x44d",
      "l1BlobBaseFee": "0x1",
      "l1BlobBaseFeeScalar": "0xa118b",
      "l1Fee": "0xe5fd94bf",
      "l1GasPrice": "0x7ace9272",
      "l1GasUsed": "0x6a4"
    },
    {
      "status": "0x1",
      "cumulativeGasUsed": "0x9da36",
      "logs": [
        {
          "address": "0x3e19bbee16243f36b331ce550f3ff2685e972944",
          "topics": [
            "0xddf252ad1be2c89b69c2b068fc378daa952ba7f163c4a11628f55a4df523b3ef",
            "0x0000000000000000000000000000000000000000000000000000000000000000",
            "0x000000000000000000000000e0d6f93151091f24ea09474e9271bd60f2624d99",
            "0x0000000000000000000000000000000000000000000000000000000000000006"
          ],
          "data": "0x",
          "blockHash": "0xccb491a39ed1ca60676390d08193899864c11427e51a472267d805ded6f232ad",
          "blockNumber": "0xe9b990",
          "transactionHash": "0x0ebd068d9cd1b8a2b45eae305036110d9717e5430645729af0c3a943e1fa0b51",
          "transactionIndex": "0x6",
          "logIndex": "0x4",
          "removed": false
        }
      ],
      "logsBloom": "0x00000000000000000000000000000000000000000000000400000000000000000000000000000000000000000000000000000000000400000000000000000000000000000000000000000008000000000000000000000000000000000000000000000000020000000000000400000800000000000000000000002110000000000000000400000000000000000000000000000000000000000000000000000000000000000000000000000000000000000000000000000000000000080000000000000202000000000000000000000000000000000000000000000000004020000000000000000000000000000000000000000000000000000000000000000000",
      "type": "0x2",
      "transactionHash": "0x0ebd068d9cd1b8a2b45eae305036110d9717e5430645729af0c3a943e1fa0b51",
      "transactionIndex": "0x6",
      "blockHash": "0xccb491a39ed1ca60676390d08193899864c11427e51a472267d805ded6f232ad",
      "blockNumber": "0xe9b990",
      "gasUsed": "0x2bc2e",
      "effectiveGasPrice": "0x415ea",
      "from": "0xe0d6f93151091f24ea09474e9271bd60f2624d99",
      "to": "0x3e19bbee16243f36b331ce550f3ff2685e972944",
      "contractAddress": null,
      "l1BaseFeeScalar": "0x44d",
      "l1BlobBaseFee": "0x1",
      "l1BlobBaseFeeScalar": "0xa118b",
      "l1Fee": "0xd8563085",
      "l1GasPrice": "0x7ace9272",
      "l1GasUsed": "0x640"
    },
    {
      "status": "0x1",
      "cumulativeGasUsed": "0xf1555",
      "logs": [],
      "logsBloom": "0x00000000000000000000000000000000000000000000000000000000000000000000000000000000000000000000000000000000000000000000000000000000000000000000000000000000000000000000000000000000000000000000000000000000000000000000000000000000000000000000000000000000000000000000000000000000000000000000000000000000000000000000000000000000000000000000000000000000000000000000000000000000000000000000000000000000000000000000000000000000000000000000000000000000000000000000000000000000000000000000000000000000000000000000000000000000",
      "type": "0x2",
      "transactionHash": "0x7d270f806926093dfe42fa136a131aa373b05680b5a4052511976c5a3d14dcc1",
      "transactionIndex": "0x7",
      "blockHash": "0xccb491a39ed1ca60676390d08193899864c11427e51a472267d805ded6f232ad",
      "blockNumber": "0xe9b990",
      "gasUsed": "0x53b1f",
      "effectiveGasPrice": "0x415ea",
      "from": "0xe0d6f93151091f24ea09474e9271bd60f2624d99",
      "to": "0x3e19bbee16243f36b331ce550f3ff2685e972944",
      "contractAddress": null,
      "l1BaseFeeScalar": "0x44d",
      "l1BlobBaseFee": "0x1",
      "l1BlobBaseFeeScalar": "0xa118b",
      "l1Fee": "0x1a4012485",
      "l1GasPrice": "0x7ace9272",
      "l1GasUsed": "0xc22"
    },
    {
      "status": "0x1",
      "cumulativeGasUsed": "0x105db7",
      "logs": [
        {
          "address": "0x3e19bbee16243f36b331ce550f3ff2685e972944",
          "topics": [
            "0xddf252ad1be2c89b69c2b068fc378daa952ba7f163c4a11628f55a4df523b3ef",
            "0x000000000000000000000000e0d6f93151091f24ea09474e9271bd60f2624d99",
            "0x000000000000000000000000c5531177169b4576553df6d4b4e176d0d7c3c826",
            "0x0000000000000000000000000000000000000000000000000000000000000006"
          ],
          "data": "0x",
          "blockHash": "0xccb491a39ed1ca60676390d08193899864c11427e51a472267d805ded6f232ad",
          "blockNumber": "0xe9b990",
          "transactionHash": "0xe76c032a3567d92096a30a9d5b2f34fb0f88757d04adedebee8e9060567a7008",
          "transactionIndex": "0x8",
          "logIndex": "0x5",
          "removed": false
        }
      ],
      "logsBloom": "0x00000000000000000000000000000000000000000000000400000000000000000000000000000000000000000000000000000000000400000000000000000000000000000000000000000008000000000000000000000000000000004000000000000000000000000000000400000000000000000000000000002110000000000000000400000000000000000000000000000000000000000008000000000000000000000000000000000000000000000000000000000000000000080000000000000202000000000000000000000000000000000000000000000000004000000020000000000000000000000000000000000000000000000000000000000000",
      "type": "0x2",
      "transactionHash": "0xe76c032a3567d92096a30a9d5b2f34fb0f88757d04adedebee8e9060567a7008",
      "transactionIndex": "0x8",
      "blockHash": "0xccb491a39ed1ca60676390d08193899864c11427e51a472267d805ded6f232ad",
      "blockNumber": "0xe9b990",
      "gasUsed": "0x14862",
      "effectiveGasPrice": "0x415ea",
      "from": "0xe0d6f93151091f24ea09474e9271bd60f2624d99",
      "to": "0x3e19bbee16243f36b331ce550f3ff2685e972944",
      "contractAddress": null,
      "l1BaseFeeScalar": "0x44d",
      "l1BlobBaseFee": "0x1",
      "l1BlobBaseFeeScalar": "0xa118b",
      "l1Fee": "0xe5fd94bf",
      "l1GasPrice": "0x7ace9272",
      "l1GasUsed": "0x6a4"
    },
    {
      "status": "0x1",
      "cumulativeGasUsed": "0x1319e5",
      "logs": [
        {
          "address": "0x3e19bbee16243f36b331ce550f3ff2685e972944",
          "topics": [
            "0xddf252ad1be2c89b69c2b068fc378daa952ba7f163c4a11628f55a4df523b3ef",
            "0x0000000000000000000000000000000000000000000000000000000000000000",
            "0x000000000000000000000000e0d6f93151091f24ea09474e9271bd60f2624d99",
            "0x0000000000000000000000000000000000000000000000000000000000000007"
          ],
          "data": "0x",
          "blockHash": "0xccb491a39ed1ca60676390d08193899864c11427e51a472267d805ded6f232ad",
          "blockNumber": "0xe9b990",
          "transactionHash": "0x2199a0e8be95f7f2bdb9feddf746614f811598cfea603b6257c6e4e13ae91bc9",
          "transactionIndex": "0x9",
          "logIndex": "0x6",
          "removed": false
        }
      ],
      "logsBloom": "0x00000000000000000000000000000000000000000000000400000000000000000000000000000000000000000000000000001000000000000000000000000000000020000000000000000008000000000000000000000000000000000000000000000000020000000000000400000800000000000000000000002110000000000000000000000000000000000000000000000000000000000000000000000000000000000000000000000000000000000000000000000000000000000000000000000202000000000000000000000000000000000000000000000100004020000000000000000000000000000000000000000000000000000000000000000000",
      "type": "0x2",
      "transactionHash": "0x2199a0e8be95f7f2bdb9feddf746614f811598cfea603b6257c6e4e13ae91bc9",
      "transactionIndex": "0x9",
      "blockHash": "0xccb491a39ed1ca60676390d08193899864c11427e51a472267d805ded6f232ad",
      "blockNumber": "0xe9b990",
      "gasUsed": "0x2bc2e",
      "effectiveGasPrice": "0x415ea",
      "from": "0xe0d6f93151091f24ea09474e9271bd60f2624d99",
      "to": "0x3e19bbee16243f36b331ce550f3ff2685e972944",
      "contractAddress": null,
      "l1BaseFeeScalar": "0x44d",
      "l1BlobBaseFee": "0x1",
      "l1BlobBaseFeeScalar": "0xa118b",
      "l1Fee": "0xd8563085",
      "l1GasPrice": "0x7ace9272",
      "l1GasUsed": "0x640"
    },
    {
      "status": "0x1",
      "cumulativeGasUsed": "0x18a2cc",
      "logs": [],
      "logsBloom": "0x00000000000000000000000000000000000000000000000000000000000000000000000000000000000000000000000000000000000000000000000000000000000000000000000000000000000000000000000000000000000000000000000000000000000000000000000000000000000000000000000000000000000000000000000000000000000000000000000000000000000000000000000000000000000000000000000000000000000000000000000000000000000000000000000000000000000000000000000000000000000000000000000000000000000000000000000000000000000000000000000000000000000000000000000000000000",
      "type": "0x2",
      "transactionHash": "0xb334218b20115bb43e49c5495074906a084d42b8a07019272bb1464ef7c3890a",
      "transactionIndex": "0xa",
      "blockHash": "0xccb491a39ed1ca60676390d08193899864c11427e51a472267d805ded6f232ad",
      "blockNumber": "0xe9b990",
      "gasUsed": "0x588e7",
      "effectiveGasPrice": "0x415ea",
      "from": "0xe0d6f93151091f24ea09474e9271bd60f2624d99",
      "to": "0x3e19bbee16243f36b331ce550f3ff2685e972944",
      "contractAddress": null,
      "l1BaseFeeScalar": "0x44d",
      "l1BlobBaseFee": "0x1",
      "l1BlobBaseFeeScalar": "0xa118b",
      "l1Fee": "0x1a231dee2",
      "l1GasPrice": "0x7ace9272",
      "l1GasUsed": "0xc14"
    },
    {
      "status": "0x1",
      "cumulativeGasUsed": "0x19eb2e",
      "logs": [
        {
          "address": "0x3e19bbee16243f36b331ce550f3ff2685e972944",
          "topics": [
            "0xddf252ad1be2c89b69c2b068fc378daa952ba7f163c4a11628f55a4df523b3ef",
            "0x000000000000000000000000e0d6f93151091f24ea09474e9271bd60f2624d99",
            "0x000000000000000000000000718648c8c531f91b528a7757dd2be813c3940608",
            "0x0000000000000000000000000000000000000000000000000000000000000007"
          ],
          "data": "0x",
          "blockHash": "0xccb491a39ed1ca60676390d08193899864c11427e51a472267d805ded6f232ad",
          "blockNumber": "0xe9b990",
          "transactionHash": "0xfa6ba74a33e8f7d3f31114649bdabfcecb1feda59d2ac18f71b622c3c8a4177e",
          "transactionIndex": "0xb",
          "logIndex": "0x7",
          "removed": false
        }
      ],
      "logsBloom": "0x00000000020000000000000000000000000000000000000400000000000000000000000000000000000000000000000000001000000000000000000000000000000020000000000000800008000000020000000000000000000000000000000000000000000000000000000400000000000000000000000000002110000000000000000000000000000000000000000000000000000000000000000000000000000000000000000000000000000000000000000000000000000000000000000000000202000000000000000000000000000000000000000000000100004000000000000000000000000000000000000000000000000000000000000000000000",
      "type": "0x2",
      "transactionHash": "0xfa6ba74a33e8f7d3f31114649bdabfcecb1feda59d2ac18f71b622c3c8a4177e",
      "transactionIndex": "0xb",
      "blockHash": "0xccb491a39ed1ca60676390d08193899864c11427e51a472267d805ded6f232ad",
      "blockNumber": "0xe9b990",
      "gasUsed": "0x14862",
      "effectiveGasPrice": "0x415ea",
      "from": "0xe0d6f93151091f24ea09474e9271bd60f2624d99",
      "to": "0x3e19bbee16243f36b331ce550f3ff2685e972944",
      "contractAddress": null,
      "l1BaseFeeScalar": "0x44d",
      "l1BlobBaseFee": "0x1",
      "l1BlobBaseFeeScalar": "0xa118b",
      "l1Fee": "0xe5fd94bf",
      "l1GasPrice": "0x7ace9272",
      "l1GasUsed": "0x6a4"
    },
    {
      "status": "0x1",
      "cumulativeGasUsed": "0x1ca75c",
      "logs": [
        {
          "address": "0x3e19bbee16243f36b331ce550f3ff2685e972944",
          "topics": [
            "0xddf252ad1be2c89b69c2b068fc378daa952ba7f163c4a11628f55a4df523b3ef",
            "0x0000000000000000000000000000000000000000000000000000000000000000",
            "0x000000000000000000000000e0d6f93151091f24ea09474e9271bd60f2624d99",
            "0x0000000000000000000000000000000000000000000000000000000000000008"
          ],
          "data": "0x",
          "blockHash": "0xccb491a39ed1ca60676390d08193899864c11427e51a472267d805ded6f232ad",
          "blockNumber": "0xe9b990",
          "transactionHash": "0x4265d0804d2990ca93520953e30c7ce6269b79b0b0a427b05e4a50de41fa2f47",
          "transactionIndex": "0xc",
          "logIndex": "0x8",
          "removed": false
        }
      ],
      "logsBloom": "0x00000000000000000000000000000000000000000000000400000000000000000000000000000000000000000000000000000000000080000000000000000000000000000000000000000008000000000000000000000000000000000000000000000000020000000000000400000800000000000000000000002110000000000080000000000000000000000000000000000000000000000000000000000000000000000000000000000000000000000000000000000000000000000000000040000202000000000000000000000000000000000000000000000000004020000000000000000000000000000000000000000000000000000000000000000000",
      "type": "0x2",
      "transactionHash": "0x4265d0804d2990ca93520953e30c7ce6269b79b0b0a427b05e4a50de41fa2f47",
      "transactionIndex": "0xc",
      "blockHash": "0xccb491a39ed1ca60676390d08193899864c11427e51a472267d805ded6f232ad",
      "blockNumber": "0xe9b990",
      "gasUsed": "0x2bc2e",
      "effectiveGasPrice": "0x415ea",
      "from": "0xe0d6f93151091f24ea09474e9271bd60f2624d99",
      "to": "0x3e19bbee16243f36b331ce550f3ff2685e972944",
      "contractAddress": null,
      "l1BaseFeeScalar": "0x44d",
      "l1BlobBaseFee": "0x1",
      "l1BlobBaseFeeScalar": "0xa118b",
      "l1Fee": "0xd8563085",
      "l1GasPrice": "0x7ace9272",
      "l1GasUsed": "0x640"
    },
    {
      "status": "0x1",
      "cumulativeGasUsed": "0x21e27b",
      "logs": [],
      "logsBloom": "0x00000000000000000000000000000000000000000000000000000000000000000000000000000000000000000000000000000000000000000000000000000000000000000000000000000000000000000000000000000000000000000000000000000000000000000000000000000000000000000000000000000000000000000000000000000000000000000000000000000000000000000000000000000000000000000000000000000000000000000000000000000000000000000000000000000000000000000000000000000000000000000000000000000000000000000000000000000000000000000000000000000000000000000000000000000000",
      "type": "0x2",
      "transactionHash": "0x597b02bbedb5c2e81bb645b25df831fbcdf695f72472d0b06b9c3ec505d0db56",
      "transactionIndex": "0xd",
      "blockHash": "0xccb491a39ed1ca60676390d08193899864c11427e51a472267d805ded6f232ad",
      "blockNumber": "0xe9b990",
      "gasUsed": "0x53b1f",
      "effectiveGasPrice": "0x415ea",
      "from": "0xe0d6f93151091f24ea09474e9271bd60f2624d99",
      "to": "0x3e19bbee16243f36b331ce550f3ff2685e972944",
      "contractAddress": null,
      "l1BaseFeeScalar": "0x44d",
      "l1BlobBaseFee": "0x1",
      "l1BlobBaseFeeScalar": "0xa118b",
      "l1Fee": "0x1a79fafcb",
      "l1GasPrice": "0x7ace9272",
      "l1GasUsed": "0xc3d"
    },
    {
      "status": "0x1",
      "cumulativeGasUsed": "0x232add",
      "logs": [
        {
          "address": "0x3e19bbee16243f36b331ce550f3ff2685e972944",
          "topics": [
            "0xddf252ad1be2c89b69c2b068fc378daa952ba7f163c4a11628f55a4df523b3ef",
            "0x000000000000000000000000e0d6f93151091f24ea09474e9271bd60f2624d99",
            "0x00000000000000000000000008af3dcb58e47ec8db189cbc564f15cd9e1e9cab",
            "0x0000000000000000000000000000000000000000000000000000000000000008"
          ],
          "data": "0x",
          "blockHash": "0xccb491a39ed1ca60676390d08193899864c11427e51a472267d805ded6f232ad",
          "blockNumber": "0xe9b990",
          "transactionHash": "0xfb5599bcd74213168605298052757e5f2eebffc019a55b9096c6b9a925836f56",
          "transactionIndex": "0xe",
          "logIndex": "0x9",
          "removed": false
        }
      ],
      "logsBloom": "0x00000000000000000000000000000000000000020000000400000000000000000000200000000000000000000000000000000000000080000000000000000000000000000000000000000008000000000000000000000000000000000000000000000000000000000000000400000000000000000000000000002110000000000080000000000000000000000000000000000000000020000000000000000000000000000000000000000000000000000000000000000000000000000000000040000202000000000000000000000000000000000000000000000000004000000000000000000000000000000000000000000000000000000000000000000000",
      "type": "0x2",
      "transactionHash": "0xfb5599bcd74213168605298052757e5f2eebffc019a55b9096c6b9a925836f56",
      "transactionIndex": "0xe",
      "blockHash": "0xccb491a39ed1ca60676390d08193899864c11427e51a472267d805ded6f232ad",
      "blockNumber": "0xe9b990",
      "gasUsed": "0x14862",
      "effectiveGasPrice": "0x415ea",
      "from": "0xe0d6f93151091f24ea09474e9271bd60f2624d99",
      "to": "0x3e19bbee16243f36b331ce550f3ff2685e972944",
      "contractAddress": null,
      "l1BaseFeeScalar": "0x44d",
      "l1BlobBaseFee": "0x1",
      "l1BlobBaseFeeScalar": "0xa118b",
      "l1Fee": "0xe5fd94bf",
      "l1GasPrice": "0x7ace9272",
      "l1GasUsed": "0x6a4"
    },
    {
      "status": "0x1",
      "cumulativeGasUsed": "0x25e70b",
      "logs": [
        {
          "address": "0x3e19bbee16243f36b331ce550f3ff2685e972944",
          "topics": [
            "0xddf252ad1be2c89b69c2b068fc378daa952ba7f163c4a11628f55a4df523b3ef",
            "0x0000000000000000000000000000000000000000000000000000000000000000",
            "0x000000000000000000000000e0d6f93151091f24ea09474e9271bd60f2624d99",
            "0x0000000000000000000000000000000000000000000000000000000000000009"
          ],
          "data": "0x",
          "blockHash": "0xccb491a39ed1ca60676390d08193899864c11427e51a472267d805ded6f232ad",
          "blockNumber": "0xe9b990",
          "transactionHash": "0x16a34725b2080822be693ba550163634b6f68930303f4e9b61c433b8fdf49c0e",
          "transactionIndex": "0xf",
          "logIndex": "0xa",
          "removed": false
        }
      ],
      "logsBloom": "0x00000000000000000000000000000000000000000000000400000000000000000000000000000000000000000000000000000000000000000000000000200000000000000000000000000008000000000000000000000000000000000000000000000000020000000000000400000800000000000000000000002110000000000000000000000000000000000000000000001000000000000000000000000000000000000000000000000000000000000000000000000000000000000000000000000202000000000000000000000000000000000000000000000000004020000000000000000000000000000000000000000000000000000000000000800000",
      "type": "0x2",
      "transactionHash": "0x16a34725b2080822be693ba550163634b6f68930303f4e9b61c433b8fdf49c0e",
      "transactionIndex": "0xf",
      "blockHash": "0xccb491a39ed1ca60676390d08193899864c11427e51a472267d805ded6f232ad",
      "blockNumber": "0xe9b990",
      "gasUsed": "0x2bc2e",
      "effectiveGasPrice": "0x415ea",
      "from": "0xe0d6f93151091f24ea09474e9271bd60f2624d99",
      "to": "0x3e19bbee16243f36b331ce550f3ff2685e972944",
      "contractAddress": null,
      "l1BaseFeeScalar": "0x44d",
      "l1BlobBaseFee": "0x1",
      "l1BlobBaseFeeScalar": "0xa118b",
      "l1Fee": "0xd8563085",
      "l1GasPrice": "0x7ace9272",
      "l1GasUsed": "0x640"
    },
    {
      "status": "0x1",
      "cumulativeGasUsed": "0x2b222a",
      "logs": [],
      "logsBloom": "0x00000000000000000000000000000000000000000000000000000000000000000000000000000000000000000000000000000000000000000000000000000000000000000000000000000000000000000000000000000000000000000000000000000000000000000000000000000000000000000000000000000000000000000000000000000000000000000000000000000000000000000000000000000000000000000000000000000000000000000000000000000000000000000000000000000000000000000000000000000000000000000000000000000000000000000000000000000000000000000000000000000000000000000000000000000000",
      "type": "0x2",
      "transactionHash": "0xff6a9d997fda7fabb5c701b6e2ad5d54e075260e04e59fb0cb3d8874d3c825a7",
      "transactionIndex": "0x10",
      "blockHash": "0xccb491a39ed1ca60676390d08193899864c11427e51a472267d805ded6f232ad",
      "blockNumber": "0xe9b990",
      "gasUsed": "0x53b1f",
      "effectiveGasPrice": "0x415ea",
      "from": "0xe0d6f93151091f24ea09474e9271bd60f2624d99",
      "to": "0x3e19bbee16243f36b331ce550f3ff2685e972944",
      "contractAddress": null,
      "l1BaseFeeScalar": "0x44d",
      "l1BlobBaseFee": "0x1",
      "l1BlobBaseFeeScalar": "0xa118b",
      "l1Fee": "0x1a79fafcb",
      "l1GasPrice": "0x7ace9272",
      "l1GasUsed": "0xc3d"
    },
    {
      "status": "0x1",
      "cumulativeGasUsed": "0x2c6a8c",
      "logs": [
        {
          "address": "0x3e19bbee16243f36b331ce550f3ff2685e972944",
          "topics": [
            "0xddf252ad1be2c89b69c2b068fc378daa952ba7f163c4a11628f55a4df523b3ef",
            "0x000000000000000000000000e0d6f93151091f24ea09474e9271bd60f2624d99",
            "0x000000000000000000000000dded85de258cc7a33a61bc6215dd766e87a97070",
            "0x0000000000000000000000000000000000000000000000000000000000000009"
          ],
          "data": "0x",
          "blockHash": "0xccb491a39ed1ca60676390d08193899864c11427e51a472267d805ded6f232ad",
          "blockNumber": "0xe9b990",
          "transactionHash": "0x423d50bf6bee631f97767208525f5fc99d4f8e62a197743810cf43500042f2b8",
          "transactionIndex": "0x11",
          "logIndex": "0xb",
          "removed": false
        }
      ],
      "logsBloom": "0x00000000000000000000000000000000000000000000000400000000000000000000000000000000000000000000000000000000000000000020000000200000000000000000000000000008000001000000000000000000000000000000000000000000000000000000000400000000000000000000000000002110000000000000000000000000000000000000000000001000000000000000000000000000000000000000000000000000000000000000000000000000000000000000000000000202000000000000000080000000000000000000000000000000004000000000000000000000000000000000000000000000000000000000000000800000",
      "type": "0x2",
      "transactionHash": "0x423d50bf6bee631f97767208525f5fc99d4f8e62a197743810cf43500042f2b8",
      "transactionIndex": "0x11",
      "blockHash": "0xccb491a39ed1ca60676390d08193899864c11427e51a472267d805ded6f232ad",
      "blockNumber": "0xe9b990",
      "gasUsed": "0x14862",
      "effectiveGasPrice": "0x415ea",
      "from": "0xe0d6f93151091f24ea09474e9271bd60f2624d99",
      "to": "0x3e19bbee16243f36b331ce550f3ff2685e972944",
      "contractAddress": null,
      "l1BaseFeeScalar": "0x44d",
      "l1BlobBaseFee": "0x1",
      "l1BlobBaseFeeScalar": "0xa118b",
      "l1Fee": "0xe5fd94bf",
      "l1GasPrice": "0x7ace9272",
      "l1GasUsed": "0x6a4"
    }
  ],
  "libraries": [],
  "pending": [],
  "returns": {},
  "timestamp": 1726403079,
  "chain": 84532,
  "commit": "5fcd4f3"
}