{
  "transactions": [
    {
      "hash": "0x7aa8c5ebd7dae192da96a54113014bb983d89046d2d6c84eb8bb8e0abccf9bb0",
      "transactionType": "CALL",
      "contractName": null,
      "contractAddress": "0x3e19bbee16243f36b331ce550f3ff2685e972944",
      "function": "mint(uint256)",
      "arguments": [
        "0"
      ],
      "transaction": {
        "from": "0xe0d6f93151091f24ea09474e9271bd60f2624d99",
        "to": "0x3e19bbee16243f36b331ce550f3ff2685e972944",
        "gas": "0x3c71e",
        "value": "0x470de4df820000",
        "input": "0xa0712d680000000000000000000000000000000000000000000000000000000000000000",
        "nonce": "0x110",
        "chainId": "0x14a34"
      },
      "additionalContracts": [],
      "isFixedGasLimit": false
    },
    {
      "hash": "0xe2d5bc14f8b9cf2255c0784f133afe396144dbe47bee2d11761c77e6ccf666e3",
      "transactionType": "CALL",
      "contractName": null,
      "contractAddress": "0x3e19bbee16243f36b331ce550f3ff2685e972944",
      "function": "setHigherBulkLimits(uint256,bytes32,uint256[],uint256[],bool[])",
      "arguments": [
        "10",
        "0x0000000000000000000000009bb2e48d7950b702a51402fc577fe72004fae662",
        "[40231, 40161, 40232, 40245, 40287, 40243]",
        "[10000000000000000, 10000000000000000, 10000000000000000, 10000000000000000, 10000000000000000, 10000000000000000]",
        "[true, true, true, true, true, true]"
      ],
      "transaction": {
        "from": "0xe0d6f93151091f24ea09474e9271bd60f2624d99",
        "to": "0x3e19bbee16243f36b331ce550f3ff2685e972944",
        "gas": "0x7a518",
        "value": "0x0",
        "input": "0xda27d184000000000000000000000000000000000000000000000000000000000000000a0000000000000000000000009bb2e48d7950b702a51402fc577fe72004fae66200000000000000000000000000000000000000000000000000000000000000a00000000000000000000000000000000000000000000000000000000000000180000000000000000000000000000000000000000000000000000000000000026000000000000000000000000000000000000000000000000000000000000000060000000000000000000000000000000000000000000000000000000000009d270000000000000000000000000000000000000000000000000000000000009ce10000000000000000000000000000000000000000000000000000000000009d280000000000000000000000000000000000000000000000000000000000009d350000000000000000000000000000000000000000000000000000000000009d5f0000000000000000000000000000000000000000000000000000000000009d330000000000000000000000000000000000000000000000000000000000000006000000000000000000000000000000000000000000000000002386f26fc10000000000000000000000000000000000000000000000000000002386f26fc10000000000000000000000000000000000000000000000000000002386f26fc10000000000000000000000000000000000000000000000000000002386f26fc10000000000000000000000000000000000000000000000000000002386f26fc10000000000000000000000000000000000000000000000000000002386f26fc100000000000000000000000000000000000000000000000000000000000000000006000000000000000000000000000000000000000000000000000000000000000100000000000000000000000000000000000000000000000000000000000000010000000000000000000000000000000000000000000000000000000000000001000000000000000000000000000000000000000000000000000000000000000100000000000000000000000000000000000000000000000000000000000000010000000000000000000000000000000000000000000000000000000000000001",
        "nonce": "0x111",
        "chainId": "0x14a34"
      },
      "additionalContracts": [],
      "isFixedGasLimit": false
    },
    {
      "hash": "0x3151be5b8342fa7aad481c40a9322d3ffda30fb3fa1011209a5c0f415ea0b622",
      "transactionType": "CALL",
      "contractName": null,
      "contractAddress": "0x3e19bbee16243f36b331ce550f3ff2685e972944",
      "function": "safeTransferFrom(address,address,uint256)",
      "arguments": [
        "0xE0D6f93151091f24EA09474e9271BD60F2624d99",
        "0x9bb2E48D7950B702A51402fC577Fe72004Fae662",
        "10"
      ],
      "transaction": {
        "from": "0xe0d6f93151091f24ea09474e9271bd60f2624d99",
        "to": "0x3e19bbee16243f36b331ce550f3ff2685e972944",
        "gas": "0x1e042",
        "value": "0x0",
        "input": "0x42842e0e000000000000000000000000e0d6f93151091f24ea09474e9271bd60f2624d990000000000000000000000009bb2e48d7950b702a51402fc577fe72004fae662000000000000000000000000000000000000000000000000000000000000000a",
        "nonce": "0x112",
        "chainId": "0x14a34"
      },
      "additionalContracts": [],
      "isFixedGasLimit": false
    }
  ],
  "receipts": [
    {
      "status": "0x1",
      "cumulativeGasUsed": "0x5b80c",
      "logs": [
        {
          "address": "0x3e19bbee16243f36b331ce550f3ff2685e972944",
          "topics": [
            "0xddf252ad1be2c89b69c2b068fc378daa952ba7f163c4a11628f55a4df523b3ef",
            "0x0000000000000000000000000000000000000000000000000000000000000000",
            "0x000000000000000000000000e0d6f93151091f24ea09474e9271bd60f2624d99",
            "0x000000000000000000000000000000000000000000000000000000000000000a"
          ],
          "data": "0x",
          "blockHash": "0x22ec3e38bbb2289dcbeabfb44efbfaf1cb026d9395384fbbd218877ac68d7dbd",
          "blockNumber": "0xe9ba40",
          "transactionHash": "0x7aa8c5ebd7dae192da96a54113014bb983d89046d2d6c84eb8bb8e0abccf9bb0",
          "transactionIndex": "0x4",
          "logIndex": "0x3",
          "removed": false
        }
      ],
      "logsBloom": "0x00000000000000000000000000000000000000000000000400000000000000000000000000000000000000000000000000000000040000000020000000000000000000000000000000000008000000000000000000000000000000000000000000000000020000000000000400000800000000000000000000002110000000000000000000000000010000000000000000000000000000000000000000000000000000000000000000000000000000000000000000000000000000000000000000000202000000000000000000000000000000000000000000000000004020000000000000000000000000000000000000000000000000000000000000000000",
      "type": "0x2",
      "transactionHash": "0x7aa8c5ebd7dae192da96a54113014bb983d89046d2d6c84eb8bb8e0abccf9bb0",
      "transactionIndex": "0x4",
      "blockHash": "0x22ec3e38bbb2289dcbeabfb44efbfaf1cb026d9395384fbbd218877ac68d7dbd",
      "blockNumber": "0xe9ba40",
      "gasUsed": "0x2bc2e",
      "effectiveGasPrice": "0x5cbd5",
      "from": "0xe0d6f93151091f24ea09474e9271bd60f2624d99",
      "to": "0x3e19bbee16243f36b331ce550f3ff2685e972944",
      "contractAddress": null,
      "l1BaseFeeScalar": "0x44d",
      "l1BlobBaseFee": "0x1",
      "l1BlobBaseFeeScalar": "0xa118b",
      "l1Fee": "0xc0ff9dbf",
      "l1GasPrice": "0x6d8f02e8",
      "l1GasUsed": "0x640"
    },
    {
      "status": "0x1",
      "cumulativeGasUsed": "0xb40f3",
      "logs": [],
      "logsBloom": "0x00000000000000000000000000000000000000000000000000000000000000000000000000000000000000000000000000000000000000000000000000000000000000000000000000000000000000000000000000000000000000000000000000000000000000000000000000000000000000000000000000000000000000000000000000000000000000000000000000000000000000000000000000000000000000000000000000000000000000000000000000000000000000000000000000000000000000000000000000000000000000000000000000000000000000000000000000000000000000000000000000000000000000000000000000000000",
      "type": "0x2",
      "transactionHash": "0xe2d5bc14f8b9cf2255c0784f133afe396144dbe47bee2d11761c77e6ccf666e3",
      "transactionIndex": "0x5",
      "blockHash": "0x22ec3e38bbb2289dcbeabfb44efbfaf1cb026d9395384fbbd218877ac68d7dbd",
      "blockNumber": "0xe9ba40",
      "gasUsed": "0x588e7",
      "effectiveGasPrice": "0x5cbd5",
      "from": "0xe0d6f93151091f24ea09474e9271bd60f2624d99",
      "to": "0x3e19bbee16243f36b331ce550f3ff2685e972944",
      "contractAddress": null,
      "l1BaseFeeScalar": "0x44d",
      "l1BlobBaseFee": "0x1",
      "l1BlobBaseFeeScalar": "0xa118b",
      "l1Fee": "0x17514940a",
      "l1GasPrice": "0x6d8f02e8",
      "l1GasUsed": "0xc14"
    },
    {
      "status": "0x1",
      "cumulativeGasUsed": "0xc8955",
      "logs": [
        {
          "address": "0x3e19bbee16243f36b331ce550f3ff2685e972944",
          "topics": [
            "0xddf252ad1be2c89b69c2b068fc378daa952ba7f163c4a11628f55a4df523b3ef",
            "0x000000000000000000000000e0d6f93151091f24ea09474e9271bd60f2624d99",
            "0x0000000000000000000000009bb2e48d7950b702a51402fc577fe72004fae662",
            "0x000000000000000000000000000000000000000000000000000000000000000a"
          ],
          "data": "0x",
          "blockHash": "0x22ec3e38bbb2289dcbeabfb44efbfaf1cb026d9395384fbbd218877ac68d7dbd",
          "blockNumber": "0xe9ba40",
          "transactionHash": "0x3151be5b8342fa7aad481c40a9322d3ffda30fb3fa1011209a5c0f415ea0b622",
          "transactionIndex": "0x6",
          "logIndex": "0x4",
          "removed": false
        }
      ],
      "logsBloom": "0x00000000000000000000000000000000000000000000000400000000000000000000000000000000000000000000000000000000040000000020000000000000000000000000000080000008000000800000000000000000000000000000000000000000000000000000000400000000000000000000000000002110000000000000000000000000010000000000000000000000000000000000000000000000000000000000000000000000000000000000000000000000000000000000000000000202000000000000000000000000000000000000080000000000004000000000000000000000000000000000000000000000000000000000000000000000",
      "type": "0x2",
      "transactionHash": "0x3151be5b8342fa7aad481c40a9322d3ffda30fb3fa1011209a5c0f415ea0b622",
      "transactionIndex": "0x6",
      "blockHash": "0x22ec3e38bbb2289dcbeabfb44efbfaf1cb026d9395384fbbd218877ac68d7dbd",
      "blockNumber": "0xe9ba40",
      "gasUsed": "0x14862",
      "effectiveGasPrice": "0x5cbd5",
      "from": "0xe0d6f93151091f24ea09474e9271bd60f2624d99",
      "to": "0x3e19bbee16243f36b331ce550f3ff2685e972944",
      "contractAddress": null,
      "l1BaseFeeScalar": "0x44d",
      "l1BlobBaseFee": "0x1",
      "l1BlobBaseFeeScalar": "0xa118b",
      "l1Fee": "0xcd2dedb1",
      "l1GasPrice": "0x6d8f02e8",
      "l1GasUsed": "0x6a4"
    }
  ],
  "libraries": [],
  "pending": [],
  "returns": {},
  "timestamp": 1726403430,
  "chain": 84532,
  "commit": "5fcd4f3"
}