{
  "transactions": [
    {
      "hash": "0x8bfb1a18149101907589f95b141ef69b6e5596e78a94c31d0f9473aa08bcfe58",
      "transactionType": "CALL",
      "contractName": null,
      "contractAddress": "0x3e19bbee16243f36b331ce550f3ff2685e972944",
      "function": "setHigherBulkLimits(uint256,bytes32,uint256[],uint256[],bool[])",
      "arguments": [
        "4",
        "0x000000000000000000000000caca41c458f48d4d7c710f2e62aee931e149a37d",
        "[40231, 40161, 40232, 40245, 40287, 40243]",
        "[10000000000000000, 10000000000000000, 10000000000000000, 10000000000000000, 10000000000000000, 10000000000000000]",
        "[true, false, true, true, true, true]"
      ],
      "transaction": {
        "from": "0xe0d6f93151091f24ea09474e9271bd60f2624d99",
        "to": "0x3e19bbee16243f36b331ce550f3ff2685e972944",
        "gas": "0x739a8",
        "value": "0x0",
        "input": "0xda27d1840000000000000000000000000000000000000000000000000000000000000004000000000000000000000000caca41c458f48d4d7c710f2e62aee931e149a37d00000000000000000000000000000000000000000000000000000000000000a00000000000000000000000000000000000000000000000000000000000000180000000000000000000000000000000000000000000000000000000000000026000000000000000000000000000000000000000000000000000000000000000060000000000000000000000000000000000000000000000000000000000009d270000000000000000000000000000000000000000000000000000000000009ce10000000000000000000000000000000000000000000000000000000000009d280000000000000000000000000000000000000000000000000000000000009d350000000000000000000000000000000000000000000000000000000000009d5f0000000000000000000000000000000000000000000000000000000000009d330000000000000000000000000000000000000000000000000000000000000006000000000000000000000000000000000000000000000000002386f26fc10000000000000000000000000000000000000000000000000000002386f26fc10000000000000000000000000000000000000000000000000000002386f26fc10000000000000000000000000000000000000000000000000000002386f26fc10000000000000000000000000000000000000000000000000000002386f26fc10000000000000000000000000000000000000000000000000000002386f26fc100000000000000000000000000000000000000000000000000000000000000000006000000000000000000000000000000000000000000000000000000000000000100000000000000000000000000000000000000000000000000000000000000000000000000000000000000000000000000000000000000000000000000000001000000000000000000000000000000000000000000000000000000000000000100000000000000000000000000000000000000000000000000000000000000010000000000000000000000000000000000000000000000000000000000000001",
        "nonce": "0xff",
        "chainId": "0x14a34"
      },
      "additionalContracts": [],
      "isFixedGasLimit": false
    },
    {
      "hash": "0x630b19b0d1e0a63a7f39ef2511294ac90812b90be98086679f345dbd86ae94ac",
      "transactionType": "CALL",
      "contractName": null,
      "contractAddress": "0x3e19bbee16243f36b331ce550f3ff2685e972944",
      "function": "safeTransferFrom(address,address,uint256)",
      "arguments": [
        "0xE0D6f93151091f24EA09474e9271BD60F2624d99",
        "0xCACa41c458f48D4d7c710F2E62AEe931E149A37d",
        "4"
      ],
      "transaction": {
        "from": "0xe0d6f93151091f24ea09474e9271bd60f2624d99",
        "to": "0x3e19bbee16243f36b331ce550f3ff2685e972944",
        "gas": "0x1e042",
        "value": "0x0",
        "input": "0x42842e0e000000000000000000000000e0d6f93151091f24ea09474e9271bd60f2624d99000000000000000000000000caca41c458f48d4d7c710f2e62aee931e149a37d0000000000000000000000000000000000000000000000000000000000000004",
        "nonce": "0x100",
        "chainId": "0x14a34"
      },
      "additionalContracts": [],
      "isFixedGasLimit": false
    }
  ],
  "receipts": [
    {
      "status": "0x1",
      "cumulativeGasUsed": "0x141c69",
      "logs": [],
      "logsBloom": "0x00000000000000000000000000000000000000000000000000000000000000000000000000000000000000000000000000000000000000000000000000000000000000000000000000000000000000000000000000000000000000000000000000000000000000000000000000000000000000000000000000000000000000000000000000000000000000000000000000000000000000000000000000000000000000000000000000000000000000000000000000000000000000000000000000000000000000000000000000000000000000000000000000000000000000000000000000000000000000000000000000000000000000000000000000000000",
      "type": "0x2",
      "transactionHash": "0x8bfb1a18149101907589f95b141ef69b6e5596e78a94c31d0f9473aa08bcfe58",
      "transactionIndex": "0x8",
      "blockHash": "0xd3c5c63d15e25dde3acc5cc0ae27028a6c7b23b25f2b7a219e8d7845c1f58847",
      "blockNumber": "0xe9b95d",
      "gasUsed": "0x53b1f",
      "effectiveGasPrice": "0x3941b",
      "from": "0xe0d6f93151091f24ea09474e9271bd60f2624d99",
      "to": "0x3e19bbee16243f36b331ce550f3ff2685e972944",
      "contractAddress": null,
      "l1BaseFeeScalar": "0x44d",
      "l1BlobBaseFee": "0x1",
      "l1BlobBaseFeeScalar": "0xa118b",
      "l1Fee": "0x18498bdbd",
      "l1GasPrice": "0x721d79a4",
      "l1GasUsed": "0xc14"
    },
    {
      "status": "0x1",
      "cumulativeGasUsed": "0x1564cb",
      "logs": [
        {
          "address": "0x3e19bbee16243f36b331ce550f3ff2685e972944",
          "topics": [
            "0xddf252ad1be2c89b69c2b068fc378daa952ba7f163c4a11628f55a4df523b3ef",
            "0x000000000000000000000000e0d6f93151091f24ea09474e9271bd60f2624d99",
            "0x000000000000000000000000caca41c458f48d4d7c710f2e62aee931e149a37d",
            "0x0000000000000000000000000000000000000000000000000000000000000004"
          ],
          "data": "0x",
          "blockHash": "0xd3c5c63d15e25dde3acc5cc0ae27028a6c7b23b25f2b7a219e8d7845c1f58847",
          "blockNumber": "0xe9b95d",
          "transactionHash": "0x630b19b0d1e0a63a7f39ef2511294ac90812b90be98086679f345dbd86ae94ac",
          "transactionIndex": "0x9",
          "logIndex": "0x15",
          "removed": false
        }
      ],
      "logsBloom": "0x00000000000000000000000000000000000000000000000400000000000000000008000000000000000000000000000000000000000000000000000000000000000000000000000000000008000000000000000000000000000000000000000008000000000000000000000400000000000000000000000000002110000000000000000000000000000000000000000000000000000000000000000000000000004000000000000000002000000000000000000000000000002000000000000000000202000000000000000000000000000000008000000000000000004000000000000000000000000000000000000000000000000000000000000000000000",
      "type": "0x2",
      "transactionHash": "0x630b19b0d1e0a63a7f39ef2511294ac90812b90be98086679f345dbd86ae94ac",
      "transactionIndex": "0x9",
      "blockHash": "0xd3c5c63d15e25dde3acc5cc0ae27028a6c7b23b25f2b7a219e8d7845c1f58847",
      "blockNumber": "0xe9b95d",
      "gasUsed": "0x14862",
      "effectiveGasPrice": "0x3941b",
      "from": "0xe0d6f93151091f24ea09474e9271bd60f2624d99",
      "to": "0x3e19bbee16243f36b331ce550f3ff2685e972944",
      "contractAddress": null,
      "l1BaseFeeScalar": "0x44d",
      "l1BlobBaseFee": "0x1",
      "l1BlobBaseFeeScalar": "0xa118b",
      "l1Fee": "0xd2597e58",
      "l1GasPrice": "0x721d79a4",
      "l1GasUsed": "0x68a"
    }
  ],
  "libraries": [],
  "pending": [],
  "returns": {},
  "timestamp": 1726402976,
  "chain": 84532,
  "commit": "5fcd4f3"
}