{
  "transactions": [
    {
      "hash": "0x08198a708f992f7567ae46aae2822b8759a265c6aa4eccfc78b7e8bdc29817e5",
      "transactionType": "CALL",
      "contractName": null,
      "contractAddress": "0x3e19bbee16243f36b331ce550f3ff2685e972944",
      "function": "mint(uint256)",
      "arguments": [
        "0"
      ],
      "transaction": {
        "from": "0xe0d6f93151091f24ea09474e9271bd60f2624d99",
        "to": "0x3e19bbee16243f36b331ce550f3ff2685e972944",
        "gas": "0x3c71e",
        "value": "0x470de4df820000",
        "input": "0xa0712d680000000000000000000000000000000000000000000000000000000000000000",
        "nonce": "0xfb",
        "chainId": "0x14a34"
      },
      "additionalContracts": [],
      "isFixedGasLimit": false
    },
    {
      "hash": "0xc0af5078f4a73b935726abc0ad39d4e9b80ea5a1ad57ecbfc06a06b36f2db5c6",
      "transactionType": "CALL",
      "contractName": null,
      "contractAddress": "0x3e19bbee16243f36b331ce550f3ff2685e972944",
      "function": "setHigherBulkLimits(uint256,bytes32,uint256[],uint256[],bool[])",
      "arguments": [
        "3",
        "0x000000000000000000000000df23f5ec711cc2d30e401aa7aa04085cef4bd73b",
        "[40231, 40161, 40232, 40245, 40287, 40243]",
        "[10000000000000000, 10000000000000000, 10000000000000000, 10000000000000000, 10000000000000000, 10000000000000000]",
        "[true, true, true, true, true, true]"
      ],
      "transaction": {
        "from": "0xe0d6f93151091f24ea09474e9271bd60f2624d99",
        "to": "0x3e19bbee16243f36b331ce550f3ff2685e972944",
        "gas": "0x7a518",
        "value": "0x0",
        "input": "0xda27d1840000000000000000000000000000000000000000000000000000000000000003000000000000000000000000df23f5ec711cc2d30e401aa7aa04085cef4bd73b00000000000000000000000000000000000000000000000000000000000000a00000000000000000000000000000000000000000000000000000000000000180000000000000000000000000000000000000000000000000000000000000026000000000000000000000000000000000000000000000000000000000000000060000000000000000000000000000000000000000000000000000000000009d270000000000000000000000000000000000000000000000000000000000009ce10000000000000000000000000000000000000000000000000000000000009d280000000000000000000000000000000000000000000000000000000000009d350000000000000000000000000000000000000000000000000000000000009d5f0000000000000000000000000000000000000000000000000000000000009d330000000000000000000000000000000000000000000000000000000000000006000000000000000000000000000000000000000000000000002386f26fc10000000000000000000000000000000000000000000000000000002386f26fc10000000000000000000000000000000000000000000000000000002386f26fc10000000000000000000000000000000000000000000000000000002386f26fc10000000000000000000000000000000000000000000000000000002386f26fc10000000000000000000000000000000000000000000000000000002386f26fc100000000000000000000000000000000000000000000000000000000000000000006000000000000000000000000000000000000000000000000000000000000000100000000000000000000000000000000000000000000000000000000000000010000000000000000000000000000000000000000000000000000000000000001000000000000000000000000000000000000000000000000000000000000000100000000000000000000000000000000000000000000000000000000000000010000000000000000000000000000000000000000000000000000000000000001",
        "nonce": "0xfc",
        "chainId": "0x14a34"
      },
      "additionalContracts": [],
      "isFixedGasLimit": false
    },
    {
      "hash": "0x28d9cc833c738c1476289df8e658691987a006d4bd6854dc7ec813103f19dac2",
      "transactionType": "CALL",
      "contractName": null,
      "contractAddress": "0x3e19bbee16243f36b331ce550f3ff2685e972944",
      "function": "safeTransferFrom(address,address,uint256)",
      "arguments": [
        "0xE0D6f93151091f24EA09474e9271BD60F2624d99",
        "0xDF23f5ec711CC2D30E401Aa7aA04085CEf4bd73b",
        "3"
      ],
      "transaction": {
        "from": "0xe0d6f93151091f24ea09474e9271bd60f2624d99",
        "to": "0x3e19bbee16243f36b331ce550f3ff2685e972944",
        "gas": "0x1e042",
        "value": "0x0",
        "input": "0x42842e0e000000000000000000000000e0d6f93151091f24ea09474e9271bd60f2624d99000000000000000000000000df23f5ec711cc2d30e401aa7aa04085cef4bd73b0000000000000000000000000000000000000000000000000000000000000003",
        "nonce": "0xfd",
        "chainId": "0x14a34"
      },
      "additionalContracts": [],
      "isFixedGasLimit": false
    }
  ],
  "receipts": [
    {
      "status": "0x1",
      "cumulativeGasUsed": "0x75d82",
      "logs": [
        {
          "address": "0x3e19bbee16243f36b331ce550f3ff2685e972944",
          "topics": [
            "0xddf252ad1be2c89b69c2b068fc378daa952ba7f163c4a11628f55a4df523b3ef",
            "0x0000000000000000000000000000000000000000000000000000000000000000",
            "0x000000000000000000000000e0d6f93151091f24ea09474e9271bd60f2624d99",
            "0x0000000000000000000000000000000000000000000000000000000000000003"
          ],
          "data": "0x",
          "blockHash": "0x0982813d62c9e3103a7f4245d3e2a43adf1401902c5c642aa39105639f1f33b3",
          "blockNumber": "0xe9b872",
          "transactionHash": "0x08198a708f992f7567ae46aae2822b8759a265c6aa4eccfc78b7e8bdc29817e5",
          "transactionIndex": "0x4",
          "logIndex": "0x3",
          "removed": false
        }
      ],
      "logsBloom": "0x00000000000000000000000000000000000000000000000400000000000000000000000000000000000000000000000000000000020000000000000000000000000000000000000000000008000000000000000000000000000000000000000000000000020000000000000400000800000000000000000000002110000000000000000000000000000000000000000000000000000000000000000000000000000000000000000000000000000000000000000000800000000000000000400000000202000000000000000000000000000000000000000000000000004020000000000000000000000000000000000000000000000000000000000000000000",
      "type": "0x2",
      "transactionHash": "0x08198a708f992f7567ae46aae2822b8759a265c6aa4eccfc78b7e8bdc29817e5",
      "transactionIndex": "0x4",
      "blockHash": "0x0982813d62c9e3103a7f4245d3e2a43adf1401902c5c642aa39105639f1f33b3",
      "blockNumber": "0xe9b872",
      "gasUsed": "0x2bc2e",
      "effectiveGasPrice": "0x2d674",
      "from": "0xe0d6f93151091f24ea09474e9271bd60f2624d99",
      "to": "0x3e19bbee16243f36b331ce550f3ff2685e972944",
      "contractAddress": null,
      "l1BaseFeeScalar": "0x44d",
      "l1BlobBaseFee": "0x1",
      "l1BlobBaseFeeScalar": "0xa118b",
      "l1Fee": "0xe801c23b",
      "l1GasPrice": "0x83b3cd72",
      "l1GasUsed": "0x640"
    },
    {
      "status": "0x1",
      "cumulativeGasUsed": "0xce669",
      "logs": [],
      "logsBloom": "0x00000000000000000000000000000000000000000000000000000000000000000000000000000000000000000000000000000000000000000000000000000000000000000000000000000000000000000000000000000000000000000000000000000000000000000000000000000000000000000000000000000000000000000000000000000000000000000000000000000000000000000000000000000000000000000000000000000000000000000000000000000000000000000000000000000000000000000000000000000000000000000000000000000000000000000000000000000000000000000000000000000000000000000000000000000000",
      "type": "0x2",
      "transactionHash": "0xc0af5078f4a73b935726abc0ad39d4e9b80ea5a1ad57ecbfc06a06b36f2db5c6",
      "transactionIndex": "0x5",
      "blockHash": "0x0982813d62c9e3103a7f4245d3e2a43adf1401902c5c642aa39105639f1f33b3",
      "blockNumber": "0xe9b872",
      "gasUsed": "0x588e7",
      "effectiveGasPrice": "0x2d674",
      "from": "0xe0d6f93151091f24ea09474e9271bd60f2624d99",
      "to": "0x3e19bbee16243f36b331ce550f3ff2685e972944",
      "contractAddress": null,
      "l1BaseFeeScalar": "0x44d",
      "l1BlobBaseFee": "0x1",
      "l1BlobBaseFeeScalar": "0xa118b",
      "l1Fee": "0x1baaa0b5c",
      "l1GasPrice": "0x83b3cd72",
      "l1GasUsed": "0xbec"
    },
    {
      "status": "0x1",
      "cumulativeGasUsed": "0xe2ecb",
      "logs": [
        {
          "address": "0x3e19bbee16243f36b331ce550f3ff2685e972944",
          "topics": [
            "0xddf252ad1be2c89b69c2b068fc378daa952ba7f163c4a11628f55a4df523b3ef",
            "0x000000000000000000000000e0d6f93151091f24ea09474e9271bd60f2624d99",
            "0x000000000000000000000000df23f5ec711cc2d30e401aa7aa04085cef4bd73b",
            "0x0000000000000000000000000000000000000000000000000000000000000003"
          ],
          "data": "0x",
          "blockHash": "0x0982813d62c9e3103a7f4245d3e2a43adf1401902c5c642aa39105639f1f33b3",
          "blockNumber": "0xe9b872",
          "transactionHash": "0x28d9cc833c738c1476289df8e658691987a006d4bd6854dc7ec813103f19dac2",
          "transactionIndex": "0x6",
          "logIndex": "0x4",
          "removed": false
        }
      ],
      "logsBloom": "0x00000000000000000000000000000000000000100000000400000000000000000000000000000000000000000000000000000000020000000000000000000000000000000000000000000008000000000000000000000000000000000000000000000000400000000000000400000000000000000000000000002110000000000000000000000000000000000000000000000000000000000000000000000000000000000000000000000000000000000000000000800000100000000000400000000202000000000000000000000000000000000000000000000000004000000000000000000000000000000000000000000000000000000000000000000000",
      "type": "0x2",
      "transactionHash": "0x28d9cc833c738c1476289df8e658691987a006d4bd6854dc7ec813103f19dac2",
      "transactionIndex": "0x6",
      "blockHash": "0x0982813d62c9e3103a7f4245d3e2a43adf1401902c5c642aa39105639f1f33b3",
      "blockNumber": "0xe9b872",
      "gasUsed": "0x14862",
      "effectiveGasPrice": "0x2d674",
      "from": "0xe0d6f93151091f24ea09474e9271bd60f2624d99",
      "to": "0x3e19bbee16243f36b331ce550f3ff2685e972944",
      "contractAddress": null,
      "l1BaseFeeScalar": "0x44d",
      "l1BlobBaseFee": "0x1",
      "l1BlobBaseFeeScalar": "0xa118b",
      "l1Fee": "0xf0d3d99c",
      "l1GasPrice": "0x83b3cd72",
      "l1GasUsed": "0x67c"
    }
  ],
  "libraries": [],
  "pending": [],
  "returns": {},
  "timestamp": 1726402507,
  "chain": 84532,
  "commit": "5fcd4f3"
}