{
  "transactions": [
    {
      "hash": null,
      "transactionType": "CALL",
      "contractName": null,
      "contractAddress": "0x85a5a8aff78df7097907952a366c6f86f3d4aa10",
      "function": "approveChain(uint256)",
      "arguments": [
        "40231"
      ],
      "transaction": {
        "from": "0x03773f85756acac65a869e89e3b7b2fcda6be140",
        "to": "0x85a5a8aff78df7097907952a366c6f86f3d4aa10",
        "gas": "0xfedf2",
        "value": "0x0",
        "input": "0xeb87840d0000000000000000000000000000000000000000000000000000000000009d27",
        "nonce": "0x7",
        "chainId": "0x66eee"
      },
      "additionalContracts": [],
      "isFixedGasLimit": false
    },
    {
      "hash": null,
      "transactionType": "CALL",
      "contractName": null,
      "contractAddress": "0x85a5a8aff78df7097907952a366c6f86f3d4aa10",
      "function": "approveChain(uint256)",
      "arguments": [
        "40232"
      ],
      "transaction": {
        "from": "0x03773f85756acac65a869e89e3b7b2fcda6be140",
        "to": "0x85a5a8aff78df7097907952a366c6f86f3d4aa10",
        "gas": "0xfedf2",
        "value": "0x0",
        "input": "0xeb87840d0000000000000000000000000000000000000000000000000000000000009d28",
        "nonce": "0x8",
        "chainId": "0x66eee"
      },
      "additionalContracts": [],
      "isFixedGasLimit": false
    },
    {
      "hash": null,
      "transactionType": "CALL",
      "contractName": null,
      "contractAddress": "0x85a5a8aff78df7097907952a366c6f86f3d4aa10",
      "function": "approveChain(uint256)",
      "arguments": [
        "40245"
      ],
      "transaction": {
        "from": "0x03773f85756acac65a869e89e3b7b2fcda6be140",
        "to": "0x85a5a8aff78df7097907952a366c6f86f3d4aa10",
        "gas": "0xfedf2",
        "value": "0x0",
        "input": "0xeb87840d0000000000000000000000000000000000000000000000000000000000009d35",
        "nonce": "0x9",
        "chainId": "0x66eee"
      },
      "additionalContracts": [],
      "isFixedGasLimit": false
    },
    {
      "hash": null,
      "transactionType": "CALL",
      "contractName": null,
      "contractAddress": "0x85a5a8aff78df7097907952a366c6f86f3d4aa10",
      "function": "approveChain(uint256)",
      "arguments": [
        "40161"
      ],
      "transaction": {
        "from": "0x03773f85756acac65a869e89e3b7b2fcda6be140",
        "to": "0x85a5a8aff78df7097907952a366c6f86f3d4aa10",
        "gas": "0xfedf2",
        "value": "0x0",
        "input": "0xeb87840d0000000000000000000000000000000000000000000000000000000000009ce1",
        "nonce": "0xa",
        "chainId": "0x66eee"
      },
      "additionalContracts": [],
      "isFixedGasLimit": false
    }
  ],
  "receipts": [],
  "libraries": [],
  "pending": [],
  "returns": {},
  "timestamp": 1722242493,
  "chain": 421614,
  "commit": "bfd3004"
}