{
  "transactions": [
    {
      "hash": "0x50c6fb0bd5be9c51b441529d9e1ef11814c7f9b85f74aa2e750858c0f33ac8e5",
      "transactionType": "CALL",
      "contractName": null,
      "contractAddress": "0x85a5a8aff78df7097907952a366c6f86f3d4aa10",
      "function": "approveChain(uint256)",
      "arguments": [
        "40231"
      ],
      "transaction": {
        "from": "0x03773f85756acac65a869e89e3b7b2fcda6be140",
        "to": "0x85a5a8aff78df7097907952a366c6f86f3d4aa10",
        "gas": "0xfedf2",
        "value": "0x0",
        "input": "0xeb87840d0000000000000000000000000000000000000000000000000000000000009d27",
        "nonce": "0x7",
        "chainId": "0x66eee"
      },
      "additionalContracts": [],
      "isFixedGasLimit": false
    },
    {
      "hash": "0x11a72127854d7f26f6ac4ab0fb2f93a8872d554d8113f356eee6d9279c148873",
      "transactionType": "CALL",
      "contractName": null,
      "contractAddress": "0x85a5a8aff78df7097907952a366c6f86f3d4aa10",
      "function": "approveChain(uint256)",
      "arguments": [
        "40232"
      ],
      "transaction": {
        "from": "0x03773f85756acac65a869e89e3b7b2fcda6be140",
        "to": "0x85a5a8aff78df7097907952a366c6f86f3d4aa10",
        "gas": "0xfedf2",
        "value": "0x0",
        "input": "0xeb87840d0000000000000000000000000000000000000000000000000000000000009d28",
        "nonce": "0x8",
        "chainId": "0x66eee"
      },
      "additionalContracts": [],
      "isFixedGasLimit": false
    },
    {
      "hash": "0xd3c8fd655a502b46d3d1b30f8fe131027724f177bc8f8c3700ed74e042df57c5",
      "transactionType": "CALL",
      "contractName": null,
      "contractAddress": "0x85a5a8aff78df7097907952a366c6f86f3d4aa10",
      "function": "approveChain(uint256)",
      "arguments": [
        "40245"
      ],
      "transaction": {
        "from": "0x03773f85756acac65a869e89e3b7b2fcda6be140",
        "to": "0x85a5a8aff78df7097907952a366c6f86f3d4aa10",
        "gas": "0xfedf2",
        "value": "0x0",
        "input": "0xeb87840d0000000000000000000000000000000000000000000000000000000000009d35",
        "nonce": "0x9",
        "chainId": "0x66eee"
      },
      "additionalContracts": [],
      "isFixedGasLimit": false
    },
    {
      "hash": "0x167b878faa453af0f113f4efc680a8d64cf4f52eb8d9caf7a12a389fe7ab54e6",
      "transactionType": "CALL",
      "contractName": null,
      "contractAddress": "0x85a5a8aff78df7097907952a366c6f86f3d4aa10",
      "function": "approveChain(uint256)",
      "arguments": [
        "40161"
      ],
      "transaction": {
        "from": "0x03773f85756acac65a869e89e3b7b2fcda6be140",
        "to": "0x85a5a8aff78df7097907952a366c6f86f3d4aa10",
        "gas": "0xfedf2",
        "value": "0x0",
        "input": "0xeb87840d0000000000000000000000000000000000000000000000000000000000009ce1",
        "nonce": "0xa",
        "chainId": "0x66eee"
      },
      "additionalContracts": [],
      "isFixedGasLimit": false
    }
  ],
  "receipts": [
    {
      "status": "0x1",
      "cumulativeGasUsed": "0x97ed0",
      "logs": [
        {
          "address": "0x85a5a8aff78df7097907952a366c6f86f3d4aa10",
          "topics": [
            "0xbba9d55e9fd1a441b1617724e2fdb76777d15ec77ab2b72ac15952cbe97085db"
          ],
          "data": "0x0000000000000000000000000000000000000000000000000000000000009d27",
          "blockHash": "0x2cf1cbde91aa8818e52962cea8c4a0cb9d6eac62280fd639844a6009a4afc0bd",
          "blockNumber": "0x40435ad",
          "transactionHash": "0x50c6fb0bd5be9c51b441529d9e1ef11814c7f9b85f74aa2e750858c0f33ac8e5",
          "transactionIndex": "0x1",
          "logIndex": "0x0",
          "removed": false
        },
        {
          "address": "0x85a5a8aff78df7097907952a366c6f86f3d4aa10",
          "topics": [
            "0xe012bf0e1630512126bccbc050ebf66c62af3753e3cd64d533ddf97f65f621c8"
          ],
          "data": "0x0000000000000000000000000000000000000000000000000000000000009d27",
          "blockHash": "0x2cf1cbde91aa8818e52962cea8c4a0cb9d6eac62280fd639844a6009a4afc0bd",
          "blockNumber": "0x40435ad",
          "transactionHash": "0x50c6fb0bd5be9c51b441529d9e1ef11814c7f9b85f74aa2e750858c0f33ac8e5",
          "transactionIndex": "0x1",
          "logIndex": "0x1",
          "removed": false
        }
      ],
      "logsBloom": "0x02000000000000000000000000000000000008000000000000000000000000000000000000000000000000000000000000000000000000000000000000000000000000000000000000000002004000000000000000000000000020000000000000000000000000000000000000000000000000000000000000000000000000000000000000000080000000000000000000000000000000000000000000000000000000000000000000000000000010000000200000000000000000000000000000000000000000000000000000000000000000000000000000000000000000000000000000000000000000000000000000000000000000000000000000000080",
      "type": "0x2",
      "transactionHash": "0x50c6fb0bd5be9c51b441529d9e1ef11814c7f9b85f74aa2e750858c0f33ac8e5",
      "transactionIndex": "0x1",
      "blockHash": "0x2cf1cbde91aa8818e52962cea8c4a0cb9d6eac62280fd639844a6009a4afc0bd",
      "blockNumber": "0x40435ad",
      "gasUsed": "0x97ed0",
      "effectiveGasPrice": "0x5f5e100",
      "from": "0x03773f85756acac65a869e89e3b7b2fcda6be140",
      "to": "0x85a5a8aff78df7097907952a366c6f86f3d4aa10",
      "contractAddress": null,
      "gasUsedForL1": "0x815cb",
      "l1BlockNumber": "0x619a6d"
    },
    {
      "status": "0x1",
      "cumulativeGasUsed": "0x94592",
      "logs": [
        {
          "address": "0x85a5a8aff78df7097907952a366c6f86f3d4aa10",
          "topics": [
            "0xbba9d55e9fd1a441b1617724e2fdb76777d15ec77ab2b72ac15952cbe97085db"
          ],
          "data": "0x0000000000000000000000000000000000000000000000000000000000009d28",
          "blockHash": "0x3bc22648765e6a11a7f703f401564d27be4ad7a58b9b30a753f897c7ef44b6ee",
          "blockNumber": "0x40435af",
          "transactionHash": "0x11a72127854d7f26f6ac4ab0fb2f93a8872d554d8113f356eee6d9279c148873",
          "transactionIndex": "0x1",
          "logIndex": "0x0",
          "removed": false
        },
        {
          "address": "0x85a5a8aff78df7097907952a366c6f86f3d4aa10",
          "topics": [
            "0xe012bf0e1630512126bccbc050ebf66c62af3753e3cd64d533ddf97f65f621c8"
          ],
          "data": "0x0000000000000000000000000000000000000000000000000000000000009d28",
          "blockHash": "0x3bc22648765e6a11a7f703f401564d27be4ad7a58b9b30a753f897c7ef44b6ee",
          "blockNumber": "0x40435af",
          "transactionHash": "0x11a72127854d7f26f6ac4ab0fb2f93a8872d554d8113f356eee6d9279c148873",
          "transactionIndex": "0x1",
          "logIndex": "0x1",
          "removed": false
        }
      ],
      "logsBloom": "0x02000000000000000000000000000000000008000000000000000000000000000000000000000000000000000000000000000000000000000000000000000000000000000000000000000002004000000000000000000000000020000000000000000000000000000000000000000000000000000000000000000000000000000000000000000080000000000000000000000000000000000000000000000000000000000000000000000000000010000000200000000000000000000000000000000000000000000000000000000000000000000000000000000000000000000000000000000000000000000000000000000000000000000000000000000080",
      "type": "0x2",
      "transactionHash": "0x11a72127854d7f26f6ac4ab0fb2f93a8872d554d8113f356eee6d9279c148873",
      "transactionIndex": "0x1",
      "blockHash": "0x3bc22648765e6a11a7f703f401564d27be4ad7a58b9b30a753f897c7ef44b6ee",
      "blockNumber": "0x40435af",
      "gasUsed": "0x94592",
      "effectiveGasPrice": "0x5f5e100",
      "from": "0x03773f85756acac65a869e89e3b7b2fcda6be140",
      "to": "0x85a5a8aff78df7097907952a366c6f86f3d4aa10",
      "contractAddress": null,
      "gasUsedForL1": "0x815cb",
      "l1BlockNumber": "0x619a6d"
    },
    {
      "status": "0x1",
      "cumulativeGasUsed": "0x94f20",
      "logs": [
        {
          "address": "0x85a5a8aff78df7097907952a366c6f86f3d4aa10",
          "topics": [
            "0xbba9d55e9fd1a441b1617724e2fdb76777d15ec77ab2b72ac15952cbe97085db"
          ],
          "data": "0x0000000000000000000000000000000000000000000000000000000000009d35",
          "blockHash": "0xc21da869d8f9192761330983037ace237ffb96b23d70666f1edfc0cf836246fd",
          "blockNumber": "0x40435b4",
          "transactionHash": "0xd3c8fd655a502b46d3d1b30f8fe131027724f177bc8f8c3700ed74e042df57c5",
          "transactionIndex": "0x1",
          "logIndex": "0x0",
          "removed": false
        },
        {
          "address": "0x85a5a8aff78df7097907952a366c6f86f3d4aa10",
          "topics": [
            "0xe012bf0e1630512126bccbc050ebf66c62af3753e3cd64d533ddf97f65f621c8"
          ],
          "data": "0x0000000000000000000000000000000000000000000000000000000000009d35",
          "blockHash": "0xc21da869d8f9192761330983037ace237ffb96b23d70666f1edfc0cf836246fd",
          "blockNumber": "0x40435b4",
          "transactionHash": "0xd3c8fd655a502b46d3d1b30f8fe131027724f177bc8f8c3700ed74e042df57c5",
          "transactionIndex": "0x1",
          "logIndex": "0x1",
          "removed": false
        }
      ],
      "logsBloom": "0x02000000000000000000000000000000000008000000000000000000000000000000000000000000000000000000000000000000000000000000000000000000000000000000000000000002004000000000000000000000000020000000000000000000000000000000000000000000000000000000000000000000000000000000000000000080000000000000000000000000000000000000000000000000000000000000000000000000000010000000200000000000000000000000000000000000000000000000000000000000000000000000000000000000000000000000000000000000000000000000000000000000000000000000000000000080",
      "type": "0x2",
      "transactionHash": "0xd3c8fd655a502b46d3d1b30f8fe131027724f177bc8f8c3700ed74e042df57c5",
      "transactionIndex": "0x1",
      "blockHash": "0xc21da869d8f9192761330983037ace237ffb96b23d70666f1edfc0cf836246fd",
      "blockNumber": "0x40435b4",
      "gasUsed": "0x94f20",
      "effectiveGasPrice": "0x5f5e100",
      "from": "0x03773f85756acac65a869e89e3b7b2fcda6be140",
      "to": "0x85a5a8aff78df7097907952a366c6f86f3d4aa10",
      "contractAddress": null,
      "gasUsedForL1": "0x815cb",
      "l1BlockNumber": "0x619a6f"
    },
    {
      "status": "0x1",
      "cumulativeGasUsed": "0x958ae",
      "logs": [
        {
          "address": "0x85a5a8aff78df7097907952a366c6f86f3d4aa10",
          "topics": [
            "0xbba9d55e9fd1a441b1617724e2fdb76777d15ec77ab2b72ac15952cbe97085db"
          ],
          "data": "0x0000000000000000000000000000000000000000000000000000000000009ce1",
          "blockHash": "0x4adaa2028626be8b2609b5002c48c472508e94f0d6b6f13d8e158f54e4d9db26",
          "blockNumber": "0x40435ba",
          "transactionHash": "0x167b878faa453af0f113f4efc680a8d64cf4f52eb8d9caf7a12a389fe7ab54e6",
          "transactionIndex": "0x1",
          "logIndex": "0x0",
          "removed": false
        },
        {
          "address": "0x85a5a8aff78df7097907952a366c6f86f3d4aa10",
          "topics": [
            "0xe012bf0e1630512126bccbc050ebf66c62af3753e3cd64d533ddf97f65f621c8"
          ],
          "data": "0x0000000000000000000000000000000000000000000000000000000000009ce1",
          "blockHash": "0x4adaa2028626be8b2609b5002c48c472508e94f0d6b6f13d8e158f54e4d9db26",
          "blockNumber": "0x40435ba",
          "transactionHash": "0x167b878faa453af0f113f4efc680a8d64cf4f52eb8d9caf7a12a389fe7ab54e6",
          "transactionIndex": "0x1",
          "logIndex": "0x1",
          "removed": false
        }
      ],
      "logsBloom": "0x02000000000000000000000000000000000008000000000000000000000000000000000000000000000000000000000000000000000000000000000000000000000000000000000000000002004000000000000000000000000020000000000000000000000000000000000000000000000000000000000000000000000000000000000000000080000000000000000000000000000000000000000000000000000000000000000000000000000010000000200000000000000000000000000000000000000000000000000000000000000000000000000000000000000000000000000000000000000000000000000000000000000000000000000000000080",
      "type": "0x2",
      "transactionHash": "0x167b878faa453af0f113f4efc680a8d64cf4f52eb8d9caf7a12a389fe7ab54e6",
      "transactionIndex": "0x1",
      "blockHash": "0x4adaa2028626be8b2609b5002c48c472508e94f0d6b6f13d8e158f54e4d9db26",
      "blockNumber": "0x40435ba",
      "gasUsed": "0x958ae",
      "effectiveGasPrice": "0x5f5e100",
      "from": "0x03773f85756acac65a869e89e3b7b2fcda6be140",
      "to": "0x85a5a8aff78df7097907952a366c6f86f3d4aa10",
      "contractAddress": null,
      "gasUsedForL1": "0x815cb",
      "l1BlockNumber": "0x619a6f"
    }
  ],
  "libraries": [],
  "pending": [],
  "returns": {},
  "timestamp": 1722242646,
  "chain": 421614,
  "commit": "bfd3004"
}