{
  "transactions": [
    {
      "hash": "0xbe6f4238b3e7328e6189964fec188dbbcd56e06d4d5fce10b03a565aeac8ab10",
      "transactionType": "CALL",
      "contractName": null,
      "contractAddress": "0x78ddb60ebd01d547164f4057c3d36948a66106b6",
      "function": "addIssuer(address,address,uint256,uint256,uint256,uint256)",
      "arguments": [
        "0x3e19BBEe16243F36b331Ce550f3fF2685e972944",
        "0xE0D6f93151091f24EA09474e9271BD60F2624d99",
        "1000",
        "1000000000000000",
        "1000000000000000",
        "2"
      ],
      "transaction": {
        "from": "0x03773f85756acac65a869e89e3b7b2fcda6be140",
        "to": "0x78ddb60ebd01d547164f4057c3d36948a66106b6",
        "gas": "0x2e61b",
        "value": "0x0",
        "input": "0x86582d9a0000000000000000000000003e19bbee16243f36b331ce550f3ff2685e972944000000000000000000000000e0d6f93151091f24ea09474e9271bd60f2624d9900000000000000000000000000000000000000000000000000000000000003e800000000000000000000000000000000000000000000000000038d7ea4c6800000000000000000000000000000000000000000000000000000038d7ea4c680000000000000000000000000000000000000000000000000000000000000000002",
        "nonce": "0xa0",
        "chainId": "0xaa36a7"
      },
      "additionalContracts": [],
      "isFixedGasLimit": false
    },
    {
      "hash": "0xf073afb0ebce7a0f7da35dedd0588a7b93b6a43d3c75efda3c79458c106b0c69",
      "transactionType": "CALL",
      "contractName": null,
      "contractAddress": "0x88d9872bb7eba71254fae14e456c095dc1c5c1fa",
      "function": "setPeer(uint32,bytes32)",
      "arguments": [
        "40245",
        "0x0000000000000000000000003d4cf5232061744ca5e72eab6624c96750d71ec2"
      ],
      "transaction": {
        "from": "0x03773f85756acac65a869e89e3b7b2fcda6be140",
        "to": "0x88d9872bb7eba71254fae14e456c095dc1c5c1fa",
        "gas": "0xa518",
        "value": "0x0",
        "input": "0x3400288b0000000000000000000000000000000000000000000000000000000000009d350000000000000000000000003d4cf5232061744ca5e72eab6624c96750d71ec2",
        "nonce": "0xa1",
        "chainId": "0xaa36a7"
      },
      "additionalContracts": [],
      "isFixedGasLimit": false
    }
  ],
  "receipts": [
    {
      "status": "0x1",
      "cumulativeGasUsed": "0xb97afc",
      "logs": [
        {
          "address": "0x78ddb60ebd01d547164f4057c3d36948a66106b6",
          "topics": [
            "0x81f5a5da0823b41cbf403c631b7efa6c2ec9a7742d7c9cf86de6300fbaf3e00e"
          ],
          "data": "0x0000000000000000000000003e19bbee16243f36b331ce550f3ff2685e972944000000000000000000000000e0d6f93151091f24ea09474e9271bd60f2624d99",
          "blockHash": "0xcbbb01199a7580b441607428039e3ef530787b4639d24047523b8668ab8d0871",
          "blockNumber": "0x660fa8",
          "transactionHash": "0xbe6f4238b3e7328e6189964fec188dbbcd56e06d4d5fce10b03a565aeac8ab10",
          "transactionIndex": "0x79",
          "logIndex": "0x8b",
          "removed": false
        }
      ],
      "logsBloom": "0x00000000000000000000000000000000000000000000000000000000020000000000000000000000000000000000000000000000000000000000000080000000000000000000000000000000000000000000000000040000000000000010000000000000000000000000000000000000000000000000000000000000000000000000000000000000000000000000000000000000000000000000000000000000000000000000000000000000000000000004000000000000000000000000000000000000000000000000000000000000000000000000000000000000000000000000000000000000000008000000000000000000000000000000000000000000",
      "type": "0x2",
      "transactionHash": "0xbe6f4238b3e7328e6189964fec188dbbcd56e06d4d5fce10b03a565aeac8ab10",
      "transactionIndex": "0x79",
      "blockHash": "0xcbbb01199a7580b441607428039e3ef530787b4639d24047523b8668ab8d0871",
      "blockNumber": "0x660fa8",
      "gasUsed": "0x21946",
      "effectiveGasPrice": "0x8067ab26",
      "from": "0x03773f85756acac65a869e89e3b7b2fcda6be140",
      "to": "0x78ddb60ebd01d547164f4057c3d36948a66106b6",
      "contractAddress": null
    },
    {
      "status": "0x1",
      "cumulativeGasUsed": "0xb9f283",
      "logs": [
        {
          "address": "0x88d9872bb7eba71254fae14e456c095dc1c5c1fa",
          "topics": [
            "0x238399d427b947898edb290f5ff0f9109849b1c3ba196a42e35f00c50a54b98b"
          ],
          "data": "0x0000000000000000000000000000000000000000000000000000000000009d350000000000000000000000003d4cf5232061744ca5e72eab6624c96750d71ec2",
          "blockHash": "0xcbbb01199a7580b441607428039e3ef530787b4639d24047523b8668ab8d0871",
          "blockNumber": "0x660fa8",
          "transactionHash": "0xf073afb0ebce7a0f7da35dedd0588a7b93b6a43d3c75efda3c79458c106b0c69",
          "transactionIndex": "0x7a",
          "logIndex": "0x8c",
          "removed": false
        }
      ],
      "logsBloom": "0x00000000000000000000000000000000000000000000000000000000000000000000000000000000000000000000000000000000000000000800000000000000000000000000000000000000000000000002000000000000000000000000000000000000000000000000000000000000000000000000000000000000000000000000000000000000000000000000000000000000000000000000000000000000000000000000000000000000000000000000000000000000000002000000000020000000000000000000000000000000000000000000000000040000000001000000000000000000000000000000000000000000000000000000000000000000",
      "type": "0x2",
      "transactionHash": "0xf073afb0ebce7a0f7da35dedd0588a7b93b6a43d3c75efda3c79458c106b0c69",
      "transactionIndex": "0x7a",
      "blockHash": "0xcbbb01199a7580b441607428039e3ef530787b4639d24047523b8668ab8d0871",
      "blockNumber": "0x660fa8",
      "gasUsed": "0x7787",
      "effectiveGasPrice": "0x8067ab26",
      "from": "0x03773f85756acac65a869e89e3b7b2fcda6be140",
      "to": "0x88d9872bb7eba71254fae14e456c095dc1c5c1fa",
      "contractAddress": null
    }
  ],
  "libraries": [],
  "pending": [],
  "returns": {},
  "timestamp": 1726299758,
  "chain": 11155111,
  "commit": "5fcd4f3"
}