{
  "transactions": [
    {
      "hash": "0xe8d52c0a2393202c549173e7c50dfd8e0d05ded3cfbd0770e0ba0c445b56a3ce",
      "transactionType": "CALL",
      "contractName": null,
      "contractAddress": "0x99741c2f93df59e8c3d957998265b977e4b6ca72",
      "function": "poolWithdraw(uint256,address)",
      "arguments": [
        "456128108865237098",
        "0x6d5ecc0aa8DcE64045b1053A2480D82A61Ad86Bc"
      ],
      "transaction": {
        "from": "0xe0d6f93151091f24ea09474e9271bd60f2624d99",
        "to": "0x99741c2f93df59e8c3d957998265b977e4b6ca72",
        "gas": "0x139f1",
        "value": "0x0",
        "input": "0x5b1ca16800000000000000000000000000000000000000000000000006547e192cfbb06a0000000000000000000000006d5ecc0aa8dce64045b1053a2480d82a61ad86bc",
        "nonce": "0x2f",
        "chainId": "0xaa36a7"
      },
      "additionalContracts": [],
      "isFixedGasLimit": false
    }
  ],
  "receipts": [
    {
      "status": "0x1",
      "cumulativeGasUsed": "0xf4ae67",
      "logs": [
        {
          "address": "0xf531b8f309be94191af87605cfbf600d71c2cfe0",
          "topics": [
            "0xddf252ad1be2c89b69c2b068fc378daa952ba7f163c4a11628f55a4df523b3ef",
            "0x00000000000000000000000099741c2f93df59e8c3d957998265b977e4b6ca72",
            "0x0000000000000000000000000000000000000000000000000000000000000000"
          ],
          "data": "0x00000000000000000000000000000000000000000000000006547e192cfbb06a",
          "blockHash": "0xd43f26f88c92ad0cad3f6079dbbe6c6fdccea5eb67cc372ae26f7236faf73ab9",
          "blockNumber": "0x650d49",
          "transactionHash": "0xe8d52c0a2393202c549173e7c50dfd8e0d05ded3cfbd0770e0ba0c445b56a3ce",
          "transactionIndex": "0x44",
          "logIndex": "0x86",
          "removed": false
        },
        {
          "address": "0xf531b8f309be94191af87605cfbf600d71c2cfe0",
          "topics": [
            "0x7fcf532c15f0a6db0bd6d0e038bea71d30d808c7d98cb3bf7268a95bf5081b65",
            "0x00000000000000000000000099741c2f93df59e8c3d957998265b977e4b6ca72"
          ],
          "data": "0x00000000000000000000000000000000000000000000000006547e192cfbb06a",
          "blockHash": "0xd43f26f88c92ad0cad3f6079dbbe6c6fdccea5eb67cc372ae26f7236faf73ab9",
          "blockNumber": "0x650d49",
          "transactionHash": "0xe8d52c0a2393202c549173e7c50dfd8e0d05ded3cfbd0770e0ba0c445b56a3ce",
          "transactionIndex": "0x44",
          "logIndex": "0x87",
          "removed": false
        },
        {
          "address": "0x99741c2f93df59e8c3d957998265b977e4b6ca72",
          "topics": [
            "0x6f07e6169c1653554eb707b6f6cd8f7ccf9cc29e54a0d8a71d9d5867d2057ac2",
            "0x0000000000000000000000006d5ecc0aa8dce64045b1053a2480d82a61ad86bc"
          ],
          "data": "0x00000000000000000000000000000000000000000000000006547e192cfbb06a",
          "blockHash": "0xd43f26f88c92ad0cad3f6079dbbe6c6fdccea5eb67cc372ae26f7236faf73ab9",
          "blockNumber": "0x650d49",
          "transactionHash": "0xe8d52c0a2393202c549173e7c50dfd8e0d05ded3cfbd0770e0ba0c445b56a3ce",
          "transactionIndex": "0x44",
          "logIndex": "0x88",
          "removed": false
        }
      ],
      "logsBloom": "0x02000000000000000000000000020010000000000000000000000002000100040000080000000000000000000000000000000000000000000000000000000000000000000000000000000008000000000000000000408000000000000000000800000200020000010000000000000810000000000000040000000010000000000000000000000000000000000000000000000000000000000000000000000000000000000000000000000000000000000000000000000000000000008000000000000002000000004000000000000000000000000000000000000002000020000000000000000000000000000000000000000000000000000000000000000080",
      "type": "0x2",
      "transactionHash": "0xe8d52c0a2393202c549173e7c50dfd8e0d05ded3cfbd0770e0ba0c445b56a3ce",
      "transactionIndex": "0x44",
      "blockHash": "0xd43f26f88c92ad0cad3f6079dbbe6c6fdccea5eb67cc372ae26f7236faf73ab9",
      "blockNumber": "0x650d49",
      "gasUsed": "0xd6aa",
      "effectiveGasPrice": "0x60ef887b",
      "from": "0xe0d6f93151091f24ea09474e9271bd60f2624d99",
      "to": "0x99741c2f93df59e8c3d957998265b977e4b6ca72",
      "contractAddress": null
    }
  ],
  "libraries": [],
  "pending": [],
  "returns": {},
  "timestamp": 1725330206,
  "chain": 11155111,
  "commit": "5cf640c"
}