{
  "transactions": [
    {
      "hash": "0x75e51399c605a88b370c5e53275d2d7a579071f691e58eb07d0e555f18bf8e1b",
      "transactionType": "CALL",
      "contractName": null,
      "contractAddress": "0xa500c712e7ebdd5040f1a212800f5f6fa20d05f8",
      "function": "poolWithdraw(uint256,address)",
      "arguments": [
        "453600820854328230",
        "0xA500C712e7EbDd5040f1A212800f5f6fa20d05F8"
      ],
      "transaction": {
        "from": "0xe0d6f93151091f24ea09474e9271bd60f2624d99",
        "to": "0xa500c712e7ebdd5040f1a212800f5f6fa20d05f8",
        "gas": "0x1286f",
        "value": "0x0",
        "input": "0x5b1ca168000000000000000000000000000000000000000000000000064b838b14d90ba6000000000000000000000000a500c712e7ebdd5040f1a212800f5f6fa20d05f8",
        "nonce": "0x39",
        "chainId": "0xaa36a7"
      },
      "additionalContracts": [],
      "isFixedGasLimit": false
    }
  ],
  "receipts": [
    {
      "status": "0x1",
      "cumulativeGasUsed": "0xbdbd77",
      "logs": [
        {
          "address": "0xf531b8f309be94191af87605cfbf600d71c2cfe0",
          "topics": [
            "0xddf252ad1be2c89b69c2b068fc378daa952ba7f163c4a11628f55a4df523b3ef",
            "0x000000000000000000000000a500c712e7ebdd5040f1a212800f5f6fa20d05f8",
            "0x0000000000000000000000000000000000000000000000000000000000000000"
          ],
          "data": "0x000000000000000000000000000000000000000000000000064b838b14d90ba6",
          "blockHash": "0x8c862fbae892564adbbbafec2282301289776391d8d6e4af0e1dae38a385bcfe",
          "blockNumber": "0x660e8d",
          "transactionHash": "0x75e51399c605a88b370c5e53275d2d7a579071f691e58eb07d0e555f18bf8e1b",
          "transactionIndex": "0x62",
          "logIndex": "0x74",
          "removed": false
        },
        {
          "address": "0xf531b8f309be94191af87605cfbf600d71c2cfe0",
          "topics": [
            "0x7fcf532c15f0a6db0bd6d0e038bea71d30d808c7d98cb3bf7268a95bf5081b65",
            "0x000000000000000000000000a500c712e7ebdd5040f1a212800f5f6fa20d05f8"
          ],
          "data": "0x000000000000000000000000000000000000000000000000064b838b14d90ba6",
          "blockHash": "0x8c862fbae892564adbbbafec2282301289776391d8d6e4af0e1dae38a385bcfe",
          "blockNumber": "0x660e8d",
          "transactionHash": "0x75e51399c605a88b370c5e53275d2d7a579071f691e58eb07d0e555f18bf8e1b",
          "transactionIndex": "0x62",
          "logIndex": "0x75",
          "removed": false
        },
        {
          "address": "0xa500c712e7ebdd5040f1a212800f5f6fa20d05f8",
          "topics": [
            "0x6f07e6169c1653554eb707b6f6cd8f7ccf9cc29e54a0d8a71d9d5867d2057ac2",
            "0x000000000000000000000000a500c712e7ebdd5040f1a212800f5f6fa20d05f8"
          ],
          "data": "0x000000000000000000000000000000000000000000000000064b838b14d90ba6",
          "blockHash": "0x8c862fbae892564adbbbafec2282301289776391d8d6e4af0e1dae38a385bcfe",
          "blockNumber": "0x660e8d",
          "transactionHash": "0x75e51399c605a88b370c5e53275d2d7a579071f691e58eb07d0e555f18bf8e1b",
          "transactionIndex": "0x62",
          "logIndex": "0x76",
          "removed": false
        }
      ],
      "logsBloom": "0x02000000000000000000000000020010000000000000000000000000000000000000000000000000000004000000000000000000000000400000000000000000000000000000000000000008000000000000000000400000000000000000000010000200020000010000008000000800000000000000040000000010000000000000000000000000000000000000000000000000000000000000000000000000000000000000000000000000000000000000000000000000000000008000000000000002000000000000000800000000000000000000000400000002000020000000000000000000000000000000000000000000000000000000000000000000",
      "type": "0x2",
      "transactionHash": "0x75e51399c605a88b370c5e53275d2d7a579071f691e58eb07d0e555f18bf8e1b",
      "transactionIndex": "0x62",
      "blockHash": "0x8c862fbae892564adbbbafec2282301289776391d8d6e4af0e1dae38a385bcfe",
      "blockNumber": "0x660e8d",
      "gasUsed": "0xd69e",
      "effectiveGasPrice": "0x428f83ec",
      "from": "0xe0d6f93151091f24ea09474e9271bd60f2624d99",
      "to": "0xa500c712e7ebdd5040f1a212800f5f6fa20d05f8",
      "contractAddress": null
    }
  ],
  "libraries": [],
  "pending": [],
  "returns": {},
  "timestamp": 1726295800,
  "chain": 11155111,
  "commit": "5fcd4f3"
}