{
  "transactions": [
    {
      "hash": "0xd20dae82ecf6c387c2f9a1ee6e6750e65898a834df632adda37536a4ccb8a2cf",
      "transactionType": "CALL",
      "contractName": null,
      "contractAddress": "0x88d9872bb7eba71254fae14e456c095dc1c5c1fa",
      "function": "addSupportedToken(address,address)",
      "arguments": [
        "0xf531B8F309Be94191af87605CfBf600D71C2cFe0",
        "0x3e19BBEe16243F36b331Ce550f3fF2685e972944"
      ],
      "transaction": {
        "from": "0xe0d6f93151091f24ea09474e9271bd60f2624d99",
        "to": "0x88d9872bb7eba71254fae14e456c095dc1c5c1fa",
        "gas": "0x12ed6",
        "value": "0x0",
        "input": "0xc2b7be16000000000000000000000000f531b8f309be94191af87605cfbf600d71c2cfe00000000000000000000000003e19bbee16243f36b331ce550f3ff2685e972944",
        "nonce": "0x3a",
        "chainId": "0xaa36a7"
      },
      "additionalContracts": [],
      "isFixedGasLimit": false
    },
    {
      "hash": "0x7eff48fa40adb8310250b72e2f93a0d8616d5e21d6088039bb1b071a2a0237d6",
      "transactionType": "CALL",
      "contractName": null,
      "contractAddress": "0x88d9872bb7eba71254fae14e456c095dc1c5c1fa",
      "function": "addSupportedToken(address,address)",
      "arguments": [
        "0x981830D1946e6FC9D5F893327a2819Fd5E2C5819",
        "0x3e19BBEe16243F36b331Ce550f3fF2685e972944"
      ],
      "transaction": {
        "from": "0xe0d6f93151091f24ea09474e9271bd60f2624d99",
        "to": "0x88d9872bb7eba71254fae14e456c095dc1c5c1fa",
        "gas": "0x12ed6",
        "value": "0x0",
        "input": "0xc2b7be16000000000000000000000000981830d1946e6fc9d5f893327a2819fd5e2c58190000000000000000000000003e19bbee16243f36b331ce550f3ff2685e972944",
        "nonce": "0x3b",
        "chainId": "0xaa36a7"
      },
      "additionalContracts": [],
      "isFixedGasLimit": false
    },
    {
      "hash": "0x746dfb61ccdd6d04365c5a8e479a4d1a8f519798283b5169b4027186ceb22198",
      "transactionType": "CALL",
      "contractName": null,
      "contractAddress": "0x78ddb60ebd01d547164f4057c3d36948a66106b6",
      "function": "poolDeposit(address)",
      "arguments": [
        "0x3e19BBEe16243F36b331Ce550f3fF2685e972944"
      ],
      "transaction": {
        "from": "0xe0d6f93151091f24ea09474e9271bd60f2624d99",
        "to": "0x78ddb60ebd01d547164f4057c3d36948a66106b6",
        "gas": "0x1fa42",
        "value": "0x6f05b59d3b20000",
        "input": "0x5698afa50000000000000000000000003e19bbee16243f36b331ce550f3ff2685e972944",
        "nonce": "0x3c",
        "chainId": "0xaa36a7"
      },
      "additionalContracts": [],
      "isFixedGasLimit": false
    }
  ],
  "receipts": [
    {
      "status": "0x1",
      "cumulativeGasUsed": "0x132942a",
      "logs": [
        {
          "address": "0x88d9872bb7eba71254fae14e456c095dc1c5c1fa",
          "topics": [
            "0xdffbd9ded1c09446f09377de547142dcce7dc541c8b0b028142b1eba7026b9e7",
            "0x000000000000000000000000f531b8f309be94191af87605cfbf600d71c2cfe0",
            "0x0000000000000000000000003e19bbee16243f36b331ce550f3ff2685e972944"
          ],
          "data": "0x",
          "blockHash": "0xd13ecb4e51c716f2ca9b908c63905fd1f556ba0e4fc443142e2f570aedc6d1f7",
          "blockNumber": "0x660fb2",
          "transactionHash": "0xd20dae82ecf6c387c2f9a1ee6e6750e65898a834df632adda37536a4ccb8a2cf",
          "transactionIndex": "0x96",
          "logIndex": "0xf0",
          "removed": false
        }
      ],
      "logsBloom": "0x00000000010000000000000000000000000000000000000000000000000000000000000400000000000000000000042000000000008000000000000000000000000000000000000000000000000000000002000000000000000000200000000000000000000000000000000000000000000000000000000000000000000000000000000000022000000000000000000000002000000000000000000000000000000000000000000000000000000000000000000000000000000000000000000020000000000000000000000000000000000000000000000000000000000001000000000000000000000000000000000000000000000000000000000000000000",
      "type": "0x2",
      "transactionHash": "0xd20dae82ecf6c387c2f9a1ee6e6750e65898a834df632adda37536a4ccb8a2cf",
      "transactionIndex": "0x96",
      "blockHash": "0xd13ecb4e51c716f2ca9b908c63905fd1f556ba0e4fc443142e2f570aedc6d1f7",
      "blockNumber": "0x660fb2",
      "gasUsed": "0xcf12",
      "effectiveGasPrice": "0x6dfec81f",
      "from": "0xe0d6f93151091f24ea09474e9271bd60f2624d99",
      "to": "0x88d9872bb7eba71254fae14e456c095dc1c5c1fa",
      "contractAddress": null
    },
    {
      "status": "0x1",
      "cumulativeGasUsed": "0x133633c",
      "logs": [
        {
          "address": "0x88d9872bb7eba71254fae14e456c095dc1c5c1fa",
          "topics": [
            "0xdffbd9ded1c09446f09377de547142dcce7dc541c8b0b028142b1eba7026b9e7",
            "0x000000000000000000000000981830d1946e6fc9d5f893327a2819fd5e2c5819",
            "0x0000000000000000000000003e19bbee16243f36b331ce550f3ff2685e972944"
          ],
          "data": "0x",
          "blockHash": "0xd13ecb4e51c716f2ca9b908c63905fd1f556ba0e4fc443142e2f570aedc6d1f7",
          "blockNumber": "0x660fb2",
          "transactionHash": "0x7eff48fa40adb8310250b72e2f93a0d8616d5e21d6088039bb1b071a2a0237d6",
          "transactionIndex": "0x97",
          "logIndex": "0xf1",
          "removed": false
        }
      ],
      "logsBloom": "0x00000000010000000000000000000000000000008000000000000000000000000000000400000000000000000000000000000000008000000400000000000000000000000000000000000000000000000002000000000000000000200000000000000000000000000000000000000000000000000000000000000000000000000000000000002000000000000000000000002000000000000000000000000000000000000000000000000000000000000000000000000004000000000000000020000000000000000000000000000000000000000000000000000000000001000000000000000000000000000000000000000000000000000000000000000000",
      "type": "0x2",
      "transactionHash": "0x7eff48fa40adb8310250b72e2f93a0d8616d5e21d6088039bb1b071a2a0237d6",
      "transactionIndex": "0x97",
      "blockHash": "0xd13ecb4e51c716f2ca9b908c63905fd1f556ba0e4fc443142e2f570aedc6d1f7",
      "blockNumber": "0x660fb2",
      "gasUsed": "0xcf12",
      "effectiveGasPrice": "0x6dfec81f",
      "from": "0xe0d6f93151091f24ea09474e9271bd60f2624d99",
      "to": "0x88d9872bb7eba71254fae14e456c095dc1c5c1fa",
      "contractAddress": null
    },
    {
      "status": "0x1",
      "cumulativeGasUsed": "0x134bd65",
      "logs": [
        {
          "address": "0xf531b8f309be94191af87605cfbf600d71c2cfe0",
          "topics": [
            "0xddf252ad1be2c89b69c2b068fc378daa952ba7f163c4a11628f55a4df523b3ef",
            "0x0000000000000000000000000000000000000000000000000000000000000000",
            "0x00000000000000000000000078ddb60ebd01d547164f4057c3d36948a66106b6"
          ],
          "data": "0x00000000000000000000000000000000000000000000000006f05b59d3b20000",
          "blockHash": "0xd13ecb4e51c716f2ca9b908c63905fd1f556ba0e4fc443142e2f570aedc6d1f7",
          "blockNumber": "0x660fb2",
          "transactionHash": "0x746dfb61ccdd6d04365c5a8e479a4d1a8f519798283b5169b4027186ceb22198",
          "transactionIndex": "0x98",
          "logIndex": "0xf2",
          "removed": false
        },
        {
          "address": "0xf531b8f309be94191af87605cfbf600d71c2cfe0",
          "topics": [
            "0xe1fffcc4923d04b559f4d29a8bfc6cda04eb5b0d3c460751c2402c5c5cc9109c",
            "0x00000000000000000000000078ddb60ebd01d547164f4057c3d36948a66106b6"
          ],
          "data": "0x00000000000000000000000000000000000000000000000006f05b59d3b20000",
          "blockHash": "0xd13ecb4e51c716f2ca9b908c63905fd1f556ba0e4fc443142e2f570aedc6d1f7",
          "blockNumber": "0x660fb2",
          "transactionHash": "0x746dfb61ccdd6d04365c5a8e479a4d1a8f519798283b5169b4027186ceb22198",
          "transactionIndex": "0x98",
          "logIndex": "0xf3",
          "removed": false
        },
        {
          "address": "0x78ddb60ebd01d547164f4057c3d36948a66106b6",
          "topics": [
            "0x90576f1ad407b163ccea052b2d55bac158025af10ac5895369e8956eeab83434",
            "0x0000000000000000000000003e19bbee16243f36b331ce550f3ff2685e972944"
          ],
          "data": "0x00000000000000000000000000000000000000000000000006f05b59d3b20000",
          "blockHash": "0xd13ecb4e51c716f2ca9b908c63905fd1f556ba0e4fc443142e2f570aedc6d1f7",
          "blockNumber": "0x660fb2",
          "transactionHash": "0x746dfb61ccdd6d04365c5a8e479a4d1a8f519798283b5169b4027186ceb22198",
          "transactionIndex": "0x98",
          "logIndex": "0xf4",
          "removed": false
        }
      ],
      "logsBloom": "0x02000000010000000000000000000000000000000000000000000000000000000000000400000000000000000000000000000000000000000000000080000000000000000000000000000008000000000000000000040000800000008000000000000200020000010000000000000800000000000000000000000010000000000000002000000000000000000200000008002001000000000000000000000000000000000000000000000000000000000004000000000000000000000000000000000002000000000000000000000000000000000000000000000000000020000000000000000000000008000000000000000000000000400000000000000400",
      "type": "0x2",
      "transactionHash": "0x746dfb61ccdd6d04365c5a8e479a4d1a8f519798283b5169b4027186ceb22198",
      "transactionIndex": "0x98",
      "blockHash": "0xd13ecb4e51c716f2ca9b908c63905fd1f556ba0e4fc443142e2f570aedc6d1f7",
      "blockNumber": "0x660fb2",
      "gasUsed": "0x15a29",
      "effectiveGasPrice": "0x6dfec81f",
      "from": "0xe0d6f93151091f24ea09474e9271bd60f2624d99",
      "to": "0x78ddb60ebd01d547164f4057c3d36948a66106b6",
      "contractAddress": null
    }
  ],
  "libraries": [],
  "pending": [],
  "returns": {},
  "timestamp": 1726299907,
  "chain": 11155111,
  "commit": "5fcd4f3"
}