{
  "transactions": [
    {
      "hash": "0x08198a1940c010630bca6b2f16d0c299a99ec3adb14857d5b2b073a864792137",
      "transactionType": "CALL",
      "contractName": null,
      "contractAddress": "0xb48f7a8ad1302c77c75acd3bb98f416000a99aad",
      "function": "addSupportedToken(address,address)",
      "arguments": [
        "0xf531B8F309Be94191af87605CfBf600D71C2cFe0",
        "0x9C2e3e224F0f5BFaB7B3C454F0b4357d424EF030"
      ],
      "transaction": {
        "from": "0xe0d6f93151091f24ea09474e9271bd60f2624d99",
        "to": "0xb48f7a8ad1302c77c75acd3bb98f416000a99aad",
        "gas": "0x12ed6",
        "value": "0x0",
        "input": "0xc2b7be16000000000000000000000000f531b8f309be94191af87605cfbf600d71c2cfe00000000000000000000000009c2e3e224f0f5bfab7b3c454f0b4357d424ef030",
        "nonce": "0x11",
        "chainId": "0xaa36a7"
      },
      "additionalContracts": [],
      "isFixedGasLimit": false
    },
    {
      "hash": "0x967a723135bf6c6b84f83b60d5136049a1fa91a5b372687ccc9fd171e572a667",
      "transactionType": "CALL",
      "contractName": null,
      "contractAddress": "0xb48f7a8ad1302c77c75acd3bb98f416000a99aad",
      "function": "addSupportedToken(address,address)",
      "arguments": [
        "0x981830D1946e6FC9D5F893327a2819Fd5E2C5819",
        "0x9C2e3e224F0f5BFaB7B3C454F0b4357d424EF030"
      ],
      "transaction": {
        "from": "0xe0d6f93151091f24ea09474e9271bd60f2624d99",
        "to": "0xb48f7a8ad1302c77c75acd3bb98f416000a99aad",
        "gas": "0x12ed6",
        "value": "0x0",
        "input": "0xc2b7be16000000000000000000000000981830d1946e6fc9d5f893327a2819fd5e2c58190000000000000000000000009c2e3e224f0f5bfab7b3c454f0b4357d424ef030",
        "nonce": "0x12",
        "chainId": "0xaa36a7"
      },
      "additionalContracts": [],
      "isFixedGasLimit": false
    },
    {
      "hash": "0x74a3ac3a286cde1d6691efb542e510bf13f26b7122222d1a0a9b7a14e5d4d468",
      "transactionType": "CALL",
      "contractName": null,
      "contractAddress": "0xc4e5bc86c3caed72db41e62675f27b239cb23bc6",
      "function": "poolDeposit(address)",
      "arguments": [
        "0x9C2e3e224F0f5BFaB7B3C454F0b4357d424EF030"
      ],
      "transaction": {
        "from": "0xe0d6f93151091f24ea09474e9271bd60f2624d99",
        "to": "0xc4e5bc86c3caed72db41e62675f27b239cb23bc6",
        "gas": "0x1de31",
        "value": "0x6f05b59d3b20000",
        "input": "0x5698afa50000000000000000000000009c2e3e224f0f5bfab7b3c454f0b4357d424ef030",
        "nonce": "0x13",
        "chainId": "0xaa36a7"
      },
      "additionalContracts": [],
      "isFixedGasLimit": false
    }
  ],
  "receipts": [
    {
      "status": "0x1",
      "cumulativeGasUsed": "0xcb915c",
      "logs": [
        {
          "address": "0xb48f7a8ad1302c77c75acd3bb98f416000a99aad",
          "topics": [
            "0xdffbd9ded1c09446f09377de547142dcce7dc541c8b0b028142b1eba7026b9e7",
            "0x000000000000000000000000f531b8f309be94191af87605cfbf600d71c2cfe0",
            "0x0000000000000000000000009c2e3e224f0f5bfab7b3c454f0b4357d424ef030"
          ],
          "data": "0x",
          "blockHash": "0x53173806ce0735515dc05635793ada16b89c9dbc86925a838ad0c35db10596dd",
          "blockNumber": "0x6462c9",
          "transactionHash": "0x08198a1940c010630bca6b2f16d0c299a99ec3adb14857d5b2b073a864792137",
          "transactionIndex": "0x44",
          "logIndex": "0x60",
          "removed": false
        }
      ],
      "logsBloom": "0x00000000001000000000000000000000000000000000000000000000000000000000000000000000000000000000042000000000008000000000000000000000000000000000000000000000000000000000000000000000000000200000000000000000000000000000000000000000000000000000000000000000000000000001000000022000000000000000000000000000000000000000000000000000000000000000000000000000000200000000000000000000000010000000000000000000000000000000000002000800000000000000000000000000000000000000000000000000000000000000000000000000000000000000000000000000",
      "type": "0x2",
      "transactionHash": "0x08198a1940c010630bca6b2f16d0c299a99ec3adb14857d5b2b073a864792137",
      "transactionIndex": "0x44",
      "blockHash": "0x53173806ce0735515dc05635793ada16b89c9dbc86925a838ad0c35db10596dd",
      "blockNumber": "0x6462c9",
      "gasUsed": "0xcf12",
      "effectiveGasPrice": "0x2bad02a86",
      "from": "0xe0d6f93151091f24ea09474e9271bd60f2624d99",
      "to": "0xb48f7a8ad1302c77c75acd3bb98f416000a99aad",
      "contractAddress": null
    },
    {
      "status": "0x1",
      "cumulativeGasUsed": "0xcc606e",
      "logs": [
        {
          "address": "0xb48f7a8ad1302c77c75acd3bb98f416000a99aad",
          "topics": [
            "0xdffbd9ded1c09446f09377de547142dcce7dc541c8b0b028142b1eba7026b9e7",
            "0x000000000000000000000000981830d1946e6fc9d5f893327a2819fd5e2c5819",
            "0x0000000000000000000000009c2e3e224f0f5bfab7b3c454f0b4357d424ef030"
          ],
          "data": "0x",
          "blockHash": "0x53173806ce0735515dc05635793ada16b89c9dbc86925a838ad0c35db10596dd",
          "blockNumber": "0x6462c9",
          "transactionHash": "0x967a723135bf6c6b84f83b60d5136049a1fa91a5b372687ccc9fd171e572a667",
          "transactionIndex": "0x45",
          "logIndex": "0x61",
          "removed": false
        }
      ],
      "logsBloom": "0x00000000001000000000000000000000000000008000000000000000000000000000000000000000000000000000000000000000008000000400000000000000000000000000000000000000000000000000000000000000000000200000000000000000000000000000000000000000000000000000000000000000000000000001000000002000000000000000000000000000000000000000000000000000000000000000000000000000000200000000000000000004000010000000000000000000000000000000000002000800000000000000000000000000000000000000000000000000000000000000000000000000000000000000000000000000",
      "type": "0x2",
      "transactionHash": "0x967a723135bf6c6b84f83b60d5136049a1fa91a5b372687ccc9fd171e572a667",
      "transactionIndex": "0x45",
      "blockHash": "0x53173806ce0735515dc05635793ada16b89c9dbc86925a838ad0c35db10596dd",
      "blockNumber": "0x6462c9",
      "gasUsed": "0xcf12",
      "effectiveGasPrice": "0x2bad02a86",
      "from": "0xe0d6f93151091f24ea09474e9271bd60f2624d99",
      "to": "0xb48f7a8ad1302c77c75acd3bb98f416000a99aad",
      "contractAddress": null
    },
    {
      "status": "0x1",
      "cumulativeGasUsed": "0xcdbaa2",
      "logs": [
        {
          "address": "0xf531b8f309be94191af87605cfbf600d71c2cfe0",
          "topics": [
            "0xddf252ad1be2c89b69c2b068fc378daa952ba7f163c4a11628f55a4df523b3ef",
            "0x0000000000000000000000000000000000000000000000000000000000000000",
            "0x000000000000000000000000c4e5bc86c3caed72db41e62675f27b239cb23bc6"
          ],
          "data": "0x00000000000000000000000000000000000000000000000006f05b59d3b20000",
          "blockHash": "0x53173806ce0735515dc05635793ada16b89c9dbc86925a838ad0c35db10596dd",
          "blockNumber": "0x6462c9",
          "transactionHash": "0x74a3ac3a286cde1d6691efb542e510bf13f26b7122222d1a0a9b7a14e5d4d468",
          "transactionIndex": "0x46",
          "logIndex": "0x62",
          "removed": false
        },
        {
          "address": "0xf531b8f309be94191af87605cfbf600d71c2cfe0",
          "topics": [
            "0xe1fffcc4923d04b559f4d29a8bfc6cda04eb5b0d3c460751c2402c5c5cc9109c",
            "0x000000000000000000000000c4e5bc86c3caed72db41e62675f27b239cb23bc6"
          ],
          "data": "0x00000000000000000000000000000000000000000000000006f05b59d3b20000",
          "blockHash": "0x53173806ce0735515dc05635793ada16b89c9dbc86925a838ad0c35db10596dd",
          "blockNumber": "0x6462c9",
          "transactionHash": "0x74a3ac3a286cde1d6691efb542e510bf13f26b7122222d1a0a9b7a14e5d4d468",
          "transactionIndex": "0x46",
          "logIndex": "0x63",
          "removed": false
        },
        {
          "address": "0xc4e5bc86c3caed72db41e62675f27b239cb23bc6",
          "topics": [
            "0x90576f1ad407b163ccea052b2d55bac158025af10ac5895369e8956eeab83434",
            "0x0000000000000000000000009c2e3e224f0f5bfab7b3c454f0b4357d424ef030"
          ],
          "data": "0x00000000000000000000000000000000000000000000000006f05b59d3b20000",
          "blockHash": "0x53173806ce0735515dc05635793ada16b89c9dbc86925a838ad0c35db10596dd",
          "blockNumber": "0x6462c9",
          "transactionHash": "0x74a3ac3a286cde1d6691efb542e510bf13f26b7122222d1a0a9b7a14e5d4d468",
          "transactionIndex": "0x46",
          "logIndex": "0x64",
          "removed": false
        }
      ],
      "logsBloom": "0x02000000001000000000000000000000000000000000000000000000000000000000000000000000000000000000000000000000000000000000000000000000000000000000000000000008000000000000000000000000800000008000000000000200020000010000000000000800000000000000000000000010000002000001002200000000000000000000000008000001000000000000000000000000000000000000000020000000000200000000000000000000000010000000000000000002000000000000000000000000000000000000000000000000000024000000000000000800000000000000000000000000000000400000000000000000",
      "type": "0x2",
      "transactionHash": "0x74a3ac3a286cde1d6691efb542e510bf13f26b7122222d1a0a9b7a14e5d4d468",
      "transactionIndex": "0x46",
      "blockHash": "0x53173806ce0735515dc05635793ada16b89c9dbc86925a838ad0c35db10596dd",
      "blockNumber": "0x6462c9",
      "gasUsed": "0x15a34",
      "effectiveGasPrice": "0x2bad02a86",
      "from": "0xe0d6f93151091f24ea09474e9271bd60f2624d99",
      "to": "0xc4e5bc86c3caed72db41e62675f27b239cb23bc6",
      "contractAddress": null
    }
  ],
  "libraries": [],
  "pending": [],
  "returns": {},
  "timestamp": 1724729873,
  "chain": 11155111,
  "commit": "66ac525"
}