{
  "transactions": [
    {
      "hash": "0xe62db9bde21a1e88853cdfd1f34ac4fe4573cd2dbbf18dd499cebf6026a6fa78",
      "transactionType": "CALL",
      "contractName": null,
      "contractAddress": "0x0cfbc9aaef1fbca9bbef916ad4dabf0d6103451b",
      "function": "addSupportedToken(address)",
      "arguments": [
        "0x981830D1946e6FC9D5F893327a2819Fd5E2C5819"
      ],
      "transaction": {
        "from": "0x03773f85756acac65a869e89e3b7b2fcda6be140",
        "to": "0x0cfbc9aaef1fbca9bbef916ad4dabf0d6103451b",
        "gas": "0x10054",
        "value": "0x0",
        "input": "0x6d69fcaf000000000000000000000000981830d1946e6fc9d5f893327a2819fd5e2c5819",
        "nonce": "0x28",
        "chainId": "0xaa36a7"
      },
      "additionalContracts": [],
      "isFixedGasLimit": false
    },
    {
      "hash": "0x251ebd3fc3775f6122eb3bc11a21a373dcca5a3358b0cfcd4a0cdafd7baf019f",
      "transactionType": "CALL",
      "contractName": null,
      "contractAddress": "0x0cfbc9aaef1fbca9bbef916ad4dabf0d6103451b",
      "function": "addSupportedToken(address)",
      "arguments": [
        "0xf531B8F309Be94191af87605CfBf600D71C2cFe0"
      ],
      "transaction": {
        "from": "0x03773f85756acac65a869e89e3b7b2fcda6be140",
        "to": "0x0cfbc9aaef1fbca9bbef916ad4dabf0d6103451b",
        "gas": "0x10054",
        "value": "0x0",
        "input": "0x6d69fcaf000000000000000000000000f531b8f309be94191af87605cfbf600d71c2cfe0",
        "nonce": "0x29",
        "chainId": "0xaa36a7"
      },
      "additionalContracts": [],
      "isFixedGasLimit": false
    },
    {
      "hash": "0x5e56fefbf36a78e33fe0522522f27d3617f6d52dc8ae9b0db14e061a32681434",
      "transactionType": "CALL",
      "contractName": null,
      "contractAddress": "0xe0649c73277fb736455ec3dfa6a446a2a864f831",
      "function": "poolDeposit(uint256)",
      "arguments": [
        "500000000000000000"
      ],
      "transaction": {
        "from": "0x03773f85756acac65a869e89e3b7b2fcda6be140",
        "to": "0xe0649c73277fb736455ec3dfa6a446a2a864f831",
        "gas": "0x17617",
        "value": "0x6f05b59d3b20000",
        "input": "0x2d02462b00000000000000000000000000000000000000000000000006f05b59d3b20000",
        "nonce": "0x2a",
        "chainId": "0xaa36a7"
      },
      "additionalContracts": [],
      "isFixedGasLimit": false
    },
    {
      "hash": "0x3896391562fd04ef614d9fea40af12efcd2615fe429d9f7bf7aa2a771519a8d9",
      "transactionType": "CALL",
      "contractName": null,
      "contractAddress": "0x0cfbc9aaef1fbca9bbef916ad4dabf0d6103451b",
      "function": "setPeer(uint32,bytes32)",
      "arguments": [
        "40231",
        "0x000000000000000000000000f430ac9b73c5fb875d8350a300e95049a19cabb1"
      ],
      "transaction": {
        "from": "0x03773f85756acac65a869e89e3b7b2fcda6be140",
        "to": "0x0cfbc9aaef1fbca9bbef916ad4dabf0d6103451b",
        "gas": "0x110ae",
        "value": "0x0",
        "input": "0x3400288b0000000000000000000000000000000000000000000000000000000000009d27000000000000000000000000f430ac9b73c5fb875d8350a300e95049a19cabb1",
        "nonce": "0x2b",
        "chainId": "0xaa36a7"
      },
      "additionalContracts": [],
      "isFixedGasLimit": false
    }
  ],
  "receipts": [
    {
      "status": "0x1",
      "cumulativeGasUsed": "0xaac8f7",
      "logs": [
        {
          "address": "0x0cfbc9aaef1fbca9bbef916ad4dabf0d6103451b",
          "topics": [
            "0x784c8f4dbf0ffedd6e72c76501c545a70f8b203b30a26ce542bf92ba87c248a4"
          ],
          "data": "0x000000000000000000000000981830d1946e6fc9d5f893327a2819fd5e2c5819",
          "blockHash": "0x5a90b426146070f414f0a8cfa450c2af58fdbc65ce682b013bc7aa2ff7acdf4a",
          "blockNumber": "0x619b17",
          "transactionHash": "0xe62db9bde21a1e88853cdfd1f34ac4fe4573cd2dbbf18dd499cebf6026a6fa78",
          "transactionIndex": "0x4f",
          "logIndex": "0xa5",
          "removed": false
        }
      ],
      "logsBloom": "0x00000000000000000000000000000000000000000000000000000000000000000000000000000000000000000000000000000000000000000000000000000000000000000000000400000000000000000000000000000000000000000000000000000000000000000000000000000000000000000000200000000000000000000000000000000000000000000000000000000000000000000000000000000000000000000000000000200000000000000000000000000000000000000000000000000000000000000000000000000000000000000000000000000000000000000000004000020000000000000000000000000000000000001000000000000000",
      "type": "0x2",
      "transactionHash": "0xe62db9bde21a1e88853cdfd1f34ac4fe4573cd2dbbf18dd499cebf6026a6fa78",
      "transactionIndex": "0x4f",
      "blockHash": "0x5a90b426146070f414f0a8cfa450c2af58fdbc65ce682b013bc7aa2ff7acdf4a",
      "blockNumber": "0x619b17",
      "gasUsed": "0xb994",
      "effectiveGasPrice": "0x142a19ef98",
      "from": "0x03773f85756acac65a869e89e3b7b2fcda6be140",
      "to": "0x0cfbc9aaef1fbca9bbef916ad4dabf0d6103451b",
      "contractAddress": null
    },
    {
      "status": "0x1",
      "cumulativeGasUsed": "0xab828b",
      "logs": [
        {
          "address": "0x0cfbc9aaef1fbca9bbef916ad4dabf0d6103451b",
          "topics": [
            "0x784c8f4dbf0ffedd6e72c76501c545a70f8b203b30a26ce542bf92ba87c248a4"
          ],
          "data": "0x000000000000000000000000f531b8f309be94191af87605cfbf600d71c2cfe0",
          "blockHash": "0x5a90b426146070f414f0a8cfa450c2af58fdbc65ce682b013bc7aa2ff7acdf4a",
          "blockNumber": "0x619b17",
          "transactionHash": "0x251ebd3fc3775f6122eb3bc11a21a373dcca5a3358b0cfcd4a0cdafd7baf019f",
          "transactionIndex": "0x50",
          "logIndex": "0xa6",
          "removed": false
        }
      ],
      "logsBloom": "0x00000000000000000000000000000000000000000000000000000000000000000000000000000000000000000000000000000000000000000000000000000000000000000000000400000000000000000000000000000000000000000000000000000000000000000000000000000000000000000000200000000000000000000000000000000000000000000000000000000000000000000000000000000000000000000000000000200000000000000000000000000000000000000000000000000000000000000000000000000000000000000000000000000000000000000000004000020000000000000000000000000000000000001000000000000000",
      "type": "0x2",
      "transactionHash": "0x251ebd3fc3775f6122eb3bc11a21a373dcca5a3358b0cfcd4a0cdafd7baf019f",
      "transactionIndex": "0x50",
      "blockHash": "0x5a90b426146070f414f0a8cfa450c2af58fdbc65ce682b013bc7aa2ff7acdf4a",
      "blockNumber": "0x619b17",
      "gasUsed": "0xb994",
      "effectiveGasPrice": "0x142a19ef98",
      "from": "0x03773f85756acac65a869e89e3b7b2fcda6be140",
      "to": "0x0cfbc9aaef1fbca9bbef916ad4dabf0d6103451b",
      "contractAddress": null
    },
    {
      "status": "0x1",
      "cumulativeGasUsed": "0xac8255",
      "logs": [
        {
          "address": "0xf531b8f309be94191af87605cfbf600d71c2cfe0",
          "topics": [
            "0xddf252ad1be2c89b69c2b068fc378daa952ba7f163c4a11628f55a4df523b3ef",
            "0x0000000000000000000000000000000000000000000000000000000000000000",
            "0x000000000000000000000000e0649c73277fb736455ec3dfa6a446a2a864f831"
          ],
          "data": "0x00000000000000000000000000000000000000000000000006f05b59d3b20000",
          "blockHash": "0x5a90b426146070f414f0a8cfa450c2af58fdbc65ce682b013bc7aa2ff7acdf4a",
          "blockNumber": "0x619b17",
          "transactionHash": "0x5e56fefbf36a78e33fe0522522f27d3617f6d52dc8ae9b0db14e061a32681434",
          "transactionIndex": "0x51",
          "logIndex": "0xa7",
          "removed": false
        },
        {
          "address": "0xf531b8f309be94191af87605cfbf600d71c2cfe0",
          "topics": [
            "0xe1fffcc4923d04b559f4d29a8bfc6cda04eb5b0d3c460751c2402c5c5cc9109c",
            "0x000000000000000000000000e0649c73277fb736455ec3dfa6a446a2a864f831"
          ],
          "data": "0x00000000000000000000000000000000000000000000000006f05b59d3b20000",
          "blockHash": "0x5a90b426146070f414f0a8cfa450c2af58fdbc65ce682b013bc7aa2ff7acdf4a",
          "blockNumber": "0x619b17",
          "transactionHash": "0x5e56fefbf36a78e33fe0522522f27d3617f6d52dc8ae9b0db14e061a32681434",
          "transactionIndex": "0x51",
          "logIndex": "0xa8",
          "removed": false
        },
        {
          "address": "0xe0649c73277fb736455ec3dfa6a446a2a864f831",
          "topics": [
            "0xf426864a01eab571c4f4f49d1f6a62570576cc8c263ee6a7b888aeae007e0d37"
          ],
          "data": "0x00000000000000000000000000000000000000000000000006f05b59d3b20000",
          "blockHash": "0x5a90b426146070f414f0a8cfa450c2af58fdbc65ce682b013bc7aa2ff7acdf4a",
          "blockNumber": "0x619b17",
          "transactionHash": "0x5e56fefbf36a78e33fe0522522f27d3617f6d52dc8ae9b0db14e061a32681434",
          "transactionIndex": "0x51",
          "logIndex": "0xa9",
          "removed": false
        }
      ],
      "logsBloom": "0x02000000000000000000000000000000000000000000000000000000000000000000000000000000000000000000000000000000000000000000000000000000000000000000000000000008000000000000004000000000000000048000000000000200020000010000000000000800000000000000000000000010000000000000200000000000000000000000000000000001800000000000000000000000000000008000000000000001000000000000000000000000000000000000000040000002000000000200000000000000000000000000000000000000000020000000000000000000000000000000000000000000000000402000000000000000",
      "type": "0x2",
      "transactionHash": "0x5e56fefbf36a78e33fe0522522f27d3617f6d52dc8ae9b0db14e061a32681434",
      "transactionIndex": "0x51",
      "blockHash": "0x5a90b426146070f414f0a8cfa450c2af58fdbc65ce682b013bc7aa2ff7acdf4a",
      "blockNumber": "0x619b17",
      "gasUsed": "0xffca",
      "effectiveGasPrice": "0x142a19ef98",
      "from": "0x03773f85756acac65a869e89e3b7b2fcda6be140",
      "to": "0xe0649c73277fb736455ec3dfa6a446a2a864f831",
      "contractAddress": null
    },
    {
      "status": "0x1",
      "cumulativeGasUsed": "0xad3cc8",
      "logs": [
        {
          "address": "0x0cfbc9aaef1fbca9bbef916ad4dabf0d6103451b",
          "topics": [
            "0x238399d427b947898edb290f5ff0f9109849b1c3ba196a42e35f00c50a54b98b"
          ],
          "data": "0x0000000000000000000000000000000000000000000000000000000000009d27000000000000000000000000f430ac9b73c5fb875d8350a300e95049a19cabb1",
          "blockHash": "0x5a90b426146070f414f0a8cfa450c2af58fdbc65ce682b013bc7aa2ff7acdf4a",
          "blockNumber": "0x619b17",
          "transactionHash": "0x3896391562fd04ef614d9fea40af12efcd2615fe429d9f7bf7aa2a771519a8d9",
          "transactionIndex": "0x52",
          "logIndex": "0xaa",
          "removed": false
        }
      ],
      "logsBloom": "0x00000000000000000000000000000000000000000000000000000000000000000000000000000000000000000000000000000000000000000800000000000000000000000000000400000000000000000000000000000000000000000000000000000000000000000000000000000000000000000000000000000000000000000000000000000000000000000000000000000000000000000000000000000000000000000000000000000000000000000000000000000000000002000000000000000000000000000000000000000000000000000000000000040000000000000000004000020000000000000000000000000000000000000000000000000000",
      "type": "0x2",
      "transactionHash": "0x3896391562fd04ef614d9fea40af12efcd2615fe429d9f7bf7aa2a771519a8d9",
      "transactionIndex": "0x52",
      "blockHash": "0x5a90b426146070f414f0a8cfa450c2af58fdbc65ce682b013bc7aa2ff7acdf4a",
      "blockNumber": "0x619b17",
      "gasUsed": "0xba73",
      "effectiveGasPrice": "0x142a19ef98",
      "from": "0x03773f85756acac65a869e89e3b7b2fcda6be140",
      "to": "0x0cfbc9aaef1fbca9bbef916ad4dabf0d6103451b",
      "contractAddress": null
    }
  ],
  "libraries": [],
  "pending": [],
  "returns": {},
  "timestamp": 1722245069,
  "chain": 11155111,
  "commit": "bfd3004"
}