{
  "transactions": [
    {
      "hash": "0x05b27abc9821b22d5315790b9c3073db8a561b81beb9c15fab7a629134c97902",
      "transactionType": "CALL",
      "contractName": null,
      "contractAddress": "0x0cfbc9aaef1fbca9bbef916ad4dabf0d6103451b",
      "function": "setPeer(uint32,bytes32)",
      "arguments": [
        "40231",
        "0x000000000000000000000000981830d1946e6fc9d5f893327a2819fd5e2c5819"
      ],
      "transaction": {
        "from": "0x03773f85756acac65a869e89e3b7b2fcda6be140",
        "to": "0x0cfbc9aaef1fbca9bbef916ad4dabf0d6103451b",
        "gas": "0xaf0e",
        "value": "0x0",
        "input": "0x3400288b0000000000000000000000000000000000000000000000000000000000009d27000000000000000000000000981830d1946e6fc9d5f893327a2819fd5e2c5819",
        "nonce": "0x2c",
        "chainId": "0xaa36a7"
      },
      "additionalContracts": [],
      "isFixedGasLimit": false
    }
  ],
  "receipts": [
    {
      "status": "0x1",
      "cumulativeGasUsed": "0x7b64a4",
      "logs": [
        {
          "address": "0x0cfbc9aaef1fbca9bbef916ad4dabf0d6103451b",
          "topics": [
            "0x238399d427b947898edb290f5ff0f9109849b1c3ba196a42e35f00c50a54b98b"
          ],
          "data": "0x0000000000000000000000000000000000000000000000000000000000009d27000000000000000000000000981830d1946e6fc9d5f893327a2819fd5e2c5819",
          "blockHash": "0x86366caa993221687102fa094426391ea1ee8126299b573972da189e32ddc875",
          "blockNumber": "0x619d08",
          "transactionHash": "0x05b27abc9821b22d5315790b9c3073db8a561b81beb9c15fab7a629134c97902",
          "transactionIndex": "0x44",
          "logIndex": "0x86",
          "removed": false
        }
      ],
      "logsBloom": "0x00000000000000000000000000000000000000000000000000000000000000000000000000000000000000000000000000000000000000000800000000000000000000000000000400000000000000000000000000000000000000000000000000000000000000000000000000000000000000000000000000000000000000000000000000000000000000000000000000000000000000000000000000000000000000000000000000000000000000000000000000000000000002000000000000000000000000000000000000000000000000000000000000040000000000000000004000020000000000000000000000000000000000000000000000000000",
      "type": "0x2",
      "transactionHash": "0x05b27abc9821b22d5315790b9c3073db8a561b81beb9c15fab7a629134c97902",
      "transactionIndex": "0x44",
      "blockHash": "0x86366caa993221687102fa094426391ea1ee8126299b573972da189e32ddc875",
      "blockNumber": "0x619d08",
      "gasUsed": "0x77b3",
      "effectiveGasPrice": "0x1ce5bcd1e",
      "from": "0x03773f85756acac65a869e89e3b7b2fcda6be140",
      "to": "0x0cfbc9aaef1fbca9bbef916ad4dabf0d6103451b",
      "contractAddress": null
    }
  ],
  "libraries": [],
  "pending": [],
  "returns": {},
  "timestamp": 1722252181,
  "chain": 11155111,
  "commit": "bfd3004"
}