{
  "transactions": [
    {
      "hash": "0xa6b9f183c3e0bfa974dec4936a88d1eebbbdde29b8771cc8c2bc0be9a750de11",
      "transactionType": "CALL",
      "contractName": null,
      "contractAddress": "0xdaab75ca8e7e3c0f880c4d1727c9c287139b2ca5",
      "function": "addSupportedToken(address,address)",
      "arguments": [
        "0xf531B8F309Be94191af87605CfBf600D71C2cFe0",
        "0xA500C712e7EbDd5040f1A212800f5f6fa20d05F8"
      ],
      "transaction": {
        "from": "0xe0d6f93151091f24ea09474e9271bd60f2624d99",
        "to": "0xdaab75ca8e7e3c0f880c4d1727c9c287139b2ca5",
        "gas": "0x11d78",
        "value": "0x0",
        "input": "0xc2b7be16000000000000000000000000f531b8f309be94191af87605cfbf600d71c2cfe0000000000000000000000000a500c712e7ebdd5040f1a212800f5f6fa20d05f8",
        "nonce": "0x30",
        "chainId": "0xaa36a7"
      },
      "additionalContracts": [],
      "isFixedGasLimit": false
    },
    {
      "hash": "0xa9a6ae765c30a40b4836496e213cb558b6aa8b8e86fcd6b360cdc1e6741d9fc9",
      "transactionType": "CALL",
      "contractName": null,
      "contractAddress": "0xdaab75ca8e7e3c0f880c4d1727c9c287139b2ca5",
      "function": "addSupportedToken(address,address)",
      "arguments": [
        "0x981830D1946e6FC9D5F893327a2819Fd5E2C5819",
        "0xA500C712e7EbDd5040f1A212800f5f6fa20d05F8"
      ],
      "transaction": {
        "from": "0xe0d6f93151091f24ea09474e9271bd60f2624d99",
        "to": "0xdaab75ca8e7e3c0f880c4d1727c9c287139b2ca5",
        "gas": "0x11d78",
        "value": "0x0",
        "input": "0xc2b7be16000000000000000000000000981830d1946e6fc9d5f893327a2819fd5e2c5819000000000000000000000000a500c712e7ebdd5040f1a212800f5f6fa20d05f8",
        "nonce": "0x31",
        "chainId": "0xaa36a7"
      },
      "additionalContracts": [],
      "isFixedGasLimit": false
    },
    {
      "hash": "0x5795c6c2ea31ffd0f4208563812e96f4a93d97a2024a92c1dec584713a3a02b8",
      "transactionType": "CALL",
      "contractName": null,
      "contractAddress": "0xa500c712e7ebdd5040f1a212800f5f6fa20d05f8",
      "function": "poolDeposit(address)",
      "arguments": [
        "0xA500C712e7EbDd5040f1A212800f5f6fa20d05F8"
      ],
      "transaction": {
        "from": "0xe0d6f93151091f24ea09474e9271bd60f2624d99",
        "to": "0xa500c712e7ebdd5040f1a212800f5f6fa20d05f8",
        "gas": "0x1ddf2",
        "value": "0x6f05b59d3b20000",
        "input": "0x5698afa5000000000000000000000000a500c712e7ebdd5040f1a212800f5f6fa20d05f8",
        "nonce": "0x32",
        "chainId": "0xaa36a7"
      },
      "additionalContracts": [],
      "isFixedGasLimit": false
    }
  ],
  "receipts": [
    {
      "status": "0x1",
      "cumulativeGasUsed": "0x159f3ce",
      "logs": [
        {
          "address": "0xdaab75ca8e7e3c0f880c4d1727c9c287139b2ca5",
          "topics": [
            "0xdffbd9ded1c09446f09377de547142dcce7dc541c8b0b028142b1eba7026b9e7",
            "0x000000000000000000000000f531b8f309be94191af87605cfbf600d71c2cfe0",
            "0x000000000000000000000000a500c712e7ebdd5040f1a212800f5f6fa20d05f8"
          ],
          "data": "0x",
          "blockHash": "0x3152d01f35dc1c54151ccd884df4e3fd23703f6922af388ef22c7c0f88c59927",
          "blockNumber": "0x650de3",
          "transactionHash": "0xa6b9f183c3e0bfa974dec4936a88d1eebbbdde29b8771cc8c2bc0be9a750de11",
          "transactionIndex": "0x6c",
          "logIndex": "0xef",
          "removed": false
        }
      ],
      "logsBloom": "0x00000000000000000200000000000000000000000000000000000000000000000000000000000000000000000000042000000000008000400000000000000000000000000000000000000000000000000000000000000000000000204000000010000000000000000000000000000000000000000000000000000000000000000000000000022000000000000000000000000000000000000000000000000000000000000000000000000000000000000000000000000000000000002000000000000000000000000000000800000000000000000000000000000000000000000000000000000000000000000000000000000000000000000000000000000000",
      "type": "0x2",
      "transactionHash": "0xa6b9f183c3e0bfa974dec4936a88d1eebbbdde29b8771cc8c2bc0be9a750de11",
      "transactionIndex": "0x6c",
      "blockHash": "0x3152d01f35dc1c54151ccd884df4e3fd23703f6922af388ef22c7c0f88c59927",
      "blockNumber": "0x650de3",
      "gasUsed": "0xceae",
      "effectiveGasPrice": "0x40b1ef8cb",
      "from": "0xe0d6f93151091f24ea09474e9271bd60f2624d99",
      "to": "0xdaab75ca8e7e3c0f880c4d1727c9c287139b2ca5",
      "contractAddress": null
    },
    {
      "status": "0x1",
      "cumulativeGasUsed": "0x15c15a6",
      "logs": [
        {
          "address": "0xdaab75ca8e7e3c0f880c4d1727c9c287139b2ca5",
          "topics": [
            "0xdffbd9ded1c09446f09377de547142dcce7dc541c8b0b028142b1eba7026b9e7",
            "0x000000000000000000000000981830d1946e6fc9d5f893327a2819fd5e2c5819",
            "0x000000000000000000000000a500c712e7ebdd5040f1a212800f5f6fa20d05f8"
          ],
          "data": "0x",
          "blockHash": "0x3152d01f35dc1c54151ccd884df4e3fd23703f6922af388ef22c7c0f88c59927",
          "blockNumber": "0x650de3",
          "transactionHash": "0xa9a6ae765c30a40b4836496e213cb558b6aa8b8e86fcd6b360cdc1e6741d9fc9",
          "transactionIndex": "0x6e",
          "logIndex": "0xf1",
          "removed": false
        }
      ],
      "logsBloom": "0x00000000000000000200000000000000000000008000000000000000000000000000000000000000000000000000000000000000008000400400000000000000000000000000000000000000000000000000000000000000000000204000000010000000000000000000000000000000000000000000000000000000000000000000000000002000000000000000000000000000000000000000000000000000000000000000000000000000000000000000000000000004000000002000000000000000000000000000000800000000000000000000000000000000000000000000000000000000000000000000000000000000000000000000000000000000",
      "type": "0x2",
      "transactionHash": "0xa9a6ae765c30a40b4836496e213cb558b6aa8b8e86fcd6b360cdc1e6741d9fc9",
      "transactionIndex": "0x6e",
      "blockHash": "0x3152d01f35dc1c54151ccd884df4e3fd23703f6922af388ef22c7c0f88c59927",
      "blockNumber": "0x650de3",
      "gasUsed": "0xceae",
      "effectiveGasPrice": "0x40b1ef8cb",
      "from": "0xe0d6f93151091f24ea09474e9271bd60f2624d99",
      "to": "0xdaab75ca8e7e3c0f880c4d1727c9c287139b2ca5",
      "contractAddress": null
    },
    {
      "status": "0x1",
      "cumulativeGasUsed": "0x15d6fad",
      "logs": [
        {
          "address": "0xf531b8f309be94191af87605cfbf600d71c2cfe0",
          "topics": [
            "0xddf252ad1be2c89b69c2b068fc378daa952ba7f163c4a11628f55a4df523b3ef",
            "0x0000000000000000000000000000000000000000000000000000000000000000",
            "0x000000000000000000000000a500c712e7ebdd5040f1a212800f5f6fa20d05f8"
          ],
          "data": "0x00000000000000000000000000000000000000000000000006f05b59d3b20000",
          "blockHash": "0x3152d01f35dc1c54151ccd884df4e3fd23703f6922af388ef22c7c0f88c59927",
          "blockNumber": "0x650de3",
          "transactionHash": "0x5795c6c2ea31ffd0f4208563812e96f4a93d97a2024a92c1dec584713a3a02b8",
          "transactionIndex": "0x6f",
          "logIndex": "0xf2",
          "removed": false
        },
        {
          "address": "0xf531b8f309be94191af87605cfbf600d71c2cfe0",
          "topics": [
            "0xe1fffcc4923d04b559f4d29a8bfc6cda04eb5b0d3c460751c2402c5c5cc9109c",
            "0x000000000000000000000000a500c712e7ebdd5040f1a212800f5f6fa20d05f8"
          ],
          "data": "0x00000000000000000000000000000000000000000000000006f05b59d3b20000",
          "blockHash": "0x3152d01f35dc1c54151ccd884df4e3fd23703f6922af388ef22c7c0f88c59927",
          "blockNumber": "0x650de3",
          "transactionHash": "0x5795c6c2ea31ffd0f4208563812e96f4a93d97a2024a92c1dec584713a3a02b8",
          "transactionIndex": "0x6f",
          "logIndex": "0xf3",
          "removed": false
        },
        {
          "address": "0xa500c712e7ebdd5040f1a212800f5f6fa20d05f8",
          "topics": [
            "0x90576f1ad407b163ccea052b2d55bac158025af10ac5895369e8956eeab83434",
            "0x000000000000000000000000a500c712e7ebdd5040f1a212800f5f6fa20d05f8"
          ],
          "data": "0x00000000000000000000000000000000000000000000000006f05b59d3b20000",
          "blockHash": "0x3152d01f35dc1c54151ccd884df4e3fd23703f6922af388ef22c7c0f88c59927",
          "blockNumber": "0x650de3",
          "transactionHash": "0x5795c6c2ea31ffd0f4208563812e96f4a93d97a2024a92c1dec584713a3a02b8",
          "transactionIndex": "0x6f",
          "logIndex": "0xf4",
          "removed": false
        }
      ],
      "logsBloom": "0x02000000000000000000000000000000000000000000000000000000000000000000000000000000000004000000000000000000000000400000000000000000000000000000000000000008000000000000000000000000800000008000000010000200020000010000008000000800000000000000000000000010000000000000002000000000000000000000000008000001000000000000000000000000000000000000000000000000000000000000000000000000000000000000000000000002000000000000000800000000000000000000000400000000000020000000000000000000000000000000000000000000000000400000000000000000",
      "type": "0x2",
      "transactionHash": "0x5795c6c2ea31ffd0f4208563812e96f4a93d97a2024a92c1dec584713a3a02b8",
      "transactionIndex": "0x6f",
      "blockHash": "0x3152d01f35dc1c54151ccd884df4e3fd23703f6922af388ef22c7c0f88c59927",
      "blockNumber": "0x650de3",
      "gasUsed": "0x15a07",
      "effectiveGasPrice": "0x40b1ef8cb",
      "from": "0xe0d6f93151091f24ea09474e9271bd60f2624d99",
      "to": "0xa500c712e7ebdd5040f1a212800f5f6fa20d05f8",
      "contractAddress": null
    }
  ],
  "libraries": [],
  "pending": [],
  "returns": {},
  "timestamp": 1725332347,
  "chain": 11155111,
  "commit": "5cf640c"
}