{
  "transactions": [
    {
      "hash": "0x520ad45afea5ad71585aea2f6a9bfd39c769bb29b2bc971f0b6665fa8c147919",
      "transactionType": "CALL",
      "contractName": null,
      "contractAddress": "0x2d5905509ee73e8abf0fd50988ee5ced19b2ca90",
      "function": "addSupportedToken(address,address)",
      "arguments": [
        "0xf531B8F309Be94191af87605CfBf600D71C2cFe0",
        "0x6d5ecc0aa8DcE64045b1053A2480D82A61Ad86Bc"
      ],
      "transaction": {
        "from": "0xe0d6f93151091f24ea09474e9271bd60f2624d99",
        "to": "0x2d5905509ee73e8abf0fd50988ee5ced19b2ca90",
        "gas": "0x12e56",
        "value": "0x0",
        "input": "0xc2b7be16000000000000000000000000f531b8f309be94191af87605cfbf600d71c2cfe00000000000000000000000006d5ecc0aa8dce64045b1053a2480d82a61ad86bc",
        "nonce": "0x16",
        "chainId": "0xaa36a7"
      },
      "additionalContracts": [],
      "isFixedGasLimit": false
    },
    {
      "hash": "0xe56304d3e96400e8ea1c07cc6962eb31c9217ed5d20f3fa187aef199eb40a409",
      "transactionType": "CALL",
      "contractName": null,
      "contractAddress": "0x2d5905509ee73e8abf0fd50988ee5ced19b2ca90",
      "function": "addSupportedToken(address,address)",
      "arguments": [
        "0x981830D1946e6FC9D5F893327a2819Fd5E2C5819",
        "0x6d5ecc0aa8DcE64045b1053A2480D82A61Ad86Bc"
      ],
      "transaction": {
        "from": "0xe0d6f93151091f24ea09474e9271bd60f2624d99",
        "to": "0x2d5905509ee73e8abf0fd50988ee5ced19b2ca90",
        "gas": "0x12e56",
        "value": "0x0",
        "input": "0xc2b7be16000000000000000000000000981830d1946e6fc9d5f893327a2819fd5e2c58190000000000000000000000006d5ecc0aa8dce64045b1053a2480d82a61ad86bc",
        "nonce": "0x17",
        "chainId": "0xaa36a7"
      },
      "additionalContracts": [],
      "isFixedGasLimit": false
    },
    {
      "hash": "0xd30c6f30be958e0fe4db6e985bf96cf5ed2f2e33866882d3af2330e15a30dccf",
      "transactionType": "CALL",
      "contractName": null,
      "contractAddress": "0x99741c2f93df59e8c3d957998265b977e4b6ca72",
      "function": "poolDeposit(address)",
      "arguments": [
        "0x6d5ecc0aa8DcE64045b1053A2480D82A61Ad86Bc"
      ],
      "transaction": {
        "from": "0xe0d6f93151091f24ea09474e9271bd60f2624d99",
        "to": "0x99741c2f93df59e8c3d957998265b977e4b6ca72",
        "gas": "0x1fa21",
        "value": "0x6f05b59d3b20000",
        "input": "0x5698afa50000000000000000000000006d5ecc0aa8dce64045b1053a2480d82a61ad86bc",
        "nonce": "0x18",
        "chainId": "0xaa36a7"
      },
      "additionalContracts": [],
      "isFixedGasLimit": false
    }
  ],
  "receipts": [
    {
      "status": "0x1",
      "cumulativeGasUsed": "0x1409c7c",
      "logs": [
        {
          "address": "0x2d5905509ee73e8abf0fd50988ee5ced19b2ca90",
          "topics": [
            "0xdffbd9ded1c09446f09377de547142dcce7dc541c8b0b028142b1eba7026b9e7",
            "0x000000000000000000000000f531b8f309be94191af87605cfbf600d71c2cfe0",
            "0x0000000000000000000000006d5ecc0aa8dce64045b1053a2480d82a61ad86bc"
          ],
          "data": "0x",
          "blockHash": "0xb1536fc5ede59828aff24bfc47b86f275e7582ca3aa397780fccb605af3e9be0",
          "blockNumber": "0x64afdb",
          "transactionHash": "0x520ad45afea5ad71585aea2f6a9bfd39c769bb29b2bc971f0b6665fa8c147919",
          "transactionIndex": "0x73",
          "logIndex": "0x104",
          "removed": false
        }
      ],
      "logsBloom": "0x00000000000000000000000000000000000000000000000000000002000000040000080080000000000000000000042000000000008000000000000000000000000000000000000000000000000000000000000000000000000000200000000000000000000000000000000000000000000000000000000000004000000000000000000000022000000000000000200000000000000000000000000000000000000000000000000000000000000000000000000000000000000000000000000000000000000000000000000000000000000000000000000000000000000000000000000000000000000000000000000000000000000000000000000000000000",
      "type": "0x2",
      "transactionHash": "0x520ad45afea5ad71585aea2f6a9bfd39c769bb29b2bc971f0b6665fa8c147919",
      "transactionIndex": "0x73",
      "blockHash": "0xb1536fc5ede59828aff24bfc47b86f275e7582ca3aa397780fccb605af3e9be0",
      "blockNumber": "0x64afdb",
      "gasUsed": "0xceba",
      "effectiveGasPrice": "0x30db41c41",
      "from": "0xe0d6f93151091f24ea09474e9271bd60f2624d99",
      "to": "0x2d5905509ee73e8abf0fd50988ee5ced19b2ca90",
      "contractAddress": null
    },
    {
      "status": "0x1",
      "cumulativeGasUsed": "0x1416b36",
      "logs": [
        {
          "address": "0x2d5905509ee73e8abf0fd50988ee5ced19b2ca90",
          "topics": [
            "0xdffbd9ded1c09446f09377de547142dcce7dc541c8b0b028142b1eba7026b9e7",
            "0x000000000000000000000000981830d1946e6fc9d5f893327a2819fd5e2c5819",
            "0x0000000000000000000000006d5ecc0aa8dce64045b1053a2480d82a61ad86bc"
          ],
          "data": "0x",
          "blockHash": "0xb1536fc5ede59828aff24bfc47b86f275e7582ca3aa397780fccb605af3e9be0",
          "blockNumber": "0x64afdb",
          "transactionHash": "0xe56304d3e96400e8ea1c07cc6962eb31c9217ed5d20f3fa187aef199eb40a409",
          "transactionIndex": "0x74",
          "logIndex": "0x105",
          "removed": false
        }
      ],
      "logsBloom": "0x00000000000000000000000000000000000000008000000000000002000000040000080080000000000000000000000000000000008000000400000000000000000000000000000000000000000000000000000000000000000000200000000000000000000000000000000000000000000000000000000000004000000000000000000000002000000000000000200000000000000000000000000000000000000000000000000000000000000000000000000000000004000000000000000000000000000000000000000000000000000000000000000000000000000000000000000000000000000000000000000000000000000000000000000000000000",
      "type": "0x2",
      "transactionHash": "0xe56304d3e96400e8ea1c07cc6962eb31c9217ed5d20f3fa187aef199eb40a409",
      "transactionIndex": "0x74",
      "blockHash": "0xb1536fc5ede59828aff24bfc47b86f275e7582ca3aa397780fccb605af3e9be0",
      "blockNumber": "0x64afdb",
      "gasUsed": "0xceba",
      "effectiveGasPrice": "0x30db41c41",
      "from": "0xe0d6f93151091f24ea09474e9271bd60f2624d99",
      "to": "0x2d5905509ee73e8abf0fd50988ee5ced19b2ca90",
      "contractAddress": null
    },
    {
      "status": "0x1",
      "cumulativeGasUsed": "0x142c549",
      "logs": [
        {
          "address": "0xf531b8f309be94191af87605cfbf600d71c2cfe0",
          "topics": [
            "0xddf252ad1be2c89b69c2b068fc378daa952ba7f163c4a11628f55a4df523b3ef",
            "0x0000000000000000000000000000000000000000000000000000000000000000",
            "0x00000000000000000000000099741c2f93df59e8c3d957998265b977e4b6ca72"
          ],
          "data": "0x00000000000000000000000000000000000000000000000006f05b59d3b20000",
          "blockHash": "0xb1536fc5ede59828aff24bfc47b86f275e7582ca3aa397780fccb605af3e9be0",
          "blockNumber": "0x64afdb",
          "transactionHash": "0xd30c6f30be958e0fe4db6e985bf96cf5ed2f2e33866882d3af2330e15a30dccf",
          "transactionIndex": "0x75",
          "logIndex": "0x106",
          "removed": false
        },
        {
          "address": "0xf531b8f309be94191af87605cfbf600d71c2cfe0",
          "topics": [
            "0xe1fffcc4923d04b559f4d29a8bfc6cda04eb5b0d3c460751c2402c5c5cc9109c",
            "0x00000000000000000000000099741c2f93df59e8c3d957998265b977e4b6ca72"
          ],
          "data": "0x00000000000000000000000000000000000000000000000006f05b59d3b20000",
          "blockHash": "0xb1536fc5ede59828aff24bfc47b86f275e7582ca3aa397780fccb605af3e9be0",
          "blockNumber": "0x64afdb",
          "transactionHash": "0xd30c6f30be958e0fe4db6e985bf96cf5ed2f2e33866882d3af2330e15a30dccf",
          "transactionIndex": "0x75",
          "logIndex": "0x107",
          "removed": false
        },
        {
          "address": "0x99741c2f93df59e8c3d957998265b977e4b6ca72",
          "topics": [
            "0x90576f1ad407b163ccea052b2d55bac158025af10ac5895369e8956eeab83434",
            "0x0000000000000000000000006d5ecc0aa8dce64045b1053a2480d82a61ad86bc"
          ],
          "data": "0x00000000000000000000000000000000000000000000000006f05b59d3b20000",
          "blockHash": "0xb1536fc5ede59828aff24bfc47b86f275e7582ca3aa397780fccb605af3e9be0",
          "blockNumber": "0x64afdb",
          "transactionHash": "0xd30c6f30be958e0fe4db6e985bf96cf5ed2f2e33866882d3af2330e15a30dccf",
          "transactionIndex": "0x75",
          "logIndex": "0x108",
          "removed": false
        }
      ],
      "logsBloom": "0x02000000000000000000000000000000000000000000000000000002000100040000080000000000000000000000000000000000000000000000000000000000000000000000000000000008000000000000000000008000800000008000000800000200020000010000000000000810000000000000000000000010000000000000002000000000000000000000000008000001000000000000000000000000000000000000000000000000000000000000000000000000000000000000000000000002000000004000000000000000000000000000000000000000000020000000000000000000000000000000000000000000000000400000000000000080",
      "type": "0x2",
      "transactionHash": "0xd30c6f30be958e0fe4db6e985bf96cf5ed2f2e33866882d3af2330e15a30dccf",
      "transactionIndex": "0x75",
      "blockHash": "0xb1536fc5ede59828aff24bfc47b86f275e7582ca3aa397780fccb605af3e9be0",
      "blockNumber": "0x64afdb",
      "gasUsed": "0x15a13",
      "effectiveGasPrice": "0x30db41c41",
      "from": "0xe0d6f93151091f24ea09474e9271bd60f2624d99",
      "to": "0x99741c2f93df59e8c3d957998265b977e4b6ca72",
      "contractAddress": null
    }
  ],
  "libraries": [],
  "pending": [],
  "returns": {},
  "timestamp": 1725000375,
  "chain": 11155111,
  "commit": "bc014d5"
}