{
  "transactions": [
    {
      "hash": "0x21e5608c46d5b74fc7bcdbbd9f9c890aa737ce24287286c299c488c15bbc4fb9",
      "transactionType": "CALL",
      "contractName": null,
      "contractAddress": "0x6d5ecc0aa8dce64045b1053a2480d82a61ad86bc",
      "function": "approveChain(uint256)",
      "arguments": [
        "40231"
      ],
      "transaction": {
        "from": "0xe0d6f93151091f24ea09474e9271bd60f2624d99",
        "to": "0x6d5ecc0aa8dce64045b1053a2480d82a61ad86bc",
        "gas": "0x21061",
        "value": "0x0",
        "input": "0xeb87840d0000000000000000000000000000000000000000000000000000000000009d27",
        "nonce": "0x1a",
        "chainId": "0x14a34"
      },
      "additionalContracts": [],
      "isFixedGasLimit": false
    },
    {
      "hash": "0xd70edfbedc735d1859ae88299d9eb617f251c910572d8f9d66307953626be8e2",
      "transactionType": "CALL",
      "contractName": null,
      "contractAddress": "0x6d5ecc0aa8dce64045b1053a2480d82a61ad86bc",
      "function": "approveChain(uint256)",
      "arguments": [
        "40161"
      ],
      "transaction": {
        "from": "0xe0d6f93151091f24ea09474e9271bd60f2624d99",
        "to": "0x6d5ecc0aa8dce64045b1053a2480d82a61ad86bc",
        "gas": "0x1bca9",
        "value": "0x0",
        "input": "0xeb87840d0000000000000000000000000000000000000000000000000000000000009ce1",
        "nonce": "0x1b",
        "chainId": "0x14a34"
      },
      "additionalContracts": [],
      "isFixedGasLimit": false
    },
    {
      "hash": "0x65854d815af631c7e018977ecf85ada5e79224c87c2c033a0b10b2305b58621e",
      "transactionType": "CALL",
      "contractName": null,
      "contractAddress": "0x6d5ecc0aa8dce64045b1053a2480d82a61ad86bc",
      "function": "approveChain(uint256)",
      "arguments": [
        "40232"
      ],
      "transaction": {
        "from": "0xe0d6f93151091f24ea09474e9271bd60f2624d99",
        "to": "0x6d5ecc0aa8dce64045b1053a2480d82a61ad86bc",
        "gas": "0x1caa2",
        "value": "0x0",
        "input": "0xeb87840d0000000000000000000000000000000000000000000000000000000000009d28",
        "nonce": "0x1c",
        "chainId": "0x14a34"
      },
      "additionalContracts": [],
      "isFixedGasLimit": false
    },
    {
      "hash": "0x6765dfd132b935b49d8ee2d41bc4364a3cb483a13a75c5eb72a0816dee2b7c9f",
      "transactionType": "CALL",
      "contractName": null,
      "contractAddress": "0x6d5ecc0aa8dce64045b1053a2480d82a61ad86bc",
      "function": "approveChain(uint256)",
      "arguments": [
        "40245"
      ],
      "transaction": {
        "from": "0xe0d6f93151091f24ea09474e9271bd60f2624d99",
        "to": "0x6d5ecc0aa8dce64045b1053a2480d82a61ad86bc",
        "gas": "0x1be5a",
        "value": "0x0",
        "input": "0xeb87840d0000000000000000000000000000000000000000000000000000000000009d35",
        "nonce": "0x1d",
        "chainId": "0x14a34"
      },
      "additionalContracts": [],
      "isFixedGasLimit": false
    },
    {
      "hash": "0x4adbf12ac4864550812bbcc404814ae8fff9cfe942c3e3933e382c9d4fbfd02b",
      "transactionType": "CALL",
      "contractName": null,
      "contractAddress": "0x74ee076c2ce51e081375b3f106e525646697809d",
      "function": "addSupportedToken(address,address)",
      "arguments": [
        "0x4200000000000000000000000000000000000006",
        "0x6d5ecc0aa8DcE64045b1053A2480D82A61Ad86Bc"
      ],
      "transaction": {
        "from": "0xe0d6f93151091f24ea09474e9271bd60f2624d99",
        "to": "0x74ee076c2ce51e081375b3f106e525646697809d",
        "gas": "0x12d1a",
        "value": "0x0",
        "input": "0xc2b7be1600000000000000000000000042000000000000000000000000000000000000060000000000000000000000006d5ecc0aa8dce64045b1053a2480d82a61ad86bc",
        "nonce": "0x1e",
        "chainId": "0x14a34"
      },
      "additionalContracts": [],
      "isFixedGasLimit": false
    },
    {
      "hash": "0x5eac0698e5a1c9b7faf7094bfcb7a04d4253147114f9f5574b6d34afd5cdd04f",
      "transactionType": "CALL",
      "contractName": null,
      "contractAddress": "0x74ee076c2ce51e081375b3f106e525646697809d",
      "function": "addSupportedToken(address,address)",
      "arguments": [
        "0x14440344256002a5afaA1403EbdAf4bf9a5499E3",
        "0x6d5ecc0aa8DcE64045b1053A2480D82A61Ad86Bc"
      ],
      "transaction": {
        "from": "0xe0d6f93151091f24ea09474e9271bd60f2624d99",
        "to": "0x74ee076c2ce51e081375b3f106e525646697809d",
        "gas": "0x12e56",
        "value": "0x0",
        "input": "0xc2b7be1600000000000000000000000014440344256002a5afaa1403ebdaf4bf9a5499e30000000000000000000000006d5ecc0aa8dce64045b1053a2480d82a61ad86bc",
        "nonce": "0x1f",
        "chainId": "0x14a34"
      },
      "additionalContracts": [],
      "isFixedGasLimit": false
    }
  ],
  "receipts": [
    {
      "status": "0x1",
      "cumulativeGasUsed": "0x2424f9",
      "logs": [
        {
          "address": "0x6d5ecc0aa8dce64045b1053a2480d82a61ad86bc",
          "topics": [
            "0xbba9d55e9fd1a441b1617724e2fdb76777d15ec77ab2b72ac15952cbe97085db"
          ],
          "data": "0x0000000000000000000000000000000000000000000000000000000000009d27",
          "blockHash": "0x03e27fcdc21bfa0ed3e5b92acf307cd86fdaed40e3e8c3ec5c6350259e9cf4d9",
          "blockNumber": "0xdf02b6",
          "transactionHash": "0x21e5608c46d5b74fc7bcdbbd9f9c890aa737ce24287286c299c488c15bbc4fb9",
          "transactionIndex": "0x6",
          "logIndex": "0x40",
          "removed": false
        },
        {
          "address": "0x6d5ecc0aa8dce64045b1053a2480d82a61ad86bc",
          "topics": [
            "0xe012bf0e1630512126bccbc050ebf66c62af3753e3cd64d533ddf97f65f621c8"
          ],
          "data": "0x0000000000000000000000000000000000000000000000000000000000009d27",
          "blockHash": "0x03e27fcdc21bfa0ed3e5b92acf307cd86fdaed40e3e8c3ec5c6350259e9cf4d9",
          "blockNumber": "0xdf02b6",
          "transactionHash": "0x21e5608c46d5b74fc7bcdbbd9f9c890aa737ce24287286c299c488c15bbc4fb9",
          "transactionIndex": "0x6",
          "logIndex": "0x41",
          "removed": false
        }
      ],
      "logsBloom": "0x02000000000000000000000400000000000008000000000000000000000000000000000000000000000000000000000000000000000000000000000000000000000000000000000000000000004000000000000000000000000000000000000000000000000000000000000000000000000000000000000000000000000004000000000000000000000000000000000000000000000000000000000000000000000000000000000000000000000010000000200000000000000000000000000000000000000000000000000000000000000000000000000000000000000000000000000000010000000000000000000000000000000000000000000000000080",
      "type": "0x2",
      "transactionHash": "0x21e5608c46d5b74fc7bcdbbd9f9c890aa737ce24287286c299c488c15bbc4fb9",
      "transactionIndex": "0x6",
      "blockHash": "0x03e27fcdc21bfa0ed3e5b92acf307cd86fdaed40e3e8c3ec5c6350259e9cf4d9",
      "blockNumber": "0xdf02b6",
      "gasUsed": "0x16949",
      "effectiveGasPrice": "0x10caa8",
      "from": "0xe0d6f93151091f24ea09474e9271bd60f2624d99",
      "to": "0x6d5ecc0aa8dce64045b1053a2480d82a61ad86bc",
      "contractAddress": null,
      "l1BaseFeeScalar": "0x44d",
      "l1BlobBaseFee": "0x194b19aa",
      "l1BlobBaseFeeScalar": "0xa118b",
      "l1Fee": "0x76e500672",
      "l1GasPrice": "0x8473bf50",
      "l1GasUsed": "0x640"
    },
    {
      "status": "0x1",
      "cumulativeGasUsed": "0x255504",
      "logs": [
        {
          "address": "0x6d5ecc0aa8dce64045b1053a2480d82a61ad86bc",
          "topics": [
            "0xbba9d55e9fd1a441b1617724e2fdb76777d15ec77ab2b72ac15952cbe97085db"
          ],
          "data": "0x0000000000000000000000000000000000000000000000000000000000009ce1",
          "blockHash": "0x03e27fcdc21bfa0ed3e5b92acf307cd86fdaed40e3e8c3ec5c6350259e9cf4d9",
          "blockNumber": "0xdf02b6",
          "transactionHash": "0xd70edfbedc735d1859ae88299d9eb617f251c910572d8f9d66307953626be8e2",
          "transactionIndex": "0x7",
          "logIndex": "0x42",
          "removed": false
        },
        {
          "address": "0x6d5ecc0aa8dce64045b1053a2480d82a61ad86bc",
          "topics": [
            "0xe012bf0e1630512126bccbc050ebf66c62af3753e3cd64d533ddf97f65f621c8"
          ],
          "data": "0x0000000000000000000000000000000000000000000000000000000000009ce1",
          "blockHash": "0x03e27fcdc21bfa0ed3e5b92acf307cd86fdaed40e3e8c3ec5c6350259e9cf4d9",
          "blockNumber": "0xdf02b6",
          "transactionHash": "0xd70edfbedc735d1859ae88299d9eb617f251c910572d8f9d66307953626be8e2",
          "transactionIndex": "0x7",
          "logIndex": "0x43",
          "removed": false
        }
      ],
      "logsBloom": "0x02000000000000000000000400000000000008000000000000000000000000000000000000000000000000000000000000000000000000000000000000000000000000000000000000000000004000000000000000000000000000000000000000000000000000000000000000000000000000000000000000000000000004000000000000000000000000000000000000000000000000000000000000000000000000000000000000000000000010000000200000000000000000000000000000000000000000000000000000000000000000000000000000000000000000000000000000010000000000000000000000000000000000000000000000000080",
      "type": "0x2",
      "transactionHash": "0xd70edfbedc735d1859ae88299d9eb617f251c910572d8f9d66307953626be8e2",
      "transactionIndex": "0x7",
      "blockHash": "0x03e27fcdc21bfa0ed3e5b92acf307cd86fdaed40e3e8c3ec5c6350259e9cf4d9",
      "blockNumber": "0xdf02b6",
      "gasUsed": "0x1300b",
      "effectiveGasPrice": "0x10caa8",
      "from": "0xe0d6f93151091f24ea09474e9271bd60f2624d99",
      "to": "0x6d5ecc0aa8dce64045b1053a2480d82a61ad86bc",
      "contractAddress": null,
      "l1BaseFeeScalar": "0x44d",
      "l1BlobBaseFee": "0x194b19aa",
      "l1BlobBaseFeeScalar": "0xa118b",
      "l1Fee": "0x76e500672",
      "l1GasPrice": "0x8473bf50",
      "l1GasUsed": "0x640"
    },
    {
      "status": "0x1",
      "cumulativeGasUsed": "0x268e9d",
      "logs": [
        {
          "address": "0x6d5ecc0aa8dce64045b1053a2480d82a61ad86bc",
          "topics": [
            "0xbba9d55e9fd1a441b1617724e2fdb76777d15ec77ab2b72ac15952cbe97085db"
          ],
          "data": "0x0000000000000000000000000000000000000000000000000000000000009d28",
          "blockHash": "0x03e27fcdc21bfa0ed3e5b92acf307cd86fdaed40e3e8c3ec5c6350259e9cf4d9",
          "blockNumber": "0xdf02b6",
          "transactionHash": "0x65854d815af631c7e018977ecf85ada5e79224c87c2c033a0b10b2305b58621e",
          "transactionIndex": "0x8",
          "logIndex": "0x44",
          "removed": false
        },
        {
          "address": "0x6d5ecc0aa8dce64045b1053a2480d82a61ad86bc",
          "topics": [
            "0xe012bf0e1630512126bccbc050ebf66c62af3753e3cd64d533ddf97f65f621c8"
          ],
          "data": "0x0000000000000000000000000000000000000000000000000000000000009d28",
          "blockHash": "0x03e27fcdc21bfa0ed3e5b92acf307cd86fdaed40e3e8c3ec5c6350259e9cf4d9",
          "blockNumber": "0xdf02b6",
          "transactionHash": "0x65854d815af631c7e018977ecf85ada5e79224c87c2c033a0b10b2305b58621e",
          "transactionIndex": "0x8",
          "logIndex": "0x45",
          "removed": false
        }
      ],
      "logsBloom": "0x02000000000000000000000400000000000008000000000000000000000000000000000000000000000000000000000000000000000000000000000000000000000000000000000000000000004000000000000000000000000000000000000000000000000000000000000000000000000000000000000000000000000004000000000000000000000000000000000000000000000000000000000000000000000000000000000000000000000010000000200000000000000000000000000000000000000000000000000000000000000000000000000000000000000000000000000000010000000000000000000000000000000000000000000000000080",
      "type": "0x2",
      "transactionHash": "0x65854d815af631c7e018977ecf85ada5e79224c87c2c033a0b10b2305b58621e",
      "transactionIndex": "0x8",
      "blockHash": "0x03e27fcdc21bfa0ed3e5b92acf307cd86fdaed40e3e8c3ec5c6350259e9cf4d9",
      "blockNumber": "0xdf02b6",
      "gasUsed": "0x13999",
      "effectiveGasPrice": "0x10caa8",
      "from": "0xe0d6f93151091f24ea09474e9271bd60f2624d99",
      "to": "0x6d5ecc0aa8dce64045b1053a2480d82a61ad86bc",
      "contractAddress": null,
      "l1BaseFeeScalar": "0x44d",
      "l1BlobBaseFee": "0x194b19aa",
      "l1BlobBaseFeeScalar": "0xa118b",
      "l1Fee": "0x76e500672",
      "l1GasPrice": "0x8473bf50",
      "l1GasUsed": "0x640"
    },
    {
      "status": "0x1",
      "cumulativeGasUsed": "0x27d1c4",
      "logs": [
        {
          "address": "0x6d5ecc0aa8dce64045b1053a2480d82a61ad86bc",
          "topics": [
            "0xbba9d55e9fd1a441b1617724e2fdb76777d15ec77ab2b72ac15952cbe97085db"
          ],
          "data": "0x0000000000000000000000000000000000000000000000000000000000009d35",
          "blockHash": "0x03e27fcdc21bfa0ed3e5b92acf307cd86fdaed40e3e8c3ec5c6350259e9cf4d9",
          "blockNumber": "0xdf02b6",
          "transactionHash": "0x6765dfd132b935b49d8ee2d41bc4364a3cb483a13a75c5eb72a0816dee2b7c9f",
          "transactionIndex": "0x9",
          "logIndex": "0x46",
          "removed": false
        },
        {
          "address": "0x6d5ecc0aa8dce64045b1053a2480d82a61ad86bc",
          "topics": [
            "0xe012bf0e1630512126bccbc050ebf66c62af3753e3cd64d533ddf97f65f621c8"
          ],
          "data": "0x0000000000000000000000000000000000000000000000000000000000009d35",
          "blockHash": "0x03e27fcdc21bfa0ed3e5b92acf307cd86fdaed40e3e8c3ec5c6350259e9cf4d9",
          "blockNumber": "0xdf02b6",
          "transactionHash": "0x6765dfd132b935b49d8ee2d41bc4364a3cb483a13a75c5eb72a0816dee2b7c9f",
          "transactionIndex": "0x9",
          "logIndex": "0x47",
          "removed": false
        }
      ],
      "logsBloom": "0x02000000000000000000000400000000000008000000000000000000000000000000000000000000000000000000000000000000000000000000000000000000000000000000000000000000004000000000000000000000000000000000000000000000000000000000000000000000000000000000000000000000000004000000000000000000000000000000000000000000000000000000000000000000000000000000000000000000000010000000200000000000000000000000000000000000000000000000000000000000000000000000000000000000000000000000000000010000000000000000000000000000000000000000000000000080",
      "type": "0x2",
      "transactionHash": "0x6765dfd132b935b49d8ee2d41bc4364a3cb483a13a75c5eb72a0816dee2b7c9f",
      "transactionIndex": "0x9",
      "blockHash": "0x03e27fcdc21bfa0ed3e5b92acf307cd86fdaed40e3e8c3ec5c6350259e9cf4d9",
      "blockNumber": "0xdf02b6",
      "gasUsed": "0x14327",
      "effectiveGasPrice": "0x10caa8",
      "from": "0xe0d6f93151091f24ea09474e9271bd60f2624d99",
      "to": "0x6d5ecc0aa8dce64045b1053a2480d82a61ad86bc",
      "contractAddress": null,
      "l1BaseFeeScalar": "0x44d",
      "l1BlobBaseFee": "0x194b19aa",
      "l1BlobBaseFeeScalar": "0xa118b",
      "l1Fee": "0x76e500672",
      "l1GasPrice": "0x8473bf50",
      "l1GasUsed": "0x640"
    },
    {
      "status": "0x1",
      "cumulativeGasUsed": "0x289fa6",
      "logs": [
        {
          "address": "0x74ee076c2ce51e081375b3f106e525646697809d",
          "topics": [
            "0xdffbd9ded1c09446f09377de547142dcce7dc541c8b0b028142b1eba7026b9e7",
            "0x0000000000000000000000004200000000000000000000000000000000000006",
            "0x0000000000000000000000006d5ecc0aa8dce64045b1053a2480d82a61ad86bc"
          ],
          "data": "0x",
          "blockHash": "0x03e27fcdc21bfa0ed3e5b92acf307cd86fdaed40e3e8c3ec5c6350259e9cf4d9",
          "blockNumber": "0xdf02b6",
          "transactionHash": "0x4adbf12ac4864550812bbcc404814ae8fff9cfe942c3e3933e382c9d4fbfd02b",
          "transactionIndex": "0xa",
          "logIndex": "0x48",
          "removed": false
        }
      ],
      "logsBloom": "0x00000000000000000000000000000000000000000000000000000002000000040000080000000000000000000000000000000000008000000020000000000000000000000000000000000000000000000000000000000000000000200000000000000000000000000000000000000000000010000000000000000000000000000000000000002000000000000100000000000000000000000000000000000200000000000000000000000000000000000000000000000000000000000000000000000000000004000000000000000000000000000000000000000400000000000000000000000000000000000000000000000000000000000000000000000000",
      "type": "0x2",
      "transactionHash": "0x4adbf12ac4864550812bbcc404814ae8fff9cfe942c3e3933e382c9d4fbfd02b",
      "transactionIndex": "0xa",
      "blockHash": "0x03e27fcdc21bfa0ed3e5b92acf307cd86fdaed40e3e8c3ec5c6350259e9cf4d9",
      "blockNumber": "0xdf02b6",
      "gasUsed": "0xcde2",
      "effectiveGasPrice": "0x10caa8",
      "from": "0xe0d6f93151091f24ea09474e9271bd60f2624d99",
      "to": "0x74ee076c2ce51e081375b3f106e525646697809d",
      "contractAddress": null,
      "l1BaseFeeScalar": "0x44d",
      "l1BlobBaseFee": "0x194b19aa",
      "l1BlobBaseFeeScalar": "0xa118b",
      "l1Fee": "0x76e500672",
      "l1GasPrice": "0x8473bf50",
      "l1GasUsed": "0x640"
    },
    {
      "status": "0x1",
      "cumulativeGasUsed": "0x296e60",
      "logs": [
        {
          "address": "0x74ee076c2ce51e081375b3f106e525646697809d",
          "topics": [
            "0xdffbd9ded1c09446f09377de547142dcce7dc541c8b0b028142b1eba7026b9e7",
            "0x00000000000000000000000014440344256002a5afaa1403ebdaf4bf9a5499e3",
            "0x0000000000000000000000006d5ecc0aa8dce64045b1053a2480d82a61ad86bc"
          ],
          "data": "0x",
          "blockHash": "0x03e27fcdc21bfa0ed3e5b92acf307cd86fdaed40e3e8c3ec5c6350259e9cf4d9",
          "blockNumber": "0xdf02b6",
          "transactionHash": "0x5eac0698e5a1c9b7faf7094bfcb7a04d4253147114f9f5574b6d34afd5cdd04f",
          "transactionIndex": "0xb",
          "logIndex": "0x49",
          "removed": false
        }
      ],
      "logsBloom": "0x00000000000000000000000000000000000000000000000000000002000000040000080000000000000000000000000000000000008000000020000000000000000000000000000000000000000000000000000000000000000000200000000000000000000000000000000000000000400000000000000000000000000000000000000000002000000000000100000000000000000000000000000000000200000000000000000000000000000000000000000000000000000000000000000000000000000000000000000000000000000000000000000000000400000000000000000002000000000000000000000000000000000000000000000000000000",
      "type": "0x2",
      "transactionHash": "0x5eac0698e5a1c9b7faf7094bfcb7a04d4253147114f9f5574b6d34afd5cdd04f",
      "transactionIndex": "0xb",
      "blockHash": "0x03e27fcdc21bfa0ed3e5b92acf307cd86fdaed40e3e8c3ec5c6350259e9cf4d9",
      "blockNumber": "0xdf02b6",
      "gasUsed": "0xceba",
      "effectiveGasPrice": "0x10caa8",
      "from": "0xe0d6f93151091f24ea09474e9271bd60f2624d99",
      "to": "0x74ee076c2ce51e081375b3f106e525646697809d",
      "contractAddress": null,
      "l1BaseFeeScalar": "0x44d",
      "l1BlobBaseFee": "0x194b19aa",
      "l1BlobBaseFeeScalar": "0xa118b",
      "l1Fee": "0x76e500672",
      "l1GasPrice": "0x8473bf50",
      "l1GasUsed": "0x640"
    }
  ],
  "libraries": [],
  "pending": [],
  "returns": {},
  "timestamp": 1724998739,
  "chain": 84532,
  "commit": "bc014d5"
}