{
  "transactions": [
    {
      "hash": "0x8b08344ee25719db27a3a8d5686b1f1cfcde8b7da06bbe1586153ffb2d747b1b",
      "transactionType": "CALL",
      "contractName": null,
      "contractAddress": "0x85a5a8aff78df7097907952a366c6f86f3d4aa10",
      "function": "addSupportedToken(address)",
      "arguments": [
        "0x14440344256002a5afaA1403EbdAf4bf9a5499E3"
      ],
      "transaction": {
        "from": "0x03773f85756acac65a869e89e3b7b2fcda6be140",
        "to": "0x85a5a8aff78df7097907952a366c6f86f3d4aa10",
        "gas": "0x10054",
        "value": "0x0",
        "input": "0x6d69fcaf00000000000000000000000014440344256002a5afaa1403ebdaf4bf9a5499e3",
        "nonce": "0x4",
        "chainId": "0x14a34"
      },
      "additionalContracts": [],
      "isFixedGasLimit": false
    },
    {
      "hash": "0x1116b59b9ea5eec1b1a9f09cb1b28d1f9a7a520bb0021591ee17bb8c60595219",
      "transactionType": "CALL",
      "contractName": null,
      "contractAddress": "0x85a5a8aff78df7097907952a366c6f86f3d4aa10",
      "function": "addSupportedToken(address)",
      "arguments": [
        "0x4200000000000000000000000000000000000006"
      ],
      "transaction": {
        "from": "0x03773f85756acac65a869e89e3b7b2fcda6be140",
        "to": "0x85a5a8aff78df7097907952a366c6f86f3d4aa10",
        "gas": "0xff29",
        "value": "0x0",
        "input": "0x6d69fcaf0000000000000000000000004200000000000000000000000000000000000006",
        "nonce": "0x5",
        "chainId": "0x14a34"
      },
      "additionalContracts": [],
      "isFixedGasLimit": false
    },
    {
      "hash": "0x95fd964c7c6f5716a391ab41635bdf31b4ce71cc4956905c50e3ef340914fcfe",
      "transactionType": "CALL",
      "contractName": null,
      "contractAddress": "0x2cbe484b1e2fe4ffa28fef0caa0c9e0d724fe183",
      "function": "poolDeposit(uint256)",
      "arguments": [
        "500000000000000000"
      ],
      "transaction": {
        "from": "0x03773f85756acac65a869e89e3b7b2fcda6be140",
        "to": "0x2cbe484b1e2fe4ffa28fef0caa0c9e0d724fe183",
        "gas": "0x13a0a",
        "value": "0x6f05b59d3b20000",
        "input": "0x2d02462b00000000000000000000000000000000000000000000000006f05b59d3b20000",
        "nonce": "0x6",
        "chainId": "0x14a34"
      },
      "additionalContracts": [],
      "isFixedGasLimit": false
    },
    {
      "hash": "0xf7b53169653af4941fbe67dc5269dc3900d431ce43ae1f05890344ee5275c921",
      "transactionType": "CALL",
      "contractName": null,
      "contractAddress": "0x85a5a8aff78df7097907952a366c6f86f3d4aa10",
      "function": "setPeer(uint32,bytes32)",
      "arguments": [
        "40231",
        "0x000000000000000000000000f430ac9b73c5fb875d8350a300e95049a19cabb1"
      ],
      "transaction": {
        "from": "0x03773f85756acac65a869e89e3b7b2fcda6be140",
        "to": "0x85a5a8aff78df7097907952a366c6f86f3d4aa10",
        "gas": "0x110ae",
        "value": "0x0",
        "input": "0x3400288b0000000000000000000000000000000000000000000000000000000000009d27000000000000000000000000f430ac9b73c5fb875d8350a300e95049a19cabb1",
        "nonce": "0x7",
        "chainId": "0x14a34"
      },
      "additionalContracts": [],
      "isFixedGasLimit": false
    }
  ],
  "receipts": [
    {
      "status": "0x1",
      "cumulativeGasUsed": "0x137947",
      "logs": [
        {
          "address": "0x85a5a8aff78df7097907952a366c6f86f3d4aa10",
          "topics": [
            "0x784c8f4dbf0ffedd6e72c76501c545a70f8b203b30a26ce542bf92ba87c248a4"
          ],
          "data": "0x00000000000000000000000014440344256002a5afaa1403ebdaf4bf9a5499e3",
          "blockHash": "0x5bc13212814d7b6cc27447d3f053158e0c128ac7040c25eb53c9015470a32bf7",
          "blockNumber": "0xca0548",
          "transactionHash": "0x8b08344ee25719db27a3a8d5686b1f1cfcde8b7da06bbe1586153ffb2d747b1b",
          "transactionIndex": "0xc",
          "logIndex": "0x1c",
          "removed": false
        }
      ],
      "logsBloom": "0x00000000000000000000000000000000000000000000000000000000000000000000000000000000000000000000000000000000000000000000000000000000000000000000000000000002000000000000000000000000000020000000000000000000000000000000000000000000000000000000200000000000000000000000000000000080000000000000000000000000000000000000000000000000000000000000000000200000000000000000000000000000000000000000000000000000000000000000000000000000000000000000000000000000000000000000000000000000000000000000000000000000000000001000000000000000",
      "type": "0x2",
      "transactionHash": "0x8b08344ee25719db27a3a8d5686b1f1cfcde8b7da06bbe1586153ffb2d747b1b",
      "transactionIndex": "0xc",
      "blockHash": "0x5bc13212814d7b6cc27447d3f053158e0c128ac7040c25eb53c9015470a32bf7",
      "blockNumber": "0xca0548",
      "gasUsed": "0xb994",
      "effectiveGasPrice": "0xb24c65",
      "from": "0x03773f85756acac65a869e89e3b7b2fcda6be140",
      "to": "0x85a5a8aff78df7097907952a366c6f86f3d4aa10",
      "contractAddress": null,
      "l1BaseFeeScalar": "0x44d",
      "l1BlobBaseFee": "0x2a5f69acad6",
      "l1BlobBaseFeeScalar": "0xa118b",
      "l1Fee": "0xaecbee19f8cf",
      "l1GasPrice": "0x711d77e5b",
      "l1GasUsed": "0x640"
    },
    {
      "status": "0x1",
      "cumulativeGasUsed": "0x143203",
      "logs": [
        {
          "address": "0x85a5a8aff78df7097907952a366c6f86f3d4aa10",
          "topics": [
            "0x784c8f4dbf0ffedd6e72c76501c545a70f8b203b30a26ce542bf92ba87c248a4"
          ],
          "data": "0x0000000000000000000000004200000000000000000000000000000000000006",
          "blockHash": "0x5bc13212814d7b6cc27447d3f053158e0c128ac7040c25eb53c9015470a32bf7",
          "blockNumber": "0xca0548",
          "transactionHash": "0x1116b59b9ea5eec1b1a9f09cb1b28d1f9a7a520bb0021591ee17bb8c60595219",
          "transactionIndex": "0xd",
          "logIndex": "0x1d",
          "removed": false
        }
      ],
      "logsBloom": "0x00000000000000000000000000000000000000000000000000000000000000000000000000000000000000000000000000000000000000000000000000000000000000000000000000000002000000000000000000000000000020000000000000000000000000000000000000000000000000000000200000000000000000000000000000000080000000000000000000000000000000000000000000000000000000000000000000200000000000000000000000000000000000000000000000000000000000000000000000000000000000000000000000000000000000000000000000000000000000000000000000000000000000001000000000000000",
      "type": "0x2",
      "transactionHash": "0x1116b59b9ea5eec1b1a9f09cb1b28d1f9a7a520bb0021591ee17bb8c60595219",
      "transactionIndex": "0xd",
      "blockHash": "0x5bc13212814d7b6cc27447d3f053158e0c128ac7040c25eb53c9015470a32bf7",
      "blockNumber": "0xca0548",
      "gasUsed": "0xb8bc",
      "effectiveGasPrice": "0xb24c65",
      "from": "0x03773f85756acac65a869e89e3b7b2fcda6be140",
      "to": "0x85a5a8aff78df7097907952a366c6f86f3d4aa10",
      "contractAddress": null,
      "l1BaseFeeScalar": "0x44d",
      "l1BlobBaseFee": "0x2a5f69acad6",
      "l1BlobBaseFeeScalar": "0xa118b",
      "l1Fee": "0xaecbee19f8cf",
      "l1GasPrice": "0x711d77e5b",
      "l1GasUsed": "0x640"
    },
    {
      "status": "0x1",
      "cumulativeGasUsed": "0x151560",
      "logs": [
        {
          "address": "0x4200000000000000000000000000000000000006",
          "topics": [
            "0xe1fffcc4923d04b559f4d29a8bfc6cda04eb5b0d3c460751c2402c5c5cc9109c",
            "0x0000000000000000000000002cbe484b1e2fe4ffa28fef0caa0c9e0d724fe183"
          ],
          "data": "0x00000000000000000000000000000000000000000000000006f05b59d3b20000",
          "blockHash": "0x5bc13212814d7b6cc27447d3f053158e0c128ac7040c25eb53c9015470a32bf7",
          "blockNumber": "0xca0548",
          "transactionHash": "0x95fd964c7c6f5716a391ab41635bdf31b4ce71cc4956905c50e3ef340914fcfe",
          "transactionIndex": "0xe",
          "logIndex": "0x1e",
          "removed": false
        },
        {
          "address": "0x2cbe484b1e2fe4ffa28fef0caa0c9e0d724fe183",
          "topics": [
            "0xf426864a01eab571c4f4f49d1f6a62570576cc8c263ee6a7b888aeae007e0d37"
          ],
          "data": "0x00000000000000000000000000000000000000000000000006f05b59d3b20000",
          "blockHash": "0x5bc13212814d7b6cc27447d3f053158e0c128ac7040c25eb53c9015470a32bf7",
          "blockNumber": "0xca0548",
          "transactionHash": "0x95fd964c7c6f5716a391ab41635bdf31b4ce71cc4956905c50e3ef340914fcfe",
          "transactionIndex": "0xe",
          "logIndex": "0x1f",
          "removed": false
        }
      ],
      "logsBloom": "0x00000000000000000000000000000000000000000000000000040000000000000000000000000000000000100000000000000000000000000000000000000000000000000000000000000000000000000000004000001000000000008000000000000000000020000000000000000000000000000000000000000000000000000000000000000000000000000000000000000001002000000000000000000000000000000000000000000001000000000004000000000000000000000000000020000000000000000200000000000000000000000000000000000000000000000010000000000000002000000000000000000000000000400000000000000000",
      "type": "0x2",
      "transactionHash": "0x95fd964c7c6f5716a391ab41635bdf31b4ce71cc4956905c50e3ef340914fcfe",
      "transactionIndex": "0xe",
      "blockHash": "0x5bc13212814d7b6cc27447d3f053158e0c128ac7040c25eb53c9015470a32bf7",
      "blockNumber": "0xca0548",
      "gasUsed": "0xe35d",
      "effectiveGasPrice": "0xb24c65",
      "from": "0x03773f85756acac65a869e89e3b7b2fcda6be140",
      "to": "0x2cbe484b1e2fe4ffa28fef0caa0c9e0d724fe183",
      "contractAddress": null,
      "l1BaseFeeScalar": "0x44d",
      "l1BlobBaseFee": "0x2a5f69acad6",
      "l1BlobBaseFeeScalar": "0xa118b",
      "l1Fee": "0xaecbee19f8cf",
      "l1GasPrice": "0x711d77e5b",
      "l1GasUsed": "0x640"
    },
    {
      "status": "0x1",
      "cumulativeGasUsed": "0x15cfd3",
      "logs": [
        {
          "address": "0x85a5a8aff78df7097907952a366c6f86f3d4aa10",
          "topics": [
            "0x238399d427b947898edb290f5ff0f9109849b1c3ba196a42e35f00c50a54b98b"
          ],
          "data": "0x0000000000000000000000000000000000000000000000000000000000009d27000000000000000000000000f430ac9b73c5fb875d8350a300e95049a19cabb1",
          "blockHash": "0x5bc13212814d7b6cc27447d3f053158e0c128ac7040c25eb53c9015470a32bf7",
          "blockNumber": "0xca0548",
          "transactionHash": "0xf7b53169653af4941fbe67dc5269dc3900d431ce43ae1f05890344ee5275c921",
          "transactionIndex": "0xf",
          "logIndex": "0x20",
          "removed": false
        }
      ],
      "logsBloom": "0x00000000000000000000000000000000000000000000000000000000000000000000000000000000000000000000000000000000000000000800000000000000000000000000000000000002000000000000000000000000000020000000000000000000000000000000000000000000000000000000000000000000000000000000000000000080000000000000000000000000000000000000000000000000000000000000000000000000000000000000000000000000000002000000000000000000000000000000000000000000000000000000000000040000000000000000000000000000000000000000000000000000000000000000000000000000",
      "type": "0x2",
      "transactionHash": "0xf7b53169653af4941fbe67dc5269dc3900d431ce43ae1f05890344ee5275c921",
      "transactionIndex": "0xf",
      "blockHash": "0x5bc13212814d7b6cc27447d3f053158e0c128ac7040c25eb53c9015470a32bf7",
      "blockNumber": "0xca0548",
      "gasUsed": "0xba73",
      "effectiveGasPrice": "0xb24c65",
      "from": "0x03773f85756acac65a869e89e3b7b2fcda6be140",
      "to": "0x85a5a8aff78df7097907952a366c6f86f3d4aa10",
      "contractAddress": null,
      "l1BaseFeeScalar": "0x44d",
      "l1BlobBaseFee": "0x2a5f69acad6",
      "l1BlobBaseFeeScalar": "0xa118b",
      "l1Fee": "0xaecbee19f8cf",
      "l1GasPrice": "0x711d77e5b",
      "l1GasUsed": "0x640"
    }
  ],
  "libraries": [],
  "pending": [],
  "returns": {},
  "timestamp": 1722247538,
  "chain": 84532,
  "commit": "bfd3004"
}