{
  "transactions": [
    {
      "hash": "0x0c13e21774c476799226fb485ba33137c3c58b5277f1ac2ff92c0827bd0aca42",
      "transactionType": "CALL",
      "contractName": null,
      "contractAddress": "0xdaab75ca8e7e3c0f880c4d1727c9c287139b2ca5",
      "function": "poolWithdraw(uint256,address)",
      "arguments": [
        "441397986440854523",
        "0xA500C712e7EbDd5040f1A212800f5f6fa20d05F8"
      ],
      "transaction": {
        "from": "0xe0d6f93151091f24ea09474e9271bd60f2624d99",
        "to": "0xdaab75ca8e7e3c0f880c4d1727c9c287139b2ca5",
        "gas": "0x1015e",
        "value": "0x0",
        "input": "0x5b1ca168000000000000000000000000000000000000000000000000062029214a613bfb000000000000000000000000a500c712e7ebdd5040f1a212800f5f6fa20d05f8",
        "nonce": "0xca",
        "chainId": "0x14a34"
      },
      "additionalContracts": [],
      "isFixedGasLimit": false
    }
  ],
  "receipts": [
    {
      "status": "0x1",
      "cumulativeGasUsed": "0x15d1ae",
      "logs": [
        {
          "address": "0x4200000000000000000000000000000000000006",
          "topics": [
            "0x7fcf532c15f0a6db0bd6d0e038bea71d30d808c7d98cb3bf7268a95bf5081b65",
            "0x000000000000000000000000daab75ca8e7e3c0f880c4d1727c9c287139b2ca5"
          ],
          "data": "0x000000000000000000000000000000000000000000000000062029214a613bfb",
          "blockHash": "0x47b97098b24b2454055984dd0aa7a8b5c9a388c46da55c25f1f9fa52935c65c8",
          "blockNumber": "0xe8e7f0",
          "transactionHash": "0x0c13e21774c476799226fb485ba33137c3c58b5277f1ac2ff92c0827bd0aca42",
          "transactionIndex": "0x7",
          "logIndex": "0x6",
          "removed": false
        },
        {
          "address": "0xdaab75ca8e7e3c0f880c4d1727c9c287139b2ca5",
          "topics": [
            "0x6f07e6169c1653554eb707b6f6cd8f7ccf9cc29e54a0d8a71d9d5867d2057ac2",
            "0x000000000000000000000000a500c712e7ebdd5040f1a212800f5f6fa20d05f8"
          ],
          "data": "0x000000000000000000000000000000000000000000000000062029214a613bfb",
          "blockHash": "0x47b97098b24b2454055984dd0aa7a8b5c9a388c46da55c25f1f9fa52935c65c8",
          "blockNumber": "0xe8e7f0",
          "transactionHash": "0x0c13e21774c476799226fb485ba33137c3c58b5277f1ac2ff92c0827bd0aca42",
          "transactionIndex": "0x7",
          "logIndex": "0x7",
          "removed": false
        }
      ],
      "logsBloom": "0x0000000000000000020000004002001000000000000000000004000000000000000000000000000000000010000000000000000000000040000000000000000000000000000000000000000000000000000000000040000000000000400000001000000000000000000000000000000000000000000004000000000000000000000000000000000000000000000000000000000000200000000000000000000000000000000000000000000000000000000000000000000000000000a000000000000000000000040000000800000000000000000000000000000002000000000000000000000000000000000000000000001000000000000000000000000000",
      "type": "0x2",
      "transactionHash": "0x0c13e21774c476799226fb485ba33137c3c58b5277f1ac2ff92c0827bd0aca42",
      "transactionIndex": "0x7",
      "blockHash": "0x47b97098b24b2454055984dd0aa7a8b5c9a388c46da55c25f1f9fa52935c65c8",
      "blockNumber": "0xe8e7f0",
      "gasUsed": "0xba55",
      "effectiveGasPrice": "0x55d504",
      "from": "0xe0d6f93151091f24ea09474e9271bd60f2624d99",
      "to": "0xdaab75ca8e7e3c0f880c4d1727c9c287139b2ca5",
      "contractAddress": null,
      "l1BaseFeeScalar": "0x44d",
      "l1BlobBaseFee": "0x1",
      "l1BlobBaseFeeScalar": "0xa118b",
      "l1Fee": "0x9470db9d",
      "l1GasPrice": "0x5443c905",
      "l1GasUsed": "0x640"
    }
  ],
  "libraries": [],
  "pending": [],
  "returns": {},
  "timestamp": 1726295751,
  "chain": 84532,
  "commit": "5fcd4f3"
}