{
  "transactions": [
    {
      "hash": "0xfbaea0421dcc7384eae4245184b4db09d8f15d348b8445d16d97234a2d589443",
      "transactionType": "CALL",
      "contractName": null,
      "contractAddress": "0x269488db82d434dc2e08e3b6f428bd1ff90c4325",
      "function": "setDepositContract(uint256,address)",
      "arguments": [
        "40231",
        "0x873f2667Bd24982626a7e4A12d71491b89812e6b"
      ],
      "transaction": {
        "from": "0x03773f85756acac65a869e89e3b7b2fcda6be140",
        "to": "0x269488db82d434dc2e08e3b6f428bd1ff90c4325",
        "gas": "0xfb56",
        "value": "0x0",
        "input": "0x06c77cb40000000000000000000000000000000000000000000000000000000000009d27000000000000000000000000873f2667bd24982626a7e4a12d71491b89812e6b",
        "nonce": "0x88",
        "chainId": "0x14a34"
      },
      "additionalContracts": [],
      "isFixedGasLimit": false
    },
    {
      "hash": "0xda2b20a238c051983f9b721ede6bfc0878a6a61d870e68fbf9b68f812615dba8",
      "transactionType": "CALL",
      "contractName": null,
      "contractAddress": "0x269488db82d434dc2e08e3b6f428bd1ff90c4325",
      "function": "setDepositContract(uint256,address)",
      "arguments": [
        "40161",
        "0x2d5905509ee73e8abf0fd50988EE5cEd19b2ca90"
      ],
      "transaction": {
        "from": "0x03773f85756acac65a869e89e3b7b2fcda6be140",
        "to": "0x269488db82d434dc2e08e3b6f428bd1ff90c4325",
        "gas": "0xfb56",
        "value": "0x0",
        "input": "0x06c77cb40000000000000000000000000000000000000000000000000000000000009ce10000000000000000000000002d5905509ee73e8abf0fd50988ee5ced19b2ca90",
        "nonce": "0x89",
        "chainId": "0x14a34"
      },
      "additionalContracts": [],
      "isFixedGasLimit": false
    },
    {
      "hash": "0x89b7593f5247aa1486ca5ccf61152f67e38f846aa12e7d63f5f7ebc491430a88",
      "transactionType": "CALL",
      "contractName": null,
      "contractAddress": "0x269488db82d434dc2e08e3b6f428bd1ff90c4325",
      "function": "setDepositContract(uint256,address)",
      "arguments": [
        "40232",
        "0x0F9F8AbFD3689A76916e7d19A8573F0899E0Da14"
      ],
      "transaction": {
        "from": "0x03773f85756acac65a869e89e3b7b2fcda6be140",
        "to": "0x269488db82d434dc2e08e3b6f428bd1ff90c4325",
        "gas": "0xfb56",
        "value": "0x0",
        "input": "0x06c77cb40000000000000000000000000000000000000000000000000000000000009d280000000000000000000000000f9f8abfd3689a76916e7d19a8573f0899e0da14",
        "nonce": "0x8a",
        "chainId": "0x14a34"
      },
      "additionalContracts": [],
      "isFixedGasLimit": false
    },
    {
      "hash": "0x26184739fc1092b714ff38c4302a3967c5408d07cfb0df30ad2728cf11333263",
      "transactionType": "CALL",
      "contractName": null,
      "contractAddress": "0x269488db82d434dc2e08e3b6f428bd1ff90c4325",
      "function": "setDepositContract(uint256,address)",
      "arguments": [
        "40245",
        "0x74Ee076c2ce51e081375B3f106e525646697809d"
      ],
      "transaction": {
        "from": "0x03773f85756acac65a869e89e3b7b2fcda6be140",
        "to": "0x269488db82d434dc2e08e3b6f428bd1ff90c4325",
        "gas": "0xfb56",
        "value": "0x0",
        "input": "0x06c77cb40000000000000000000000000000000000000000000000000000000000009d3500000000000000000000000074ee076c2ce51e081375b3f106e525646697809d",
        "nonce": "0x8b",
        "chainId": "0x14a34"
      },
      "additionalContracts": [],
      "isFixedGasLimit": false
    },
    {
      "hash": "0x05018063415bdcac2da95131f8e939bf2886340811484523cfeec9b5899f4b3b",
      "transactionType": "CALL",
      "contractName": null,
      "contractAddress": "0x269488db82d434dc2e08e3b6f428bd1ff90c4325",
      "function": "setPeer(uint32,bytes32)",
      "arguments": [
        "40161",
        "0x0000000000000000000000002d5905509ee73e8abf0fd50988ee5ced19b2ca90"
      ],
      "transaction": {
        "from": "0x03773f85756acac65a869e89e3b7b2fcda6be140",
        "to": "0x269488db82d434dc2e08e3b6f428bd1ff90c4325",
        "gas": "0x1107f",
        "value": "0x0",
        "input": "0x3400288b0000000000000000000000000000000000000000000000000000000000009ce10000000000000000000000002d5905509ee73e8abf0fd50988ee5ced19b2ca90",
        "nonce": "0x8c",
        "chainId": "0x14a34"
      },
      "additionalContracts": [],
      "isFixedGasLimit": false
    },
    {
      "hash": "0x4221188c49142fbe1fb2d8127b3d6c55805f77aaa741c1f8928a36e781f114a5",
      "transactionType": "CALL",
      "contractName": null,
      "contractAddress": "0x269488db82d434dc2e08e3b6f428bd1ff90c4325",
      "function": "setPeer(uint32,bytes32)",
      "arguments": [
        "40231",
        "0x000000000000000000000000873f2667bd24982626a7e4a12d71491b89812e6b"
      ],
      "transaction": {
        "from": "0x03773f85756acac65a869e89e3b7b2fcda6be140",
        "to": "0x269488db82d434dc2e08e3b6f428bd1ff90c4325",
        "gas": "0x1107f",
        "value": "0x0",
        "input": "0x3400288b0000000000000000000000000000000000000000000000000000000000009d27000000000000000000000000873f2667bd24982626a7e4a12d71491b89812e6b",
        "nonce": "0x8d",
        "chainId": "0x14a34"
      },
      "additionalContracts": [],
      "isFixedGasLimit": false
    },
    {
      "hash": "0x52ed5869085b6aaafc5094b42a334be3c2456752d530edf5132abc947ebec0f5",
      "transactionType": "CALL",
      "contractName": null,
      "contractAddress": "0x269488db82d434dc2e08e3b6f428bd1ff90c4325",
      "function": "setPeer(uint32,bytes32)",
      "arguments": [
        "40232",
        "0x0000000000000000000000000f9f8abfd3689a76916e7d19a8573f0899e0da14"
      ],
      "transaction": {
        "from": "0x03773f85756acac65a869e89e3b7b2fcda6be140",
        "to": "0x269488db82d434dc2e08e3b6f428bd1ff90c4325",
        "gas": "0x1107f",
        "value": "0x0",
        "input": "0x3400288b0000000000000000000000000000000000000000000000000000000000009d280000000000000000000000000f9f8abfd3689a76916e7d19a8573f0899e0da14",
        "nonce": "0x8e",
        "chainId": "0x14a34"
      },
      "additionalContracts": [],
      "isFixedGasLimit": false
    }
  ],
  "receipts": [
    {
      "status": "0x1",
      "cumulativeGasUsed": "0x97212",
      "logs": [],
      "logsBloom": "0x00000000000000000000000000000000000000000000000000000000000000000000000000000000000000000000000000000000000000000000000000000000000000000000000000000000000000000000000000000000000000000000000000000000000000000000000000000000000000000000000000000000000000000000000000000000000000000000000000000000000000000000000000000000000000000000000000000000000000000000000000000000000000000000000000000000000000000000000000000000000000000000000000000000000000000000000000000000000000000000000000000000000000000000000000000000",
      "type": "0x2",
      "transactionHash": "0xfbaea0421dcc7384eae4245184b4db09d8f15d348b8445d16d97234a2d589443",
      "transactionIndex": "0x7",
      "blockHash": "0xca5f5511b9ac58bd472e17f8cb9666bbfad0e282db5831716fa658af8fb0a8a3",
      "blockNumber": "0xdf02a0",
      "gasUsed": "0xb5f7",
      "effectiveGasPrice": "0x10caaa",
      "from": "0x03773f85756acac65a869e89e3b7b2fcda6be140",
      "to": "0x269488db82d434dc2e08e3b6f428bd1ff90c4325",
      "contractAddress": null,
      "l1BaseFeeScalar": "0x44d",
      "l1BlobBaseFee": "0x1851ce98",
      "l1BlobBaseFeeScalar": "0xa118b",
      "l1Fee": "0x72a250453",
      "l1GasPrice": "0x823b4dfa",
      "l1GasUsed": "0x640"
    },
    {
      "status": "0x1",
      "cumulativeGasUsed": "0xa2809",
      "logs": [],
      "logsBloom": "0x00000000000000000000000000000000000000000000000000000000000000000000000000000000000000000000000000000000000000000000000000000000000000000000000000000000000000000000000000000000000000000000000000000000000000000000000000000000000000000000000000000000000000000000000000000000000000000000000000000000000000000000000000000000000000000000000000000000000000000000000000000000000000000000000000000000000000000000000000000000000000000000000000000000000000000000000000000000000000000000000000000000000000000000000000000000",
      "type": "0x2",
      "transactionHash": "0xda2b20a238c051983f9b721ede6bfc0878a6a61d870e68fbf9b68f812615dba8",
      "transactionIndex": "0x8",
      "blockHash": "0xca5f5511b9ac58bd472e17f8cb9666bbfad0e282db5831716fa658af8fb0a8a3",
      "blockNumber": "0xdf02a0",
      "gasUsed": "0xb5f7",
      "effectiveGasPrice": "0x10caaa",
      "from": "0x03773f85756acac65a869e89e3b7b2fcda6be140",
      "to": "0x269488db82d434dc2e08e3b6f428bd1ff90c4325",
      "contractAddress": null,
      "l1BaseFeeScalar": "0x44d",
      "l1BlobBaseFee": "0x1851ce98",
      "l1BlobBaseFeeScalar": "0xa118b",
      "l1Fee": "0x72a250453",
      "l1GasPrice": "0x823b4dfa",
      "l1GasUsed": "0x640"
    },
    {
      "status": "0x1",
      "cumulativeGasUsed": "0xade00",
      "logs": [],
      "logsBloom": "0x00000000000000000000000000000000000000000000000000000000000000000000000000000000000000000000000000000000000000000000000000000000000000000000000000000000000000000000000000000000000000000000000000000000000000000000000000000000000000000000000000000000000000000000000000000000000000000000000000000000000000000000000000000000000000000000000000000000000000000000000000000000000000000000000000000000000000000000000000000000000000000000000000000000000000000000000000000000000000000000000000000000000000000000000000000000",
      "type": "0x2",
      "transactionHash": "0x89b7593f5247aa1486ca5ccf61152f67e38f846aa12e7d63f5f7ebc491430a88",
      "transactionIndex": "0x9",
      "blockHash": "0xca5f5511b9ac58bd472e17f8cb9666bbfad0e282db5831716fa658af8fb0a8a3",
      "blockNumber": "0xdf02a0",
      "gasUsed": "0xb5f7",
      "effectiveGasPrice": "0x10caaa",
      "from": "0x03773f85756acac65a869e89e3b7b2fcda6be140",
      "to": "0x269488db82d434dc2e08e3b6f428bd1ff90c4325",
      "contractAddress": null,
      "l1BaseFeeScalar": "0x44d",
      "l1BlobBaseFee": "0x1851ce98",
      "l1BlobBaseFeeScalar": "0xa118b",
      "l1Fee": "0x72a250453",
      "l1GasPrice": "0x823b4dfa",
      "l1GasUsed": "0x640"
    },
    {
      "status": "0x1",
      "cumulativeGasUsed": "0xb93f7",
      "logs": [],
      "logsBloom": "0x00000000000000000000000000000000000000000000000000000000000000000000000000000000000000000000000000000000000000000000000000000000000000000000000000000000000000000000000000000000000000000000000000000000000000000000000000000000000000000000000000000000000000000000000000000000000000000000000000000000000000000000000000000000000000000000000000000000000000000000000000000000000000000000000000000000000000000000000000000000000000000000000000000000000000000000000000000000000000000000000000000000000000000000000000000000",
      "type": "0x2",
      "transactionHash": "0x26184739fc1092b714ff38c4302a3967c5408d07cfb0df30ad2728cf11333263",
      "transactionIndex": "0xa",
      "blockHash": "0xca5f5511b9ac58bd472e17f8cb9666bbfad0e282db5831716fa658af8fb0a8a3",
      "blockNumber": "0xdf02a0",
      "gasUsed": "0xb5f7",
      "effectiveGasPrice": "0x10caaa",
      "from": "0x03773f85756acac65a869e89e3b7b2fcda6be140",
      "to": "0x269488db82d434dc2e08e3b6f428bd1ff90c4325",
      "contractAddress": null,
      "l1BaseFeeScalar": "0x44d",
      "l1BlobBaseFee": "0x1851ce98",
      "l1BlobBaseFeeScalar": "0xa118b",
      "l1Fee": "0x72a250453",
      "l1GasPrice": "0x823b4dfa",
      "l1GasUsed": "0x640"
    },
    {
      "status": "0x1",
      "cumulativeGasUsed": "0xc4e4a",
      "logs": [
        {
          "address": "0x269488db82d434dc2e08e3b6f428bd1ff90c4325",
          "topics": [
            "0x238399d427b947898edb290f5ff0f9109849b1c3ba196a42e35f00c50a54b98b"
          ],
          "data": "0x0000000000000000000000000000000000000000000000000000000000009ce10000000000000000000000002d5905509ee73e8abf0fd50988ee5ced19b2ca90",
          "blockHash": "0xca5f5511b9ac58bd472e17f8cb9666bbfad0e282db5831716fa658af8fb0a8a3",
          "blockNumber": "0xdf02a0",
          "transactionHash": "0x05018063415bdcac2da95131f8e939bf2886340811484523cfeec9b5899f4b3b",
          "transactionIndex": "0xb",
          "logIndex": "0x3",
          "removed": false
        }
      ],
      "logsBloom": "0x00000000000000000000000000000000000000000000000000000000000000000000000000004000000000000000000000000000000000000800000000000000000000000000000000000000000000000000000002000000000000000000000000000000000000000000000000000000000000000000000000000000000000000000000000000000000000000000000000000000000000000000000000000000000000000000000000000004000000000000000000000000000002000000000000000000000000000000000000000000000000000000000000040000000000000000000000000000000000000000000000000000000000000000000000000000",
      "type": "0x2",
      "transactionHash": "0x05018063415bdcac2da95131f8e939bf2886340811484523cfeec9b5899f4b3b",
      "transactionIndex": "0xb",
      "blockHash": "0xca5f5511b9ac58bd472e17f8cb9666bbfad0e282db5831716fa658af8fb0a8a3",
      "blockNumber": "0xdf02a0",
      "gasUsed": "0xba53",
      "effectiveGasPrice": "0x10caaa",
      "from": "0x03773f85756acac65a869e89e3b7b2fcda6be140",
      "to": "0x269488db82d434dc2e08e3b6f428bd1ff90c4325",
      "contractAddress": null,
      "l1BaseFeeScalar": "0x44d",
      "l1BlobBaseFee": "0x1851ce98",
      "l1BlobBaseFeeScalar": "0xa118b",
      "l1Fee": "0x72a250453",
      "l1GasPrice": "0x823b4dfa",
      "l1GasUsed": "0x640"
    },
    {
      "status": "0x1",
      "cumulativeGasUsed": "0xd089d",
      "logs": [
        {
          "address": "0x269488db82d434dc2e08e3b6f428bd1ff90c4325",
          "topics": [
            "0x238399d427b947898edb290f5ff0f9109849b1c3ba196a42e35f00c50a54b98b"
          ],
          "data": "0x0000000000000000000000000000000000000000000000000000000000009d27000000000000000000000000873f2667bd24982626a7e4a12d71491b89812e6b",
          "blockHash": "0xca5f5511b9ac58bd472e17f8cb9666bbfad0e282db5831716fa658af8fb0a8a3",
          "blockNumber": "0xdf02a0",
          "transactionHash": "0x4221188c49142fbe1fb2d8127b3d6c55805f77aaa741c1f8928a36e781f114a5",
          "transactionIndex": "0xc",
          "logIndex": "0x4",
          "removed": false
        }
      ],
      "logsBloom": "0x00000000000000000000000000000000000000000000000000000000000000000000000000004000000000000000000000000000000000000800000000000000000000000000000000000000000000000000000002000000000000000000000000000000000000000000000000000000000000000000000000000000000000000000000000000000000000000000000000000000000000000000000000000000000000000000000000000004000000000000000000000000000002000000000000000000000000000000000000000000000000000000000000040000000000000000000000000000000000000000000000000000000000000000000000000000",
      "type": "0x2",
      "transactionHash": "0x4221188c49142fbe1fb2d8127b3d6c55805f77aaa741c1f8928a36e781f114a5",
      "transactionIndex": "0xc",
      "blockHash": "0xca5f5511b9ac58bd472e17f8cb9666bbfad0e282db5831716fa658af8fb0a8a3",
      "blockNumber": "0xdf02a0",
      "gasUsed": "0xba53",
      "effectiveGasPrice": "0x10caaa",
      "from": "0x03773f85756acac65a869e89e3b7b2fcda6be140",
      "to": "0x269488db82d434dc2e08e3b6f428bd1ff90c4325",
      "contractAddress": null,
      "l1BaseFeeScalar": "0x44d",
      "l1BlobBaseFee": "0x1851ce98",
      "l1BlobBaseFeeScalar": "0xa118b",
      "l1Fee": "0x72a250453",
      "l1GasPrice": "0x823b4dfa",
      "l1GasUsed": "0x640"
    },
    {
      "status": "0x1",
      "cumulativeGasUsed": "0xdc2f0",
      "logs": [
        {
          "address": "0x269488db82d434dc2e08e3b6f428bd1ff90c4325",
          "topics": [
            "0x238399d427b947898edb290f5ff0f9109849b1c3ba196a42e35f00c50a54b98b"
          ],
          "data": "0x0000000000000000000000000000000000000000000000000000000000009d280000000000000000000000000f9f8abfd3689a76916e7d19a8573f0899e0da14",
          "blockHash": "0xca5f5511b9ac58bd472e17f8cb9666bbfad0e282db5831716fa658af8fb0a8a3",
          "blockNumber": "0xdf02a0",
          "transactionHash": "0x52ed5869085b6aaafc5094b42a334be3c2456752d530edf5132abc947ebec0f5",
          "transactionIndex": "0xd",
          "logIndex": "0x5",
          "removed": false
        }
      ],
      "logsBloom": "0x00000000000000000000000000000000000000000000000000000000000000000000000000004000000000000000000000000000000000000800000000000000000000000000000000000000000000000000000002000000000000000000000000000000000000000000000000000000000000000000000000000000000000000000000000000000000000000000000000000000000000000000000000000000000000000000000000000004000000000000000000000000000002000000000000000000000000000000000000000000000000000000000000040000000000000000000000000000000000000000000000000000000000000000000000000000",
      "type": "0x2",
      "transactionHash": "0x52ed5869085b6aaafc5094b42a334be3c2456752d530edf5132abc947ebec0f5",
      "transactionIndex": "0xd",
      "blockHash": "0xca5f5511b9ac58bd472e17f8cb9666bbfad0e282db5831716fa658af8fb0a8a3",
      "blockNumber": "0xdf02a0",
      "gasUsed": "0xba53",
      "effectiveGasPrice": "0x10caaa",
      "from": "0x03773f85756acac65a869e89e3b7b2fcda6be140",
      "to": "0x269488db82d434dc2e08e3b6f428bd1ff90c4325",
      "contractAddress": null,
      "l1BaseFeeScalar": "0x44d",
      "l1BlobBaseFee": "0x1851ce98",
      "l1BlobBaseFeeScalar": "0xa118b",
      "l1Fee": "0x72a250453",
      "l1GasPrice": "0x823b4dfa",
      "l1GasUsed": "0x640"
    }
  ],
  "libraries": [],
  "pending": [],
  "returns": {},
  "timestamp": 1724998695,
  "chain": 84532,
  "commit": "bc014d5"
}