{
  "transactions": [
    {
      "hash": null,
      "transactionType": "CALL",
      "contractName": null,
      "contractAddress": "0x17086242c5ecc58a7cbb828312911c782ca6981e",
      "function": "addSupportedToken(address,address)",
      "arguments": [
        "0x4200000000000000000000000000000000000006",
        "0x34e7CEBC535C30Aceeb63a63C20b0C42A80B215A"
      ],
      "transaction": {
        "from": "0xe0d6f93151091f24ea09474e9271bd60f2624d99",
        "to": "0x17086242c5ecc58a7cbb828312911c782ca6981e",
        "gas": "0x12d9a",
        "value": "0x0",
        "input": "0xc2b7be16000000000000000000000000420000000000000000000000000000000000000600000000000000000000000034e7cebc535c30aceeb63a63c20b0c42a80b215a",
        "nonce": "0x14",
        "chainId": "0x14a34"
      },
      "additionalContracts": [],
      "isFixedGasLimit": false
    },
    {
      "hash": null,
      "transactionType": "CALL",
      "contractName": null,
      "contractAddress": "0x17086242c5ecc58a7cbb828312911c782ca6981e",
      "function": "addSupportedToken(address,address)",
      "arguments": [
        "0x14440344256002a5afaA1403EbdAf4bf9a5499E3",
        "0x34e7CEBC535C30Aceeb63a63C20b0C42A80B215A"
      ],
      "transaction": {
        "from": "0xe0d6f93151091f24ea09474e9271bd60f2624d99",
        "to": "0x17086242c5ecc58a7cbb828312911c782ca6981e",
        "gas": "0x12ed6",
        "value": "0x0",
        "input": "0xc2b7be1600000000000000000000000014440344256002a5afaa1403ebdaf4bf9a5499e300000000000000000000000034e7cebc535c30aceeb63a63c20b0c42a80b215a",
        "nonce": "0x15",
        "chainId": "0x14a34"
      },
      "additionalContracts": [],
      "isFixedGasLimit": false
    }
  ],
  "receipts": [],
  "libraries": [],
  "pending": [],
  "returns": {},
  "timestamp": 1724730547,
  "chain": 84532,
  "commit": "66ac525"
}