{
  "transactions": [
    {
      "hash": "0xb91ee7ad6b12b634dbc62fe73b99ec18799b9856a16473d7389c5a83eb542f47",
      "transactionType": "CALL",
      "contractName": null,
      "contractAddress": "0x67077b70711026ce9d7c3f591d45924264a0c65b",
      "function": "poolWithdraw(uint256,address)",
      "arguments": [
        "0",
        "0x3e19BBEe16243F36b331Ce550f3fF2685e972944"
      ],
      "transaction": {
        "from": "0xe0d6f93151091f24ea09474e9271bd60f2624d99",
        "to": "0x67077b70711026ce9d7c3f591d45924264a0c65b",
        "gas": "0xce50",
        "value": "0x0",
        "input": "0x5b1ca16800000000000000000000000000000000000000000000000000000000000000000000000000000000000000003e19bbee16243f36b331ce550f3ff2685e972944",
        "nonce": "0xc9",
        "chainId": "0x14a34"
      },
      "additionalContracts": [],
      "isFixedGasLimit": false
    }
  ],
  "receipts": [
    {
      "status": "0x1",
      "cumulativeGasUsed": "0x8e6f3f",
      "logs": [
        {
          "address": "0x4200000000000000000000000000000000000006",
          "topics": [
            "0x7fcf532c15f0a6db0bd6d0e038bea71d30d808c7d98cb3bf7268a95bf5081b65",
            "0x00000000000000000000000067077b70711026ce9d7c3f591d45924264a0c65b"
          ],
          "data": "0x0000000000000000000000000000000000000000000000000000000000000000",
          "blockHash": "0xdb5065d66bde8faa240347d5181c2c65838f32bd63aa8beadf6c00151a8a63f9",
          "blockNumber": "0xe8e741",
          "transactionHash": "0xb91ee7ad6b12b634dbc62fe73b99ec18799b9856a16473d7389c5a83eb542f47",
          "transactionIndex": "0x8",
          "logIndex": "0x44",
          "removed": false
        },
        {
          "address": "0x67077b70711026ce9d7c3f591d45924264a0c65b",
          "topics": [
            "0x6f07e6169c1653554eb707b6f6cd8f7ccf9cc29e54a0d8a71d9d5867d2057ac2",
            "0x0000000000000000000000003e19bbee16243f36b331ce550f3ff2685e972944"
          ],
          "data": "0x0000000000000000000000000000000000000000000000000000000000000000",
          "blockHash": "0xdb5065d66bde8faa240347d5181c2c65838f32bd63aa8beadf6c00151a8a63f9",
          "blockNumber": "0xe8e741",
          "transactionHash": "0xb91ee7ad6b12b634dbc62fe73b99ec18799b9856a16473d7389c5a83eb542f47",
          "transactionIndex": "0x8",
          "logIndex": "0x45",
          "removed": false
        }
      ],
      "logsBloom": "0x00000000010000000000000000020010000000000000000000040000000000000000000400000000000000100000000000000000000001000000000000000000000000000000000000000000000800000000000000400000000000000000000000000000000000000000000000000000000000000000040000000000000000000000000000000000000000000000000000002000002100000000000000000000200000000000000000000000000001000000000000000000000000008000000000000000000010000000000000000000000000000000000000000002000000000000000000000000000000000000000000000000000000000000000000000000",
      "type": "0x2",
      "transactionHash": "0xb91ee7ad6b12b634dbc62fe73b99ec18799b9856a16473d7389c5a83eb542f47",
      "transactionIndex": "0x8",
      "blockHash": "0xdb5065d66bde8faa240347d5181c2c65838f32bd63aa8beadf6c00151a8a63f9",
      "blockNumber": "0xe8e741",
      "gasUsed": "0x955f",
      "effectiveGasPrice": "0x4b32c2",
      "from": "0xe0d6f93151091f24ea09474e9271bd60f2624d99",
      "to": "0x67077b70711026ce9d7c3f591d45924264a0c65b",
      "contractAddress": null,
      "l1BaseFeeScalar": "0x44d",
      "l1BlobBaseFee": "0x1",
      "l1BlobBaseFeeScalar": "0xa118b",
      "l1Fee": "0x6ce8ef4c",
      "l1GasPrice": "0x3dd30d29",
      "l1GasUsed": "0x640"
    }
  ],
  "libraries": [],
  "pending": [],
  "returns": {},
  "timestamp": 1726295401,
  "chain": 84532,
  "commit": "5fcd4f3"
}