{
  "transactions": [
    {
      "hash": "0xfe347f16b5fed8766a45fbd128192ac480d42786569a95b76dbccf5340da40ad",
      "transactionType": "CALL",
      "contractName": null,
      "contractAddress": "0x67077b70711026ce9d7c3f591d45924264a0c65b",
      "function": "poolDeposit(address)",
      "arguments": [
        "0x3e19BBEe16243F36b331Ce550f3fF2685e972944"
      ],
      "transaction": {
        "from": "0xe0d6f93151091f24ea09474e9271bd60f2624d99",
        "to": "0x67077b70711026ce9d7c3f591d45924264a0c65b",
        "gas": "0x1b6dd",
        "value": "0x6f05b59d3b20000",
        "input": "0x5698afa50000000000000000000000003e19bbee16243f36b331ce550f3ff2685e972944",
        "nonce": "0xcc",
        "chainId": "0x14a34"
      },
      "additionalContracts": [],
      "isFixedGasLimit": false
    },
    {
      "hash": "0x918cf44299f76b443ced276290386134499a35306a5791cdaa2b962dfc13937b",
      "transactionType": "CALL",
      "contractName": null,
      "contractAddress": "0x3e19bbee16243f36b331ce550f3ff2685e972944",
      "function": "approveChain(uint256)",
      "arguments": [
        "40231"
      ],
      "transaction": {
        "from": "0xe0d6f93151091f24ea09474e9271bd60f2624d99",
        "to": "0x3e19bbee16243f36b331ce550f3ff2685e972944",
        "gas": "0x21061",
        "value": "0x0",
        "input": "0xeb87840d0000000000000000000000000000000000000000000000000000000000009d27",
        "nonce": "0xcd",
        "chainId": "0x14a34"
      },
      "additionalContracts": [],
      "isFixedGasLimit": false
    },
    {
      "hash": "0x718c0c921fe39e985a2294118650b7fb9c87e8a49ef1c996f2d93240c4934f2e",
      "transactionType": "CALL",
      "contractName": null,
      "contractAddress": "0x3e19bbee16243f36b331ce550f3ff2685e972944",
      "function": "approveChain(uint256)",
      "arguments": [
        "40161"
      ],
      "transaction": {
        "from": "0xe0d6f93151091f24ea09474e9271bd60f2624d99",
        "to": "0x3e19bbee16243f36b331ce550f3ff2685e972944",
        "gas": "0x1bca9",
        "value": "0x0",
        "input": "0xeb87840d0000000000000000000000000000000000000000000000000000000000009ce1",
        "nonce": "0xce",
        "chainId": "0x14a34"
      },
      "additionalContracts": [],
      "isFixedGasLimit": false
    },
    {
      "hash": "0x319e8607863b8383abffc75ea138315c68f9347dcafe7c77cdabfa2170549a38",
      "transactionType": "CALL",
      "contractName": null,
      "contractAddress": "0x3e19bbee16243f36b331ce550f3ff2685e972944",
      "function": "approveChain(uint256)",
      "arguments": [
        "40232"
      ],
      "transaction": {
        "from": "0xe0d6f93151091f24ea09474e9271bd60f2624d99",
        "to": "0x3e19bbee16243f36b331ce550f3ff2685e972944",
        "gas": "0x1caa2",
        "value": "0x0",
        "input": "0xeb87840d0000000000000000000000000000000000000000000000000000000000009d28",
        "nonce": "0xcf",
        "chainId": "0x14a34"
      },
      "additionalContracts": [],
      "isFixedGasLimit": false
    },
    {
      "hash": "0xc9d141a26016b3f8379ed5e602b16827f5eea352be675e39f2b173761cc562c9",
      "transactionType": "CALL",
      "contractName": null,
      "contractAddress": "0x3e19bbee16243f36b331ce550f3ff2685e972944",
      "function": "approveChain(uint256)",
      "arguments": [
        "40245"
      ],
      "transaction": {
        "from": "0xe0d6f93151091f24ea09474e9271bd60f2624d99",
        "to": "0x3e19bbee16243f36b331ce550f3ff2685e972944",
        "gas": "0x1be5a",
        "value": "0x0",
        "input": "0xeb87840d0000000000000000000000000000000000000000000000000000000000009d35",
        "nonce": "0xd0",
        "chainId": "0x14a34"
      },
      "additionalContracts": [],
      "isFixedGasLimit": false
    },
    {
      "hash": "0x5978ec1c1f20f19f7b57a950ebfb089042cf3293a3e2b9bafce863e01c687aec",
      "transactionType": "CALL",
      "contractName": null,
      "contractAddress": "0x3e19bbee16243f36b331ce550f3ff2685e972944",
      "function": "approveChain(uint256)",
      "arguments": [
        "40287"
      ],
      "transaction": {
        "from": "0xe0d6f93151091f24ea09474e9271bd60f2624d99",
        "to": "0x3e19bbee16243f36b331ce550f3ff2685e972944",
        "gas": "0x1cb8c",
        "value": "0x0",
        "input": "0xeb87840d0000000000000000000000000000000000000000000000000000000000009d5f",
        "nonce": "0xd1",
        "chainId": "0x14a34"
      },
      "additionalContracts": [],
      "isFixedGasLimit": false
    },
    {
      "hash": "0xd39aecc9e678682654ee056fe6d47821a0465430e5bec3f06d691856f77c9b15",
      "transactionType": "CALL",
      "contractName": null,
      "contractAddress": "0x3e19bbee16243f36b331ce550f3ff2685e972944",
      "function": "approveChain(uint256)",
      "arguments": [
        "40243"
      ],
      "transaction": {
        "from": "0xe0d6f93151091f24ea09474e9271bd60f2624d99",
        "to": "0x3e19bbee16243f36b331ce550f3ff2685e972944",
        "gas": "0x1f48e",
        "value": "0x0",
        "input": "0xeb87840d0000000000000000000000000000000000000000000000000000000000009d33",
        "nonce": "0xd2",
        "chainId": "0x14a34"
      },
      "additionalContracts": [],
      "isFixedGasLimit": false
    },
    {
      "hash": "0x2f7d46000b19be6d36cea3ffe431dd6c1326c4e304e061161b85d2edc787b0c0",
      "transactionType": "CALL",
      "contractName": null,
      "contractAddress": "0x3e19bbee16243f36b331ce550f3ff2685e972944",
      "function": "setDefaultNativeCredit(uint256)",
      "arguments": [
        "10000000000000000"
      ],
      "transaction": {
        "from": "0xe0d6f93151091f24ea09474e9271bd60f2624d99",
        "to": "0x3e19bbee16243f36b331ce550f3ff2685e972944",
        "gas": "0xf765",
        "value": "0x0",
        "input": "0x0f4efd8d000000000000000000000000000000000000000000000000002386f26fc10000",
        "nonce": "0xd3",
        "chainId": "0x14a34"
      },
      "additionalContracts": [],
      "isFixedGasLimit": false
    },
    {
      "hash": "0x9880855885607c2e57c4fb674c4316d7646e806cac37c103e8aba2099b5c5e9e",
      "transactionType": "CALL",
      "contractName": null,
      "contractAddress": "0x344dd3ef825c54f836c312cac66294fd2ce9f96c",
      "function": "addSupportedToken(address,address)",
      "arguments": [
        "0x4200000000000000000000000000000000000006",
        "0x3e19BBEe16243F36b331Ce550f3fF2685e972944"
      ],
      "transaction": {
        "from": "0xe0d6f93151091f24ea09474e9271bd60f2624d99",
        "to": "0x344dd3ef825c54f836c312cac66294fd2ce9f96c",
        "gas": "0x12d9a",
        "value": "0x0",
        "input": "0xc2b7be1600000000000000000000000042000000000000000000000000000000000000060000000000000000000000003e19bbee16243f36b331ce550f3ff2685e972944",
        "nonce": "0xd4",
        "chainId": "0x14a34"
      },
      "additionalContracts": [],
      "isFixedGasLimit": false
    },
    {
      "hash": "0xbde7482a37c3d5d7fc57c5eace17fa83a78d38a539bfb0438d3b8b8c90c159e4",
      "transactionType": "CALL",
      "contractName": null,
      "contractAddress": "0x344dd3ef825c54f836c312cac66294fd2ce9f96c",
      "function": "addSupportedToken(address,address)",
      "arguments": [
        "0x14440344256002a5afaA1403EbdAf4bf9a5499E3",
        "0x3e19BBEe16243F36b331Ce550f3fF2685e972944"
      ],
      "transaction": {
        "from": "0xe0d6f93151091f24ea09474e9271bd60f2624d99",
        "to": "0x344dd3ef825c54f836c312cac66294fd2ce9f96c",
        "gas": "0x12ed6",
        "value": "0x0",
        "input": "0xc2b7be1600000000000000000000000014440344256002a5afaa1403ebdaf4bf9a5499e30000000000000000000000003e19bbee16243f36b331ce550f3ff2685e972944",
        "nonce": "0xd5",
        "chainId": "0x14a34"
      },
      "additionalContracts": [],
      "isFixedGasLimit": false
    }
  ],
  "receipts": [
    {
      "status": "0x1",
      "cumulativeGasUsed": "0x93e82",
      "logs": [
        {
          "address": "0x4200000000000000000000000000000000000006",
          "topics": [
            "0xe1fffcc4923d04b559f4d29a8bfc6cda04eb5b0d3c460751c2402c5c5cc9109c",
            "0x00000000000000000000000067077b70711026ce9d7c3f591d45924264a0c65b"
          ],
          "data": "0x00000000000000000000000000000000000000000000000006f05b59d3b20000",
          "blockHash": "0x6a7463f2ef1ac4e550ebbcf531284ea7f95a93992b1e69658224cba76ad38887",
          "blockNumber": "0xe8e8a9",
          "transactionHash": "0xfe347f16b5fed8766a45fbd128192ac480d42786569a95b76dbccf5340da40ad",
          "transactionIndex": "0x4",
          "logIndex": "0x9",
          "removed": false
        },
        {
          "address": "0x67077b70711026ce9d7c3f591d45924264a0c65b",
          "topics": [
            "0x90576f1ad407b163ccea052b2d55bac158025af10ac5895369e8956eeab83434",
            "0x0000000000000000000000003e19bbee16243f36b331ce550f3ff2685e972944"
          ],
          "data": "0x00000000000000000000000000000000000000000000000006f05b59d3b20000",
          "blockHash": "0x6a7463f2ef1ac4e550ebbcf531284ea7f95a93992b1e69658224cba76ad38887",
          "blockNumber": "0xe8e8a9",
          "transactionHash": "0xfe347f16b5fed8766a45fbd128192ac480d42786569a95b76dbccf5340da40ad",
          "transactionIndex": "0x4",
          "logIndex": "0xa",
          "removed": false
        }
      ],
      "logsBloom": "0x00000000010000000000000000000000000000000000000000040000000000000000000400000000000000100000000000000000000001000000000000000000000000000000000000000000000800000000000000000000800000008000000000000000000000000000000000000000000000000000000000000000000000000000002000000000000000000000000008002001002100000000000000000000200000000000000000000000000001000000000000000000000000000000000000000000000010000000000000000000000000000000000000000000000000000000000000000000000000000000000000000000000000400000000000000000",
      "type": "0x2",
      "transactionHash": "0xfe347f16b5fed8766a45fbd128192ac480d42786569a95b76dbccf5340da40ad",
      "transactionIndex": "0x4",
      "blockHash": "0x6a7463f2ef1ac4e550ebbcf531284ea7f95a93992b1e69658224cba76ad38887",
      "blockNumber": "0xe8e8a9",
      "gasUsed": "0x13dbc",
      "effectiveGasPrice": "0x509ea6",
      "from": "0xe0d6f93151091f24ea09474e9271bd60f2624d99",
      "to": "0x67077b70711026ce9d7c3f591d45924264a0c65b",
      "contractAddress": null,
      "l1BaseFeeScalar": "0x44d",
      "l1BlobBaseFee": "0x1",
      "l1BlobBaseFeeScalar": "0xa118b",
      "l1Fee": "0x72243958",
      "l1GasPrice": "0x40cb51ef",
      "l1GasUsed": "0x640"
    },
    {
      "status": "0x1",
      "cumulativeGasUsed": "0xaa7cb",
      "logs": [
        {
          "address": "0x3e19bbee16243f36b331ce550f3ff2685e972944",
          "topics": [
            "0xbba9d55e9fd1a441b1617724e2fdb76777d15ec77ab2b72ac15952cbe97085db"
          ],
          "data": "0x0000000000000000000000000000000000000000000000000000000000009d27",
          "blockHash": "0x6a7463f2ef1ac4e550ebbcf531284ea7f95a93992b1e69658224cba76ad38887",
          "blockNumber": "0xe8e8a9",
          "transactionHash": "0x918cf44299f76b443ced276290386134499a35306a5791cdaa2b962dfc13937b",
          "transactionIndex": "0x5",
          "logIndex": "0xb",
          "removed": false
        },
        {
          "address": "0x3e19bbee16243f36b331ce550f3ff2685e972944",
          "topics": [
            "0xe012bf0e1630512126bccbc050ebf66c62af3753e3cd64d533ddf97f65f621c8"
          ],
          "data": "0x0000000000000000000000000000000000000000000000000000000000009d27",
          "blockHash": "0x6a7463f2ef1ac4e550ebbcf531284ea7f95a93992b1e69658224cba76ad38887",
          "blockNumber": "0xe8e8a9",
          "transactionHash": "0x918cf44299f76b443ced276290386134499a35306a5791cdaa2b962dfc13937b",
          "transactionIndex": "0x5",
          "logIndex": "0xc",
          "removed": false
        }
      ],
      "logsBloom": "0x02000000000000000000000000000000000008000000000000000000000000000000000000000000000000000000000000000000000000000000000000000000000000000000000000000000004000000000000000000000000000000000000000000000000000000000000400000000000000000000000000002000000000000000000000000000000000000000000000000000000000000000000000000000000000000000000000000000000010000000200000000000000000000000000000000000000000000000000000000000000000000000000000000000004000000000000000000000000000000000000000000000000000000000000000000080",
      "type": "0x2",
      "transactionHash": "0x918cf44299f76b443ced276290386134499a35306a5791cdaa2b962dfc13937b",
      "transactionIndex": "0x5",
      "blockHash": "0x6a7463f2ef1ac4e550ebbcf531284ea7f95a93992b1e69658224cba76ad38887",
      "blockNumber": "0xe8e8a9",
      "gasUsed": "0x16949",
      "effectiveGasPrice": "0x509ea6",
      "from": "0xe0d6f93151091f24ea09474e9271bd60f2624d99",
      "to": "0x3e19bbee16243f36b331ce550f3ff2685e972944",
      "contractAddress": null,
      "l1BaseFeeScalar": "0x44d",
      "l1BlobBaseFee": "0x1",
      "l1BlobBaseFeeScalar": "0xa118b",
      "l1Fee": "0x72243958",
      "l1GasPrice": "0x40cb51ef",
      "l1GasUsed": "0x640"
    },
    {
      "status": "0x1",
      "cumulativeGasUsed": "0xbd7d6",
      "logs": [
        {
          "address": "0x3e19bbee16243f36b331ce550f3ff2685e972944",
          "topics": [
            "0xbba9d55e9fd1a441b1617724e2fdb76777d15ec77ab2b72ac15952cbe97085db"
          ],
          "data": "0x0000000000000000000000000000000000000000000000000000000000009ce1",
          "blockHash": "0x6a7463f2ef1ac4e550ebbcf531284ea7f95a93992b1e69658224cba76ad38887",
          "blockNumber": "0xe8e8a9",
          "transactionHash": "0x718c0c921fe39e985a2294118650b7fb9c87e8a49ef1c996f2d93240c4934f2e",
          "transactionIndex": "0x6",
          "logIndex": "0xd",
          "removed": false
        },
        {
          "address": "0x3e19bbee16243f36b331ce550f3ff2685e972944",
          "topics": [
            "0xe012bf0e1630512126bccbc050ebf66c62af3753e3cd64d533ddf97f65f621c8"
          ],
          "data": "0x0000000000000000000000000000000000000000000000000000000000009ce1",
          "blockHash": "0x6a7463f2ef1ac4e550ebbcf531284ea7f95a93992b1e69658224cba76ad38887",
          "blockNumber": "0xe8e8a9",
          "transactionHash": "0x718c0c921fe39e985a2294118650b7fb9c87e8a49ef1c996f2d93240c4934f2e",
          "transactionIndex": "0x6",
          "logIndex": "0xe",
          "removed": false
        }
      ],
      "logsBloom": "0x02000000000000000000000000000000000008000000000000000000000000000000000000000000000000000000000000000000000000000000000000000000000000000000000000000000004000000000000000000000000000000000000000000000000000000000000400000000000000000000000000002000000000000000000000000000000000000000000000000000000000000000000000000000000000000000000000000000000010000000200000000000000000000000000000000000000000000000000000000000000000000000000000000000004000000000000000000000000000000000000000000000000000000000000000000080",
      "type": "0x2",
      "transactionHash": "0x718c0c921fe39e985a2294118650b7fb9c87e8a49ef1c996f2d93240c4934f2e",
      "transactionIndex": "0x6",
      "blockHash": "0x6a7463f2ef1ac4e550ebbcf531284ea7f95a93992b1e69658224cba76ad38887",
      "blockNumber": "0xe8e8a9",
      "gasUsed": "0x1300b",
      "effectiveGasPrice": "0x509ea6",
      "from": "0xe0d6f93151091f24ea09474e9271bd60f2624d99",
      "to": "0x3e19bbee16243f36b331ce550f3ff2685e972944",
      "contractAddress": null,
      "l1BaseFeeScalar": "0x44d",
      "l1BlobBaseFee": "0x1",
      "l1BlobBaseFeeScalar": "0xa118b",
      "l1Fee": "0x72243958",
      "l1GasPrice": "0x40cb51ef",
      "l1GasUsed": "0x640"
    },
    {
      "status": "0x1",
      "cumulativeGasUsed": "0xd116f",
      "logs": [
        {
          "address": "0x3e19bbee16243f36b331ce550f3ff2685e972944",
          "topics": [
            "0xbba9d55e9fd1a441b1617724e2fdb76777d15ec77ab2b72ac15952cbe97085db"
          ],
          "data": "0x0000000000000000000000000000000000000000000000000000000000009d28",
          "blockHash": "0x6a7463f2ef1ac4e550ebbcf531284ea7f95a93992b1e69658224cba76ad38887",
          "blockNumber": "0xe8e8a9",
          "transactionHash": "0x319e8607863b8383abffc75ea138315c68f9347dcafe7c77cdabfa2170549a38",
          "transactionIndex": "0x7",
          "logIndex": "0xf",
          "removed": false
        },
        {
          "address": "0x3e19bbee16243f36b331ce550f3ff2685e972944",
          "topics": [
            "0xe012bf0e1630512126bccbc050ebf66c62af3753e3cd64d533ddf97f65f621c8"
          ],
          "data": "0x0000000000000000000000000000000000000000000000000000000000009d28",
          "blockHash": "0x6a7463f2ef1ac4e550ebbcf531284ea7f95a93992b1e69658224cba76ad38887",
          "blockNumber": "0xe8e8a9",
          "transactionHash": "0x319e8607863b8383abffc75ea138315c68f9347dcafe7c77cdabfa2170549a38",
          "transactionIndex": "0x7",
          "logIndex": "0x10",
          "removed": false
        }
      ],
      "logsBloom": "0x02000000000000000000000000000000000008000000000000000000000000000000000000000000000000000000000000000000000000000000000000000000000000000000000000000000004000000000000000000000000000000000000000000000000000000000000400000000000000000000000000002000000000000000000000000000000000000000000000000000000000000000000000000000000000000000000000000000000010000000200000000000000000000000000000000000000000000000000000000000000000000000000000000000004000000000000000000000000000000000000000000000000000000000000000000080",
      "type": "0x2",
      "transactionHash": "0x319e8607863b8383abffc75ea138315c68f9347dcafe7c77cdabfa2170549a38",
      "transactionIndex": "0x7",
      "blockHash": "0x6a7463f2ef1ac4e550ebbcf531284ea7f95a93992b1e69658224cba76ad38887",
      "blockNumber": "0xe8e8a9",
      "gasUsed": "0x13999",
      "effectiveGasPrice": "0x509ea6",
      "from": "0xe0d6f93151091f24ea09474e9271bd60f2624d99",
      "to": "0x3e19bbee16243f36b331ce550f3ff2685e972944",
      "contractAddress": null,
      "l1BaseFeeScalar": "0x44d",
      "l1BlobBaseFee": "0x1",
      "l1BlobBaseFeeScalar": "0xa118b",
      "l1Fee": "0x72243958",
      "l1GasPrice": "0x40cb51ef",
      "l1GasUsed": "0x640"
    },
    {
      "status": "0x1",
      "cumulativeGasUsed": "0xe5496",
      "logs": [
        {
          "address": "0x3e19bbee16243f36b331ce550f3ff2685e972944",
          "topics": [
            "0xbba9d55e9fd1a441b1617724e2fdb76777d15ec77ab2b72ac15952cbe97085db"
          ],
          "data": "0x0000000000000000000000000000000000000000000000000000000000009d35",
          "blockHash": "0x6a7463f2ef1ac4e550ebbcf531284ea7f95a93992b1e69658224cba76ad38887",
          "blockNumber": "0xe8e8a9",
          "transactionHash": "0xc9d141a26016b3f8379ed5e602b16827f5eea352be675e39f2b173761cc562c9",
          "transactionIndex": "0x8",
          "logIndex": "0x11",
          "removed": false
        },
        {
          "address": "0x3e19bbee16243f36b331ce550f3ff2685e972944",
          "topics": [
            "0xe012bf0e1630512126bccbc050ebf66c62af3753e3cd64d533ddf97f65f621c8"
          ],
          "data": "0x0000000000000000000000000000000000000000000000000000000000009d35",
          "blockHash": "0x6a7463f2ef1ac4e550ebbcf531284ea7f95a93992b1e69658224cba76ad38887",
          "blockNumber": "0xe8e8a9",
          "transactionHash": "0xc9d141a26016b3f8379ed5e602b16827f5eea352be675e39f2b173761cc562c9",
          "transactionIndex": "0x8",
          "logIndex": "0x12",
          "removed": false
        }
      ],
      "logsBloom": "0x02000000000000000000000000000000000008000000000000000000000000000000000000000000000000000000000000000000000000000000000000000000000000000000000000000000004000000000000000000000000000000000000000000000000000000000000400000000000000000000000000002000000000000000000000000000000000000000000000000000000000000000000000000000000000000000000000000000000010000000200000000000000000000000000000000000000000000000000000000000000000000000000000000000004000000000000000000000000000000000000000000000000000000000000000000080",
      "type": "0x2",
      "transactionHash": "0xc9d141a26016b3f8379ed5e602b16827f5eea352be675e39f2b173761cc562c9",
      "transactionIndex": "0x8",
      "blockHash": "0x6a7463f2ef1ac4e550ebbcf531284ea7f95a93992b1e69658224cba76ad38887",
      "blockNumber": "0xe8e8a9",
      "gasUsed": "0x14327",
      "effectiveGasPrice": "0x509ea6",
      "from": "0xe0d6f93151091f24ea09474e9271bd60f2624d99",
      "to": "0x3e19bbee16243f36b331ce550f3ff2685e972944",
      "contractAddress": null,
      "l1BaseFeeScalar": "0x44d",
      "l1BlobBaseFee": "0x1",
      "l1BlobBaseFeeScalar": "0xa118b",
      "l1Fee": "0x72243958",
      "l1GasPrice": "0x40cb51ef",
      "l1GasUsed": "0x640"
    },
    {
      "status": "0x1",
      "cumulativeGasUsed": "0xfa14b",
      "logs": [
        {
          "address": "0x3e19bbee16243f36b331ce550f3ff2685e972944",
          "topics": [
            "0xbba9d55e9fd1a441b1617724e2fdb76777d15ec77ab2b72ac15952cbe97085db"
          ],
          "data": "0x0000000000000000000000000000000000000000000000000000000000009d5f",
          "blockHash": "0x6a7463f2ef1ac4e550ebbcf531284ea7f95a93992b1e69658224cba76ad38887",
          "blockNumber": "0xe8e8a9",
          "transactionHash": "0x5978ec1c1f20f19f7b57a950ebfb089042cf3293a3e2b9bafce863e01c687aec",
          "transactionIndex": "0x9",
          "logIndex": "0x13",
          "removed": false
        },
        {
          "address": "0x3e19bbee16243f36b331ce550f3ff2685e972944",
          "topics": [
            "0xe012bf0e1630512126bccbc050ebf66c62af3753e3cd64d533ddf97f65f621c8"
          ],
          "data": "0x0000000000000000000000000000000000000000000000000000000000009d5f",
          "blockHash": "0x6a7463f2ef1ac4e550ebbcf531284ea7f95a93992b1e69658224cba76ad38887",
          "blockNumber": "0xe8e8a9",
          "transactionHash": "0x5978ec1c1f20f19f7b57a950ebfb089042cf3293a3e2b9bafce863e01c687aec",
          "transactionIndex": "0x9",
          "logIndex": "0x14",
          "removed": false
        }
      ],
      "logsBloom": "0x02000000000000000000000000000000000008000000000000000000000000000000000000000000000000000000000000000000000000000000000000000000000000000000000000000000004000000000000000000000000000000000000000000000000000000000000400000000000000000000000000002000000000000000000000000000000000000000000000000000000000000000000000000000000000000000000000000000000010000000200000000000000000000000000000000000000000000000000000000000000000000000000000000000004000000000000000000000000000000000000000000000000000000000000000000080",
      "type": "0x2",
      "transactionHash": "0x5978ec1c1f20f19f7b57a950ebfb089042cf3293a3e2b9bafce863e01c687aec",
      "transactionIndex": "0x9",
      "blockHash": "0x6a7463f2ef1ac4e550ebbcf531284ea7f95a93992b1e69658224cba76ad38887",
      "blockNumber": "0xe8e8a9",
      "gasUsed": "0x14cb5",
      "effectiveGasPrice": "0x509ea6",
      "from": "0xe0d6f93151091f24ea09474e9271bd60f2624d99",
      "to": "0x3e19bbee16243f36b331ce550f3ff2685e972944",
      "contractAddress": null,
      "l1BaseFeeScalar": "0x44d",
      "l1BlobBaseFee": "0x1",
      "l1BlobBaseFeeScalar": "0xa118b",
      "l1Fee": "0x72243958",
      "l1GasPrice": "0x40cb51ef",
      "l1GasUsed": "0x640"
    },
    {
      "status": "0x1",
      "cumulativeGasUsed": "0x10f78e",
      "logs": [
        {
          "address": "0x3e19bbee16243f36b331ce550f3ff2685e972944",
          "topics": [
            "0xbba9d55e9fd1a441b1617724e2fdb76777d15ec77ab2b72ac15952cbe97085db"
          ],
          "data": "0x0000000000000000000000000000000000000000000000000000000000009d33",
          "blockHash": "0x6a7463f2ef1ac4e550ebbcf531284ea7f95a93992b1e69658224cba76ad38887",
          "blockNumber": "0xe8e8a9",
          "transactionHash": "0xd39aecc9e678682654ee056fe6d47821a0465430e5bec3f06d691856f77c9b15",
          "transactionIndex": "0xa",
          "logIndex": "0x15",
          "removed": false
        },
        {
          "address": "0x3e19bbee16243f36b331ce550f3ff2685e972944",
          "topics": [
            "0xe012bf0e1630512126bccbc050ebf66c62af3753e3cd64d533ddf97f65f621c8"
          ],
          "data": "0x0000000000000000000000000000000000000000000000000000000000009d33",
          "blockHash": "0x6a7463f2ef1ac4e550ebbcf531284ea7f95a93992b1e69658224cba76ad38887",
          "blockNumber": "0xe8e8a9",
          "transactionHash": "0xd39aecc9e678682654ee056fe6d47821a0465430e5bec3f06d691856f77c9b15",
          "transactionIndex": "0xa",
          "logIndex": "0x16",
          "removed": false
        }
      ],
      "logsBloom": "0x02000000000000000000000000000000000008000000000000000000000000000000000000000000000000000000000000000000000000000000000000000000000000000000000000000000004000000000000000000000000000000000000000000000000000000000000400000000000000000000000000002000000000000000000000000000000000000000000000000000000000000000000000000000000000000000000000000000000010000000200000000000000000000000000000000000000000000000000000000000000000000000000000000000004000000000000000000000000000000000000000000000000000000000000000000080",
      "type": "0x2",
      "transactionHash": "0xd39aecc9e678682654ee056fe6d47821a0465430e5bec3f06d691856f77c9b15",
      "transactionIndex": "0xa",
      "blockHash": "0x6a7463f2ef1ac4e550ebbcf531284ea7f95a93992b1e69658224cba76ad38887",
      "blockNumber": "0xe8e8a9",
      "gasUsed": "0x15643",
      "effectiveGasPrice": "0x509ea6",
      "from": "0xe0d6f93151091f24ea09474e9271bd60f2624d99",
      "to": "0x3e19bbee16243f36b331ce550f3ff2685e972944",
      "contractAddress": null,
      "l1BaseFeeScalar": "0x44d",
      "l1BlobBaseFee": "0x1",
      "l1BlobBaseFeeScalar": "0xa118b",
      "l1Fee": "0x72243958",
      "l1GasPrice": "0x40cb51ef",
      "l1GasUsed": "0x640"
    },
    {
      "status": "0x1",
      "cumulativeGasUsed": "0x11aaab",
      "logs": [],
      "logsBloom": "0x00000000000000000000000000000000000000000000000000000000000000000000000000000000000000000000000000000000000000000000000000000000000000000000000000000000000000000000000000000000000000000000000000000000000000000000000000000000000000000000000000000000000000000000000000000000000000000000000000000000000000000000000000000000000000000000000000000000000000000000000000000000000000000000000000000000000000000000000000000000000000000000000000000000000000000000000000000000000000000000000000000000000000000000000000000000",
      "type": "0x2",
      "transactionHash": "0x2f7d46000b19be6d36cea3ffe431dd6c1326c4e304e061161b85d2edc787b0c0",
      "transactionIndex": "0xb",
      "blockHash": "0x6a7463f2ef1ac4e550ebbcf531284ea7f95a93992b1e69658224cba76ad38887",
      "blockNumber": "0xe8e8a9",
      "gasUsed": "0xb31d",
      "effectiveGasPrice": "0x509ea6",
      "from": "0xe0d6f93151091f24ea09474e9271bd60f2624d99",
      "to": "0x3e19bbee16243f36b331ce550f3ff2685e972944",
      "contractAddress": null,
      "l1BaseFeeScalar": "0x44d",
      "l1BlobBaseFee": "0x1",
      "l1BlobBaseFeeScalar": "0xa118b",
      "l1Fee": "0x72243958",
      "l1GasPrice": "0x40cb51ef",
      "l1GasUsed": "0x640"
    },
    {
      "status": "0x1",
      "cumulativeGasUsed": "0x1278e5",
      "logs": [
        {
          "address": "0x344dd3ef825c54f836c312cac66294fd2ce9f96c",
          "topics": [
            "0xdffbd9ded1c09446f09377de547142dcce7dc541c8b0b028142b1eba7026b9e7",
            "0x0000000000000000000000004200000000000000000000000000000000000006",
            "0x0000000000000000000000003e19bbee16243f36b331ce550f3ff2685e972944"
          ],
          "data": "0x",
          "blockHash": "0x6a7463f2ef1ac4e550ebbcf531284ea7f95a93992b1e69658224cba76ad38887",
          "blockNumber": "0xe8e8a9",
          "transactionHash": "0x9880855885607c2e57c4fb674c4316d7646e806cac37c103e8aba2099b5c5e9e",
          "transactionIndex": "0xc",
          "logIndex": "0x17",
          "removed": false
        }
      ],
      "logsBloom": "0x00000000010000000002000000000000000000000000000000000000000000000000000400000000000000000000000000000000008000000020000000000000000010000000000000000000000000000000000008000000000000200000000000000000000000000000000000000000000010000000000000000000000000000000000000002000000000000000000000002000000000000000000000000000000000000000000000000000000000000000000000000000000000000000000000000000000004000000000000000000000000000000000000000000000000000000000000000000000000000000000000000000000000000000000000000000",
      "type": "0x2",
      "transactionHash": "0x9880855885607c2e57c4fb674c4316d7646e806cac37c103e8aba2099b5c5e9e",
      "transactionIndex": "0xc",
      "blockHash": "0x6a7463f2ef1ac4e550ebbcf531284ea7f95a93992b1e69658224cba76ad38887",
      "blockNumber": "0xe8e8a9",
      "gasUsed": "0xce3a",
      "effectiveGasPrice": "0x509ea6",
      "from": "0xe0d6f93151091f24ea09474e9271bd60f2624d99",
      "to": "0x344dd3ef825c54f836c312cac66294fd2ce9f96c",
      "contractAddress": null,
      "l1BaseFeeScalar": "0x44d",
      "l1BlobBaseFee": "0x1",
      "l1BlobBaseFeeScalar": "0xa118b",
      "l1Fee": "0x72243958",
      "l1GasPrice": "0x40cb51ef",
      "l1GasUsed": "0x640"
    },
    {
      "status": "0x1",
      "cumulativeGasUsed": "0x1347f7",
      "logs": [
        {
          "address": "0x344dd3ef825c54f836c312cac66294fd2ce9f96c",
          "topics": [
            "0xdffbd9ded1c09446f09377de547142dcce7dc541c8b0b028142b1eba7026b9e7",
            "0x00000000000000000000000014440344256002a5afaa1403ebdaf4bf9a5499e3",
            "0x0000000000000000000000003e19bbee16243f36b331ce550f3ff2685e972944"
          ],
          "data": "0x",
          "blockHash": "0x6a7463f2ef1ac4e550ebbcf531284ea7f95a93992b1e69658224cba76ad38887",
          "blockNumber": "0xe8e8a9",
          "transactionHash": "0xbde7482a37c3d5d7fc57c5eace17fa83a78d38a539bfb0438d3b8b8c90c159e4",
          "transactionIndex": "0xd",
          "logIndex": "0x18",
          "removed": false
        }
      ],
      "logsBloom": "0x00000000010000000002000000000000000000000000000000000000000000000000000400000000000000000000000000000000008000000020000000000000000010000000000000000000000000000000000008000000000000200000000000000000000000000000000000000000400000000000000000000000000000000000000000002000000000000000000000002000000000000000000000000000000000000000000000000000000000000000000000000000000000000000000000000000000000000000000000000000000000000000000000000000000000000000000002000000000000000000000000000000000000000000000000000000",
      "type": "0x2",
      "transactionHash": "0xbde7482a37c3d5d7fc57c5eace17fa83a78d38a539bfb0438d3b8b8c90c159e4",
      "transactionIndex": "0xd",
      "blockHash": "0x6a7463f2ef1ac4e550ebbcf531284ea7f95a93992b1e69658224cba76ad38887",
      "blockNumber": "0xe8e8a9",
      "gasUsed": "0xcf12",
      "effectiveGasPrice": "0x509ea6",
      "from": "0xe0d6f93151091f24ea09474e9271bd60f2624d99",
      "to": "0x344dd3ef825c54f836c312cac66294fd2ce9f96c",
      "contractAddress": null,
      "l1BaseFeeScalar": "0x44d",
      "l1BlobBaseFee": "0x1",
      "l1BlobBaseFeeScalar": "0xa118b",
      "l1Fee": "0x72243958",
      "l1GasPrice": "0x40cb51ef",
      "l1GasUsed": "0x640"
    }
  ],
  "libraries": [],
  "pending": [],
  "returns": {},
  "timestamp": 1726296121,
  "chain": 84532,
  "commit": "5fcd4f3"
}