{
  "transactions": [
    {
      "hash": "0xd1710c8656a421a74a925dbfd02a2b89ee14872ecde0c369114bda815943b4b7",
      "transactionType": "CALL",
      "contractName": null,
      "contractAddress": "0x3d4cf5232061744ca5e72eab6624c96750d71ec2",
      "function": "setDepositContract(uint256,address)",
      "arguments": [
        "40231",
        "0xD5cE1f4A923B90dc9556bC17fBB65781cd71f5aE"
      ],
      "transaction": {
        "from": "0x03773f85756acac65a869e89e3b7b2fcda6be140",
        "to": "0x3d4cf5232061744ca5e72eab6624c96750d71ec2",
        "gas": "0xfb56",
        "value": "0x0",
        "input": "0x06c77cb40000000000000000000000000000000000000000000000000000000000009d27000000000000000000000000d5ce1f4a923b90dc9556bc17fbb65781cd71f5ae",
        "nonce": "0xac",
        "chainId": "0x14a34"
      },
      "additionalContracts": [],
      "isFixedGasLimit": false
    },
    {
      "hash": "0xf390fb5dd00698cbb91f70c25cb5147e597d845ed06bb34f9e0d8f6a0cfbbb6e",
      "transactionType": "CALL",
      "contractName": null,
      "contractAddress": "0x3d4cf5232061744ca5e72eab6624c96750d71ec2",
      "function": "setDepositContract(uint256,address)",
      "arguments": [
        "40161",
        "0x88d9872bB7eBA71254faE14E456C095DC1c5C1fA"
      ],
      "transaction": {
        "from": "0x03773f85756acac65a869e89e3b7b2fcda6be140",
        "to": "0x3d4cf5232061744ca5e72eab6624c96750d71ec2",
        "gas": "0xfb56",
        "value": "0x0",
        "input": "0x06c77cb40000000000000000000000000000000000000000000000000000000000009ce100000000000000000000000088d9872bb7eba71254fae14e456c095dc1c5c1fa",
        "nonce": "0xad",
        "chainId": "0x14a34"
      },
      "additionalContracts": [],
      "isFixedGasLimit": false
    },
    {
      "hash": "0x8abcac0a17f71dcd6d05f27467637a3ab1987d3cd3b6a55be70d076e87b7edfc",
      "transactionType": "CALL",
      "contractName": null,
      "contractAddress": "0x3d4cf5232061744ca5e72eab6624c96750d71ec2",
      "function": "setDepositContract(uint256,address)",
      "arguments": [
        "40232",
        "0xc6bA506F9E029104896F5B739487b67d4D19c1AD"
      ],
      "transaction": {
        "from": "0x03773f85756acac65a869e89e3b7b2fcda6be140",
        "to": "0x3d4cf5232061744ca5e72eab6624c96750d71ec2",
        "gas": "0xfb56",
        "value": "0x0",
        "input": "0x06c77cb40000000000000000000000000000000000000000000000000000000000009d28000000000000000000000000c6ba506f9e029104896f5b739487b67d4d19c1ad",
        "nonce": "0xae",
        "chainId": "0x14a34"
      },
      "additionalContracts": [],
      "isFixedGasLimit": false
    },
    {
      "hash": "0xd7bff8fe28dee82817cbb7a396d4e8756360fcc7a3c6322a1f98863d3fc61249",
      "transactionType": "CALL",
      "contractName": null,
      "contractAddress": "0x3d4cf5232061744ca5e72eab6624c96750d71ec2",
      "function": "setDepositContract(uint256,address)",
      "arguments": [
        "40245",
        "0x344DD3EF825c54f836C312CaC66294Fd2ce9F96c"
      ],
      "transaction": {
        "from": "0x03773f85756acac65a869e89e3b7b2fcda6be140",
        "to": "0x3d4cf5232061744ca5e72eab6624c96750d71ec2",
        "gas": "0xfb56",
        "value": "0x0",
        "input": "0x06c77cb40000000000000000000000000000000000000000000000000000000000009d35000000000000000000000000344dd3ef825c54f836c312cac66294fd2ce9f96c",
        "nonce": "0xaf",
        "chainId": "0x14a34"
      },
      "additionalContracts": [],
      "isFixedGasLimit": false
    },
    {
      "hash": "0xc9bf382934506d7debc73be4b5d9ca6ad219864369bf982dd498871efac36558",
      "transactionType": "CALL",
      "contractName": null,
      "contractAddress": "0x3d4cf5232061744ca5e72eab6624c96750d71ec2",
      "function": "setDepositContract(uint256,address)",
      "arguments": [
        "40287",
        "0x74f96Ed7d11e9028352F44345F4A1D35bDF7d0E4"
      ],
      "transaction": {
        "from": "0x03773f85756acac65a869e89e3b7b2fcda6be140",
        "to": "0x3d4cf5232061744ca5e72eab6624c96750d71ec2",
        "gas": "0xfb56",
        "value": "0x0",
        "input": "0x06c77cb40000000000000000000000000000000000000000000000000000000000009d5f00000000000000000000000074f96ed7d11e9028352f44345f4a1d35bdf7d0e4",
        "nonce": "0xb0",
        "chainId": "0x14a34"
      },
      "additionalContracts": [],
      "isFixedGasLimit": false
    },
    {
      "hash": "0x71aa8178ef4b006358e7b729557a19b21b24963d61292018efab1365ade5ef20",
      "transactionType": "CALL",
      "contractName": null,
      "contractAddress": "0x3d4cf5232061744ca5e72eab6624c96750d71ec2",
      "function": "setDepositContract(uint256,address)",
      "arguments": [
        "40243",
        "0xF4D2D99b401859c7b825D145Ca76125455154245"
      ],
      "transaction": {
        "from": "0x03773f85756acac65a869e89e3b7b2fcda6be140",
        "to": "0x3d4cf5232061744ca5e72eab6624c96750d71ec2",
        "gas": "0xfb56",
        "value": "0x0",
        "input": "0x06c77cb40000000000000000000000000000000000000000000000000000000000009d33000000000000000000000000f4d2d99b401859c7b825d145ca76125455154245",
        "nonce": "0xb1",
        "chainId": "0x14a34"
      },
      "additionalContracts": [],
      "isFixedGasLimit": false
    },
    {
      "hash": "0x31696f64f8f020cdc8d2f6f95cc3f2771e148e41088d4fd577a0eb047586ac0a",
      "transactionType": "CALL",
      "contractName": null,
      "contractAddress": "0x3d4cf5232061744ca5e72eab6624c96750d71ec2",
      "function": "setPeer(uint32,bytes32)",
      "arguments": [
        "40161",
        "0x00000000000000000000000088d9872bb7eba71254fae14e456c095dc1c5c1fa"
      ],
      "transaction": {
        "from": "0x03773f85756acac65a869e89e3b7b2fcda6be140",
        "to": "0x3d4cf5232061744ca5e72eab6624c96750d71ec2",
        "gas": "0x1107f",
        "value": "0x0",
        "input": "0x3400288b0000000000000000000000000000000000000000000000000000000000009ce100000000000000000000000088d9872bb7eba71254fae14e456c095dc1c5c1fa",
        "nonce": "0xb2",
        "chainId": "0x14a34"
      },
      "additionalContracts": [],
      "isFixedGasLimit": false
    },
    {
      "hash": "0x8743c105ebf020497f865e7fddca8efa8b5aaad8476b13b4ca3d14f7f8f69788",
      "transactionType": "CALL",
      "contractName": null,
      "contractAddress": "0x3d4cf5232061744ca5e72eab6624c96750d71ec2",
      "function": "setPeer(uint32,bytes32)",
      "arguments": [
        "40231",
        "0x000000000000000000000000d5ce1f4a923b90dc9556bc17fbb65781cd71f5ae"
      ],
      "transaction": {
        "from": "0x03773f85756acac65a869e89e3b7b2fcda6be140",
        "to": "0x3d4cf5232061744ca5e72eab6624c96750d71ec2",
        "gas": "0x1107f",
        "value": "0x0",
        "input": "0x3400288b0000000000000000000000000000000000000000000000000000000000009d27000000000000000000000000d5ce1f4a923b90dc9556bc17fbb65781cd71f5ae",
        "nonce": "0xb3",
        "chainId": "0x14a34"
      },
      "additionalContracts": [],
      "isFixedGasLimit": false
    },
    {
      "hash": "0x06ad08d4149d353bbbe7fb159c0ea43dfdc1f995229a6bf14dac0a7170ac8a9a",
      "transactionType": "CALL",
      "contractName": null,
      "contractAddress": "0x3d4cf5232061744ca5e72eab6624c96750d71ec2",
      "function": "setPeer(uint32,bytes32)",
      "arguments": [
        "40232",
        "0x000000000000000000000000c6ba506f9e029104896f5b739487b67d4d19c1ad"
      ],
      "transaction": {
        "from": "0x03773f85756acac65a869e89e3b7b2fcda6be140",
        "to": "0x3d4cf5232061744ca5e72eab6624c96750d71ec2",
        "gas": "0x1107f",
        "value": "0x0",
        "input": "0x3400288b0000000000000000000000000000000000000000000000000000000000009d28000000000000000000000000c6ba506f9e029104896f5b739487b67d4d19c1ad",
        "nonce": "0xb4",
        "chainId": "0x14a34"
      },
      "additionalContracts": [],
      "isFixedGasLimit": false
    },
    {
      "hash": "0xa895a2bc14e16199bc6212694c4c274cdcc5304b9f868abe0f0ea5ca90d6694b",
      "transactionType": "CALL",
      "contractName": null,
      "contractAddress": "0x3d4cf5232061744ca5e72eab6624c96750d71ec2",
      "function": "setPeer(uint32,bytes32)",
      "arguments": [
        "40287",
        "0x00000000000000000000000074f96ed7d11e9028352f44345f4a1d35bdf7d0e4"
      ],
      "transaction": {
        "from": "0x03773f85756acac65a869e89e3b7b2fcda6be140",
        "to": "0x3d4cf5232061744ca5e72eab6624c96750d71ec2",
        "gas": "0x1107f",
        "value": "0x0",
        "input": "0x3400288b0000000000000000000000000000000000000000000000000000000000009d5f00000000000000000000000074f96ed7d11e9028352f44345f4a1d35bdf7d0e4",
        "nonce": "0xb5",
        "chainId": "0x14a34"
      },
      "additionalContracts": [],
      "isFixedGasLimit": false
    },
    {
      "hash": "0xc40542c43a78d38a19ac6d568f7c0a75abad513fd3cc4f9f0fd61e0f6f82a786",
      "transactionType": "CALL",
      "contractName": null,
      "contractAddress": "0x3d4cf5232061744ca5e72eab6624c96750d71ec2",
      "function": "setPeer(uint32,bytes32)",
      "arguments": [
        "40243",
        "0x000000000000000000000000f4d2d99b401859c7b825d145ca76125455154245"
      ],
      "transaction": {
        "from": "0x03773f85756acac65a869e89e3b7b2fcda6be140",
        "to": "0x3d4cf5232061744ca5e72eab6624c96750d71ec2",
        "gas": "0x1107f",
        "value": "0x0",
        "input": "0x3400288b0000000000000000000000000000000000000000000000000000000000009d33000000000000000000000000f4d2d99b401859c7b825d145ca76125455154245",
        "nonce": "0xb6",
        "chainId": "0x14a34"
      },
      "additionalContracts": [],
      "isFixedGasLimit": false
    }
  ],
  "receipts": [
    {
      "status": "0x1",
      "cumulativeGasUsed": "0x38f380",
      "logs": [],
      "logsBloom": "0x00000000000000000000000000000000000000000000000000000000000000000000000000000000000000000000000000000000000000000000000000000000000000000000000000000000000000000000000000000000000000000000000000000000000000000000000000000000000000000000000000000000000000000000000000000000000000000000000000000000000000000000000000000000000000000000000000000000000000000000000000000000000000000000000000000000000000000000000000000000000000000000000000000000000000000000000000000000000000000000000000000000000000000000000000000000",
      "type": "0x2",
      "transactionHash": "0xd1710c8656a421a74a925dbfd02a2b89ee14872ecde0c369114bda815943b4b7",
      "transactionIndex": "0xe",
      "blockHash": "0x8465c06fd2b3df3575c384dafa53a73fc264a57209e12174adde4e7b1056d187",
      "blockNumber": "0xe8e70e",
      "gasUsed": "0xb5f7",
      "effectiveGasPrice": "0x4d0531",
      "from": "0x03773f85756acac65a869e89e3b7b2fcda6be140",
      "to": "0x3d4cf5232061744ca5e72eab6624c96750d71ec2",
      "contractAddress": null,
      "l1BaseFeeScalar": "0x44d",
      "l1BlobBaseFee": "0x1",
      "l1BlobBaseFeeScalar": "0xa118b",
      "l1Fee": "0x6aafdd7f",
      "l1GasPrice": "0x3c900297",
      "l1GasUsed": "0x640"
    },
    {
      "status": "0x1",
      "cumulativeGasUsed": "0x39a977",
      "logs": [],
      "logsBloom": "0x00000000000000000000000000000000000000000000000000000000000000000000000000000000000000000000000000000000000000000000000000000000000000000000000000000000000000000000000000000000000000000000000000000000000000000000000000000000000000000000000000000000000000000000000000000000000000000000000000000000000000000000000000000000000000000000000000000000000000000000000000000000000000000000000000000000000000000000000000000000000000000000000000000000000000000000000000000000000000000000000000000000000000000000000000000000",
      "type": "0x2",
      "transactionHash": "0xf390fb5dd00698cbb91f70c25cb5147e597d845ed06bb34f9e0d8f6a0cfbbb6e",
      "transactionIndex": "0xf",
      "blockHash": "0x8465c06fd2b3df3575c384dafa53a73fc264a57209e12174adde4e7b1056d187",
      "blockNumber": "0xe8e70e",
      "gasUsed": "0xb5f7",
      "effectiveGasPrice": "0x4d0531",
      "from": "0x03773f85756acac65a869e89e3b7b2fcda6be140",
      "to": "0x3d4cf5232061744ca5e72eab6624c96750d71ec2",
      "contractAddress": null,
      "l1BaseFeeScalar": "0x44d",
      "l1BlobBaseFee": "0x1",
      "l1BlobBaseFeeScalar": "0xa118b",
      "l1Fee": "0x6aafdd7f",
      "l1GasPrice": "0x3c900297",
      "l1GasUsed": "0x640"
    },
    {
      "status": "0x1",
      "cumulativeGasUsed": "0x3a5f6e",
      "logs": [],
      "logsBloom": "0x00000000000000000000000000000000000000000000000000000000000000000000000000000000000000000000000000000000000000000000000000000000000000000000000000000000000000000000000000000000000000000000000000000000000000000000000000000000000000000000000000000000000000000000000000000000000000000000000000000000000000000000000000000000000000000000000000000000000000000000000000000000000000000000000000000000000000000000000000000000000000000000000000000000000000000000000000000000000000000000000000000000000000000000000000000000",
      "type": "0x2",
      "transactionHash": "0x8abcac0a17f71dcd6d05f27467637a3ab1987d3cd3b6a55be70d076e87b7edfc",
      "transactionIndex": "0x10",
      "blockHash": "0x8465c06fd2b3df3575c384dafa53a73fc264a57209e12174adde4e7b1056d187",
      "blockNumber": "0xe8e70e",
      "gasUsed": "0xb5f7",
      "effectiveGasPrice": "0x4d0531",
      "from": "0x03773f85756acac65a869e89e3b7b2fcda6be140",
      "to": "0x3d4cf5232061744ca5e72eab6624c96750d71ec2",
      "contractAddress": null,
      "l1BaseFeeScalar": "0x44d",
      "l1BlobBaseFee": "0x1",
      "l1BlobBaseFeeScalar": "0xa118b",
      "l1Fee": "0x6aafdd7f",
      "l1GasPrice": "0x3c900297",
      "l1GasUsed": "0x640"
    },
    {
      "status": "0x1",
      "cumulativeGasUsed": "0x3b1565",
      "logs": [],
      "logsBloom": "0x00000000000000000000000000000000000000000000000000000000000000000000000000000000000000000000000000000000000000000000000000000000000000000000000000000000000000000000000000000000000000000000000000000000000000000000000000000000000000000000000000000000000000000000000000000000000000000000000000000000000000000000000000000000000000000000000000000000000000000000000000000000000000000000000000000000000000000000000000000000000000000000000000000000000000000000000000000000000000000000000000000000000000000000000000000000",
      "type": "0x2",
      "transactionHash": "0xd7bff8fe28dee82817cbb7a396d4e8756360fcc7a3c6322a1f98863d3fc61249",
      "transactionIndex": "0x11",
      "blockHash": "0x8465c06fd2b3df3575c384dafa53a73fc264a57209e12174adde4e7b1056d187",
      "blockNumber": "0xe8e70e",
      "gasUsed": "0xb5f7",
      "effectiveGasPrice": "0x4d0531",
      "from": "0x03773f85756acac65a869e89e3b7b2fcda6be140",
      "to": "0x3d4cf5232061744ca5e72eab6624c96750d71ec2",
      "contractAddress": null,
      "l1BaseFeeScalar": "0x44d",
      "l1BlobBaseFee": "0x1",
      "l1BlobBaseFeeScalar": "0xa118b",
      "l1Fee": "0x6aafdd7f",
      "l1GasPrice": "0x3c900297",
      "l1GasUsed": "0x640"
    },
    {
      "status": "0x1",
      "cumulativeGasUsed": "0x3e4ac2",
      "logs": [],
      "logsBloom": "0x00000000000000000000000000000000000000000000000000000000000000000000000000000000000000000000000000000000000000000000000000000000000000000000000000000000000000000000000000000000000000000000000000000000000000000000000000000000000000000000000000000000000000000000000000000000000000000000000000000000000000000000000000000000000000000000000000000000000000000000000000000000000000000000000000000000000000000000000000000000000000000000000000000000000000000000000000000000000000000000000000000000000000000000000000000000",
      "type": "0x2",
      "transactionHash": "0xc9bf382934506d7debc73be4b5d9ca6ad219864369bf982dd498871efac36558",
      "transactionIndex": "0x13",
      "blockHash": "0x8465c06fd2b3df3575c384dafa53a73fc264a57209e12174adde4e7b1056d187",
      "blockNumber": "0xe8e70e",
      "gasUsed": "0xb5f7",
      "effectiveGasPrice": "0x4d0531",
      "from": "0x03773f85756acac65a869e89e3b7b2fcda6be140",
      "to": "0x3d4cf5232061744ca5e72eab6624c96750d71ec2",
      "contractAddress": null,
      "l1BaseFeeScalar": "0x44d",
      "l1BlobBaseFee": "0x1",
      "l1BlobBaseFeeScalar": "0xa118b",
      "l1Fee": "0x6aafdd7f",
      "l1GasPrice": "0x3c900297",
      "l1GasUsed": "0x640"
    },
    {
      "status": "0x1",
      "cumulativeGasUsed": "0x3f00b9",
      "logs": [],
      "logsBloom": "0x00000000000000000000000000000000000000000000000000000000000000000000000000000000000000000000000000000000000000000000000000000000000000000000000000000000000000000000000000000000000000000000000000000000000000000000000000000000000000000000000000000000000000000000000000000000000000000000000000000000000000000000000000000000000000000000000000000000000000000000000000000000000000000000000000000000000000000000000000000000000000000000000000000000000000000000000000000000000000000000000000000000000000000000000000000000",
      "type": "0x2",
      "transactionHash": "0x71aa8178ef4b006358e7b729557a19b21b24963d61292018efab1365ade5ef20",
      "transactionIndex": "0x14",
      "blockHash": "0x8465c06fd2b3df3575c384dafa53a73fc264a57209e12174adde4e7b1056d187",
      "blockNumber": "0xe8e70e",
      "gasUsed": "0xb5f7",
      "effectiveGasPrice": "0x4d0531",
      "from": "0x03773f85756acac65a869e89e3b7b2fcda6be140",
      "to": "0x3d4cf5232061744ca5e72eab6624c96750d71ec2",
      "contractAddress": null,
      "l1BaseFeeScalar": "0x44d",
      "l1BlobBaseFee": "0x1",
      "l1BlobBaseFeeScalar": "0xa118b",
      "l1Fee": "0x6aafdd7f",
      "l1GasPrice": "0x3c900297",
      "l1GasUsed": "0x640"
    },
    {
      "status": "0x1",
      "cumulativeGasUsed": "0x3fbb0c",
      "logs": [
        {
          "address": "0x3d4cf5232061744ca5e72eab6624c96750d71ec2",
          "topics": [
            "0x238399d427b947898edb290f5ff0f9109849b1c3ba196a42e35f00c50a54b98b"
          ],
          "data": "0x0000000000000000000000000000000000000000000000000000000000009ce100000000000000000000000088d9872bb7eba71254fae14e456c095dc1c5c1fa",
          "blockHash": "0x8465c06fd2b3df3575c384dafa53a73fc264a57209e12174adde4e7b1056d187",
          "blockNumber": "0xe8e70e",
          "transactionHash": "0x31696f64f8f020cdc8d2f6f95cc3f2771e148e41088d4fd577a0eb047586ac0a",
          "transactionIndex": "0x15",
          "logIndex": "0x33",
          "removed": false
        }
      ],
      "logsBloom": "0x00000000000000000000000000000000000000000200000000000000000000000000000000000000000000000000000000000000000800000800000000000000000000000000000000000000000000000000000000000000000000000000000000000000000000000000000000000000000000000000000000000000000000000000000000000000000000000000000000000000000200000000000000000000000000000000000000000000000000000000000000000000000002000000000000000000000000000000000000000000000000000000000000040000000000000000000000000000000000000000000000000000000000000000000000000000",
      "type": "0x2",
      "transactionHash": "0x31696f64f8f020cdc8d2f6f95cc3f2771e148e41088d4fd577a0eb047586ac0a",
      "transactionIndex": "0x15",
      "blockHash": "0x8465c06fd2b3df3575c384dafa53a73fc264a57209e12174adde4e7b1056d187",
      "blockNumber": "0xe8e70e",
      "gasUsed": "0xba53",
      "effectiveGasPrice": "0x4d0531",
      "from": "0x03773f85756acac65a869e89e3b7b2fcda6be140",
      "to": "0x3d4cf5232061744ca5e72eab6624c96750d71ec2",
      "contractAddress": null,
      "l1BaseFeeScalar": "0x44d",
      "l1BlobBaseFee": "0x1",
      "l1BlobBaseFeeScalar": "0xa118b",
      "l1Fee": "0x6aafdd7f",
      "l1GasPrice": "0x3c900297",
      "l1GasUsed": "0x640"
    },
    {
      "status": "0x1",
      "cumulativeGasUsed": "0x121b53",
      "logs": [
        {
          "address": "0x3d4cf5232061744ca5e72eab6624c96750d71ec2",
          "topics": [
            "0x238399d427b947898edb290f5ff0f9109849b1c3ba196a42e35f00c50a54b98b"
          ],
          "data": "0x0000000000000000000000000000000000000000000000000000000000009d27000000000000000000000000d5ce1f4a923b90dc9556bc17fbb65781cd71f5ae",
          "blockHash": "0xd6724b0815ffdd29b958ebb736e07b8303bf03790e284f381438564bcee021c0",
          "blockNumber": "0xe8e70f",
          "transactionHash": "0x8743c105ebf020497f865e7fddca8efa8b5aaad8476b13b4ca3d14f7f8f69788",
          "transactionIndex": "0x3",
          "logIndex": "0x6",
          "removed": false
        }
      ],
      "logsBloom": "0x00000000000000000000000000000000000000000200000000000000000000000000000000000000000000000000000000000000000800000800000000000000000000000000000000000000000000000000000000000000000000000000000000000000000000000000000000000000000000000000000000000000000000000000000000000000000000000000000000000000000200000000000000000000000000000000000000000000000000000000000000000000000002000000000000000000000000000000000000000000000000000000000000040000000000000000000000000000000000000000000000000000000000000000000000000000",
      "type": "0x2",
      "transactionHash": "0x8743c105ebf020497f865e7fddca8efa8b5aaad8476b13b4ca3d14f7f8f69788",
      "transactionIndex": "0x3",
      "blockHash": "0xd6724b0815ffdd29b958ebb736e07b8303bf03790e284f381438564bcee021c0",
      "blockNumber": "0xe8e70f",
      "gasUsed": "0xba53",
      "effectiveGasPrice": "0x4cff87",
      "from": "0x03773f85756acac65a869e89e3b7b2fcda6be140",
      "to": "0x3d4cf5232061744ca5e72eab6624c96750d71ec2",
      "contractAddress": null,
      "l1BaseFeeScalar": "0x44d",
      "l1BlobBaseFee": "0x1",
      "l1BlobBaseFeeScalar": "0xa118b",
      "l1Fee": "0x6aafdd7f",
      "l1GasPrice": "0x3c900297",
      "l1GasUsed": "0x640"
    },
    {
      "status": "0x1",
      "cumulativeGasUsed": "0x12d5a6",
      "logs": [
        {
          "address": "0x3d4cf5232061744ca5e72eab6624c96750d71ec2",
          "topics": [
            "0x238399d427b947898edb290f5ff0f9109849b1c3ba196a42e35f00c50a54b98b"
          ],
          "data": "0x0000000000000000000000000000000000000000000000000000000000009d28000000000000000000000000c6ba506f9e029104896f5b739487b67d4d19c1ad",
          "blockHash": "0xd6724b0815ffdd29b958ebb736e07b8303bf03790e284f381438564bcee021c0",
          "blockNumber": "0xe8e70f",
          "transactionHash": "0x06ad08d4149d353bbbe7fb159c0ea43dfdc1f995229a6bf14dac0a7170ac8a9a",
          "transactionIndex": "0x4",
          "logIndex": "0x7",
          "removed": false
        }
      ],
      "logsBloom": "0x00000000000000000000000000000000000000000200000000000000000000000000000000000000000000000000000000000000000800000800000000000000000000000000000000000000000000000000000000000000000000000000000000000000000000000000000000000000000000000000000000000000000000000000000000000000000000000000000000000000000200000000000000000000000000000000000000000000000000000000000000000000000002000000000000000000000000000000000000000000000000000000000000040000000000000000000000000000000000000000000000000000000000000000000000000000",
      "type": "0x2",
      "transactionHash": "0x06ad08d4149d353bbbe7fb159c0ea43dfdc1f995229a6bf14dac0a7170ac8a9a",
      "transactionIndex": "0x4",
      "blockHash": "0xd6724b0815ffdd29b958ebb736e07b8303bf03790e284f381438564bcee021c0",
      "blockNumber": "0xe8e70f",
      "gasUsed": "0xba53",
      "effectiveGasPrice": "0x4cff87",
      "from": "0x03773f85756acac65a869e89e3b7b2fcda6be140",
      "to": "0x3d4cf5232061744ca5e72eab6624c96750d71ec2",
      "contractAddress": null,
      "l1BaseFeeScalar": "0x44d",
      "l1BlobBaseFee": "0x1",
      "l1BlobBaseFeeScalar": "0xa118b",
      "l1Fee": "0x6aafdd7f",
      "l1GasPrice": "0x3c900297",
      "l1GasUsed": "0x640"
    },
    {
      "status": "0x1",
      "cumulativeGasUsed": "0x138ff9",
      "logs": [
        {
          "address": "0x3d4cf5232061744ca5e72eab6624c96750d71ec2",
          "topics": [
            "0x238399d427b947898edb290f5ff0f9109849b1c3ba196a42e35f00c50a54b98b"
          ],
          "data": "0x0000000000000000000000000000000000000000000000000000000000009d5f00000000000000000000000074f96ed7d11e9028352f44345f4a1d35bdf7d0e4",
          "blockHash": "0xd6724b0815ffdd29b958ebb736e07b8303bf03790e284f381438564bcee021c0",
          "blockNumber": "0xe8e70f",
          "transactionHash": "0xa895a2bc14e16199bc6212694c4c274cdcc5304b9f868abe0f0ea5ca90d6694b",
          "transactionIndex": "0x5",
          "logIndex": "0x8",
          "removed": false
        }
      ],
      "logsBloom": "0x00000000000000000000000000000000000000000200000000000000000000000000000000000000000000000000000000000000000800000800000000000000000000000000000000000000000000000000000000000000000000000000000000000000000000000000000000000000000000000000000000000000000000000000000000000000000000000000000000000000000200000000000000000000000000000000000000000000000000000000000000000000000002000000000000000000000000000000000000000000000000000000000000040000000000000000000000000000000000000000000000000000000000000000000000000000",
      "type": "0x2",
      "transactionHash": "0xa895a2bc14e16199bc6212694c4c274cdcc5304b9f868abe0f0ea5ca90d6694b",
      "transactionIndex": "0x5",
      "blockHash": "0xd6724b0815ffdd29b958ebb736e07b8303bf03790e284f381438564bcee021c0",
      "blockNumber": "0xe8e70f",
      "gasUsed": "0xba53",
      "effectiveGasPrice": "0x4cff87",
      "from": "0x03773f85756acac65a869e89e3b7b2fcda6be140",
      "to": "0x3d4cf5232061744ca5e72eab6624c96750d71ec2",
      "contractAddress": null,
      "l1BaseFeeScalar": "0x44d",
      "l1BlobBaseFee": "0x1",
      "l1BlobBaseFeeScalar": "0xa118b",
      "l1Fee": "0x6aafdd7f",
      "l1GasPrice": "0x3c900297",
      "l1GasUsed": "0x640"
    },
    {
      "status": "0x1",
      "cumulativeGasUsed": "0x144a4c",
      "logs": [
        {
          "address": "0x3d4cf5232061744ca5e72eab6624c96750d71ec2",
          "topics": [
            "0x238399d427b947898edb290f5ff0f9109849b1c3ba196a42e35f00c50a54b98b"
          ],
          "data": "0x0000000000000000000000000000000000000000000000000000000000009d33000000000000000000000000f4d2d99b401859c7b825d145ca76125455154245",
          "blockHash": "0xd6724b0815ffdd29b958ebb736e07b8303bf03790e284f381438564bcee021c0",
          "blockNumber": "0xe8e70f",
          "transactionHash": "0xc40542c43a78d38a19ac6d568f7c0a75abad513fd3cc4f9f0fd61e0f6f82a786",
          "transactionIndex": "0x6",
          "logIndex": "0x9",
          "removed": false
        }
      ],
      "logsBloom": "0x00000000000000000000000000000000000000000200000000000000000000000000000000000000000000000000000000000000000800000800000000000000000000000000000000000000000000000000000000000000000000000000000000000000000000000000000000000000000000000000000000000000000000000000000000000000000000000000000000000000000200000000000000000000000000000000000000000000000000000000000000000000000002000000000000000000000000000000000000000000000000000000000000040000000000000000000000000000000000000000000000000000000000000000000000000000",
      "type": "0x2",
      "transactionHash": "0xc40542c43a78d38a19ac6d568f7c0a75abad513fd3cc4f9f0fd61e0f6f82a786",
      "transactionIndex": "0x6",
      "blockHash": "0xd6724b0815ffdd29b958ebb736e07b8303bf03790e284f381438564bcee021c0",
      "blockNumber": "0xe8e70f",
      "gasUsed": "0xba53",
      "effectiveGasPrice": "0x4cff87",
      "from": "0x03773f85756acac65a869e89e3b7b2fcda6be140",
      "to": "0x3d4cf5232061744ca5e72eab6624c96750d71ec2",
      "contractAddress": null,
      "l1BaseFeeScalar": "0x44d",
      "l1BlobBaseFee": "0x1",
      "l1BlobBaseFeeScalar": "0xa118b",
      "l1Fee": "0x6aafdd7f",
      "l1GasPrice": "0x3c900297",
      "l1GasUsed": "0x640"
    }
  ],
  "libraries": [],
  "pending": [],
  "returns": {},
  "timestamp": 1726295300,
  "chain": 84532,
  "commit": "5fcd4f3"
}