{
  "transactions": [
    {
      "hash": "0xbb23fefba2d563dc91eca4d5967db58aabe570cbc82c11e880f910b256971689",
      "transactionType": "CALL",
      "contractName": null,
      "contractAddress": "0xa2926e337a8c0b366ba7c263f6ebbb018d306af4",
      "function": "poolWithdraw(uint256,address)",
      "arguments": [
        "67312302549303442",
        "0x6d5ecc0aa8DcE64045b1053A2480D82A61Ad86Bc"
      ],
      "transaction": {
        "from": "0xe0d6f93151091f24ea09474e9271bd60f2624d99",
        "to": "0xa2926e337a8c0b366ba7c263f6ebbb018d306af4",
        "gas": "0x11071",
        "value": "0x0",
        "input": "0x5b1ca16800000000000000000000000000000000000000000000000000ef242eba7700920000000000000000000000006d5ecc0aa8dce64045b1053a2480d82a61ad86bc",
        "nonce": "0x6c",
        "chainId": "0x14a34"
      },
      "additionalContracts": [],
      "isFixedGasLimit": false
    }
  ],
  "receipts": [
    {
      "status": "0x1",
      "cumulativeGasUsed": "0x151461",
      "logs": [
        {
          "address": "0x4200000000000000000000000000000000000006",
          "topics": [
            "0x7fcf532c15f0a6db0bd6d0e038bea71d30d808c7d98cb3bf7268a95bf5081b65",
            "0x000000000000000000000000a2926e337a8c0b366ba7c263f6ebbb018d306af4"
          ],
          "data": "0x00000000000000000000000000000000000000000000000000ef242eba770092",
          "blockHash": "0x03ed28fc5e47976a258705a77cb7aefc211e3a39c409aadeb1d5f5af1012576e",
          "blockNumber": "0xe18a09",
          "transactionHash": "0xbb23fefba2d563dc91eca4d5967db58aabe570cbc82c11e880f910b256971689",
          "transactionIndex": "0x8",
          "logIndex": "0x7",
          "removed": false
        },
        {
          "address": "0xa2926e337a8c0b366ba7c263f6ebbb018d306af4",
          "topics": [
            "0x6f07e6169c1653554eb707b6f6cd8f7ccf9cc29e54a0d8a71d9d5867d2057ac2",
            "0x0000000000000000000000006d5ecc0aa8dce64045b1053a2480d82a61ad86bc"
          ],
          "data": "0x00000000000000000000000000000000000000000000000000ef242eba770092",
          "blockHash": "0x03ed28fc5e47976a258705a77cb7aefc211e3a39c409aadeb1d5f5af1012576e",
          "blockNumber": "0xe18a09",
          "transactionHash": "0xbb23fefba2d563dc91eca4d5967db58aabe570cbc82c11e880f910b256971689",
          "transactionIndex": "0x8",
          "logIndex": "0x8",
          "removed": false
        }
      ],
      "logsBloom": "0x00000000000000000000000000020010000000000000000000040002000000040000080000000000000000100000000000000020000000000000000000000000000000000000000000000000000000000000000000400000000000000000000000000000000000000400000200000000000000000000040000000000000000000000000000000000000000000000000000000000002000000000000000000000000000000000000000000000000000000000000000000000000000008000000000000000040000000000000000000000008000000040000000000002000000000000000000000000000000000000000000000000000000000000000000000000",
      "type": "0x2",
      "transactionHash": "0xbb23fefba2d563dc91eca4d5967db58aabe570cbc82c11e880f910b256971689",
      "transactionIndex": "0x8",
      "blockHash": "0x03ed28fc5e47976a258705a77cb7aefc211e3a39c409aadeb1d5f5af1012576e",
      "blockNumber": "0xe18a09",
      "gasUsed": "0xba49",
      "effectiveGasPrice": "0xf4356",
      "from": "0xe0d6f93151091f24ea09474e9271bd60f2624d99",
      "to": "0xa2926e337a8c0b366ba7c263f6ebbb018d306af4",
      "contractAddress": null,
      "l1BaseFeeScalar": "0x44d",
      "l1BlobBaseFee": "0x3f5694c1f",
      "l1BlobBaseFeeScalar": "0xa118b",
      "l1Fee": "0x1054f72b5b5",
      "l1GasPrice": "0xe6b539d",
      "l1GasUsed": "0x640"
    }
  ],
  "libraries": [],
  "pending": [],
  "returns": {},
  "timestamp": 1725330168,
  "chain": 84532,
  "commit": "5cf640c"
}