{
  "transactions": [
    {
      "hash": "0xa332270def39c15b0a6cad82743435d129c9ee3e2f1be9a25b90dceec04732d6",
      "transactionType": "CALL",
      "contractName": null,
      "contractAddress": "0x4aa5f077688ba0d53836a3b9e9fdc3bfb16b1362",
      "function": "setDepositContract(uint256,address)",
      "arguments": [
        "40231",
        "0xced5018D9C2d1088907581A7C24c670667F0079b"
      ],
      "transaction": {
        "from": "0x03773f85756acac65a869e89e3b7b2fcda6be140",
        "to": "0x4aa5f077688ba0d53836a3b9e9fdc3bfb16b1362",
        "gas": "0xfb56",
        "value": "0x0",
        "input": "0x06c77cb40000000000000000000000000000000000000000000000000000000000009d27000000000000000000000000ced5018d9c2d1088907581a7c24c670667f0079b",
        "nonce": "0x6f",
        "chainId": "0x14a34"
      },
      "additionalContracts": [],
      "isFixedGasLimit": false
    },
    {
      "hash": "0x1bf14b79e1ded49a504e72e8434e399a473af56bdbd78b89eb1e77c257fef1ba",
      "transactionType": "CALL",
      "contractName": null,
      "contractAddress": "0x4aa5f077688ba0d53836a3b9e9fdc3bfb16b1362",
      "function": "setDepositContract(uint256,address)",
      "arguments": [
        "40161",
        "0xB48F7a8aD1302C77C75acd3BB98f416000A99aad"
      ],
      "transaction": {
        "from": "0x03773f85756acac65a869e89e3b7b2fcda6be140",
        "to": "0x4aa5f077688ba0d53836a3b9e9fdc3bfb16b1362",
        "gas": "0x10a0d",
        "value": "0x0",
        "input": "0x06c77cb40000000000000000000000000000000000000000000000000000000000009ce1000000000000000000000000b48f7a8ad1302c77c75acd3bb98f416000a99aad",
        "nonce": "0x70",
        "chainId": "0x14a34"
      },
      "additionalContracts": [],
      "isFixedGasLimit": false
    },
    {
      "hash": "0x837554dba9936a9a47a7bea233738d272b6409cc8d00c1aae3643667c3e5340c",
      "transactionType": "CALL",
      "contractName": null,
      "contractAddress": "0x4aa5f077688ba0d53836a3b9e9fdc3bfb16b1362",
      "function": "setDepositContract(uint256,address)",
      "arguments": [
        "40232",
        "0x34e7CEBC535C30Aceeb63a63C20b0C42A80B215A"
      ],
      "transaction": {
        "from": "0x03773f85756acac65a869e89e3b7b2fcda6be140",
        "to": "0x4aa5f077688ba0d53836a3b9e9fdc3bfb16b1362",
        "gas": "0xfb56",
        "value": "0x0",
        "input": "0x06c77cb40000000000000000000000000000000000000000000000000000000000009d2800000000000000000000000034e7cebc535c30aceeb63a63c20b0c42a80b215a",
        "nonce": "0x71",
        "chainId": "0x14a34"
      },
      "additionalContracts": [],
      "isFixedGasLimit": false
    },
    {
      "hash": "0xd50367fd04013bf85d03e0bb141d4fc30db878d2a6e6b8179ea5e82e909517a4",
      "transactionType": "CALL",
      "contractName": null,
      "contractAddress": "0x4aa5f077688ba0d53836a3b9e9fdc3bfb16b1362",
      "function": "setDepositContract(uint256,address)",
      "arguments": [
        "40245",
        "0x17086242C5EcC58a7cBb828312911c782CA6981e"
      ],
      "transaction": {
        "from": "0x03773f85756acac65a869e89e3b7b2fcda6be140",
        "to": "0x4aa5f077688ba0d53836a3b9e9fdc3bfb16b1362",
        "gas": "0xfb56",
        "value": "0x0",
        "input": "0x06c77cb40000000000000000000000000000000000000000000000000000000000009d3500000000000000000000000017086242c5ecc58a7cbb828312911c782ca6981e",
        "nonce": "0x72",
        "chainId": "0x14a34"
      },
      "additionalContracts": [],
      "isFixedGasLimit": false
    },
    {
      "hash": "0x709652aa0011dff0852114797a080bca8285dce75a96be69483e17dc9507086f",
      "transactionType": "CALL",
      "contractName": null,
      "contractAddress": "0x4aa5f077688ba0d53836a3b9e9fdc3bfb16b1362",
      "function": "setPeer(uint32,bytes32)",
      "arguments": [
        "40161",
        "0x000000000000000000000000b48f7a8ad1302c77c75acd3bb98f416000a99aad"
      ],
      "transaction": {
        "from": "0x03773f85756acac65a869e89e3b7b2fcda6be140",
        "to": "0x4aa5f077688ba0d53836a3b9e9fdc3bfb16b1362",
        "gas": "0x1014b",
        "value": "0x0",
        "input": "0x3400288b0000000000000000000000000000000000000000000000000000000000009ce1000000000000000000000000b48f7a8ad1302c77c75acd3bb98f416000a99aad",
        "nonce": "0x73",
        "chainId": "0x14a34"
      },
      "additionalContracts": [],
      "isFixedGasLimit": false
    },
    {
      "hash": "0xb840e195b2e285a3ad25d7d5a717f4a96a8d1498b8d7eaad4ce29b07b69764cf",
      "transactionType": "CALL",
      "contractName": null,
      "contractAddress": "0x4aa5f077688ba0d53836a3b9e9fdc3bfb16b1362",
      "function": "setPeer(uint32,bytes32)",
      "arguments": [
        "40232",
        "0x00000000000000000000000034e7cebc535c30aceeb63a63c20b0c42a80b215a"
      ],
      "transaction": {
        "from": "0x03773f85756acac65a869e89e3b7b2fcda6be140",
        "to": "0x4aa5f077688ba0d53836a3b9e9fdc3bfb16b1362",
        "gas": "0x1107f",
        "value": "0x0",
        "input": "0x3400288b0000000000000000000000000000000000000000000000000000000000009d2800000000000000000000000034e7cebc535c30aceeb63a63c20b0c42a80b215a",
        "nonce": "0x74",
        "chainId": "0x14a34"
      },
      "additionalContracts": [],
      "isFixedGasLimit": false
    },
    {
      "hash": "0xf615c43223484c4c439e7417369505408a2dce158d65e602cbf4dddd10677393",
      "transactionType": "CALL",
      "contractName": null,
      "contractAddress": "0x4aa5f077688ba0d53836a3b9e9fdc3bfb16b1362",
      "function": "setPeer(uint32,bytes32)",
      "arguments": [
        "40245",
        "0x00000000000000000000000017086242c5ecc58a7cbb828312911c782ca6981e"
      ],
      "transaction": {
        "from": "0x03773f85756acac65a869e89e3b7b2fcda6be140",
        "to": "0x4aa5f077688ba0d53836a3b9e9fdc3bfb16b1362",
        "gas": "0x1107f",
        "value": "0x0",
        "input": "0x3400288b0000000000000000000000000000000000000000000000000000000000009d3500000000000000000000000017086242c5ecc58a7cbb828312911c782ca6981e",
        "nonce": "0x75",
        "chainId": "0x14a34"
      },
      "additionalContracts": [],
      "isFixedGasLimit": false
    }
  ],
  "receipts": [
    {
      "status": "0x1",
      "cumulativeGasUsed": "0x18c3a6",
      "logs": [],
      "logsBloom": "0x00000000000000000000000000000000000000000000000000000000000000000000000000000000000000000000000000000000000000000000000000000000000000000000000000000000000000000000000000000000000000000000000000000000000000000000000000000000000000000000000000000000000000000000000000000000000000000000000000000000000000000000000000000000000000000000000000000000000000000000000000000000000000000000000000000000000000000000000000000000000000000000000000000000000000000000000000000000000000000000000000000000000000000000000000000000",
      "type": "0x2",
      "transactionHash": "0xa332270def39c15b0a6cad82743435d129c9ee3e2f1be9a25b90dceec04732d6",
      "transactionIndex": "0x3",
      "blockHash": "0x45fe75cb38b80b2bef0dbc3b7a9175ff962e2751345495cd52a2f505aa30449d",
      "blockNumber": "0xdcfbe1",
      "gasUsed": "0xb5f7",
      "effectiveGasPrice": "0x10d2b1",
      "from": "0x03773f85756acac65a869e89e3b7b2fcda6be140",
      "to": "0x4aa5f077688ba0d53836a3b9e9fdc3bfb16b1362",
      "contractAddress": null,
      "l1BaseFeeScalar": "0x44d",
      "l1BlobBaseFee": "0x13cc64ab25",
      "l1BlobBaseFeeScalar": "0xa118b",
      "l1Fee": "0x51b256c619e",
      "l1GasPrice": "0x6c6af5b9",
      "l1GasUsed": "0x640"
    },
    {
      "status": "0x1",
      "cumulativeGasUsed": "0x197991",
      "logs": [],
      "logsBloom": "0x00000000000000000000000000000000000000000000000000000000000000000000000000000000000000000000000000000000000000000000000000000000000000000000000000000000000000000000000000000000000000000000000000000000000000000000000000000000000000000000000000000000000000000000000000000000000000000000000000000000000000000000000000000000000000000000000000000000000000000000000000000000000000000000000000000000000000000000000000000000000000000000000000000000000000000000000000000000000000000000000000000000000000000000000000000000",
      "type": "0x2",
      "transactionHash": "0x1bf14b79e1ded49a504e72e8434e399a473af56bdbd78b89eb1e77c257fef1ba",
      "transactionIndex": "0x4",
      "blockHash": "0x45fe75cb38b80b2bef0dbc3b7a9175ff962e2751345495cd52a2f505aa30449d",
      "blockNumber": "0xdcfbe1",
      "gasUsed": "0xb5eb",
      "effectiveGasPrice": "0x10d2b1",
      "from": "0x03773f85756acac65a869e89e3b7b2fcda6be140",
      "to": "0x4aa5f077688ba0d53836a3b9e9fdc3bfb16b1362",
      "contractAddress": null,
      "l1BaseFeeScalar": "0x44d",
      "l1BlobBaseFee": "0x13cc64ab25",
      "l1BlobBaseFeeScalar": "0xa118b",
      "l1Fee": "0x51b256c619e",
      "l1GasPrice": "0x6c6af5b9",
      "l1GasUsed": "0x640"
    },
    {
      "status": "0x1",
      "cumulativeGasUsed": "0x1a2f88",
      "logs": [],
      "logsBloom": "0x00000000000000000000000000000000000000000000000000000000000000000000000000000000000000000000000000000000000000000000000000000000000000000000000000000000000000000000000000000000000000000000000000000000000000000000000000000000000000000000000000000000000000000000000000000000000000000000000000000000000000000000000000000000000000000000000000000000000000000000000000000000000000000000000000000000000000000000000000000000000000000000000000000000000000000000000000000000000000000000000000000000000000000000000000000000",
      "type": "0x2",
      "transactionHash": "0x837554dba9936a9a47a7bea233738d272b6409cc8d00c1aae3643667c3e5340c",
      "transactionIndex": "0x5",
      "blockHash": "0x45fe75cb38b80b2bef0dbc3b7a9175ff962e2751345495cd52a2f505aa30449d",
      "blockNumber": "0xdcfbe1",
      "gasUsed": "0xb5f7",
      "effectiveGasPrice": "0x10d2b1",
      "from": "0x03773f85756acac65a869e89e3b7b2fcda6be140",
      "to": "0x4aa5f077688ba0d53836a3b9e9fdc3bfb16b1362",
      "contractAddress": null,
      "l1BaseFeeScalar": "0x44d",
      "l1BlobBaseFee": "0x13cc64ab25",
      "l1BlobBaseFeeScalar": "0xa118b",
      "l1Fee": "0x51b256c619e",
      "l1GasPrice": "0x6c6af5b9",
      "l1GasUsed": "0x640"
    },
    {
      "status": "0x1",
      "cumulativeGasUsed": "0x1ae57f",
      "logs": [],
      "logsBloom": "0x00000000000000000000000000000000000000000000000000000000000000000000000000000000000000000000000000000000000000000000000000000000000000000000000000000000000000000000000000000000000000000000000000000000000000000000000000000000000000000000000000000000000000000000000000000000000000000000000000000000000000000000000000000000000000000000000000000000000000000000000000000000000000000000000000000000000000000000000000000000000000000000000000000000000000000000000000000000000000000000000000000000000000000000000000000000",
      "type": "0x2",
      "transactionHash": "0xd50367fd04013bf85d03e0bb141d4fc30db878d2a6e6b8179ea5e82e909517a4",
      "transactionIndex": "0x6",
      "blockHash": "0x45fe75cb38b80b2bef0dbc3b7a9175ff962e2751345495cd52a2f505aa30449d",
      "blockNumber": "0xdcfbe1",
      "gasUsed": "0xb5f7",
      "effectiveGasPrice": "0x10d2b1",
      "from": "0x03773f85756acac65a869e89e3b7b2fcda6be140",
      "to": "0x4aa5f077688ba0d53836a3b9e9fdc3bfb16b1362",
      "contractAddress": null,
      "l1BaseFeeScalar": "0x44d",
      "l1BlobBaseFee": "0x13cc64ab25",
      "l1BlobBaseFeeScalar": "0xa118b",
      "l1Fee": "0x51b256c619e",
      "l1GasPrice": "0x6c6af5b9",
      "l1GasUsed": "0x640"
    },
    {
      "status": "0x1",
      "cumulativeGasUsed": "0x1b9fc6",
      "logs": [
        {
          "address": "0x4aa5f077688ba0d53836a3b9e9fdc3bfb16b1362",
          "topics": [
            "0x238399d427b947898edb290f5ff0f9109849b1c3ba196a42e35f00c50a54b98b"
          ],
          "data": "0x0000000000000000000000000000000000000000000000000000000000009ce1000000000000000000000000b48f7a8ad1302c77c75acd3bb98f416000a99aad",
          "blockHash": "0x45fe75cb38b80b2bef0dbc3b7a9175ff962e2751345495cd52a2f505aa30449d",
          "blockNumber": "0xdcfbe1",
          "transactionHash": "0x709652aa0011dff0852114797a080bca8285dce75a96be69483e17dc9507086f",
          "transactionIndex": "0x7",
          "logIndex": "0x25",
          "removed": false
        }
      ],
      "logsBloom": "0x00100000000000000000000000000000000000000000000000000000000000000000000000000000000000000000000000000000000000000800000000000000000000000000000000000000000000000000000000000000000000000000000000000000000000000000000000000000000000000000000000000000000000000000000000000000000000000000000000000000000000000000000000008000000000000000000000000000000000000008000000000000000002000000000000000000000000000000000000000000000000000000000000040000000000000000000000000000000000000000000000000000000000000000000000000000",
      "type": "0x2",
      "transactionHash": "0x709652aa0011dff0852114797a080bca8285dce75a96be69483e17dc9507086f",
      "transactionIndex": "0x7",
      "blockHash": "0x45fe75cb38b80b2bef0dbc3b7a9175ff962e2751345495cd52a2f505aa30449d",
      "blockNumber": "0xdcfbe1",
      "gasUsed": "0xba47",
      "effectiveGasPrice": "0x10d2b1",
      "from": "0x03773f85756acac65a869e89e3b7b2fcda6be140",
      "to": "0x4aa5f077688ba0d53836a3b9e9fdc3bfb16b1362",
      "contractAddress": null,
      "l1BaseFeeScalar": "0x44d",
      "l1BlobBaseFee": "0x13cc64ab25",
      "l1BlobBaseFeeScalar": "0xa118b",
      "l1Fee": "0x51b256c619e",
      "l1GasPrice": "0x6c6af5b9",
      "l1GasUsed": "0x640"
    },
    {
      "status": "0x1",
      "cumulativeGasUsed": "0x1c5a19",
      "logs": [
        {
          "address": "0x4aa5f077688ba0d53836a3b9e9fdc3bfb16b1362",
          "topics": [
            "0x238399d427b947898edb290f5ff0f9109849b1c3ba196a42e35f00c50a54b98b"
          ],
          "data": "0x0000000000000000000000000000000000000000000000000000000000009d2800000000000000000000000034e7cebc535c30aceeb63a63c20b0c42a80b215a",
          "blockHash": "0x45fe75cb38b80b2bef0dbc3b7a9175ff962e2751345495cd52a2f505aa30449d",
          "blockNumber": "0xdcfbe1",
          "transactionHash": "0xb840e195b2e285a3ad25d7d5a717f4a96a8d1498b8d7eaad4ce29b07b69764cf",
          "transactionIndex": "0x8",
          "logIndex": "0x26",
          "removed": false
        }
      ],
      "logsBloom": "0x00100000000000000000000000000000000000000000000000000000000000000000000000000000000000000000000000000000000000000800000000000000000000000000000000000000000000000000000000000000000000000000000000000000000000000000000000000000000000000000000000000000000000000000000000000000000000000000000000000000000000000000000000008000000000000000000000000000000000000008000000000000000002000000000000000000000000000000000000000000000000000000000000040000000000000000000000000000000000000000000000000000000000000000000000000000",
      "type": "0x2",
      "transactionHash": "0xb840e195b2e285a3ad25d7d5a717f4a96a8d1498b8d7eaad4ce29b07b69764cf",
      "transactionIndex": "0x8",
      "blockHash": "0x45fe75cb38b80b2bef0dbc3b7a9175ff962e2751345495cd52a2f505aa30449d",
      "blockNumber": "0xdcfbe1",
      "gasUsed": "0xba53",
      "effectiveGasPrice": "0x10d2b1",
      "from": "0x03773f85756acac65a869e89e3b7b2fcda6be140",
      "to": "0x4aa5f077688ba0d53836a3b9e9fdc3bfb16b1362",
      "contractAddress": null,
      "l1BaseFeeScalar": "0x44d",
      "l1BlobBaseFee": "0x13cc64ab25",
      "l1BlobBaseFeeScalar": "0xa118b",
      "l1Fee": "0x51b256c619e",
      "l1GasPrice": "0x6c6af5b9",
      "l1GasUsed": "0x640"
    },
    {
      "status": "0x1",
      "cumulativeGasUsed": "0x1d146c",
      "logs": [
        {
          "address": "0x4aa5f077688ba0d53836a3b9e9fdc3bfb16b1362",
          "topics": [
            "0x238399d427b947898edb290f5ff0f9109849b1c3ba196a42e35f00c50a54b98b"
          ],
          "data": "0x0000000000000000000000000000000000000000000000000000000000009d3500000000000000000000000017086242c5ecc58a7cbb828312911c782ca6981e",
          "blockHash": "0x45fe75cb38b80b2bef0dbc3b7a9175ff962e2751345495cd52a2f505aa30449d",
          "blockNumber": "0xdcfbe1",
          "transactionHash": "0xf615c43223484c4c439e7417369505408a2dce158d65e602cbf4dddd10677393",
          "transactionIndex": "0x9",
          "logIndex": "0x27",
          "removed": false
        }
      ],
      "logsBloom": "0x00100000000000000000000000000000000000000000000000000000000000000000000000000000000000000000000000000000000000000800000000000000000000000000000000000000000000000000000000000000000000000000000000000000000000000000000000000000000000000000000000000000000000000000000000000000000000000000000000000000000000000000000000008000000000000000000000000000000000000008000000000000000002000000000000000000000000000000000000000000000000000000000000040000000000000000000000000000000000000000000000000000000000000000000000000000",
      "type": "0x2",
      "transactionHash": "0xf615c43223484c4c439e7417369505408a2dce158d65e602cbf4dddd10677393",
      "transactionIndex": "0x9",
      "blockHash": "0x45fe75cb38b80b2bef0dbc3b7a9175ff962e2751345495cd52a2f505aa30449d",
      "blockNumber": "0xdcfbe1",
      "gasUsed": "0xba53",
      "effectiveGasPrice": "0x10d2b1",
      "from": "0x03773f85756acac65a869e89e3b7b2fcda6be140",
      "to": "0x4aa5f077688ba0d53836a3b9e9fdc3bfb16b1362",
      "contractAddress": null,
      "l1BaseFeeScalar": "0x44d",
      "l1BlobBaseFee": "0x13cc64ab25",
      "l1BlobBaseFeeScalar": "0xa118b",
      "l1Fee": "0x51b256c619e",
      "l1GasPrice": "0x6c6af5b9",
      "l1GasUsed": "0x640"
    }
  ],
  "libraries": [],
  "pending": [],
  "returns": {},
  "timestamp": 1724733097,
  "chain": 84532,
  "commit": "66ac525"
}