{
  "transactions": [
    {
      "hash": "0x93f1ad7be4499ea19347664844857a3dca042ec74a860df607c7fb2695f686c2",
      "transactionType": "CALL",
      "contractName": null,
      "contractAddress": "0xa500c712e7ebdd5040f1a212800f5f6fa20d05f8",
      "function": "approveChain(uint256)",
      "arguments": [
        "40243"
      ],
      "transaction": {
        "from": "0xe0d6f93151091f24ea09474e9271bd60f2624d99",
        "to": "0xa500c712e7ebdd5040f1a212800f5f6fa20d05f8",
        "gas": "0x1f48e",
        "value": "0x0",
        "input": "0xeb87840d0000000000000000000000000000000000000000000000000000000000009d33",
        "nonce": "0x7e",
        "chainId": "0x14a34"
      },
      "additionalContracts": [],
      "isFixedGasLimit": false
    }
  ],
  "receipts": [
    {
      "status": "0x1",
      "cumulativeGasUsed": "0x1d0e1b",
      "logs": [
        {
          "address": "0xa500c712e7ebdd5040f1a212800f5f6fa20d05f8",
          "topics": [
            "0xbba9d55e9fd1a441b1617724e2fdb76777d15ec77ab2b72ac15952cbe97085db"
          ],
          "data": "0x0000000000000000000000000000000000000000000000000000000000009d33",
          "blockHash": "0x9835d6a0c6be17a35018c9e11de4b85815edc3ee54e518f9676fa21456b32024",
          "blockNumber": "0xe1a904",
          "transactionHash": "0x93f1ad7be4499ea19347664844857a3dca042ec74a860df607c7fb2695f686c2",
          "transactionIndex": "0x4",
          "logIndex": "0x2a",
          "removed": false
        },
        {
          "address": "0xa500c712e7ebdd5040f1a212800f5f6fa20d05f8",
          "topics": [
            "0xe012bf0e1630512126bccbc050ebf66c62af3753e3cd64d533ddf97f65f621c8"
          ],
          "data": "0x0000000000000000000000000000000000000000000000000000000000009d33",
          "blockHash": "0x9835d6a0c6be17a35018c9e11de4b85815edc3ee54e518f9676fa21456b32024",
          "blockNumber": "0xe1a904",
          "transactionHash": "0x93f1ad7be4499ea19347664844857a3dca042ec74a860df607c7fb2695f686c2",
          "transactionIndex": "0x4",
          "logIndex": "0x2b",
          "removed": false
        }
      ],
      "logsBloom": "0x02000000000000000000000000000000000008000000000000000000000000000000000000000000000004000000000000000000000000000000000000000000000000000000000000000000004000000000000000000000000000000000000000000000000000000000008000000000000000000000000000000000000000000000000000000000000000000000000000000000000000000000000000000000000000000000000000000000000010000000200000000000000000000000000000000000000000000000000000000000000000000000000400000000000000000000000000000000000000000000000000000000000000000000000000000080",
      "type": "0x2",
      "transactionHash": "0x93f1ad7be4499ea19347664844857a3dca042ec74a860df607c7fb2695f686c2",
      "transactionIndex": "0x4",
      "blockHash": "0x9835d6a0c6be17a35018c9e11de4b85815edc3ee54e518f9676fa21456b32024",
      "blockNumber": "0xe1a904",
      "gasUsed": "0x15643",
      "effectiveGasPrice": "0x10cab4",
      "from": "0xe0d6f93151091f24ea09474e9271bd60f2624d99",
      "to": "0xa500c712e7ebdd5040f1a212800f5f6fa20d05f8",
      "contractAddress": null,
      "l1BaseFeeScalar": "0x44d",
      "l1BlobBaseFee": "0x2c11c394256",
      "l1BlobBaseFeeScalar": "0xa118b",
      "l1Fee": "0xb5da73bcca13",
      "l1GasPrice": "0xfb6ca62fa",
      "l1GasUsed": "0x640"
    }
  ],
  "libraries": [],
  "pending": [],
  "returns": {},
  "timestamp": 1725346031,
  "chain": 84532,
  "commit": "5cf640c"
}