{
  "transactions": [
    {
      "hash": "0x6a613459acb6317bcc8afc7f1af1822f4dfc7b7c22ae5d6a9b9d5ab55ddc1d67",
      "transactionType": "CALL",
      "contractName": null,
      "contractAddress": "0xdaab75ca8e7e3c0f880c4d1727c9c287139b2ca5",
      "function": "poolDeposit(address)",
      "arguments": [
        "0xA500C712e7EbDd5040f1A212800f5f6fa20d05F8"
      ],
      "transaction": {
        "from": "0xe0d6f93151091f24ea09474e9271bd60f2624d99",
        "to": "0xdaab75ca8e7e3c0f880c4d1727c9c287139b2ca5",
        "gas": "0x1d07d",
        "value": "0x6f05b59d3b20000",
        "input": "0x5698afa5000000000000000000000000a500c712e7ebdd5040f1a212800f5f6fa20d05f8",
        "nonce": "0x6e",
        "chainId": "0x14a34"
      },
      "additionalContracts": [],
      "isFixedGasLimit": false
    },
    {
      "hash": "0xb62533ee70a11b91b076c2e7a312a92dcfd002276dee4f401150b53ec191ac37",
      "transactionType": "CALL",
      "contractName": null,
      "contractAddress": "0xa500c712e7ebdd5040f1a212800f5f6fa20d05f8",
      "function": "approveChain(uint256)",
      "arguments": [
        "40231"
      ],
      "transaction": {
        "from": "0xe0d6f93151091f24ea09474e9271bd60f2624d99",
        "to": "0xa500c712e7ebdd5040f1a212800f5f6fa20d05f8",
        "gas": "0x21061",
        "value": "0x0",
        "input": "0xeb87840d0000000000000000000000000000000000000000000000000000000000009d27",
        "nonce": "0x6f",
        "chainId": "0x14a34"
      },
      "additionalContracts": [],
      "isFixedGasLimit": false
    },
    {
      "hash": "0x003c57174ea769b1801141f0f9dbae5ab3b42f4425d4062a81fee23d43ad7f6a",
      "transactionType": "CALL",
      "contractName": null,
      "contractAddress": "0xa500c712e7ebdd5040f1a212800f5f6fa20d05f8",
      "function": "approveChain(uint256)",
      "arguments": [
        "40161"
      ],
      "transaction": {
        "from": "0xe0d6f93151091f24ea09474e9271bd60f2624d99",
        "to": "0xa500c712e7ebdd5040f1a212800f5f6fa20d05f8",
        "gas": "0x1bca9",
        "value": "0x0",
        "input": "0xeb87840d0000000000000000000000000000000000000000000000000000000000009ce1",
        "nonce": "0x70",
        "chainId": "0x14a34"
      },
      "additionalContracts": [],
      "isFixedGasLimit": false
    },
    {
      "hash": "0x464cf5cbcec11b2aa341a57b8b163d82a6be1c90f45782f5180db2dd5e09e415",
      "transactionType": "CALL",
      "contractName": null,
      "contractAddress": "0xa500c712e7ebdd5040f1a212800f5f6fa20d05f8",
      "function": "approveChain(uint256)",
      "arguments": [
        "40232"
      ],
      "transaction": {
        "from": "0xe0d6f93151091f24ea09474e9271bd60f2624d99",
        "to": "0xa500c712e7ebdd5040f1a212800f5f6fa20d05f8",
        "gas": "0x1caa2",
        "value": "0x0",
        "input": "0xeb87840d0000000000000000000000000000000000000000000000000000000000009d28",
        "nonce": "0x71",
        "chainId": "0x14a34"
      },
      "additionalContracts": [],
      "isFixedGasLimit": false
    },
    {
      "hash": "0x04fec52ebdefa33e4540210c119c56349cbfdc3ddef0579f4210a2a48eaafe6e",
      "transactionType": "CALL",
      "contractName": null,
      "contractAddress": "0xa500c712e7ebdd5040f1a212800f5f6fa20d05f8",
      "function": "approveChain(uint256)",
      "arguments": [
        "40245"
      ],
      "transaction": {
        "from": "0xe0d6f93151091f24ea09474e9271bd60f2624d99",
        "to": "0xa500c712e7ebdd5040f1a212800f5f6fa20d05f8",
        "gas": "0x1be5a",
        "value": "0x0",
        "input": "0xeb87840d0000000000000000000000000000000000000000000000000000000000009d35",
        "nonce": "0x72",
        "chainId": "0x14a34"
      },
      "additionalContracts": [],
      "isFixedGasLimit": false
    },
    {
      "hash": "0xbab2e796d83fea08dce4c4f6518a65c5f259836a7bf1af7f5038ec950a31c9d6",
      "transactionType": "CALL",
      "contractName": null,
      "contractAddress": "0xa500c712e7ebdd5040f1a212800f5f6fa20d05f8",
      "function": "approveChain(uint256)",
      "arguments": [
        "40287"
      ],
      "transaction": {
        "from": "0xe0d6f93151091f24ea09474e9271bd60f2624d99",
        "to": "0xa500c712e7ebdd5040f1a212800f5f6fa20d05f8",
        "gas": "0x1cb8c",
        "value": "0x0",
        "input": "0xeb87840d0000000000000000000000000000000000000000000000000000000000009d5f",
        "nonce": "0x73",
        "chainId": "0x14a34"
      },
      "additionalContracts": [],
      "isFixedGasLimit": false
    },
    {
      "hash": "0x97b3a66a71df091d5bd588ff56bd6d2fa8c0a00aaf6c8691d8f85ab8721042c9",
      "transactionType": "CALL",
      "contractName": null,
      "contractAddress": "0x617324745740d7ce92e0e1ab325870f186bdc1a1",
      "function": "addSupportedToken(address,address)",
      "arguments": [
        "0x4200000000000000000000000000000000000006",
        "0xA500C712e7EbDd5040f1A212800f5f6fa20d05F8"
      ],
      "transaction": {
        "from": "0xe0d6f93151091f24ea09474e9271bd60f2624d99",
        "to": "0x617324745740d7ce92e0e1ab325870f186bdc1a1",
        "gas": "0x11c4f",
        "value": "0x0",
        "input": "0xc2b7be160000000000000000000000004200000000000000000000000000000000000006000000000000000000000000a500c712e7ebdd5040f1a212800f5f6fa20d05f8",
        "nonce": "0x74",
        "chainId": "0x14a34"
      },
      "additionalContracts": [],
      "isFixedGasLimit": false
    },
    {
      "hash": "0x607394b165b60a849b8c79b71afa10f5f8542d9cee6f7fc6a05f56f138a9e46e",
      "transactionType": "CALL",
      "contractName": null,
      "contractAddress": "0x617324745740d7ce92e0e1ab325870f186bdc1a1",
      "function": "addSupportedToken(address,address)",
      "arguments": [
        "0x14440344256002a5afaA1403EbdAf4bf9a5499E3",
        "0xA500C712e7EbDd5040f1A212800f5f6fa20d05F8"
      ],
      "transaction": {
        "from": "0xe0d6f93151091f24ea09474e9271bd60f2624d99",
        "to": "0x617324745740d7ce92e0e1ab325870f186bdc1a1",
        "gas": "0x11d78",
        "value": "0x0",
        "input": "0xc2b7be1600000000000000000000000014440344256002a5afaa1403ebdaf4bf9a5499e3000000000000000000000000a500c712e7ebdd5040f1a212800f5f6fa20d05f8",
        "nonce": "0x75",
        "chainId": "0x14a34"
      },
      "additionalContracts": [],
      "isFixedGasLimit": false
    }
  ],
  "receipts": [
    {
      "status": "0x1",
      "cumulativeGasUsed": "0xa70da",
      "logs": [
        {
          "address": "0x4200000000000000000000000000000000000006",
          "topics": [
            "0xe1fffcc4923d04b559f4d29a8bfc6cda04eb5b0d3c460751c2402c5c5cc9109c",
            "0x000000000000000000000000daab75ca8e7e3c0f880c4d1727c9c287139b2ca5"
          ],
          "data": "0x00000000000000000000000000000000000000000000000006f05b59d3b20000",
          "blockHash": "0xd91661ab5a2fa5ebdfc047ff4297f5ccc43f5a1380383963aee4598358076361",
          "blockNumber": "0xe18e2a",
          "transactionHash": "0x6a613459acb6317bcc8afc7f1af1822f4dfc7b7c22ae5d6a9b9d5ab55ddc1d67",
          "transactionIndex": "0x6",
          "logIndex": "0xc",
          "removed": false
        },
        {
          "address": "0xdaab75ca8e7e3c0f880c4d1727c9c287139b2ca5",
          "topics": [
            "0x90576f1ad407b163ccea052b2d55bac158025af10ac5895369e8956eeab83434",
            "0x000000000000000000000000a500c712e7ebdd5040f1a212800f5f6fa20d05f8"
          ],
          "data": "0x00000000000000000000000000000000000000000000000006f05b59d3b20000",
          "blockHash": "0xd91661ab5a2fa5ebdfc047ff4297f5ccc43f5a1380383963aee4598358076361",
          "blockNumber": "0xe18e2a",
          "transactionHash": "0x6a613459acb6317bcc8afc7f1af1822f4dfc7b7c22ae5d6a9b9d5ab55ddc1d67",
          "transactionIndex": "0x6",
          "logIndex": "0xd",
          "removed": false
        }
      ],
      "logsBloom": "0x0000000000000000020000004000000000000000000000000004000000000000000000000000000000000010000000000000000000000040000000000000000000000000000000000000000000000000000000000000000080000000c000000010000000000000000000000000000000000000000000000000000000000000000000002000000000000000000000000008000001002000000000000000000000000000000000000000000000000000000000000000000000000000002000000000000000000000040000000800000000000000000000000000000000000000000000000000000000000000000000000000001000000000400000000000000000",
      "type": "0x2",
      "transactionHash": "0x6a613459acb6317bcc8afc7f1af1822f4dfc7b7c22ae5d6a9b9d5ab55ddc1d67",
      "transactionIndex": "0x6",
      "blockHash": "0xd91661ab5a2fa5ebdfc047ff4297f5ccc43f5a1380383963aee4598358076361",
      "blockNumber": "0xe18e2a",
      "gasUsed": "0x13d9a",
      "effectiveGasPrice": "0xd95f5",
      "from": "0xe0d6f93151091f24ea09474e9271bd60f2624d99",
      "to": "0xdaab75ca8e7e3c0f880c4d1727c9c287139b2ca5",
      "contractAddress": null,
      "l1BaseFeeScalar": "0x44d",
      "l1BlobBaseFee": "0x251b2107c1",
      "l1BlobBaseFeeScalar": "0xa118b",
      "l1Fee": "0x9992781c857",
      "l1GasPrice": "0x4f231cfb5",
      "l1GasUsed": "0x640"
    },
    {
      "status": "0x1",
      "cumulativeGasUsed": "0xbda23",
      "logs": [
        {
          "address": "0xa500c712e7ebdd5040f1a212800f5f6fa20d05f8",
          "topics": [
            "0xbba9d55e9fd1a441b1617724e2fdb76777d15ec77ab2b72ac15952cbe97085db"
          ],
          "data": "0x0000000000000000000000000000000000000000000000000000000000009d27",
          "blockHash": "0xd91661ab5a2fa5ebdfc047ff4297f5ccc43f5a1380383963aee4598358076361",
          "blockNumber": "0xe18e2a",
          "transactionHash": "0xb62533ee70a11b91b076c2e7a312a92dcfd002276dee4f401150b53ec191ac37",
          "transactionIndex": "0x7",
          "logIndex": "0xe",
          "removed": false
        },
        {
          "address": "0xa500c712e7ebdd5040f1a212800f5f6fa20d05f8",
          "topics": [
            "0xe012bf0e1630512126bccbc050ebf66c62af3753e3cd64d533ddf97f65f621c8"
          ],
          "data": "0x0000000000000000000000000000000000000000000000000000000000009d27",
          "blockHash": "0xd91661ab5a2fa5ebdfc047ff4297f5ccc43f5a1380383963aee4598358076361",
          "blockNumber": "0xe18e2a",
          "transactionHash": "0xb62533ee70a11b91b076c2e7a312a92dcfd002276dee4f401150b53ec191ac37",
          "transactionIndex": "0x7",
          "logIndex": "0xf",
          "removed": false
        }
      ],
      "logsBloom": "0x02000000000000000000000000000000000008000000000000000000000000000000000000000000000004000000000000000000000000000000000000000000000000000000000000000000004000000000000000000000000000000000000000000000000000000000008000000000000000000000000000000000000000000000000000000000000000000000000000000000000000000000000000000000000000000000000000000000000010000000200000000000000000000000000000000000000000000000000000000000000000000000000400000000000000000000000000000000000000000000000000000000000000000000000000000080",
      "type": "0x2",
      "transactionHash": "0xb62533ee70a11b91b076c2e7a312a92dcfd002276dee4f401150b53ec191ac37",
      "transactionIndex": "0x7",
      "blockHash": "0xd91661ab5a2fa5ebdfc047ff4297f5ccc43f5a1380383963aee4598358076361",
      "blockNumber": "0xe18e2a",
      "gasUsed": "0x16949",
      "effectiveGasPrice": "0xd95f5",
      "from": "0xe0d6f93151091f24ea09474e9271bd60f2624d99",
      "to": "0xa500c712e7ebdd5040f1a212800f5f6fa20d05f8",
      "contractAddress": null,
      "l1BaseFeeScalar": "0x44d",
      "l1BlobBaseFee": "0x251b2107c1",
      "l1BlobBaseFeeScalar": "0xa118b",
      "l1Fee": "0x9992781c857",
      "l1GasPrice": "0x4f231cfb5",
      "l1GasUsed": "0x640"
    },
    {
      "status": "0x1",
      "cumulativeGasUsed": "0xd0a2e",
      "logs": [
        {
          "address": "0xa500c712e7ebdd5040f1a212800f5f6fa20d05f8",
          "topics": [
            "0xbba9d55e9fd1a441b1617724e2fdb76777d15ec77ab2b72ac15952cbe97085db"
          ],
          "data": "0x0000000000000000000000000000000000000000000000000000000000009ce1",
          "blockHash": "0xd91661ab5a2fa5ebdfc047ff4297f5ccc43f5a1380383963aee4598358076361",
          "blockNumber": "0xe18e2a",
          "transactionHash": "0x003c57174ea769b1801141f0f9dbae5ab3b42f4425d4062a81fee23d43ad7f6a",
          "transactionIndex": "0x8",
          "logIndex": "0x10",
          "removed": false
        },
        {
          "address": "0xa500c712e7ebdd5040f1a212800f5f6fa20d05f8",
          "topics": [
            "0xe012bf0e1630512126bccbc050ebf66c62af3753e3cd64d533ddf97f65f621c8"
          ],
          "data": "0x0000000000000000000000000000000000000000000000000000000000009ce1",
          "blockHash": "0xd91661ab5a2fa5ebdfc047ff4297f5ccc43f5a1380383963aee4598358076361",
          "blockNumber": "0xe18e2a",
          "transactionHash": "0x003c57174ea769b1801141f0f9dbae5ab3b42f4425d4062a81fee23d43ad7f6a",
          "transactionIndex": "0x8",
          "logIndex": "0x11",
          "removed": false
        }
      ],
      "logsBloom": "0x02000000000000000000000000000000000008000000000000000000000000000000000000000000000004000000000000000000000000000000000000000000000000000000000000000000004000000000000000000000000000000000000000000000000000000000008000000000000000000000000000000000000000000000000000000000000000000000000000000000000000000000000000000000000000000000000000000000000010000000200000000000000000000000000000000000000000000000000000000000000000000000000400000000000000000000000000000000000000000000000000000000000000000000000000000080",
      "type": "0x2",
      "transactionHash": "0x003c57174ea769b1801141f0f9dbae5ab3b42f4425d4062a81fee23d43ad7f6a",
      "transactionIndex": "0x8",
      "blockHash": "0xd91661ab5a2fa5ebdfc047ff4297f5ccc43f5a1380383963aee4598358076361",
      "blockNumber": "0xe18e2a",
      "gasUsed": "0x1300b",
      "effectiveGasPrice": "0xd95f5",
      "from": "0xe0d6f93151091f24ea09474e9271bd60f2624d99",
      "to": "0xa500c712e7ebdd5040f1a212800f5f6fa20d05f8",
      "contractAddress": null,
      "l1BaseFeeScalar": "0x44d",
      "l1BlobBaseFee": "0x251b2107c1",
      "l1BlobBaseFeeScalar": "0xa118b",
      "l1Fee": "0x9992781c857",
      "l1GasPrice": "0x4f231cfb5",
      "l1GasUsed": "0x640"
    },
    {
      "status": "0x1",
      "cumulativeGasUsed": "0xe43c7",
      "logs": [
        {
          "address": "0xa500c712e7ebdd5040f1a212800f5f6fa20d05f8",
          "topics": [
            "0xbba9d55e9fd1a441b1617724e2fdb76777d15ec77ab2b72ac15952cbe97085db"
          ],
          "data": "0x0000000000000000000000000000000000000000000000000000000000009d28",
          "blockHash": "0xd91661ab5a2fa5ebdfc047ff4297f5ccc43f5a1380383963aee4598358076361",
          "blockNumber": "0xe18e2a",
          "transactionHash": "0x464cf5cbcec11b2aa341a57b8b163d82a6be1c90f45782f5180db2dd5e09e415",
          "transactionIndex": "0x9",
          "logIndex": "0x12",
          "removed": false
        },
        {
          "address": "0xa500c712e7ebdd5040f1a212800f5f6fa20d05f8",
          "topics": [
            "0xe012bf0e1630512126bccbc050ebf66c62af3753e3cd64d533ddf97f65f621c8"
          ],
          "data": "0x0000000000000000000000000000000000000000000000000000000000009d28",
          "blockHash": "0xd91661ab5a2fa5ebdfc047ff4297f5ccc43f5a1380383963aee4598358076361",
          "blockNumber": "0xe18e2a",
          "transactionHash": "0x464cf5cbcec11b2aa341a57b8b163d82a6be1c90f45782f5180db2dd5e09e415",
          "transactionIndex": "0x9",
          "logIndex": "0x13",
          "removed": false
        }
      ],
      "logsBloom": "0x02000000000000000000000000000000000008000000000000000000000000000000000000000000000004000000000000000000000000000000000000000000000000000000000000000000004000000000000000000000000000000000000000000000000000000000008000000000000000000000000000000000000000000000000000000000000000000000000000000000000000000000000000000000000000000000000000000000000010000000200000000000000000000000000000000000000000000000000000000000000000000000000400000000000000000000000000000000000000000000000000000000000000000000000000000080",
      "type": "0x2",
      "transactionHash": "0x464cf5cbcec11b2aa341a57b8b163d82a6be1c90f45782f5180db2dd5e09e415",
      "transactionIndex": "0x9",
      "blockHash": "0xd91661ab5a2fa5ebdfc047ff4297f5ccc43f5a1380383963aee4598358076361",
      "blockNumber": "0xe18e2a",
      "gasUsed": "0x13999",
      "effectiveGasPrice": "0xd95f5",
      "from": "0xe0d6f93151091f24ea09474e9271bd60f2624d99",
      "to": "0xa500c712e7ebdd5040f1a212800f5f6fa20d05f8",
      "contractAddress": null,
      "l1BaseFeeScalar": "0x44d",
      "l1BlobBaseFee": "0x251b2107c1",
      "l1BlobBaseFeeScalar": "0xa118b",
      "l1Fee": "0x9992781c857",
      "l1GasPrice": "0x4f231cfb5",
      "l1GasUsed": "0x640"
    },
    {
      "status": "0x1",
      "cumulativeGasUsed": "0xf86ee",
      "logs": [
        {
          "address": "0xa500c712e7ebdd5040f1a212800f5f6fa20d05f8",
          "topics": [
            "0xbba9d55e9fd1a441b1617724e2fdb76777d15ec77ab2b72ac15952cbe97085db"
          ],
          "data": "0x0000000000000000000000000000000000000000000000000000000000009d35",
          "blockHash": "0xd91661ab5a2fa5ebdfc047ff4297f5ccc43f5a1380383963aee4598358076361",
          "blockNumber": "0xe18e2a",
          "transactionHash": "0x04fec52ebdefa33e4540210c119c56349cbfdc3ddef0579f4210a2a48eaafe6e",
          "transactionIndex": "0xa",
          "logIndex": "0x14",
          "removed": false
        },
        {
          "address": "0xa500c712e7ebdd5040f1a212800f5f6fa20d05f8",
          "topics": [
            "0xe012bf0e1630512126bccbc050ebf66c62af3753e3cd64d533ddf97f65f621c8"
          ],
          "data": "0x0000000000000000000000000000000000000000000000000000000000009d35",
          "blockHash": "0xd91661ab5a2fa5ebdfc047ff4297f5ccc43f5a1380383963aee4598358076361",
          "blockNumber": "0xe18e2a",
          "transactionHash": "0x04fec52ebdefa33e4540210c119c56349cbfdc3ddef0579f4210a2a48eaafe6e",
          "transactionIndex": "0xa",
          "logIndex": "0x15",
          "removed": false
        }
      ],
      "logsBloom": "0x02000000000000000000000000000000000008000000000000000000000000000000000000000000000004000000000000000000000000000000000000000000000000000000000000000000004000000000000000000000000000000000000000000000000000000000008000000000000000000000000000000000000000000000000000000000000000000000000000000000000000000000000000000000000000000000000000000000000010000000200000000000000000000000000000000000000000000000000000000000000000000000000400000000000000000000000000000000000000000000000000000000000000000000000000000080",
      "type": "0x2",
      "transactionHash": "0x04fec52ebdefa33e4540210c119c56349cbfdc3ddef0579f4210a2a48eaafe6e",
      "transactionIndex": "0xa",
      "blockHash": "0xd91661ab5a2fa5ebdfc047ff4297f5ccc43f5a1380383963aee4598358076361",
      "blockNumber": "0xe18e2a",
      "gasUsed": "0x14327",
      "effectiveGasPrice": "0xd95f5",
      "from": "0xe0d6f93151091f24ea09474e9271bd60f2624d99",
      "to": "0xa500c712e7ebdd5040f1a212800f5f6fa20d05f8",
      "contractAddress": null,
      "l1BaseFeeScalar": "0x44d",
      "l1BlobBaseFee": "0x251b2107c1",
      "l1BlobBaseFeeScalar": "0xa118b",
      "l1Fee": "0x9992781c857",
      "l1GasPrice": "0x4f231cfb5",
      "l1GasUsed": "0x640"
    },
    {
      "status": "0x1",
      "cumulativeGasUsed": "0x10d3a3",
      "logs": [
        {
          "address": "0xa500c712e7ebdd5040f1a212800f5f6fa20d05f8",
          "topics": [
            "0xbba9d55e9fd1a441b1617724e2fdb76777d15ec77ab2b72ac15952cbe97085db"
          ],
          "data": "0x0000000000000000000000000000000000000000000000000000000000009d5f",
          "blockHash": "0xd91661ab5a2fa5ebdfc047ff4297f5ccc43f5a1380383963aee4598358076361",
          "blockNumber": "0xe18e2a",
          "transactionHash": "0xbab2e796d83fea08dce4c4f6518a65c5f259836a7bf1af7f5038ec950a31c9d6",
          "transactionIndex": "0xb",
          "logIndex": "0x16",
          "removed": false
        },
        {
          "address": "0xa500c712e7ebdd5040f1a212800f5f6fa20d05f8",
          "topics": [
            "0xe012bf0e1630512126bccbc050ebf66c62af3753e3cd64d533ddf97f65f621c8"
          ],
          "data": "0x0000000000000000000000000000000000000000000000000000000000009d5f",
          "blockHash": "0xd91661ab5a2fa5ebdfc047ff4297f5ccc43f5a1380383963aee4598358076361",
          "blockNumber": "0xe18e2a",
          "transactionHash": "0xbab2e796d83fea08dce4c4f6518a65c5f259836a7bf1af7f5038ec950a31c9d6",
          "transactionIndex": "0xb",
          "logIndex": "0x17",
          "removed": false
        }
      ],
      "logsBloom": "0x02000000000000000000000000000000000008000000000000000000000000000000000000000000000004000000000000000000000000000000000000000000000000000000000000000000004000000000000000000000000000000000000000000000000000000000008000000000000000000000000000000000000000000000000000000000000000000000000000000000000000000000000000000000000000000000000000000000000010000000200000000000000000000000000000000000000000000000000000000000000000000000000400000000000000000000000000000000000000000000000000000000000000000000000000000080",
      "type": "0x2",
      "transactionHash": "0xbab2e796d83fea08dce4c4f6518a65c5f259836a7bf1af7f5038ec950a31c9d6",
      "transactionIndex": "0xb",
      "blockHash": "0xd91661ab5a2fa5ebdfc047ff4297f5ccc43f5a1380383963aee4598358076361",
      "blockNumber": "0xe18e2a",
      "gasUsed": "0x14cb5",
      "effectiveGasPrice": "0xd95f5",
      "from": "0xe0d6f93151091f24ea09474e9271bd60f2624d99",
      "to": "0xa500c712e7ebdd5040f1a212800f5f6fa20d05f8",
      "contractAddress": null,
      "l1BaseFeeScalar": "0x44d",
      "l1BlobBaseFee": "0x251b2107c1",
      "l1BlobBaseFeeScalar": "0xa118b",
      "l1Fee": "0x9992781c857",
      "l1GasPrice": "0x4f231cfb5",
      "l1GasUsed": "0x640"
    },
    {
      "status": "0x1",
      "cumulativeGasUsed": "0x11a179",
      "logs": [
        {
          "address": "0x617324745740d7ce92e0e1ab325870f186bdc1a1",
          "topics": [
            "0xdffbd9ded1c09446f09377de547142dcce7dc541c8b0b028142b1eba7026b9e7",
            "0x0000000000000000000000004200000000000000000000000000000000000006",
            "0x000000000000000000000000a500c712e7ebdd5040f1a212800f5f6fa20d05f8"
          ],
          "data": "0x",
          "blockHash": "0xd91661ab5a2fa5ebdfc047ff4297f5ccc43f5a1380383963aee4598358076361",
          "blockNumber": "0xe18e2a",
          "transactionHash": "0x97b3a66a71df091d5bd588ff56bd6d2fa8c0a00aaf6c8691d8f85ab8721042c9",
          "transactionIndex": "0xc",
          "logIndex": "0x18",
          "removed": false
        }
      ],
      "logsBloom": "0x00000000000000000000000000000000000000000000000000000000000000000000000000000000000000000000000000000000008000400020000000000000000000000000000000000000000000000000000000000000000000200000000010000000000000000000000000000000000010000080000000000000000000000000000000002000000000000000000000000000000000000000000000000000000000000000000000000000000000000000000000000000000000000000000000000000000004000000000900000000000000000000000000000000000000000000000000000000000000000000000000000000000000400000000000000000",
      "type": "0x2",
      "transactionHash": "0x97b3a66a71df091d5bd588ff56bd6d2fa8c0a00aaf6c8691d8f85ab8721042c9",
      "transactionIndex": "0xc",
      "blockHash": "0xd91661ab5a2fa5ebdfc047ff4297f5ccc43f5a1380383963aee4598358076361",
      "blockNumber": "0xe18e2a",
      "gasUsed": "0xcdd6",
      "effectiveGasPrice": "0xd95f5",
      "from": "0xe0d6f93151091f24ea09474e9271bd60f2624d99",
      "to": "0x617324745740d7ce92e0e1ab325870f186bdc1a1",
      "contractAddress": null,
      "l1BaseFeeScalar": "0x44d",
      "l1BlobBaseFee": "0x251b2107c1",
      "l1BlobBaseFeeScalar": "0xa118b",
      "l1Fee": "0x9992781c857",
      "l1GasPrice": "0x4f231cfb5",
      "l1GasUsed": "0x640"
    },
    {
      "status": "0x1",
      "cumulativeGasUsed": "0x127027",
      "logs": [
        {
          "address": "0x617324745740d7ce92e0e1ab325870f186bdc1a1",
          "topics": [
            "0xdffbd9ded1c09446f09377de547142dcce7dc541c8b0b028142b1eba7026b9e7",
            "0x00000000000000000000000014440344256002a5afaa1403ebdaf4bf9a5499e3",
            "0x000000000000000000000000a500c712e7ebdd5040f1a212800f5f6fa20d05f8"
          ],
          "data": "0x",
          "blockHash": "0xd91661ab5a2fa5ebdfc047ff4297f5ccc43f5a1380383963aee4598358076361",
          "blockNumber": "0xe18e2a",
          "transactionHash": "0x607394b165b60a849b8c79b71afa10f5f8542d9cee6f7fc6a05f56f138a9e46e",
          "transactionIndex": "0xd",
          "logIndex": "0x19",
          "removed": false
        }
      ],
      "logsBloom": "0x00000000000000000000000000000000000000000000000000000000000000000000000000000000000000000000000000000000008000400020000000000000000000000000000000000000000000000000000000000000000000200000000010000000000000000000000000000000400000000080000000000000000000000000000000002000000000000000000000000000000000000000000000000000000000000000000000000000000000000000000000000000000000000000000000000000000000000000000900000000000000000000000000000000000000000000000002000000000000000000000000000000000000400000000000000000",
      "type": "0x2",
      "transactionHash": "0x607394b165b60a849b8c79b71afa10f5f8542d9cee6f7fc6a05f56f138a9e46e",
      "transactionIndex": "0xd",
      "blockHash": "0xd91661ab5a2fa5ebdfc047ff4297f5ccc43f5a1380383963aee4598358076361",
      "blockNumber": "0xe18e2a",
      "gasUsed": "0xceae",
      "effectiveGasPrice": "0xd95f5",
      "from": "0xe0d6f93151091f24ea09474e9271bd60f2624d99",
      "to": "0x617324745740d7ce92e0e1ab325870f186bdc1a1",
      "contractAddress": null,
      "l1BaseFeeScalar": "0x44d",
      "l1BlobBaseFee": "0x251b2107c1",
      "l1BlobBaseFeeScalar": "0xa118b",
      "l1Fee": "0x9992781c857",
      "l1GasPrice": "0x4f231cfb5",
      "l1GasUsed": "0x640"
    }
  ],
  "libraries": [],
  "pending": [],
  "returns": {},
  "timestamp": 1725332284,
  "chain": 84532,
  "commit": "5cf640c"
}