{
  "transactions": [
    {
      "hash": "0x890e36b943d38f0014f79de6474c563c114174dd4236c372ea74c651c961bbd8",
      "transactionType": "CALL",
      "contractName": null,
      "contractAddress": "0x4aa5f077688ba0d53836a3b9e9fdc3bfb16b1362",
      "function": "setPeer(uint32,bytes32)",
      "arguments": [
        "40231",
        "0x000000000000000000000000ced5018d9c2d1088907581a7c24c670667f0079b"
      ],
      "transaction": {
        "from": "0x03773f85756acac65a869e89e3b7b2fcda6be140",
        "to": "0x4aa5f077688ba0d53836a3b9e9fdc3bfb16b1362",
        "gas": "0x1107f",
        "value": "0x0",
        "input": "0x3400288b0000000000000000000000000000000000000000000000000000000000009d27000000000000000000000000ced5018d9c2d1088907581a7c24c670667f0079b",
        "nonce": "0x76",
        "chainId": "0x14a34"
      },
      "additionalContracts": [],
      "isFixedGasLimit": false
    }
  ],
  "receipts": [
    {
      "status": "0x1",
      "cumulativeGasUsed": "0x3044b0",
      "logs": [
        {
          "address": "0x4aa5f077688ba0d53836a3b9e9fdc3bfb16b1362",
          "topics": [
            "0x238399d427b947898edb290f5ff0f9109849b1c3ba196a42e35f00c50a54b98b"
          ],
          "data": "0x0000000000000000000000000000000000000000000000000000000000009d27000000000000000000000000ced5018d9c2d1088907581a7c24c670667f0079b",
          "blockHash": "0x7cb5e5ee8118d23d38c42bae7587cf3443f352d67e6551ec01b8e965079f605d",
          "blockNumber": "0xdcfc09",
          "transactionHash": "0x890e36b943d38f0014f79de6474c563c114174dd4236c372ea74c651c961bbd8",
          "transactionIndex": "0x6",
          "logIndex": "0x4b",
          "removed": false
        }
      ],
      "logsBloom": "0x00100000000000000000000000000000000000000000000000000000000000000000000000000000000000000000000000000000000000000800000000000000000000000000000000000000000000000000000000000000000000000000000000000000000000000000000000000000000000000000000000000000000000000000000000000000000000000000000000000000000000000000000000008000000000000000000000000000000000000008000000000000000002000000000000000000000000000000000000000000000000000000000000040000000000000000000000000000000000000000000000000000000000000000000000000000",
      "type": "0x2",
      "transactionHash": "0x890e36b943d38f0014f79de6474c563c114174dd4236c372ea74c651c961bbd8",
      "transactionIndex": "0x6",
      "blockHash": "0x7cb5e5ee8118d23d38c42bae7587cf3443f352d67e6551ec01b8e965079f605d",
      "blockNumber": "0xdcfc09",
      "gasUsed": "0xba53",
      "effectiveGasPrice": "0x10d25f",
      "from": "0x03773f85756acac65a869e89e3b7b2fcda6be140",
      "to": "0x4aa5f077688ba0d53836a3b9e9fdc3bfb16b1362",
      "contractAddress": null,
      "l1BaseFeeScalar": "0x44d",
      "l1BlobBaseFee": "0x172a425933",
      "l1BlobBaseFeeScalar": "0xa118b",
      "l1Fee": "0x5f941e8bb35",
      "l1GasPrice": "0x66d74498",
      "l1GasUsed": "0x640"
    }
  ],
  "libraries": [],
  "pending": [],
  "returns": {},
  "timestamp": 1724733177,
  "chain": 84532,
  "commit": "66ac525"
}