{
  "transactions": [
    {
      "hash": "0xa2226c9a990d1d7020dee5929d8cefe4439a9e4e524c54cdd5fc5fddfe97db08",
      "transactionType": "CALL",
      "contractName": null,
      "contractAddress": "0x67077b70711026ce9d7c3f591d45924264a0c65b",
      "function": "poolDeposit(address)",
      "arguments": [
        "0x3e19BBEe16243F36b331Ce550f3fF2685e972944"
      ],
      "transaction": {
        "from": "0xe0d6f93151091f24ea09474e9271bd60f2624d99",
        "to": "0x67077b70711026ce9d7c3f591d45924264a0c65b",
        "gas": "0xfe57",
        "value": "0x6f05b59d3b20000",
        "input": "0x5698afa50000000000000000000000003e19bbee16243f36b331ce550f3ff2685e972944",
        "nonce": "0xd6",
        "chainId": "0x14a34"
      },
      "additionalContracts": [],
      "isFixedGasLimit": false
    },
    {
      "hash": "0x09222de5ca6f088c7487515d2ca77f5a83d38b69bd0758aae18656fb751dbf90",
      "transactionType": "CALL",
      "contractName": null,
      "contractAddress": "0x3e19bbee16243f36b331ce550f3ff2685e972944",
      "function": "approveChain(uint256)",
      "arguments": [
        "40231"
      ],
      "transaction": {
        "from": "0xe0d6f93151091f24ea09474e9271bd60f2624d99",
        "to": "0x3e19bbee16243f36b331ce550f3ff2685e972944",
        "gas": "0xb47d",
        "value": "0x0",
        "input": "0xeb87840d0000000000000000000000000000000000000000000000000000000000009d27",
        "nonce": "0xd7",
        "chainId": "0x14a34"
      },
      "additionalContracts": [],
      "isFixedGasLimit": false
    },
    {
      "hash": "0x21c5b3d91c0d8ef2b1abe65b9cff9504a0dffa3015ddbbe00a0dd6f6e8967554",
      "transactionType": "CALL",
      "contractName": null,
      "contractAddress": "0x3e19bbee16243f36b331ce550f3ff2685e972944",
      "function": "approveChain(uint256)",
      "arguments": [
        "40161"
      ],
      "transaction": {
        "from": "0xe0d6f93151091f24ea09474e9271bd60f2624d99",
        "to": "0x3e19bbee16243f36b331ce550f3ff2685e972944",
        "gas": "0xb7a9",
        "value": "0x0",
        "input": "0xeb87840d0000000000000000000000000000000000000000000000000000000000009ce1",
        "nonce": "0xd8",
        "chainId": "0x14a34"
      },
      "additionalContracts": [],
      "isFixedGasLimit": false
    },
    {
      "hash": "0x0977f365d29c278c93ca48ac28876dcae2894e5b936563c522e5fdf0f069cfff",
      "transactionType": "CALL",
      "contractName": null,
      "contractAddress": "0x3e19bbee16243f36b331ce550f3ff2685e972944",
      "function": "approveChain(uint256)",
      "arguments": [
        "40232"
      ],
      "transaction": {
        "from": "0xe0d6f93151091f24ea09474e9271bd60f2624d99",
        "to": "0x3e19bbee16243f36b331ce550f3ff2685e972944",
        "gas": "0xc4db",
        "value": "0x0",
        "input": "0xeb87840d0000000000000000000000000000000000000000000000000000000000009d28",
        "nonce": "0xd9",
        "chainId": "0x14a34"
      },
      "additionalContracts": [],
      "isFixedGasLimit": false
    },
    {
      "hash": "0x8173bb75f9bbf38421e2f7e957a9bbb3e54df9425cfe2cae6547f79ee47666a1",
      "transactionType": "CALL",
      "contractName": null,
      "contractAddress": "0x3e19bbee16243f36b331ce550f3ff2685e972944",
      "function": "approveChain(uint256)",
      "arguments": [
        "40245"
      ],
      "transaction": {
        "from": "0xe0d6f93151091f24ea09474e9271bd60f2624d99",
        "to": "0x3e19bbee16243f36b331ce550f3ff2685e972944",
        "gas": "0xd20e",
        "value": "0x0",
        "input": "0xeb87840d0000000000000000000000000000000000000000000000000000000000009d35",
        "nonce": "0xda",
        "chainId": "0x14a34"
      },
      "additionalContracts": [],
      "isFixedGasLimit": false
    },
    {
      "hash": "0x8d0557403873785cd756ee0b9380436138b60990a8855892c86da8c449717a64",
      "transactionType": "CALL",
      "contractName": null,
      "contractAddress": "0x3e19bbee16243f36b331ce550f3ff2685e972944",
      "function": "approveChain(uint256)",
      "arguments": [
        "40287"
      ],
      "transaction": {
        "from": "0xe0d6f93151091f24ea09474e9271bd60f2624d99",
        "to": "0x3e19bbee16243f36b331ce550f3ff2685e972944",
        "gas": "0xec63",
        "value": "0x0",
        "input": "0xeb87840d0000000000000000000000000000000000000000000000000000000000009d5f",
        "nonce": "0xdb",
        "chainId": "0x14a34"
      },
      "additionalContracts": [],
      "isFixedGasLimit": false
    },
    {
      "hash": "0x331e7ca6101831ad0b078dcc120520035397b1c5b55520a5d6f84843eb377d40",
      "transactionType": "CALL",
      "contractName": null,
      "contractAddress": "0x3e19bbee16243f36b331ce550f3ff2685e972944",
      "function": "approveChain(uint256)",
      "arguments": [
        "40243"
      ],
      "transaction": {
        "from": "0xe0d6f93151091f24ea09474e9271bd60f2624d99",
        "to": "0x3e19bbee16243f36b331ce550f3ff2685e972944",
        "gas": "0xec73",
        "value": "0x0",
        "input": "0xeb87840d0000000000000000000000000000000000000000000000000000000000009d33",
        "nonce": "0xdc",
        "chainId": "0x14a34"
      },
      "additionalContracts": [],
      "isFixedGasLimit": false
    },
    {
      "hash": "0x08024e49eb70eff6c213f81f9ca19d1091d46cfbc004e32bf5ad117e1440dab8",
      "transactionType": "CALL",
      "contractName": null,
      "contractAddress": "0x3e19bbee16243f36b331ce550f3ff2685e972944",
      "function": "setDefaultNativeCredit(uint256)",
      "arguments": [
        "10000000000000000"
      ],
      "transaction": {
        "from": "0xe0d6f93151091f24ea09474e9271bd60f2624d99",
        "to": "0x3e19bbee16243f36b331ce550f3ff2685e972944",
        "gas": "0x9444",
        "value": "0x0",
        "input": "0x0f4efd8d000000000000000000000000000000000000000000000000002386f26fc10000",
        "nonce": "0xdd",
        "chainId": "0x14a34"
      },
      "additionalContracts": [],
      "isFixedGasLimit": false
    },
    {
      "hash": "0xbf0502e0837534b1e3410659b12d61660fac04cbd5a989e8df8a924388e8aea9",
      "transactionType": "CALL",
      "contractName": null,
      "contractAddress": "0x344dd3ef825c54f836c312cac66294fd2ce9f96c",
      "function": "addSupportedToken(address,address)",
      "arguments": [
        "0x4200000000000000000000000000000000000006",
        "0x3e19BBEe16243F36b331Ce550f3fF2685e972944"
      ],
      "transaction": {
        "from": "0xe0d6f93151091f24ea09474e9271bd60f2624d99",
        "to": "0x344dd3ef825c54f836c312cac66294fd2ce9f96c",
        "gas": "0xb179",
        "value": "0x0",
        "input": "0xc2b7be1600000000000000000000000042000000000000000000000000000000000000060000000000000000000000003e19bbee16243f36b331ce550f3ff2685e972944",
        "nonce": "0xde",
        "chainId": "0x14a34"
      },
      "additionalContracts": [],
      "isFixedGasLimit": false
    },
    {
      "hash": "0x3050dbf7e5e8db4b7346fe60e35ea6902357b18d815fb167ebf03cfe8f5ba3be",
      "transactionType": "CALL",
      "contractName": null,
      "contractAddress": "0x344dd3ef825c54f836c312cac66294fd2ce9f96c",
      "function": "addSupportedToken(address,address)",
      "arguments": [
        "0x14440344256002a5afaA1403EbdAf4bf9a5499E3",
        "0x3e19BBEe16243F36b331Ce550f3fF2685e972944"
      ],
      "transaction": {
        "from": "0xe0d6f93151091f24ea09474e9271bd60f2624d99",
        "to": "0x344dd3ef825c54f836c312cac66294fd2ce9f96c",
        "gas": "0xb2a4",
        "value": "0x0",
        "input": "0xc2b7be1600000000000000000000000014440344256002a5afaa1403ebdaf4bf9a5499e30000000000000000000000003e19bbee16243f36b331ce550f3ff2685e972944",
        "nonce": "0xdf",
        "chainId": "0x14a34"
      },
      "additionalContracts": [],
      "isFixedGasLimit": false
    }
  ],
  "receipts": [
    {
      "status": "0x1",
      "cumulativeGasUsed": "0x62472",
      "logs": [
        {
          "address": "0x4200000000000000000000000000000000000006",
          "topics": [
            "0xe1fffcc4923d04b559f4d29a8bfc6cda04eb5b0d3c460751c2402c5c5cc9109c",
            "0x00000000000000000000000067077b70711026ce9d7c3f591d45924264a0c65b"
          ],
          "data": "0x00000000000000000000000000000000000000000000000006f05b59d3b20000",
          "blockHash": "0x806cebec98a4a7cc728149ed4ceff86c01943e91f92144aeed7d6948859709e5",
          "blockNumber": "0xe8efeb",
          "transactionHash": "0xa2226c9a990d1d7020dee5929d8cefe4439a9e4e524c54cdd5fc5fddfe97db08",
          "transactionIndex": "0x6",
          "logIndex": "0x4",
          "removed": false
        },
        {
          "address": "0x67077b70711026ce9d7c3f591d45924264a0c65b",
          "topics": [
            "0x90576f1ad407b163ccea052b2d55bac158025af10ac5895369e8956eeab83434",
            "0x0000000000000000000000003e19bbee16243f36b331ce550f3ff2685e972944"
          ],
          "data": "0x00000000000000000000000000000000000000000000000006f05b59d3b20000",
          "blockHash": "0x806cebec98a4a7cc728149ed4ceff86c01943e91f92144aeed7d6948859709e5",
          "blockNumber": "0xe8efeb",
          "transactionHash": "0xa2226c9a990d1d7020dee5929d8cefe4439a9e4e524c54cdd5fc5fddfe97db08",
          "transactionIndex": "0x6",
          "logIndex": "0x5",
          "removed": false
        }
      ],
      "logsBloom": "0x00000000010000000000000000000000000000000000000000040000000000000000000400000000000000100000000000000000000001000000000000000000000000000000000000000000000800000000000000000000800000008000000000000000000000000000000000000000000000000000000000000000000000000000002000000000000000000000000008002001002100000000000000000000200000000000000000000000000001000000000000000000000000000000000000000000000010000000000000000000000000000000000000000000000000000000000000000000000000000000000000000000000000400000000000000000",
      "type": "0x2",
      "transactionHash": "0xa2226c9a990d1d7020dee5929d8cefe4439a9e4e524c54cdd5fc5fddfe97db08",
      "transactionIndex": "0x6",
      "blockHash": "0x806cebec98a4a7cc728149ed4ceff86c01943e91f92144aeed7d6948859709e5",
      "blockNumber": "0xe8efeb",
      "gasUsed": "0xb824",
      "effectiveGasPrice": "0x94f185",
      "from": "0xe0d6f93151091f24ea09474e9271bd60f2624d99",
      "to": "0x67077b70711026ce9d7c3f591d45924264a0c65b",
      "contractAddress": null,
      "l1BaseFeeScalar": "0x44d",
      "l1BlobBaseFee": "0x1",
      "l1BlobBaseFeeScalar": "0xa118b",
      "l1Fee": "0x129427b8c",
      "l1GasPrice": "0xa8be8095",
      "l1GasUsed": "0x640"
    },
    {
      "status": "0x1",
      "cumulativeGasUsed": "0x69fdc",
      "logs": [
        {
          "address": "0x3e19bbee16243f36b331ce550f3ff2685e972944",
          "topics": [
            "0xe012bf0e1630512126bccbc050ebf66c62af3753e3cd64d533ddf97f65f621c8"
          ],
          "data": "0x0000000000000000000000000000000000000000000000000000000000009d27",
          "blockHash": "0x806cebec98a4a7cc728149ed4ceff86c01943e91f92144aeed7d6948859709e5",
          "blockNumber": "0xe8efeb",
          "transactionHash": "0x09222de5ca6f088c7487515d2ca77f5a83d38b69bd0758aae18656fb751dbf90",
          "transactionIndex": "0x7",
          "logIndex": "0x6",
          "removed": false
        }
      ],
      "logsBloom": "0x02000000000000000000000000000000000000000000000000000000000000000000000000000000000000000000000000000000000000000000000000000000000000000000000000000000000000000000000000000000000000000000000000000000000000000000000400000000000000000000000000002000000000000000000000000000000000000000000000000000000000000000000000000000000000000000000000000000000000000000200000000000000000000000000000000000000000000000000000000000000000000000000000000000004000000000000000000000000000000000000000000000000000000000000000000080",
      "type": "0x2",
      "transactionHash": "0x09222de5ca6f088c7487515d2ca77f5a83d38b69bd0758aae18656fb751dbf90",
      "transactionIndex": "0x7",
      "blockHash": "0x806cebec98a4a7cc728149ed4ceff86c01943e91f92144aeed7d6948859709e5",
      "blockNumber": "0xe8efeb",
      "gasUsed": "0x7b6a",
      "effectiveGasPrice": "0x94f185",
      "from": "0xe0d6f93151091f24ea09474e9271bd60f2624d99",
      "to": "0x3e19bbee16243f36b331ce550f3ff2685e972944",
      "contractAddress": null,
      "l1BaseFeeScalar": "0x44d",
      "l1BlobBaseFee": "0x1",
      "l1BlobBaseFeeScalar": "0xa118b",
      "l1Fee": "0x129427b8c",
      "l1GasPrice": "0xa8be8095",
      "l1GasUsed": "0x640"
    },
    {
      "status": "0x1",
      "cumulativeGasUsed": "0x2a2d0",
      "logs": [
        {
          "address": "0x3e19bbee16243f36b331ce550f3ff2685e972944",
          "topics": [
            "0xe012bf0e1630512126bccbc050ebf66c62af3753e3cd64d533ddf97f65f621c8"
          ],
          "data": "0x0000000000000000000000000000000000000000000000000000000000009ce1",
          "blockHash": "0x1efd1913642538e8511398c6fc195f0e4f1b08d5a27e21151f9df7345d1cc2f1",
          "blockNumber": "0xe8efec",
          "transactionHash": "0x21c5b3d91c0d8ef2b1abe65b9cff9504a0dffa3015ddbbe00a0dd6f6e8967554",
          "transactionIndex": "0x2",
          "logIndex": "0x2",
          "removed": false
        }
      ],
      "logsBloom": "0x02000000000000000000000000000000000000000000000000000000000000000000000000000000000000000000000000000000000000000000000000000000000000000000000000000000000000000000000000000000000000000000000000000000000000000000000400000000000000000000000000002000000000000000000000000000000000000000000000000000000000000000000000000000000000000000000000000000000000000000200000000000000000000000000000000000000000000000000000000000000000000000000000000000004000000000000000000000000000000000000000000000000000000000000000000080",
      "type": "0x2",
      "transactionHash": "0x21c5b3d91c0d8ef2b1abe65b9cff9504a0dffa3015ddbbe00a0dd6f6e8967554",
      "transactionIndex": "0x2",
      "blockHash": "0x1efd1913642538e8511398c6fc195f0e4f1b08d5a27e21151f9df7345d1cc2f1",
      "blockNumber": "0xe8efec",
      "gasUsed": "0x84f8",
      "effectiveGasPrice": "0x9478ca",
      "from": "0xe0d6f93151091f24ea09474e9271bd60f2624d99",
      "to": "0x3e19bbee16243f36b331ce550f3ff2685e972944",
      "contractAddress": null,
      "l1BaseFeeScalar": "0x44d",
      "l1BlobBaseFee": "0x1",
      "l1BlobBaseFeeScalar": "0xa118b",
      "l1Fee": "0x129427b8c",
      "l1GasPrice": "0xa8be8095",
      "l1GasUsed": "0x640"
    },
    {
      "status": "0x1",
      "cumulativeGasUsed": "0x33156",
      "logs": [
        {
          "address": "0x3e19bbee16243f36b331ce550f3ff2685e972944",
          "topics": [
            "0xe012bf0e1630512126bccbc050ebf66c62af3753e3cd64d533ddf97f65f621c8"
          ],
          "data": "0x0000000000000000000000000000000000000000000000000000000000009d28",
          "blockHash": "0x1efd1913642538e8511398c6fc195f0e4f1b08d5a27e21151f9df7345d1cc2f1",
          "blockNumber": "0xe8efec",
          "transactionHash": "0x0977f365d29c278c93ca48ac28876dcae2894e5b936563c522e5fdf0f069cfff",
          "transactionIndex": "0x3",
          "logIndex": "0x3",
          "removed": false
        }
      ],
      "logsBloom": "0x02000000000000000000000000000000000000000000000000000000000000000000000000000000000000000000000000000000000000000000000000000000000000000000000000000000000000000000000000000000000000000000000000000000000000000000000400000000000000000000000000002000000000000000000000000000000000000000000000000000000000000000000000000000000000000000000000000000000000000000200000000000000000000000000000000000000000000000000000000000000000000000000000000000004000000000000000000000000000000000000000000000000000000000000000000080",
      "type": "0x2",
      "transactionHash": "0x0977f365d29c278c93ca48ac28876dcae2894e5b936563c522e5fdf0f069cfff",
      "transactionIndex": "0x3",
      "blockHash": "0x1efd1913642538e8511398c6fc195f0e4f1b08d5a27e21151f9df7345d1cc2f1",
      "blockNumber": "0xe8efec",
      "gasUsed": "0x8e86",
      "effectiveGasPrice": "0x9478ca",
      "from": "0xe0d6f93151091f24ea09474e9271bd60f2624d99",
      "to": "0x3e19bbee16243f36b331ce550f3ff2685e972944",
      "contractAddress": null,
      "l1BaseFeeScalar": "0x44d",
      "l1BlobBaseFee": "0x1",
      "l1BlobBaseFeeScalar": "0xa118b",
      "l1Fee": "0x129427b8c",
      "l1GasPrice": "0xa8be8095",
      "l1GasUsed": "0x640"
    },
    {
      "status": "0x1",
      "cumulativeGasUsed": "0x3c96a",
      "logs": [
        {
          "address": "0x3e19bbee16243f36b331ce550f3ff2685e972944",
          "topics": [
            "0xe012bf0e1630512126bccbc050ebf66c62af3753e3cd64d533ddf97f65f621c8"
          ],
          "data": "0x0000000000000000000000000000000000000000000000000000000000009d35",
          "blockHash": "0x1efd1913642538e8511398c6fc195f0e4f1b08d5a27e21151f9df7345d1cc2f1",
          "blockNumber": "0xe8efec",
          "transactionHash": "0x8173bb75f9bbf38421e2f7e957a9bbb3e54df9425cfe2cae6547f79ee47666a1",
          "transactionIndex": "0x4",
          "logIndex": "0x4",
          "removed": false
        }
      ],
      "logsBloom": "0x02000000000000000000000000000000000000000000000000000000000000000000000000000000000000000000000000000000000000000000000000000000000000000000000000000000000000000000000000000000000000000000000000000000000000000000000400000000000000000000000000002000000000000000000000000000000000000000000000000000000000000000000000000000000000000000000000000000000000000000200000000000000000000000000000000000000000000000000000000000000000000000000000000000004000000000000000000000000000000000000000000000000000000000000000000080",
      "type": "0x2",
      "transactionHash": "0x8173bb75f9bbf38421e2f7e957a9bbb3e54df9425cfe2cae6547f79ee47666a1",
      "transactionIndex": "0x4",
      "blockHash": "0x1efd1913642538e8511398c6fc195f0e4f1b08d5a27e21151f9df7345d1cc2f1",
      "blockNumber": "0xe8efec",
      "gasUsed": "0x9814",
      "effectiveGasPrice": "0x9478ca",
      "from": "0xe0d6f93151091f24ea09474e9271bd60f2624d99",
      "to": "0x3e19bbee16243f36b331ce550f3ff2685e972944",
      "contractAddress": null,
      "l1BaseFeeScalar": "0x44d",
      "l1BlobBaseFee": "0x1",
      "l1BlobBaseFeeScalar": "0xa118b",
      "l1Fee": "0x129427b8c",
      "l1GasPrice": "0xa8be8095",
      "l1GasUsed": "0x640"
    },
    {
      "status": "0x1",
      "cumulativeGasUsed": "0x46b0c",
      "logs": [
        {
          "address": "0x3e19bbee16243f36b331ce550f3ff2685e972944",
          "topics": [
            "0xe012bf0e1630512126bccbc050ebf66c62af3753e3cd64d533ddf97f65f621c8"
          ],
          "data": "0x0000000000000000000000000000000000000000000000000000000000009d5f",
          "blockHash": "0x1efd1913642538e8511398c6fc195f0e4f1b08d5a27e21151f9df7345d1cc2f1",
          "blockNumber": "0xe8efec",
          "transactionHash": "0x8d0557403873785cd756ee0b9380436138b60990a8855892c86da8c449717a64",
          "transactionIndex": "0x5",
          "logIndex": "0x5",
          "removed": false
        }
      ],
      "logsBloom": "0x02000000000000000000000000000000000000000000000000000000000000000000000000000000000000000000000000000000000000000000000000000000000000000000000000000000000000000000000000000000000000000000000000000000000000000000000400000000000000000000000000002000000000000000000000000000000000000000000000000000000000000000000000000000000000000000000000000000000000000000200000000000000000000000000000000000000000000000000000000000000000000000000000000000004000000000000000000000000000000000000000000000000000000000000000000080",
      "type": "0x2",
      "transactionHash": "0x8d0557403873785cd756ee0b9380436138b60990a8855892c86da8c449717a64",
      "transactionIndex": "0x5",
      "blockHash": "0x1efd1913642538e8511398c6fc195f0e4f1b08d5a27e21151f9df7345d1cc2f1",
      "blockNumber": "0xe8efec",
      "gasUsed": "0xa1a2",
      "effectiveGasPrice": "0x9478ca",
      "from": "0xe0d6f93151091f24ea09474e9271bd60f2624d99",
      "to": "0x3e19bbee16243f36b331ce550f3ff2685e972944",
      "contractAddress": null,
      "l1BaseFeeScalar": "0x44d",
      "l1BlobBaseFee": "0x1",
      "l1BlobBaseFeeScalar": "0xa118b",
      "l1Fee": "0x129427b8c",
      "l1GasPrice": "0xa8be8095",
      "l1GasUsed": "0x640"
    },
    {
      "status": "0x1",
      "cumulativeGasUsed": "0x5163c",
      "logs": [
        {
          "address": "0x3e19bbee16243f36b331ce550f3ff2685e972944",
          "topics": [
            "0xe012bf0e1630512126bccbc050ebf66c62af3753e3cd64d533ddf97f65f621c8"
          ],
          "data": "0x0000000000000000000000000000000000000000000000000000000000009d33",
          "blockHash": "0x1efd1913642538e8511398c6fc195f0e4f1b08d5a27e21151f9df7345d1cc2f1",
          "blockNumber": "0xe8efec",
          "transactionHash": "0x331e7ca6101831ad0b078dcc120520035397b1c5b55520a5d6f84843eb377d40",
          "transactionIndex": "0x6",
          "logIndex": "0x6",
          "removed": false
        }
      ],
      "logsBloom": "0x02000000000000000000000000000000000000000000000000000000000000000000000000000000000000000000000000000000000000000000000000000000000000000000000000000000000000000000000000000000000000000000000000000000000000000000000400000000000000000000000000002000000000000000000000000000000000000000000000000000000000000000000000000000000000000000000000000000000000000000200000000000000000000000000000000000000000000000000000000000000000000000000000000000004000000000000000000000000000000000000000000000000000000000000000000080",
      "type": "0x2",
      "transactionHash": "0x331e7ca6101831ad0b078dcc120520035397b1c5b55520a5d6f84843eb377d40",
      "transactionIndex": "0x6",
      "blockHash": "0x1efd1913642538e8511398c6fc195f0e4f1b08d5a27e21151f9df7345d1cc2f1",
      "blockNumber": "0xe8efec",
      "gasUsed": "0xab30",
      "effectiveGasPrice": "0x9478ca",
      "from": "0xe0d6f93151091f24ea09474e9271bd60f2624d99",
      "to": "0x3e19bbee16243f36b331ce550f3ff2685e972944",
      "contractAddress": null,
      "l1BaseFeeScalar": "0x44d",
      "l1BlobBaseFee": "0x1",
      "l1BlobBaseFeeScalar": "0xa118b",
      "l1Fee": "0x129427b8c",
      "l1GasPrice": "0xa8be8095",
      "l1GasUsed": "0x640"
    },
    {
      "status": "0x1",
      "cumulativeGasUsed": "0x57b9d",
      "logs": [],
      "logsBloom": "0x00000000000000000000000000000000000000000000000000000000000000000000000000000000000000000000000000000000000000000000000000000000000000000000000000000000000000000000000000000000000000000000000000000000000000000000000000000000000000000000000000000000000000000000000000000000000000000000000000000000000000000000000000000000000000000000000000000000000000000000000000000000000000000000000000000000000000000000000000000000000000000000000000000000000000000000000000000000000000000000000000000000000000000000000000000000",
      "type": "0x2",
      "transactionHash": "0x08024e49eb70eff6c213f81f9ca19d1091d46cfbc004e32bf5ad117e1440dab8",
      "transactionIndex": "0x7",
      "blockHash": "0x1efd1913642538e8511398c6fc195f0e4f1b08d5a27e21151f9df7345d1cc2f1",
      "blockNumber": "0xe8efec",
      "gasUsed": "0x6561",
      "effectiveGasPrice": "0x9478ca",
      "from": "0xe0d6f93151091f24ea09474e9271bd60f2624d99",
      "to": "0x3e19bbee16243f36b331ce550f3ff2685e972944",
      "contractAddress": null,
      "l1BaseFeeScalar": "0x44d",
      "l1BlobBaseFee": "0x1",
      "l1BlobBaseFeeScalar": "0xa118b",
      "l1Fee": "0x129427b8c",
      "l1GasPrice": "0xa8be8095",
      "l1GasUsed": "0x640"
    },
    {
      "status": "0x1",
      "cumulativeGasUsed": "0x5fc1b",
      "logs": [
        {
          "address": "0x344dd3ef825c54f836c312cac66294fd2ce9f96c",
          "topics": [
            "0xdffbd9ded1c09446f09377de547142dcce7dc541c8b0b028142b1eba7026b9e7",
            "0x0000000000000000000000004200000000000000000000000000000000000006",
            "0x0000000000000000000000003e19bbee16243f36b331ce550f3ff2685e972944"
          ],
          "data": "0x",
          "blockHash": "0x1efd1913642538e8511398c6fc195f0e4f1b08d5a27e21151f9df7345d1cc2f1",
          "blockNumber": "0xe8efec",
          "transactionHash": "0xbf0502e0837534b1e3410659b12d61660fac04cbd5a989e8df8a924388e8aea9",
          "transactionIndex": "0x8",
          "logIndex": "0x7",
          "removed": false
        }
      ],
      "logsBloom": "0x00000000010000000002000000000000000000000000000000000000000000000000000400000000000000000000000000000000008000000020000000000000000010000000000000000000000000000000000008000000000000200000000000000000000000000000000000000000000010000000000000000000000000000000000000002000000000000000000000002000000000000000000000000000000000000000000000000000000000000000000000000000000000000000000000000000000004000000000000000000000000000000000000000000000000000000000000000000000000000000000000000000000000000000000000000000",
      "type": "0x2",
      "transactionHash": "0xbf0502e0837534b1e3410659b12d61660fac04cbd5a989e8df8a924388e8aea9",
      "transactionIndex": "0x8",
      "blockHash": "0x1efd1913642538e8511398c6fc195f0e4f1b08d5a27e21151f9df7345d1cc2f1",
      "blockNumber": "0xe8efec",
      "gasUsed": "0x807e",
      "effectiveGasPrice": "0x9478ca",
      "from": "0xe0d6f93151091f24ea09474e9271bd60f2624d99",
      "to": "0x344dd3ef825c54f836c312cac66294fd2ce9f96c",
      "contractAddress": null,
      "l1BaseFeeScalar": "0x44d",
      "l1BlobBaseFee": "0x1",
      "l1BlobBaseFeeScalar": "0xa118b",
      "l1Fee": "0x129427b8c",
      "l1GasPrice": "0xa8be8095",
      "l1GasUsed": "0x640"
    },
    {
      "status": "0x1",
      "cumulativeGasUsed": "0x67d71",
      "logs": [
        {
          "address": "0x344dd3ef825c54f836c312cac66294fd2ce9f96c",
          "topics": [
            "0xdffbd9ded1c09446f09377de547142dcce7dc541c8b0b028142b1eba7026b9e7",
            "0x00000000000000000000000014440344256002a5afaa1403ebdaf4bf9a5499e3",
            "0x0000000000000000000000003e19bbee16243f36b331ce550f3ff2685e972944"
          ],
          "data": "0x",
          "blockHash": "0x1efd1913642538e8511398c6fc195f0e4f1b08d5a27e21151f9df7345d1cc2f1",
          "blockNumber": "0xe8efec",
          "transactionHash": "0x3050dbf7e5e8db4b7346fe60e35ea6902357b18d815fb167ebf03cfe8f5ba3be",
          "transactionIndex": "0x9",
          "logIndex": "0x8",
          "removed": false
        }
      ],
      "logsBloom": "0x00000000010000000002000000000000000000000000000000000000000000000000000400000000000000000000000000000000008000000020000000000000000010000000000000000000000000000000000008000000000000200000000000000000000000000000000000000000400000000000000000000000000000000000000000002000000000000000000000002000000000000000000000000000000000000000000000000000000000000000000000000000000000000000000000000000000000000000000000000000000000000000000000000000000000000000000002000000000000000000000000000000000000000000000000000000",
      "type": "0x2",
      "transactionHash": "0x3050dbf7e5e8db4b7346fe60e35ea6902357b18d815fb167ebf03cfe8f5ba3be",
      "transactionIndex": "0x9",
      "blockHash": "0x1efd1913642538e8511398c6fc195f0e4f1b08d5a27e21151f9df7345d1cc2f1",
      "blockNumber": "0xe8efec",
      "gasUsed": "0x8156",
      "effectiveGasPrice": "0x9478ca",
      "from": "0xe0d6f93151091f24ea09474e9271bd60f2624d99",
      "to": "0x344dd3ef825c54f836c312cac66294fd2ce9f96c",
      "contractAddress": null,
      "l1BaseFeeScalar": "0x44d",
      "l1BlobBaseFee": "0x1",
      "l1BlobBaseFeeScalar": "0xa118b",
      "l1Fee": "0x12a9d6a64",
      "l1GasPrice": "0xa8be8095",
      "l1GasUsed": "0x647"
    }
  ],
  "libraries": [],
  "pending": [],
  "returns": {},
  "timestamp": 1726299838,
  "chain": 84532,
  "commit": "5fcd4f3"
}