{
  "transactions": [
    {
      "hash": "0x726d37722262ac00b8ec265cf38f0b53b70977da40208997d4d0991695b6b79e",
      "transactionType": "CALL",
      "contractName": null,
      "contractAddress": "0x54764680b3863a1b72c376ae92a3cce65c4dde69",
      "function": "setDepositContract(uint256,address)",
      "arguments": [
        "40231",
        "0x3e19BBEe16243F36b331Ce550f3fF2685e972944"
      ],
      "transaction": {
        "from": "0x03773f85756acac65a869e89e3b7b2fcda6be140",
        "to": "0x54764680b3863a1b72c376ae92a3cce65c4dde69",
        "gas": "0xfb56",
        "value": "0x0",
        "input": "0x06c77cb40000000000000000000000000000000000000000000000000000000000009d270000000000000000000000003e19bbee16243f36b331ce550f3ff2685e972944",
        "nonce": "0x9a",
        "chainId": "0x14a34"
      },
      "additionalContracts": [],
      "isFixedGasLimit": false
    },
    {
      "hash": "0x565d314a20e4223847432ac71915378cb9cc53d1e4052642ab21ab621bce3a6e",
      "transactionType": "CALL",
      "contractName": null,
      "contractAddress": "0x54764680b3863a1b72c376ae92a3cce65c4dde69",
      "function": "setDepositContract(uint256,address)",
      "arguments": [
        "40161",
        "0xdaab75CA8E7E3c0F880C4D1727c9c287139b2CA5"
      ],
      "transaction": {
        "from": "0x03773f85756acac65a869e89e3b7b2fcda6be140",
        "to": "0x54764680b3863a1b72c376ae92a3cce65c4dde69",
        "gas": "0xfb56",
        "value": "0x0",
        "input": "0x06c77cb40000000000000000000000000000000000000000000000000000000000009ce1000000000000000000000000daab75ca8e7e3c0f880c4d1727c9c287139b2ca5",
        "nonce": "0x9b",
        "chainId": "0x14a34"
      },
      "additionalContracts": [],
      "isFixedGasLimit": false
    },
    {
      "hash": "0x2cde5100489c62438644718c25f6816ba51e5affda0d0306144feb5ef968f469",
      "transactionType": "CALL",
      "contractName": null,
      "contractAddress": "0x54764680b3863a1b72c376ae92a3cce65c4dde69",
      "function": "setDepositContract(uint256,address)",
      "arguments": [
        "40232",
        "0x73A257e356Dd6Eb65c2cE9753C67f43Ae3e33A6B"
      ],
      "transaction": {
        "from": "0x03773f85756acac65a869e89e3b7b2fcda6be140",
        "to": "0x54764680b3863a1b72c376ae92a3cce65c4dde69",
        "gas": "0xfb56",
        "value": "0x0",
        "input": "0x06c77cb40000000000000000000000000000000000000000000000000000000000009d2800000000000000000000000073a257e356dd6eb65c2ce9753c67f43ae3e33a6b",
        "nonce": "0x9c",
        "chainId": "0x14a34"
      },
      "additionalContracts": [],
      "isFixedGasLimit": false
    },
    {
      "hash": "0x876b9455cf200db855fdacf04585f74b995d3e205b7b3ba1c6716ec2a41f7918",
      "transactionType": "CALL",
      "contractName": null,
      "contractAddress": "0x54764680b3863a1b72c376ae92a3cce65c4dde69",
      "function": "setDepositContract(uint256,address)",
      "arguments": [
        "40245",
        "0x617324745740d7CE92e0E1AB325870F186bDC1a1"
      ],
      "transaction": {
        "from": "0x03773f85756acac65a869e89e3b7b2fcda6be140",
        "to": "0x54764680b3863a1b72c376ae92a3cce65c4dde69",
        "gas": "0xfb56",
        "value": "0x0",
        "input": "0x06c77cb40000000000000000000000000000000000000000000000000000000000009d35000000000000000000000000617324745740d7ce92e0e1ab325870f186bdc1a1",
        "nonce": "0x9d",
        "chainId": "0x14a34"
      },
      "additionalContracts": [],
      "isFixedGasLimit": false
    },
    {
      "hash": "0xdeaecd262783037377f620b5829c05031a31a2519db7876987a452b87712ac84",
      "transactionType": "CALL",
      "contractName": null,
      "contractAddress": "0x54764680b3863a1b72c376ae92a3cce65c4dde69",
      "function": "setDepositContract(uint256,address)",
      "arguments": [
        "40287",
        "0x617324745740d7CE92e0E1AB325870F186bDC1a1"
      ],
      "transaction": {
        "from": "0x03773f85756acac65a869e89e3b7b2fcda6be140",
        "to": "0x54764680b3863a1b72c376ae92a3cce65c4dde69",
        "gas": "0xfb56",
        "value": "0x0",
        "input": "0x06c77cb40000000000000000000000000000000000000000000000000000000000009d5f000000000000000000000000617324745740d7ce92e0e1ab325870f186bdc1a1",
        "nonce": "0x9e",
        "chainId": "0x14a34"
      },
      "additionalContracts": [],
      "isFixedGasLimit": false
    },
    {
      "hash": "0x6231bbdbdc9e2f1f261f5006f3a008e321d2687e98d9d692297e6c18c7216ae7",
      "transactionType": "CALL",
      "contractName": null,
      "contractAddress": "0x54764680b3863a1b72c376ae92a3cce65c4dde69",
      "function": "setPeer(uint32,bytes32)",
      "arguments": [
        "40161",
        "0x000000000000000000000000daab75ca8e7e3c0f880c4d1727c9c287139b2ca5"
      ],
      "transaction": {
        "from": "0x03773f85756acac65a869e89e3b7b2fcda6be140",
        "to": "0x54764680b3863a1b72c376ae92a3cce65c4dde69",
        "gas": "0x1107f",
        "value": "0x0",
        "input": "0x3400288b0000000000000000000000000000000000000000000000000000000000009ce1000000000000000000000000daab75ca8e7e3c0f880c4d1727c9c287139b2ca5",
        "nonce": "0x9f",
        "chainId": "0x14a34"
      },
      "additionalContracts": [],
      "isFixedGasLimit": false
    },
    {
      "hash": "0x5941d1408e9b6879036ef1efc222cf1b4ec1066ec17391044a633f0a70882a80",
      "transactionType": "CALL",
      "contractName": null,
      "contractAddress": "0x54764680b3863a1b72c376ae92a3cce65c4dde69",
      "function": "setPeer(uint32,bytes32)",
      "arguments": [
        "40231",
        "0x0000000000000000000000003e19bbee16243f36b331ce550f3ff2685e972944"
      ],
      "transaction": {
        "from": "0x03773f85756acac65a869e89e3b7b2fcda6be140",
        "to": "0x54764680b3863a1b72c376ae92a3cce65c4dde69",
        "gas": "0x1107f",
        "value": "0x0",
        "input": "0x3400288b0000000000000000000000000000000000000000000000000000000000009d270000000000000000000000003e19bbee16243f36b331ce550f3ff2685e972944",
        "nonce": "0xa0",
        "chainId": "0x14a34"
      },
      "additionalContracts": [],
      "isFixedGasLimit": false
    },
    {
      "hash": "0x7d2a3c3f7201af40e8458e3e3b14416077ef2568a73953e9a3fb5feae1914b0a",
      "transactionType": "CALL",
      "contractName": null,
      "contractAddress": "0x54764680b3863a1b72c376ae92a3cce65c4dde69",
      "function": "setPeer(uint32,bytes32)",
      "arguments": [
        "40232",
        "0x00000000000000000000000073a257e356dd6eb65c2ce9753c67f43ae3e33a6b"
      ],
      "transaction": {
        "from": "0x03773f85756acac65a869e89e3b7b2fcda6be140",
        "to": "0x54764680b3863a1b72c376ae92a3cce65c4dde69",
        "gas": "0x1107f",
        "value": "0x0",
        "input": "0x3400288b0000000000000000000000000000000000000000000000000000000000009d2800000000000000000000000073a257e356dd6eb65c2ce9753c67f43ae3e33a6b",
        "nonce": "0xa1",
        "chainId": "0x14a34"
      },
      "additionalContracts": [],
      "isFixedGasLimit": false
    },
    {
      "hash": "0xaf4f5d4d57cf13e1e49d02fe16aa32dabce76b0aabe4181abf4c905c1c6a7cd5",
      "transactionType": "CALL",
      "contractName": null,
      "contractAddress": "0x54764680b3863a1b72c376ae92a3cce65c4dde69",
      "function": "setPeer(uint32,bytes32)",
      "arguments": [
        "40287",
        "0x0000000000000000000000002cbe484b1e2fe4ffa28fef0caa0c9e0d724fe183"
      ],
      "transaction": {
        "from": "0x03773f85756acac65a869e89e3b7b2fcda6be140",
        "to": "0x54764680b3863a1b72c376ae92a3cce65c4dde69",
        "gas": "0x1107f",
        "value": "0x0",
        "input": "0x3400288b0000000000000000000000000000000000000000000000000000000000009d5f0000000000000000000000002cbe484b1e2fe4ffa28fef0caa0c9e0d724fe183",
        "nonce": "0xa2",
        "chainId": "0x14a34"
      },
      "additionalContracts": [],
      "isFixedGasLimit": false
    }
  ],
  "receipts": [
    {
      "status": "0x1",
      "cumulativeGasUsed": "0x1ca7bf",
      "logs": [],
      "logsBloom": "0x00000000000000000000000000000000000000000000000000000000000000000000000000000000000000000000000000000000000000000000000000000000000000000000000000000000000000000000000000000000000000000000000000000000000000000000000000000000000000000000000000000000000000000000000000000000000000000000000000000000000000000000000000000000000000000000000000000000000000000000000000000000000000000000000000000000000000000000000000000000000000000000000000000000000000000000000000000000000000000000000000000000000000000000000000000000",
      "type": "0x2",
      "transactionHash": "0x726d37722262ac00b8ec265cf38f0b53b70977da40208997d4d0991695b6b79e",
      "transactionIndex": "0xb",
      "blockHash": "0x698b5a8f996e4fa73d927fe0872f70ce1d4035977a564028257a005fe48c6343",
      "blockNumber": "0xe18e0f",
      "gasUsed": "0xb5f7",
      "effectiveGasPrice": "0xf435a",
      "from": "0x03773f85756acac65a869e89e3b7b2fcda6be140",
      "to": "0x54764680b3863a1b72c376ae92a3cce65c4dde69",
      "contractAddress": null,
      "l1BaseFeeScalar": "0x44d",
      "l1BlobBaseFee": "0x29be853273",
      "l1BlobBaseFeeScalar": "0xa118b",
      "l1Fee": "0xaca57da4c3c",
      "l1GasPrice": "0x4744b4744",
      "l1GasUsed": "0x640"
    },
    {
      "status": "0x1",
      "cumulativeGasUsed": "0x1d5db6",
      "logs": [],
      "logsBloom": "0x00000000000000000000000000000000000000000000000000000000000000000000000000000000000000000000000000000000000000000000000000000000000000000000000000000000000000000000000000000000000000000000000000000000000000000000000000000000000000000000000000000000000000000000000000000000000000000000000000000000000000000000000000000000000000000000000000000000000000000000000000000000000000000000000000000000000000000000000000000000000000000000000000000000000000000000000000000000000000000000000000000000000000000000000000000000",
      "type": "0x2",
      "transactionHash": "0x565d314a20e4223847432ac71915378cb9cc53d1e4052642ab21ab621bce3a6e",
      "transactionIndex": "0xc",
      "blockHash": "0x698b5a8f996e4fa73d927fe0872f70ce1d4035977a564028257a005fe48c6343",
      "blockNumber": "0xe18e0f",
      "gasUsed": "0xb5f7",
      "effectiveGasPrice": "0xf435a",
      "from": "0x03773f85756acac65a869e89e3b7b2fcda6be140",
      "to": "0x54764680b3863a1b72c376ae92a3cce65c4dde69",
      "contractAddress": null,
      "l1BaseFeeScalar": "0x44d",
      "l1BlobBaseFee": "0x29be853273",
      "l1BlobBaseFeeScalar": "0xa118b",
      "l1Fee": "0xaca57da4c3c",
      "l1GasPrice": "0x4744b4744",
      "l1GasUsed": "0x640"
    },
    {
      "status": "0x1",
      "cumulativeGasUsed": "0x1e13ad",
      "logs": [],
      "logsBloom": "0x00000000000000000000000000000000000000000000000000000000000000000000000000000000000000000000000000000000000000000000000000000000000000000000000000000000000000000000000000000000000000000000000000000000000000000000000000000000000000000000000000000000000000000000000000000000000000000000000000000000000000000000000000000000000000000000000000000000000000000000000000000000000000000000000000000000000000000000000000000000000000000000000000000000000000000000000000000000000000000000000000000000000000000000000000000000",
      "type": "0x2",
      "transactionHash": "0x2cde5100489c62438644718c25f6816ba51e5affda0d0306144feb5ef968f469",
      "transactionIndex": "0xd",
      "blockHash": "0x698b5a8f996e4fa73d927fe0872f70ce1d4035977a564028257a005fe48c6343",
      "blockNumber": "0xe18e0f",
      "gasUsed": "0xb5f7",
      "effectiveGasPrice": "0xf435a",
      "from": "0x03773f85756acac65a869e89e3b7b2fcda6be140",
      "to": "0x54764680b3863a1b72c376ae92a3cce65c4dde69",
      "contractAddress": null,
      "l1BaseFeeScalar": "0x44d",
      "l1BlobBaseFee": "0x29be853273",
      "l1BlobBaseFeeScalar": "0xa118b",
      "l1Fee": "0xaca57da4c3c",
      "l1GasPrice": "0x4744b4744",
      "l1GasUsed": "0x640"
    },
    {
      "status": "0x1",
      "cumulativeGasUsed": "0x1ec9a4",
      "logs": [],
      "logsBloom": "0x00000000000000000000000000000000000000000000000000000000000000000000000000000000000000000000000000000000000000000000000000000000000000000000000000000000000000000000000000000000000000000000000000000000000000000000000000000000000000000000000000000000000000000000000000000000000000000000000000000000000000000000000000000000000000000000000000000000000000000000000000000000000000000000000000000000000000000000000000000000000000000000000000000000000000000000000000000000000000000000000000000000000000000000000000000000",
      "type": "0x2",
      "transactionHash": "0x876b9455cf200db855fdacf04585f74b995d3e205b7b3ba1c6716ec2a41f7918",
      "transactionIndex": "0xe",
      "blockHash": "0x698b5a8f996e4fa73d927fe0872f70ce1d4035977a564028257a005fe48c6343",
      "blockNumber": "0xe18e0f",
      "gasUsed": "0xb5f7",
      "effectiveGasPrice": "0xf435a",
      "from": "0x03773f85756acac65a869e89e3b7b2fcda6be140",
      "to": "0x54764680b3863a1b72c376ae92a3cce65c4dde69",
      "contractAddress": null,
      "l1BaseFeeScalar": "0x44d",
      "l1BlobBaseFee": "0x29be853273",
      "l1BlobBaseFeeScalar": "0xa118b",
      "l1Fee": "0xaca57da4c3c",
      "l1GasPrice": "0x4744b4744",
      "l1GasUsed": "0x640"
    },
    {
      "status": "0x1",
      "cumulativeGasUsed": "0x1f7f9b",
      "logs": [],
      "logsBloom": "0x00000000000000000000000000000000000000000000000000000000000000000000000000000000000000000000000000000000000000000000000000000000000000000000000000000000000000000000000000000000000000000000000000000000000000000000000000000000000000000000000000000000000000000000000000000000000000000000000000000000000000000000000000000000000000000000000000000000000000000000000000000000000000000000000000000000000000000000000000000000000000000000000000000000000000000000000000000000000000000000000000000000000000000000000000000000",
      "type": "0x2",
      "transactionHash": "0xdeaecd262783037377f620b5829c05031a31a2519db7876987a452b87712ac84",
      "transactionIndex": "0xf",
      "blockHash": "0x698b5a8f996e4fa73d927fe0872f70ce1d4035977a564028257a005fe48c6343",
      "blockNumber": "0xe18e0f",
      "gasUsed": "0xb5f7",
      "effectiveGasPrice": "0xf435a",
      "from": "0x03773f85756acac65a869e89e3b7b2fcda6be140",
      "to": "0x54764680b3863a1b72c376ae92a3cce65c4dde69",
      "contractAddress": null,
      "l1BaseFeeScalar": "0x44d",
      "l1BlobBaseFee": "0x29be853273",
      "l1BlobBaseFeeScalar": "0xa118b",
      "l1Fee": "0xaca57da4c3c",
      "l1GasPrice": "0x4744b4744",
      "l1GasUsed": "0x640"
    },
    {
      "status": "0x1",
      "cumulativeGasUsed": "0x2039ee",
      "logs": [
        {
          "address": "0x54764680b3863a1b72c376ae92a3cce65c4dde69",
          "topics": [
            "0x238399d427b947898edb290f5ff0f9109849b1c3ba196a42e35f00c50a54b98b"
          ],
          "data": "0x0000000000000000000000000000000000000000000000000000000000009ce1000000000000000000000000daab75ca8e7e3c0f880c4d1727c9c287139b2ca5",
          "blockHash": "0x698b5a8f996e4fa73d927fe0872f70ce1d4035977a564028257a005fe48c6343",
          "blockNumber": "0xe18e0f",
          "transactionHash": "0x6231bbdbdc9e2f1f261f5006f3a008e321d2687e98d9d692297e6c18c7216ae7",
          "transactionIndex": "0x10",
          "logIndex": "0x1e",
          "removed": false
        }
      ],
      "logsBloom": "0x00000000000000000000000080000000000000000000000000000000000000000000000000000000000000000000000000000000000000000800000000000000000000000000000000000000000000000000000000000000000000000000000000000000000000000000000000000000000000000000000000000000000000000000000000000000000000000000000000000000000000000000000000100000000000000000000000000000000000000000000000000000000002000000000000000000000000000000000000000000000000000000000200040000000000000000000000000000000000000000000000000000000000000000000000000000",
      "type": "0x2",
      "transactionHash": "0x6231bbdbdc9e2f1f261f5006f3a008e321d2687e98d9d692297e6c18c7216ae7",
      "transactionIndex": "0x10",
      "blockHash": "0x698b5a8f996e4fa73d927fe0872f70ce1d4035977a564028257a005fe48c6343",
      "blockNumber": "0xe18e0f",
      "gasUsed": "0xba53",
      "effectiveGasPrice": "0xf435a",
      "from": "0x03773f85756acac65a869e89e3b7b2fcda6be140",
      "to": "0x54764680b3863a1b72c376ae92a3cce65c4dde69",
      "contractAddress": null,
      "l1BaseFeeScalar": "0x44d",
      "l1BlobBaseFee": "0x29be853273",
      "l1BlobBaseFeeScalar": "0xa118b",
      "l1Fee": "0xaca57da4c3c",
      "l1GasPrice": "0x4744b4744",
      "l1GasUsed": "0x640"
    },
    {
      "status": "0x1",
      "cumulativeGasUsed": "0x20f441",
      "logs": [
        {
          "address": "0x54764680b3863a1b72c376ae92a3cce65c4dde69",
          "topics": [
            "0x238399d427b947898edb290f5ff0f9109849b1c3ba196a42e35f00c50a54b98b"
          ],
          "data": "0x0000000000000000000000000000000000000000000000000000000000009d270000000000000000000000003e19bbee16243f36b331ce550f3ff2685e972944",
          "blockHash": "0x698b5a8f996e4fa73d927fe0872f70ce1d4035977a564028257a005fe48c6343",
          "blockNumber": "0xe18e0f",
          "transactionHash": "0x5941d1408e9b6879036ef1efc222cf1b4ec1066ec17391044a633f0a70882a80",
          "transactionIndex": "0x11",
          "logIndex": "0x1f",
          "removed": false
        }
      ],
      "logsBloom": "0x00000000000000000000000080000000000000000000000000000000000000000000000000000000000000000000000000000000000000000800000000000000000000000000000000000000000000000000000000000000000000000000000000000000000000000000000000000000000000000000000000000000000000000000000000000000000000000000000000000000000000000000000000100000000000000000000000000000000000000000000000000000000002000000000000000000000000000000000000000000000000000000000200040000000000000000000000000000000000000000000000000000000000000000000000000000",
      "type": "0x2",
      "transactionHash": "0x5941d1408e9b6879036ef1efc222cf1b4ec1066ec17391044a633f0a70882a80",
      "transactionIndex": "0x11",
      "blockHash": "0x698b5a8f996e4fa73d927fe0872f70ce1d4035977a564028257a005fe48c6343",
      "blockNumber": "0xe18e0f",
      "gasUsed": "0xba53",
      "effectiveGasPrice": "0xf435a",
      "from": "0x03773f85756acac65a869e89e3b7b2fcda6be140",
      "to": "0x54764680b3863a1b72c376ae92a3cce65c4dde69",
      "contractAddress": null,
      "l1BaseFeeScalar": "0x44d",
      "l1BlobBaseFee": "0x29be853273",
      "l1BlobBaseFeeScalar": "0xa118b",
      "l1Fee": "0xaca57da4c3c",
      "l1GasPrice": "0x4744b4744",
      "l1GasUsed": "0x640"
    },
    {
      "status": "0x1",
      "cumulativeGasUsed": "0x21ae94",
      "logs": [
        {
          "address": "0x54764680b3863a1b72c376ae92a3cce65c4dde69",
          "topics": [
            "0x238399d427b947898edb290f5ff0f9109849b1c3ba196a42e35f00c50a54b98b"
          ],
          "data": "0x0000000000000000000000000000000000000000000000000000000000009d2800000000000000000000000073a257e356dd6eb65c2ce9753c67f43ae3e33a6b",
          "blockHash": "0x698b5a8f996e4fa73d927fe0872f70ce1d4035977a564028257a005fe48c6343",
          "blockNumber": "0xe18e0f",
          "transactionHash": "0x7d2a3c3f7201af40e8458e3e3b14416077ef2568a73953e9a3fb5feae1914b0a",
          "transactionIndex": "0x12",
          "logIndex": "0x20",
          "removed": false
        }
      ],
      "logsBloom": "0x00000000000000000000000080000000000000000000000000000000000000000000000000000000000000000000000000000000000000000800000000000000000000000000000000000000000000000000000000000000000000000000000000000000000000000000000000000000000000000000000000000000000000000000000000000000000000000000000000000000000000000000000000100000000000000000000000000000000000000000000000000000000002000000000000000000000000000000000000000000000000000000000200040000000000000000000000000000000000000000000000000000000000000000000000000000",
      "type": "0x2",
      "transactionHash": "0x7d2a3c3f7201af40e8458e3e3b14416077ef2568a73953e9a3fb5feae1914b0a",
      "transactionIndex": "0x12",
      "blockHash": "0x698b5a8f996e4fa73d927fe0872f70ce1d4035977a564028257a005fe48c6343",
      "blockNumber": "0xe18e0f",
      "gasUsed": "0xba53",
      "effectiveGasPrice": "0xf435a",
      "from": "0x03773f85756acac65a869e89e3b7b2fcda6be140",
      "to": "0x54764680b3863a1b72c376ae92a3cce65c4dde69",
      "contractAddress": null,
      "l1BaseFeeScalar": "0x44d",
      "l1BlobBaseFee": "0x29be853273",
      "l1BlobBaseFeeScalar": "0xa118b",
      "l1Fee": "0xaca57da4c3c",
      "l1GasPrice": "0x4744b4744",
      "l1GasUsed": "0x640"
    },
    {
      "status": "0x1",
      "cumulativeGasUsed": "0x2268e7",
      "logs": [
        {
          "address": "0x54764680b3863a1b72c376ae92a3cce65c4dde69",
          "topics": [
            "0x238399d427b947898edb290f5ff0f9109849b1c3ba196a42e35f00c50a54b98b"
          ],
          "data": "0x0000000000000000000000000000000000000000000000000000000000009d5f0000000000000000000000002cbe484b1e2fe4ffa28fef0caa0c9e0d724fe183",
          "blockHash": "0x698b5a8f996e4fa73d927fe0872f70ce1d4035977a564028257a005fe48c6343",
          "blockNumber": "0xe18e0f",
          "transactionHash": "0xaf4f5d4d57cf13e1e49d02fe16aa32dabce76b0aabe4181abf4c905c1c6a7cd5",
          "transactionIndex": "0x13",
          "logIndex": "0x21",
          "removed": false
        }
      ],
      "logsBloom": "0x00000000000000000000000080000000000000000000000000000000000000000000000000000000000000000000000000000000000000000800000000000000000000000000000000000000000000000000000000000000000000000000000000000000000000000000000000000000000000000000000000000000000000000000000000000000000000000000000000000000000000000000000000100000000000000000000000000000000000000000000000000000000002000000000000000000000000000000000000000000000000000000000200040000000000000000000000000000000000000000000000000000000000000000000000000000",
      "type": "0x2",
      "transactionHash": "0xaf4f5d4d57cf13e1e49d02fe16aa32dabce76b0aabe4181abf4c905c1c6a7cd5",
      "transactionIndex": "0x13",
      "blockHash": "0x698b5a8f996e4fa73d927fe0872f70ce1d4035977a564028257a005fe48c6343",
      "blockNumber": "0xe18e0f",
      "gasUsed": "0xba53",
      "effectiveGasPrice": "0xf435a",
      "from": "0x03773f85756acac65a869e89e3b7b2fcda6be140",
      "to": "0x54764680b3863a1b72c376ae92a3cce65c4dde69",
      "contractAddress": null,
      "l1BaseFeeScalar": "0x44d",
      "l1BlobBaseFee": "0x29be853273",
      "l1BlobBaseFeeScalar": "0xa118b",
      "l1Fee": "0xaca57da4c3c",
      "l1GasPrice": "0x4744b4744",
      "l1GasUsed": "0x640"
    }
  ],
  "libraries": [],
  "pending": [],
  "returns": {},
  "timestamp": 1725332229,
  "chain": 84532,
  "commit": "5cf640c"
}