{
  "transactions": [
    {
      "hash": "0x9a3c2bb558c3c9befb56267e091ca319a6f7e43a875be1846c7fd58dfe369f62",
      "transactionType": "CALL",
      "contractName": null,
      "contractAddress": "0x54764680b3863a1b72c376ae92a3cce65c4dde69",
      "function": "setDepositContract(uint256,address)",
      "arguments": [
        "40243",
        "0x472Cf1b83213DeD59DB4Fc643532d07450d8f40B"
      ],
      "transaction": {
        "from": "0x03773f85756acac65a869e89e3b7b2fcda6be140",
        "to": "0x54764680b3863a1b72c376ae92a3cce65c4dde69",
        "gas": "0xfb56",
        "value": "0x0",
        "input": "0x06c77cb40000000000000000000000000000000000000000000000000000000000009d33000000000000000000000000472cf1b83213ded59db4fc643532d07450d8f40b",
        "nonce": "0xa3",
        "chainId": "0x14a34"
      },
      "additionalContracts": [],
      "isFixedGasLimit": false
    },
    {
      "hash": "0x9cd20ccad77eaa1a97123aec345296b540ee0811b2bceb225d158e870682be0b",
      "transactionType": "CALL",
      "contractName": null,
      "contractAddress": "0x54764680b3863a1b72c376ae92a3cce65c4dde69",
      "function": "setPeer(uint32,bytes32)",
      "arguments": [
        "40243",
        "0x000000000000000000000000472cf1b83213ded59db4fc643532d07450d8f40b"
      ],
      "transaction": {
        "from": "0x03773f85756acac65a869e89e3b7b2fcda6be140",
        "to": "0x54764680b3863a1b72c376ae92a3cce65c4dde69",
        "gas": "0x1107f",
        "value": "0x0",
        "input": "0x3400288b0000000000000000000000000000000000000000000000000000000000009d33000000000000000000000000472cf1b83213ded59db4fc643532d07450d8f40b",
        "nonce": "0xa4",
        "chainId": "0x14a34"
      },
      "additionalContracts": [],
      "isFixedGasLimit": false
    }
  ],
  "receipts": [
    {
      "status": "0x1",
      "cumulativeGasUsed": "0x3ac994",
      "logs": [],
      "logsBloom": "0x00000000000000000000000000000000000000000000000000000000000000000000000000000000000000000000000000000000000000000000000000000000000000000000000000000000000000000000000000000000000000000000000000000000000000000000000000000000000000000000000000000000000000000000000000000000000000000000000000000000000000000000000000000000000000000000000000000000000000000000000000000000000000000000000000000000000000000000000000000000000000000000000000000000000000000000000000000000000000000000000000000000000000000000000000000000",
      "type": "0x2",
      "transactionHash": "0x9a3c2bb558c3c9befb56267e091ca319a6f7e43a875be1846c7fd58dfe369f62",
      "transactionIndex": "0x6",
      "blockHash": "0x7eb3c4ca5bba01ccace1cdefa0c7a4fa3e8ae554666d54da8a14c9306091ce7b",
      "blockNumber": "0xe1a8f0",
      "gasUsed": "0xb5f7",
      "effectiveGasPrice": "0x10cab0",
      "from": "0x03773f85756acac65a869e89e3b7b2fcda6be140",
      "to": "0x54764680b3863a1b72c376ae92a3cce65c4dde69",
      "contractAddress": null,
      "l1BaseFeeScalar": "0x44d",
      "l1BlobBaseFee": "0x25aa2502a52",
      "l1BlobBaseFeeScalar": "0xa118b",
      "l1Fee": "0x9b724554e591",
      "l1GasPrice": "0x10b1050284",
      "l1GasUsed": "0x640"
    },
    {
      "status": "0x1",
      "cumulativeGasUsed": "0x3b83e7",
      "logs": [
        {
          "address": "0x54764680b3863a1b72c376ae92a3cce65c4dde69",
          "topics": [
            "0x238399d427b947898edb290f5ff0f9109849b1c3ba196a42e35f00c50a54b98b"
          ],
          "data": "0x0000000000000000000000000000000000000000000000000000000000009d33000000000000000000000000472cf1b83213ded59db4fc643532d07450d8f40b",
          "blockHash": "0x7eb3c4ca5bba01ccace1cdefa0c7a4fa3e8ae554666d54da8a14c9306091ce7b",
          "blockNumber": "0xe1a8f0",
          "transactionHash": "0x9cd20ccad77eaa1a97123aec345296b540ee0811b2bceb225d158e870682be0b",
          "transactionIndex": "0x7",
          "logIndex": "0x5b",
          "removed": false
        }
      ],
      "logsBloom": "0x00000000000000000000000080000000000000000000000000000000000000000000000000000000000000000000000000000000000000000800000000000000000000000000000000000000000000000000000000000000000000000000000000000000000000000000000000000000000000000000000000000000000000000000000000000000000000000000000000000000000000000000000000100000000000000000000000000000000000000000000000000000000002000000000000000000000000000000000000000000000000000000000200040000000000000000000000000000000000000000000000000000000000000000000000000000",
      "type": "0x2",
      "transactionHash": "0x9cd20ccad77eaa1a97123aec345296b540ee0811b2bceb225d158e870682be0b",
      "transactionIndex": "0x7",
      "blockHash": "0x7eb3c4ca5bba01ccace1cdefa0c7a4fa3e8ae554666d54da8a14c9306091ce7b",
      "blockNumber": "0xe1a8f0",
      "gasUsed": "0xba53",
      "effectiveGasPrice": "0x10cab0",
      "from": "0x03773f85756acac65a869e89e3b7b2fcda6be140",
      "to": "0x54764680b3863a1b72c376ae92a3cce65c4dde69",
      "contractAddress": null,
      "l1BaseFeeScalar": "0x44d",
      "l1BlobBaseFee": "0x25aa2502a52",
      "l1BlobBaseFeeScalar": "0xa118b",
      "l1Fee": "0x9b724554e591",
      "l1GasPrice": "0x10b1050284",
      "l1GasUsed": "0x640"
    }
  ],
  "libraries": [],
  "pending": [],
  "returns": {},
  "timestamp": 1725345991,
  "chain": 84532,
  "commit": "5cf640c"
}