{
  "transactions": [
    {
      "hash": "0xef4bc283b91ab00b5a10559f4e4fb4992dda4ee30a2612c93aef5ef31ca3c2bd",
      "transactionType": "CALL",
      "contractName": null,
      "contractAddress": "0xbfa2901f914a6a4f005d85181349f50a4981a776",
      "function": "poolWithdraw(uint256,address)",
      "arguments": [
        "489220133008137683",
        "0x6d5ecc0aa8DcE64045b1053A2480D82A61Ad86Bc"
      ],
      "transaction": {
        "from": "0xe0d6f93151091f24ea09474e9271bd60f2624d99",
        "to": "0xbfa2901f914a6a4f005d85181349f50a4981a776",
        "gas": "0x188d4",
        "value": "0x0",
        "input": "0x5b1ca16800000000000000000000000000000000000000000000000006ca0f1e74eb5dd30000000000000000000000006d5ecc0aa8dce64045b1053a2480d82a61ad86bc",
        "nonce": "0x5b",
        "chainId": "0x66eee"
      },
      "additionalContracts": [],
      "isFixedGasLimit": false
    }
  ],
  "receipts": [
    {
      "status": "0x1",
      "cumulativeGasUsed": "0x10153",
      "logs": [
        {
          "address": "0x980b62da83eff3d4576c647993b0c1d7faf17c73",
          "topics": [
            "0xddf252ad1be2c89b69c2b068fc378daa952ba7f163c4a11628f55a4df523b3ef",
            "0x000000000000000000000000bfa2901f914a6a4f005d85181349f50a4981a776",
            "0x0000000000000000000000000000000000000000000000000000000000000000"
          ],
          "data": "0x00000000000000000000000000000000000000000000000006ca0f1e74eb5dd3",
          "blockHash": "0xd830bae38ef60096da68056a7499d1df5ab42dc2f7021f32107c63bcec39d348",
          "blockNumber": "0x491ead5",
          "transactionHash": "0xef4bc283b91ab00b5a10559f4e4fb4992dda4ee30a2612c93aef5ef31ca3c2bd",
          "transactionIndex": "0x1",
          "logIndex": "0x0",
          "removed": false
        },
        {
          "address": "0xbfa2901f914a6a4f005d85181349f50a4981a776",
          "topics": [
            "0x6f07e6169c1653554eb707b6f6cd8f7ccf9cc29e54a0d8a71d9d5867d2057ac2",
            "0x0000000000000000000000006d5ecc0aa8dce64045b1053a2480d82a61ad86bc"
          ],
          "data": "0x00000000000000000000000000000000000000000000000006ca0f1e74eb5dd3",
          "blockHash": "0xd830bae38ef60096da68056a7499d1df5ab42dc2f7021f32107c63bcec39d348",
          "blockNumber": "0x491ead5",
          "transactionHash": "0xef4bc283b91ab00b5a10559f4e4fb4992dda4ee30a2612c93aef5ef31ca3c2bd",
          "transactionIndex": "0x1",
          "logIndex": "0x1",
          "removed": false
        }
      ],
      "logsBloom": "0x00000000000000000000000000020010000000000000000000000802000000040000080000000000000000000000000000000008000000000002000000000000000040010000000000000008100000000000000000000000000000000000000000000000020000000000000000000800000000000000000000000010000000000000000000000000000000000000000000000000000000000000000000000000000000000000000000000000000000000000000000000000000000008000000000000002400000004000000000000000000000000000000000000000000020000000000000004000000000000000000000000000000000000000000000000000",
      "type": "0x2",
      "transactionHash": "0xef4bc283b91ab00b5a10559f4e4fb4992dda4ee30a2612c93aef5ef31ca3c2bd",
      "transactionIndex": "0x1",
      "blockHash": "0xd830bae38ef60096da68056a7499d1df5ab42dc2f7021f32107c63bcec39d348",
      "blockNumber": "0x491ead5",
      "gasUsed": "0x10153",
      "effectiveGasPrice": "0x5f5e100",
      "from": "0xe0d6f93151091f24ea09474e9271bd60f2624d99",
      "to": "0xbfa2901f914a6a4f005d85181349f50a4981a776",
      "contractAddress": null,
      "gasUsedForL1": "0x13a1",
      "l1BlockNumber": "0x650d3a"
    }
  ],
  "libraries": [],
  "pending": [],
  "returns": {},
  "timestamp": 1725329985,
  "chain": 421614,
  "commit": "5cf640c"
}