{
  "transactions": [
    {
      "hash": "0xeb2f30432f140aefc33864b17d98eaec85bbe1d473bf1e9bddb8826f0d2f2192",
      "transactionType": "CALL",
      "contractName": null,
      "contractAddress": "0x9c2e3e224f0f5bfab7b3c454f0b4357d424ef030",
      "function": "approveChain(uint256)",
      "arguments": [
        "40231"
      ],
      "transaction": {
        "from": "0x03773f85756acac65a869e89e3b7b2fcda6be140",
        "to": "0x9c2e3e224f0f5bfab7b3c454f0b4357d424ef030",
        "gas": "0x65884",
        "value": "0x0",
        "input": "0xeb87840d0000000000000000000000000000000000000000000000000000000000009d27",
        "nonce": "0x1d",
        "chainId": "0x66eee"
      },
      "additionalContracts": [],
      "isFixedGasLimit": false
    },
    {
      "hash": "0xfe1bdfc53d632fefda3a65d75067108c3493e00384770e2580f2e18cbcd02b38",
      "transactionType": "CALL",
      "contractName": null,
      "contractAddress": "0x9c2e3e224f0f5bfab7b3c454f0b4357d424ef030",
      "function": "approveChain(uint256)",
      "arguments": [
        "40161"
      ],
      "transaction": {
        "from": "0x03773f85756acac65a869e89e3b7b2fcda6be140",
        "to": "0x9c2e3e224f0f5bfab7b3c454f0b4357d424ef030",
        "gas": "0x65884",
        "value": "0x0",
        "input": "0xeb87840d0000000000000000000000000000000000000000000000000000000000009ce1",
        "nonce": "0x1e",
        "chainId": "0x66eee"
      },
      "additionalContracts": [],
      "isFixedGasLimit": false
    },
    {
      "hash": "0x3158fbbde4b4af1afc1f79e645f1abcb3b23415daeca37d26b6599d084704dd4",
      "transactionType": "CALL",
      "contractName": null,
      "contractAddress": "0x9c2e3e224f0f5bfab7b3c454f0b4357d424ef030",
      "function": "approveChain(uint256)",
      "arguments": [
        "40232"
      ],
      "transaction": {
        "from": "0x03773f85756acac65a869e89e3b7b2fcda6be140",
        "to": "0x9c2e3e224f0f5bfab7b3c454f0b4357d424ef030",
        "gas": "0x65884",
        "value": "0x0",
        "input": "0xeb87840d0000000000000000000000000000000000000000000000000000000000009d28",
        "nonce": "0x1f",
        "chainId": "0x66eee"
      },
      "additionalContracts": [],
      "isFixedGasLimit": false
    },
    {
      "hash": "0xc02edb8e71dc249d0a97c535f44150313d4ed7c5febb03323b9b0a1b5ccd31c0",
      "transactionType": "CALL",
      "contractName": null,
      "contractAddress": "0x9c2e3e224f0f5bfab7b3c454f0b4357d424ef030",
      "function": "approveChain(uint256)",
      "arguments": [
        "40245"
      ],
      "transaction": {
        "from": "0x03773f85756acac65a869e89e3b7b2fcda6be140",
        "to": "0x9c2e3e224f0f5bfab7b3c454f0b4357d424ef030",
        "gas": "0x65884",
        "value": "0x0",
        "input": "0xeb87840d0000000000000000000000000000000000000000000000000000000000009d35",
        "nonce": "0x20",
        "chainId": "0x66eee"
      },
      "additionalContracts": [],
      "isFixedGasLimit": false
    },
    {
      "hash": "0xc70904e80e92736a5d36073ee2f1f2be2050063630022bdfddcfbc1cb3c4fb14",
      "transactionType": "CALL",
      "contractName": null,
      "contractAddress": "0x6d08b0aa7eecb491c61190418df9235d1b53fcd8",
      "function": "addSupportedToken(address)",
      "arguments": [
        "0x980B62Da83eFf3D4576C647993b0c1D7faf17c73"
      ],
      "transaction": {
        "from": "0x03773f85756acac65a869e89e3b7b2fcda6be140",
        "to": "0x6d08b0aa7eecb491c61190418df9235d1b53fcd8",
        "gas": "0x572a2",
        "value": "0x0",
        "input": "0x6d69fcaf000000000000000000000000980b62da83eff3d4576c647993b0c1d7faf17c73",
        "nonce": "0x21",
        "chainId": "0x66eee"
      },
      "additionalContracts": [],
      "isFixedGasLimit": false
    },
    {
      "hash": "0x8609bad450ce8563388334e2300b82b9e32d1ffef485d0996a18750cfd151077",
      "transactionType": "CALL",
      "contractName": null,
      "contractAddress": "0x6d08b0aa7eecb491c61190418df9235d1b53fcd8",
      "function": "addSupportedToken(address)",
      "arguments": [
        "0xDF52714C191e8C4EC26cCD5B1578a904724e93b6"
      ],
      "transaction": {
        "from": "0x03773f85756acac65a869e89e3b7b2fcda6be140",
        "to": "0x6d08b0aa7eecb491c61190418df9235d1b53fcd8",
        "gas": "0x572a2",
        "value": "0x0",
        "input": "0x6d69fcaf000000000000000000000000df52714c191e8c4ec26ccd5b1578a904724e93b6",
        "nonce": "0x22",
        "chainId": "0x66eee"
      },
      "additionalContracts": [],
      "isFixedGasLimit": false
    },
    {
      "hash": "0x31864c3c2e2a4de89ad51f78813727821d0ab95e20e9639f5259cd13172a624e",
      "transactionType": "CALL",
      "contractName": null,
      "contractAddress": "0x981830d1946e6fc9d5f893327a2819fd5e2c5819",
      "function": "setDepositContract(uint256,address)",
      "arguments": [
        "40231",
        "0x6D08b0aa7eeCb491c61190418df9235d1b53fcD8"
      ],
      "transaction": {
        "from": "0x03773f85756acac65a869e89e3b7b2fcda6be140",
        "to": "0x981830d1946e6fc9d5f893327a2819fd5e2c5819",
        "gas": "0x64230",
        "value": "0x0",
        "input": "0x06c77cb40000000000000000000000000000000000000000000000000000000000009d270000000000000000000000006d08b0aa7eecb491c61190418df9235d1b53fcd8",
        "nonce": "0x23",
        "chainId": "0x66eee"
      },
      "additionalContracts": [],
      "isFixedGasLimit": false
    },
    {
      "hash": "0x67e4ca3a3c89d735c521847d81477f5f3f0f30f370a88b05abfacaeade1fa84e",
      "transactionType": "CALL",
      "contractName": null,
      "contractAddress": "0x981830d1946e6fc9d5f893327a2819fd5e2c5819",
      "function": "setDepositContract(uint256,address)",
      "arguments": [
        "40161",
        "0x0cFbC9aaEF1fbCA9bbeF916aD4dABf0d6103451b"
      ],
      "transaction": {
        "from": "0x03773f85756acac65a869e89e3b7b2fcda6be140",
        "to": "0x981830d1946e6fc9d5f893327a2819fd5e2c5819",
        "gas": "0x64230",
        "value": "0x0",
        "input": "0x06c77cb40000000000000000000000000000000000000000000000000000000000009ce10000000000000000000000000cfbc9aaef1fbca9bbef916ad4dabf0d6103451b",
        "nonce": "0x24",
        "chainId": "0x66eee"
      },
      "additionalContracts": [],
      "isFixedGasLimit": false
    },
    {
      "hash": "0x381219e0aff61375a662c2d43081aade43e7595252e975094b76d53b017d7bc4",
      "transactionType": "CALL",
      "contractName": null,
      "contractAddress": "0x981830d1946e6fc9d5f893327a2819fd5e2c5819",
      "function": "setDepositContract(uint256,address)",
      "arguments": [
        "40232",
        "0xD76702b575bA815B2537F4f19Bc856B74536eC9B"
      ],
      "transaction": {
        "from": "0x03773f85756acac65a869e89e3b7b2fcda6be140",
        "to": "0x981830d1946e6fc9d5f893327a2819fd5e2c5819",
        "gas": "0x64230",
        "value": "0x0",
        "input": "0x06c77cb40000000000000000000000000000000000000000000000000000000000009d28000000000000000000000000d76702b575ba815b2537f4f19bc856b74536ec9b",
        "nonce": "0x25",
        "chainId": "0x66eee"
      },
      "additionalContracts": [],
      "isFixedGasLimit": false
    },
    {
      "hash": "0x1c95eba577855aacb11e11bfaade963d17d99425ba30999166df9f455a602a53",
      "transactionType": "CALL",
      "contractName": null,
      "contractAddress": "0x981830d1946e6fc9d5f893327a2819fd5e2c5819",
      "function": "setDepositContract(uint256,address)",
      "arguments": [
        "40245",
        "0x85a5A8AfF78df7097907952A366C6F86F3d4Aa10"
      ],
      "transaction": {
        "from": "0x03773f85756acac65a869e89e3b7b2fcda6be140",
        "to": "0x981830d1946e6fc9d5f893327a2819fd5e2c5819",
        "gas": "0x64230",
        "value": "0x0",
        "input": "0x06c77cb40000000000000000000000000000000000000000000000000000000000009d3500000000000000000000000085a5a8aff78df7097907952a366c6f86f3d4aa10",
        "nonce": "0x26",
        "chainId": "0x66eee"
      },
      "additionalContracts": [],
      "isFixedGasLimit": false
    },
    {
      "hash": "0xaaf2a581d578a3138abf6f320d1ed6c70b543c54d7ba3833276165cdc6942c2e",
      "transactionType": "CALL",
      "contractName": null,
      "contractAddress": "0x981830d1946e6fc9d5f893327a2819fd5e2c5819",
      "function": "setPeer(uint32,bytes32)",
      "arguments": [
        "40161",
        "0x0000000000000000000000000cfbc9aaef1fbca9bbef916ad4dabf0d6103451b"
      ],
      "transaction": {
        "from": "0x03773f85756acac65a869e89e3b7b2fcda6be140",
        "to": "0x981830d1946e6fc9d5f893327a2819fd5e2c5819",
        "gas": "0x647e9",
        "value": "0x0",
        "input": "0x3400288b0000000000000000000000000000000000000000000000000000000000009ce10000000000000000000000000cfbc9aaef1fbca9bbef916ad4dabf0d6103451b",
        "nonce": "0x27",
        "chainId": "0x66eee"
      },
      "additionalContracts": [],
      "isFixedGasLimit": false
    },
    {
      "hash": "0xa46da56330644d7a4ed413bdec220a686f0d462831ad639eb729935d9c8baf4e",
      "transactionType": "CALL",
      "contractName": null,
      "contractAddress": "0x981830d1946e6fc9d5f893327a2819fd5e2c5819",
      "function": "setPeer(uint32,bytes32)",
      "arguments": [
        "40232",
        "0x000000000000000000000000d76702b575ba815b2537f4f19bc856b74536ec9b"
      ],
      "transaction": {
        "from": "0x03773f85756acac65a869e89e3b7b2fcda6be140",
        "to": "0x981830d1946e6fc9d5f893327a2819fd5e2c5819",
        "gas": "0x647e9",
        "value": "0x0",
        "input": "0x3400288b0000000000000000000000000000000000000000000000000000000000009d28000000000000000000000000d76702b575ba815b2537f4f19bc856b74536ec9b",
        "nonce": "0x28",
        "chainId": "0x66eee"
      },
      "additionalContracts": [],
      "isFixedGasLimit": false
    },
    {
      "hash": "0x31e2bab1c3bc6b01dfb0ccfda0692f1617ca3b170c164649d9b7ba1b4ec9bf27",
      "transactionType": "CALL",
      "contractName": null,
      "contractAddress": "0x981830d1946e6fc9d5f893327a2819fd5e2c5819",
      "function": "setPeer(uint32,bytes32)",
      "arguments": [
        "40245",
        "0x00000000000000000000000085a5a8aff78df7097907952a366c6f86f3d4aa10"
      ],
      "transaction": {
        "from": "0x03773f85756acac65a869e89e3b7b2fcda6be140",
        "to": "0x981830d1946e6fc9d5f893327a2819fd5e2c5819",
        "gas": "0x647e9",
        "value": "0x0",
        "input": "0x3400288b0000000000000000000000000000000000000000000000000000000000009d3500000000000000000000000085a5a8aff78df7097907952a366c6f86f3d4aa10",
        "nonce": "0x29",
        "chainId": "0x66eee"
      },
      "additionalContracts": [],
      "isFixedGasLimit": false
    }
  ],
  "receipts": [
    {
      "status": "0x1",
      "cumulativeGasUsed": "0x3fbd4",
      "logs": [
        {
          "address": "0x9c2e3e224f0f5bfab7b3c454f0b4357d424ef030",
          "topics": [
            "0xbba9d55e9fd1a441b1617724e2fdb76777d15ec77ab2b72ac15952cbe97085db"
          ],
          "data": "0x0000000000000000000000000000000000000000000000000000000000009d27",
          "blockHash": "0xcd70cc7e5347131028f846d580fd387bfdcb3bc107a2f57f8c07c352a155aa09",
          "blockNumber": "0x4049fd4",
          "transactionHash": "0xeb2f30432f140aefc33864b17d98eaec85bbe1d473bf1e9bddb8826f0d2f2192",
          "transactionIndex": "0x1",
          "logIndex": "0x0",
          "removed": false
        },
        {
          "address": "0x9c2e3e224f0f5bfab7b3c454f0b4357d424ef030",
          "topics": [
            "0xe012bf0e1630512126bccbc050ebf66c62af3753e3cd64d533ddf97f65f621c8"
          ],
          "data": "0x0000000000000000000000000000000000000000000000000000000000009d27",
          "blockHash": "0xcd70cc7e5347131028f846d580fd387bfdcb3bc107a2f57f8c07c352a155aa09",
          "blockNumber": "0x4049fd4",
          "transactionHash": "0xeb2f30432f140aefc33864b17d98eaec85bbe1d473bf1e9bddb8826f0d2f2192",
          "transactionIndex": "0x1",
          "logIndex": "0x1",
          "removed": false
        }
      ],
      "logsBloom": "0x02000000000000000000000000000000000008000000000000000000000000000000000000000000000000000000000000000000000000000000000000000000000000000000000000000000004010000000000000000000000000000000000000000000000000000000000000000000000000000000000000000000000000000000000000000000000000000000000000000000000000000000000000000000000000000000000000000000000010000000200000000000000000000000000000000000000000000000000000000000000000000000000000000000000000000000000000000000020000000000000000000000000000000000000800000080",
      "type": "0x2",
      "transactionHash": "0xeb2f30432f140aefc33864b17d98eaec85bbe1d473bf1e9bddb8826f0d2f2192",
      "transactionIndex": "0x1",
      "blockHash": "0xcd70cc7e5347131028f846d580fd387bfdcb3bc107a2f57f8c07c352a155aa09",
      "blockNumber": "0x4049fd4",
      "gasUsed": "0x3fbd4",
      "effectiveGasPrice": "0x5f5e100",
      "from": "0x03773f85756acac65a869e89e3b7b2fcda6be140",
      "to": "0x9c2e3e224f0f5bfab7b3c454f0b4357d424ef030",
      "contractAddress": null,
      "gasUsedForL1": "0x292cf",
      "l1BlockNumber": "0x619cfb"
    },
    {
      "status": "0x1",
      "cumulativeGasUsed": "0x3c296",
      "logs": [
        {
          "address": "0x9c2e3e224f0f5bfab7b3c454f0b4357d424ef030",
          "topics": [
            "0xbba9d55e9fd1a441b1617724e2fdb76777d15ec77ab2b72ac15952cbe97085db"
          ],
          "data": "0x0000000000000000000000000000000000000000000000000000000000009ce1",
          "blockHash": "0xaa6b82b5c8744d98abb71a056b99fb33aafddf2da407b933cf769ade820bbbce",
          "blockNumber": "0x4049fdd",
          "transactionHash": "0xfe1bdfc53d632fefda3a65d75067108c3493e00384770e2580f2e18cbcd02b38",
          "transactionIndex": "0x1",
          "logIndex": "0x0",
          "removed": false
        },
        {
          "address": "0x9c2e3e224f0f5bfab7b3c454f0b4357d424ef030",
          "topics": [
            "0xe012bf0e1630512126bccbc050ebf66c62af3753e3cd64d533ddf97f65f621c8"
          ],
          "data": "0x0000000000000000000000000000000000000000000000000000000000009ce1",
          "blockHash": "0xaa6b82b5c8744d98abb71a056b99fb33aafddf2da407b933cf769ade820bbbce",
          "blockNumber": "0x4049fdd",
          "transactionHash": "0xfe1bdfc53d632fefda3a65d75067108c3493e00384770e2580f2e18cbcd02b38",
          "transactionIndex": "0x1",
          "logIndex": "0x1",
          "removed": false
        }
      ],
      "logsBloom": "0x02000000000000000000000000000000000008000000000000000000000000000000000000000000000000000000000000000000000000000000000000000000000000000000000000000000004010000000000000000000000000000000000000000000000000000000000000000000000000000000000000000000000000000000000000000000000000000000000000000000000000000000000000000000000000000000000000000000000010000000200000000000000000000000000000000000000000000000000000000000000000000000000000000000000000000000000000000000020000000000000000000000000000000000000800000080",
      "type": "0x2",
      "transactionHash": "0xfe1bdfc53d632fefda3a65d75067108c3493e00384770e2580f2e18cbcd02b38",
      "transactionIndex": "0x1",
      "blockHash": "0xaa6b82b5c8744d98abb71a056b99fb33aafddf2da407b933cf769ade820bbbce",
      "blockNumber": "0x4049fdd",
      "gasUsed": "0x3c296",
      "effectiveGasPrice": "0x5f5e100",
      "from": "0x03773f85756acac65a869e89e3b7b2fcda6be140",
      "to": "0x9c2e3e224f0f5bfab7b3c454f0b4357d424ef030",
      "contractAddress": null,
      "gasUsedForL1": "0x292cf",
      "l1BlockNumber": "0x619cfb"
    },
    {
      "status": "0x1",
      "cumulativeGasUsed": "0x1cb7a0",
      "logs": [
        {
          "address": "0x9c2e3e224f0f5bfab7b3c454f0b4357d424ef030",
          "topics": [
            "0xbba9d55e9fd1a441b1617724e2fdb76777d15ec77ab2b72ac15952cbe97085db"
          ],
          "data": "0x0000000000000000000000000000000000000000000000000000000000009d28",
          "blockHash": "0xf9b24e658ff2ed9df08849a73d4d32b2de4b1616b1de04ef5174f3575d0855f6",
          "blockNumber": "0x4049fe2",
          "transactionHash": "0x3158fbbde4b4af1afc1f79e645f1abcb3b23415daeca37d26b6599d084704dd4",
          "transactionIndex": "0x3",
          "logIndex": "0x6",
          "removed": false
        },
        {
          "address": "0x9c2e3e224f0f5bfab7b3c454f0b4357d424ef030",
          "topics": [
            "0xe012bf0e1630512126bccbc050ebf66c62af3753e3cd64d533ddf97f65f621c8"
          ],
          "data": "0x0000000000000000000000000000000000000000000000000000000000009d28",
          "blockHash": "0xf9b24e658ff2ed9df08849a73d4d32b2de4b1616b1de04ef5174f3575d0855f6",
          "blockNumber": "0x4049fe2",
          "transactionHash": "0x3158fbbde4b4af1afc1f79e645f1abcb3b23415daeca37d26b6599d084704dd4",
          "transactionIndex": "0x3",
          "logIndex": "0x7",
          "removed": false
        }
      ],
      "logsBloom": "0x02000000000000000000000000000000000008000000000000000000000000000000000000000000000000000000000000000000000000000000000000000000000000000000000000000000004010000000000000000000000000000000000000000000000000000000000000000000000000000000000000000000000000000000000000000000000000000000000000000000000000000000000000000000000000000000000000000000000010000000200000000000000000000000000000000000000000000000000000000000000000000000000000000000000000000000000000000000020000000000000000000000000000000000000800000080",
      "type": "0x2",
      "transactionHash": "0x3158fbbde4b4af1afc1f79e645f1abcb3b23415daeca37d26b6599d084704dd4",
      "transactionIndex": "0x3",
      "blockHash": "0xf9b24e658ff2ed9df08849a73d4d32b2de4b1616b1de04ef5174f3575d0855f6",
      "blockNumber": "0x4049fe2",
      "gasUsed": "0x3cc24",
      "effectiveGasPrice": "0x5f5e100",
      "from": "0x03773f85756acac65a869e89e3b7b2fcda6be140",
      "to": "0x9c2e3e224f0f5bfab7b3c454f0b4357d424ef030",
      "contractAddress": null,
      "gasUsedForL1": "0x292cf",
      "l1BlockNumber": "0x619cfc"
    },
    {
      "status": "0x1",
      "cumulativeGasUsed": "0x1149c8",
      "logs": [
        {
          "address": "0x9c2e3e224f0f5bfab7b3c454f0b4357d424ef030",
          "topics": [
            "0xbba9d55e9fd1a441b1617724e2fdb76777d15ec77ab2b72ac15952cbe97085db"
          ],
          "data": "0x0000000000000000000000000000000000000000000000000000000000009d35",
          "blockHash": "0x489f841cfe77c0edc852f75f24d21c45fa704be13b08ee69ca85933cf3b6c63c",
          "blockNumber": "0x4049fe7",
          "transactionHash": "0xc02edb8e71dc249d0a97c535f44150313d4ed7c5febb03323b9b0a1b5ccd31c0",
          "transactionIndex": "0x2",
          "logIndex": "0x6",
          "removed": false
        },
        {
          "address": "0x9c2e3e224f0f5bfab7b3c454f0b4357d424ef030",
          "topics": [
            "0xe012bf0e1630512126bccbc050ebf66c62af3753e3cd64d533ddf97f65f621c8"
          ],
          "data": "0x0000000000000000000000000000000000000000000000000000000000009d35",
          "blockHash": "0x489f841cfe77c0edc852f75f24d21c45fa704be13b08ee69ca85933cf3b6c63c",
          "blockNumber": "0x4049fe7",
          "transactionHash": "0xc02edb8e71dc249d0a97c535f44150313d4ed7c5febb03323b9b0a1b5ccd31c0",
          "transactionIndex": "0x2",
          "logIndex": "0x7",
          "removed": false
        }
      ],
      "logsBloom": "0x02000000000000000000000000000000000008000000000000000000000000000000000000000000000000000000000000000000000000000000000000000000000000000000000000000000004010000000000000000000000000000000000000000000000000000000000000000000000000000000000000000000000000000000000000000000000000000000000000000000000000000000000000000000000000000000000000000000000010000000200000000000000000000000000000000000000000000000000000000000000000000000000000000000000000000000000000000000020000000000000000000000000000000000000800000080",
      "type": "0x2",
      "transactionHash": "0xc02edb8e71dc249d0a97c535f44150313d4ed7c5febb03323b9b0a1b5ccd31c0",
      "transactionIndex": "0x2",
      "blockHash": "0x489f841cfe77c0edc852f75f24d21c45fa704be13b08ee69ca85933cf3b6c63c",
      "blockNumber": "0x4049fe7",
      "gasUsed": "0x3d5b2",
      "effectiveGasPrice": "0x5f5e100",
      "from": "0x03773f85756acac65a869e89e3b7b2fcda6be140",
      "to": "0x9c2e3e224f0f5bfab7b3c454f0b4357d424ef030",
      "contractAddress": null,
      "gasUsedForL1": "0x292cf",
      "l1BlockNumber": "0x619cfc"
    },
    {
      "status": "0x1",
      "cumulativeGasUsed": "0x34c63",
      "logs": [
        {
          "address": "0x6d08b0aa7eecb491c61190418df9235d1b53fcd8",
          "topics": [
            "0x784c8f4dbf0ffedd6e72c76501c545a70f8b203b30a26ce542bf92ba87c248a4"
          ],
          "data": "0x000000000000000000000000980b62da83eff3d4576c647993b0c1d7faf17c73",
          "blockHash": "0x96131cfc911e2fb7106869ae1ec96d54287bf42c84ac4c819aca88711bc78b87",
          "blockNumber": "0x4049fed",
          "transactionHash": "0xc70904e80e92736a5d36073ee2f1f2be2050063630022bdfddcfbc1cb3c4fb14",
          "transactionIndex": "0x1",
          "logIndex": "0x0",
          "removed": false
        }
      ],
      "logsBloom": "0x00000000000000000000000000000000000000000000000000000000000000000000000000000000000000000000000000000400000000040000000000000000000000000000000000000000000000000000000000040000000000000000000000000000000000000000000000000000000000000000200000000000000000000000000000000000000000000000000000000000000000000000000000000000000000000000000000200000000000000000000000000000000000000000000000000000000000000000000000000000000000000000000000000000000000000000000000000000000000000000000000000000000000001000000000000000",
      "type": "0x2",
      "transactionHash": "0xc70904e80e92736a5d36073ee2f1f2be2050063630022bdfddcfbc1cb3c4fb14",
      "transactionIndex": "0x1",
      "blockHash": "0x96131cfc911e2fb7106869ae1ec96d54287bf42c84ac4c819aca88711bc78b87",
      "blockNumber": "0x4049fed",
      "gasUsed": "0x34c63",
      "effectiveGasPrice": "0x5f5e100",
      "from": "0x03773f85756acac65a869e89e3b7b2fcda6be140",
      "to": "0x6d08b0aa7eecb491c61190418df9235d1b53fcd8",
      "contractAddress": null,
      "gasUsedForL1": "0x292cf",
      "l1BlockNumber": "0x619cfc"
    },
    {
      "status": "0x1",
      "cumulativeGasUsed": "0x34c63",
      "logs": [
        {
          "address": "0x6d08b0aa7eecb491c61190418df9235d1b53fcd8",
          "topics": [
            "0x784c8f4dbf0ffedd6e72c76501c545a70f8b203b30a26ce542bf92ba87c248a4"
          ],
          "data": "0x000000000000000000000000df52714c191e8c4ec26ccd5b1578a904724e93b6",
          "blockHash": "0x4647111b07c663c26bf26f3ee901892ccb5b57193a60f8b157fb525417d90fc8",
          "blockNumber": "0x4049ff2",
          "transactionHash": "0x8609bad450ce8563388334e2300b82b9e32d1ffef485d0996a18750cfd151077",
          "transactionIndex": "0x1",
          "logIndex": "0x0",
          "removed": false
        }
      ],
      "logsBloom": "0x00000000000000000000000000000000000000000000000000000000000000000000000000000000000000000000000000000400000000040000000000000000000000000000000000000000000000000000000000040000000000000000000000000000000000000000000000000000000000000000200000000000000000000000000000000000000000000000000000000000000000000000000000000000000000000000000000200000000000000000000000000000000000000000000000000000000000000000000000000000000000000000000000000000000000000000000000000000000000000000000000000000000000001000000000000000",
      "type": "0x2",
      "transactionHash": "0x8609bad450ce8563388334e2300b82b9e32d1ffef485d0996a18750cfd151077",
      "transactionIndex": "0x1",
      "blockHash": "0x4647111b07c663c26bf26f3ee901892ccb5b57193a60f8b157fb525417d90fc8",
      "blockNumber": "0x4049ff2",
      "gasUsed": "0x34c63",
      "effectiveGasPrice": "0x5f5e100",
      "from": "0x03773f85756acac65a869e89e3b7b2fcda6be140",
      "to": "0x6d08b0aa7eecb491c61190418df9235d1b53fcd8",
      "contractAddress": null,
      "gasUsedForL1": "0x292cf",
      "l1BlockNumber": "0x619cfc"
    },
    {
      "status": "0x1",
      "cumulativeGasUsed": "0x3daad",
      "logs": [],
      "logsBloom": "0x00000000000000000000000000000000000000000000000000000000000000000000000000000000000000000000000000000000000000000000000000000000000000000000000000000000000000000000000000000000000000000000000000000000000000000000000000000000000000000000000000000000000000000000000000000000000000000000000000000000000000000000000000000000000000000000000000000000000000000000000000000000000000000000000000000000000000000000000000000000000000000000000000000000000000000000000000000000000000000000000000000000000000000000000000000000",
      "type": "0x2",
      "transactionHash": "0x31864c3c2e2a4de89ad51f78813727821d0ab95e20e9639f5259cd13172a624e",
      "transactionIndex": "0x1",
      "blockHash": "0xc6ec692726538e13713fa1856ce9263411c8303064e6cabfb20000bd01544c4a",
      "blockNumber": "0x4049ff8",
      "gasUsed": "0x3daad",
      "effectiveGasPrice": "0x5f5e100",
      "from": "0x03773f85756acac65a869e89e3b7b2fcda6be140",
      "to": "0x981830d1946e6fc9d5f893327a2819fd5e2c5819",
      "contractAddress": null,
      "gasUsedForL1": "0x324b8",
      "l1BlockNumber": "0x619cfc"
    },
    {
      "status": "0x1",
      "cumulativeGasUsed": "0x7e9a2",
      "logs": [],
      "logsBloom": "0x00000000000000000000000000000000000000000000000000000000000000000000000000000000000000000000000000000000000000000000000000000000000000000000000000000000000000000000000000000000000000000000000000000000000000000000000000000000000000000000000000000000000000000000000000000000000000000000000000000000000000000000000000000000000000000000000000000000000000000000000000000000000000000000000000000000000000000000000000000000000000000000000000000000000000000000000000000000000000000000000000000000000000000000000000000000",
      "type": "0x2",
      "transactionHash": "0x67e4ca3a3c89d735c521847d81477f5f3f0f30f370a88b05abfacaeade1fa84e",
      "transactionIndex": "0x2",
      "blockHash": "0x45b4076246203c75beb55d2da9716340b13e8a49be6017d99e4b01786c0feed5",
      "blockNumber": "0x4049ffd",
      "gasUsed": "0x3daad",
      "effectiveGasPrice": "0x5f5e100",
      "from": "0x03773f85756acac65a869e89e3b7b2fcda6be140",
      "to": "0x981830d1946e6fc9d5f893327a2819fd5e2c5819",
      "contractAddress": null,
      "gasUsedForL1": "0x324b8",
      "l1BlockNumber": "0x619cfc"
    },
    {
      "status": "0x1",
      "cumulativeGasUsed": "0x3daad",
      "logs": [],
      "logsBloom": "0x00000000000000000000000000000000000000000000000000000000000000000000000000000000000000000000000000000000000000000000000000000000000000000000000000000000000000000000000000000000000000000000000000000000000000000000000000000000000000000000000000000000000000000000000000000000000000000000000000000000000000000000000000000000000000000000000000000000000000000000000000000000000000000000000000000000000000000000000000000000000000000000000000000000000000000000000000000000000000000000000000000000000000000000000000000000",
      "type": "0x2",
      "transactionHash": "0x381219e0aff61375a662c2d43081aade43e7595252e975094b76d53b017d7bc4",
      "transactionIndex": "0x1",
      "blockHash": "0xbe4740e07ad59a979825686da85932660d8cd467592efa786d4b68bc929cc914",
      "blockNumber": "0x404a001",
      "gasUsed": "0x3daad",
      "effectiveGasPrice": "0x5f5e100",
      "from": "0x03773f85756acac65a869e89e3b7b2fcda6be140",
      "to": "0x981830d1946e6fc9d5f893327a2819fd5e2c5819",
      "contractAddress": null,
      "gasUsedForL1": "0x324b8",
      "l1BlockNumber": "0x619cfc"
    },
    {
      "status": "0x1",
      "cumulativeGasUsed": "0xb5145",
      "logs": [],
      "logsBloom": "0x00000000000000000000000000000000000000000000000000000000000000000000000000000000000000000000000000000000000000000000000000000000000000000000000000000000000000000000000000000000000000000000000000000000000000000000000000000000000000000000000000000000000000000000000000000000000000000000000000000000000000000000000000000000000000000000000000000000000000000000000000000000000000000000000000000000000000000000000000000000000000000000000000000000000000000000000000000000000000000000000000000000000000000000000000000000",
      "type": "0x2",
      "transactionHash": "0x1c95eba577855aacb11e11bfaade963d17d99425ba30999166df9f455a602a53",
      "transactionIndex": "0x2",
      "blockHash": "0x287ce992326aa07053cfe24bf8d038df1b61ea3f2339daeef1e4ca79d82b23d2",
      "blockNumber": "0x404a00b",
      "gasUsed": "0x3daad",
      "effectiveGasPrice": "0x5f5e100",
      "from": "0x03773f85756acac65a869e89e3b7b2fcda6be140",
      "to": "0x981830d1946e6fc9d5f893327a2819fd5e2c5819",
      "contractAddress": null,
      "gasUsedForL1": "0x324b8",
      "l1BlockNumber": "0x619cfc"
    },
    {
      "status": "0x1",
      "cumulativeGasUsed": "0x3df0b",
      "logs": [
        {
          "address": "0x981830d1946e6fc9d5f893327a2819fd5e2c5819",
          "topics": [
            "0x238399d427b947898edb290f5ff0f9109849b1c3ba196a42e35f00c50a54b98b"
          ],
          "data": "0x0000000000000000000000000000000000000000000000000000000000009ce10000000000000000000000000cfbc9aaef1fbca9bbef916ad4dabf0d6103451b",
          "blockHash": "0x1f2992855fb942007b64fbfd2234687449be429b8c16acb2a5b61da2126df8b1",
          "blockNumber": "0x404a011",
          "transactionHash": "0xaaf2a581d578a3138abf6f320d1ed6c70b543c54d7ba3833276165cdc6942c2e",
          "transactionIndex": "0x1",
          "logIndex": "0x0",
          "removed": false
        }
      ],
      "logsBloom": "0x00000000000000000000000000000000000000000000000000000000000000000000000000000000000000000000000000000000000000000800000000000000000000000000000000000000000000000000000000000000000000000000000000000000004000000000000000000000000000000000000000000000000000000000000000000000000000000000000000000000000000000000000002000000000000000000000000000000000000000000000000000000000002000000000000000000000000000000000000000000000000000000000000840000000000000000000000000000000000000000000000000000000000000000000000000000",
      "type": "0x2",
      "transactionHash": "0xaaf2a581d578a3138abf6f320d1ed6c70b543c54d7ba3833276165cdc6942c2e",
      "transactionIndex": "0x1",
      "blockHash": "0x1f2992855fb942007b64fbfd2234687449be429b8c16acb2a5b61da2126df8b1",
      "blockNumber": "0x404a011",
      "gasUsed": "0x3df0b",
      "effectiveGasPrice": "0x5f5e100",
      "from": "0x03773f85756acac65a869e89e3b7b2fcda6be140",
      "to": "0x981830d1946e6fc9d5f893327a2819fd5e2c5819",
      "contractAddress": null,
      "gasUsedForL1": "0x324b8",
      "l1BlockNumber": "0x619cfc"
    },
    {
      "status": "0x1",
      "cumulativeGasUsed": "0x3df0b",
      "logs": [
        {
          "address": "0x981830d1946e6fc9d5f893327a2819fd5e2c5819",
          "topics": [
            "0x238399d427b947898edb290f5ff0f9109849b1c3ba196a42e35f00c50a54b98b"
          ],
          "data": "0x0000000000000000000000000000000000000000000000000000000000009d28000000000000000000000000d76702b575ba815b2537f4f19bc856b74536ec9b",
          "blockHash": "0x98b30452e016155ae47509ee5bd225a26ee5703d5907fc0b0e64d6f1cc8c7d92",
          "blockNumber": "0x404a016",
          "transactionHash": "0xa46da56330644d7a4ed413bdec220a686f0d462831ad639eb729935d9c8baf4e",
          "transactionIndex": "0x1",
          "logIndex": "0x0",
          "removed": false
        }
      ],
      "logsBloom": "0x00000000000000000000000000000000000000000000000000000000000000000000000000000000000000000000000000000000000000000800000000000000000000000000000000000000000000000000000000000000000000000000000000000000004000000000000000000000000000000000000000000000000000000000000000000000000000000000000000000000000000000000000002000000000000000000000000000000000000000000000000000000000002000000000000000000000000000000000000000000000000000000000000840000000000000000000000000000000000000000000000000000000000000000000000000000",
      "type": "0x2",
      "transactionHash": "0xa46da56330644d7a4ed413bdec220a686f0d462831ad639eb729935d9c8baf4e",
      "transactionIndex": "0x1",
      "blockHash": "0x98b30452e016155ae47509ee5bd225a26ee5703d5907fc0b0e64d6f1cc8c7d92",
      "blockNumber": "0x404a016",
      "gasUsed": "0x3df0b",
      "effectiveGasPrice": "0x5f5e100",
      "from": "0x03773f85756acac65a869e89e3b7b2fcda6be140",
      "to": "0x981830d1946e6fc9d5f893327a2819fd5e2c5819",
      "contractAddress": null,
      "gasUsedForL1": "0x324b8",
      "l1BlockNumber": "0x619cfc"
    },
    {
      "status": "0x1",
      "cumulativeGasUsed": "0x3df0b",
      "logs": [
        {
          "address": "0x981830d1946e6fc9d5f893327a2819fd5e2c5819",
          "topics": [
            "0x238399d427b947898edb290f5ff0f9109849b1c3ba196a42e35f00c50a54b98b"
          ],
          "data": "0x0000000000000000000000000000000000000000000000000000000000009d3500000000000000000000000085a5a8aff78df7097907952a366c6f86f3d4aa10",
          "blockHash": "0x68ee23e5d2d8ac1c458c996780d713a8a2077d6a72c17b3a8dfc575e1a2c37bd",
          "blockNumber": "0x404a01c",
          "transactionHash": "0x31e2bab1c3bc6b01dfb0ccfda0692f1617ca3b170c164649d9b7ba1b4ec9bf27",
          "transactionIndex": "0x1",
          "logIndex": "0x0",
          "removed": false
        }
      ],
      "logsBloom": "0x00000000000000000000000000000000000000000000000000000000000000000000000000000000000000000000000000000000000000000800000000000000000000000000000000000000000000000000000000000000000000000000000000000000004000000000000000000000000000000000000000000000000000000000000000000000000000000000000000000000000000000000000002000000000000000000000000000000000000000000000000000000000002000000000000000000000000000000000000000000000000000000000000840000000000000000000000000000000000000000000000000000000000000000000000000000",
      "type": "0x2",
      "transactionHash": "0x31e2bab1c3bc6b01dfb0ccfda0692f1617ca3b170c164649d9b7ba1b4ec9bf27",
      "transactionIndex": "0x1",
      "blockHash": "0x68ee23e5d2d8ac1c458c996780d713a8a2077d6a72c17b3a8dfc575e1a2c37bd",
      "blockNumber": "0x404a01c",
      "gasUsed": "0x3df0b",
      "effectiveGasPrice": "0x5f5e100",
      "from": "0x03773f85756acac65a869e89e3b7b2fcda6be140",
      "to": "0x981830d1946e6fc9d5f893327a2819fd5e2c5819",
      "contractAddress": null,
      "gasUsedForL1": "0x324b8",
      "l1BlockNumber": "0x619cfc"
    }
  ],
  "libraries": [],
  "pending": [],
  "returns": {},
  "timestamp": 1722252021,
  "chain": 421614,
  "commit": "bfd3004"
}