{
  "transactions": [
    {
      "hash": "0x7ac1f29c971cdff00b06c8e72a6ecb25822e8b8617343051f8deb3511e1d2073",
      "transactionType": "CALL",
      "contractName": null,
      "contractAddress": "0x3d4cf5232061744ca5e72eab6624c96750d71ec2",
      "function": "poolWithdraw(uint256,address)",
      "arguments": [
        "473261798908111913",
        "0xA500C712e7EbDd5040f1A212800f5f6fa20d05F8"
      ],
      "transaction": {
        "from": "0xe0d6f93151091f24ea09474e9271bd60f2624d99",
        "to": "0x3d4cf5232061744ca5e72eab6624c96750d71ec2",
        "gas": "0x16aab",
        "value": "0x0",
        "input": "0x5b1ca16800000000000000000000000000000000000000000000000006915d1941ae2c29000000000000000000000000a500c712e7ebdd5040f1a212800f5f6fa20d05f8",
        "nonce": "0x7d",
        "chainId": "0x66eee"
      },
      "additionalContracts": [],
      "isFixedGasLimit": false
    }
  ],
  "receipts": [
    {
      "status": "0x1",
      "cumulativeGasUsed": "0xee5a",
      "logs": [
        {
          "address": "0x980b62da83eff3d4576c647993b0c1d7faf17c73",
          "topics": [
            "0xddf252ad1be2c89b69c2b068fc378daa952ba7f163c4a11628f55a4df523b3ef",
            "0x0000000000000000000000003d4cf5232061744ca5e72eab6624c96750d71ec2",
            "0x0000000000000000000000000000000000000000000000000000000000000000"
          ],
          "data": "0x00000000000000000000000000000000000000000000000006915d1941ae2c29",
          "blockHash": "0x9e01a1bc8dd1920245c3886f6664c50dd2be8665c4b5b951888114507fe36cdb",
          "blockNumber": "0x4cb75ab",
          "transactionHash": "0x7ac1f29c971cdff00b06c8e72a6ecb25822e8b8617343051f8deb3511e1d2073",
          "transactionIndex": "0x1",
          "logIndex": "0x0",
          "removed": false
        },
        {
          "address": "0x3d4cf5232061744ca5e72eab6624c96750d71ec2",
          "topics": [
            "0x6f07e6169c1653554eb707b6f6cd8f7ccf9cc29e54a0d8a71d9d5867d2057ac2",
            "0x000000000000000000000000a500c712e7ebdd5040f1a212800f5f6fa20d05f8"
          ],
          "data": "0x00000000000000000000000000000000000000000000000006915d1941ae2c29",
          "blockHash": "0x9e01a1bc8dd1920245c3886f6664c50dd2be8665c4b5b951888114507fe36cdb",
          "blockNumber": "0x4cb75ab",
          "transactionHash": "0x7ac1f29c971cdff00b06c8e72a6ecb25822e8b8617343051f8deb3511e1d2073",
          "transactionIndex": "0x1",
          "logIndex": "0x1",
          "removed": false
        }
      ],
      "logsBloom": "0x00000000000000000000000000020010000000000200000000000800000000000000000000000000000000000000000000000000000800400000000000000000000000000000000000000008100000000000000000000100000000000000000010000000020000000000000000000800000000000000000000000010000000000000000000000000000000000000000000000000000200000000000000000000000000000000000000000000000000000000000000000000000000008000000000000002000000004000000800000000000000000000000000000000000020000000000000002000000000000000002000000000000000000000000000000000",
      "type": "0x2",
      "transactionHash": "0x7ac1f29c971cdff00b06c8e72a6ecb25822e8b8617343051f8deb3511e1d2073",
      "transactionIndex": "0x1",
      "blockHash": "0x9e01a1bc8dd1920245c3886f6664c50dd2be8665c4b5b951888114507fe36cdb",
      "blockNumber": "0x4cb75ab",
      "gasUsed": "0xee5a",
      "effectiveGasPrice": "0x5f5e100",
      "from": "0xe0d6f93151091f24ea09474e9271bd60f2624d99",
      "to": "0x3d4cf5232061744ca5e72eab6624c96750d71ec2",
      "contractAddress": null,
      "gasUsedForL1": "0xb4",
      "l1BlockNumber": "0x660e88"
    }
  ],
  "libraries": [],
  "pending": [],
  "returns": {},
  "timestamp": 1726295733,
  "chain": 421614,
  "commit": "5fcd4f3"
}