{
  "transactions": [
    {
      "hash": "0x82bce6962ec9dcffbebc66bc41777abcc95b5d043bcd5a50e2bec8ab70cb048b",
      "transactionType": "CALL",
      "contractName": null,
      "contractAddress": "0x3d4cf5232061744ca5e72eab6624c96750d71ec2",
      "function": "poolDeposit(address)",
      "arguments": [
        "0xA500C712e7EbDd5040f1A212800f5f6fa20d05F8"
      ],
      "transaction": {
        "from": "0xe0d6f93151091f24ea09474e9271bd60f2624d99",
        "to": "0x3d4cf5232061744ca5e72eab6624c96750d71ec2",
        "gas": "0x9b613",
        "value": "0x6f05b59d3b20000",
        "input": "0x5698afa5000000000000000000000000a500c712e7ebdd5040f1a212800f5f6fa20d05f8",
        "nonce": "0x5c",
        "chainId": "0x66eee"
      },
      "additionalContracts": [],
      "isFixedGasLimit": false
    },
    {
      "hash": "0xf48af11474d817b45717b2560ab3300f72d4a7a0690308203cd7dada0fecb8cb",
      "transactionType": "CALL",
      "contractName": null,
      "contractAddress": "0x3e19bbee16243f36b331ce550f3ff2685e972944",
      "function": "addSupportedToken(address,address)",
      "arguments": [
        "0x980B62Da83eFf3D4576C647993b0c1D7faf17c73",
        "0xA500C712e7EbDd5040f1A212800f5f6fa20d05F8"
      ],
      "transaction": {
        "from": "0xe0d6f93151091f24ea09474e9271bd60f2624d99",
        "to": "0x3e19bbee16243f36b331ce550f3ff2685e972944",
        "gas": "0x9eda9",
        "value": "0x0",
        "input": "0xc2b7be16000000000000000000000000980b62da83eff3d4576c647993b0c1d7faf17c73000000000000000000000000a500c712e7ebdd5040f1a212800f5f6fa20d05f8",
        "nonce": "0x5d",
        "chainId": "0x66eee"
      },
      "additionalContracts": [],
      "isFixedGasLimit": false
    },
    {
      "hash": "0x01dc468d28a3f2baf8f0a087d2fb0d0ae972eab657644a89d7d330f259d7116c",
      "transactionType": "CALL",
      "contractName": null,
      "contractAddress": "0x3e19bbee16243f36b331ce550f3ff2685e972944",
      "function": "addSupportedToken(address,address)",
      "arguments": [
        "0xDF52714C191e8C4EC26cCD5B1578a904724e93b6",
        "0xA500C712e7EbDd5040f1A212800f5f6fa20d05F8"
      ],
      "transaction": {
        "from": "0xe0d6f93151091f24ea09474e9271bd60f2624d99",
        "to": "0x3e19bbee16243f36b331ce550f3ff2685e972944",
        "gas": "0x9eda9",
        "value": "0x0",
        "input": "0xc2b7be16000000000000000000000000df52714c191e8c4ec26ccd5b1578a904724e93b6000000000000000000000000a500c712e7ebdd5040f1a212800f5f6fa20d05f8",
        "nonce": "0x5e",
        "chainId": "0x66eee"
      },
      "additionalContracts": [],
      "isFixedGasLimit": false
    }
  ],
  "receipts": [
    {
      "status": "0x1",
      "cumulativeGasUsed": "0x98d395",
      "logs": [
        {
          "address": "0x980b62da83eff3d4576c647993b0c1d7faf17c73",
          "topics": [
            "0xddf252ad1be2c89b69c2b068fc378daa952ba7f163c4a11628f55a4df523b3ef",
            "0x0000000000000000000000000000000000000000000000000000000000000000",
            "0x0000000000000000000000003d4cf5232061744ca5e72eab6624c96750d71ec2"
          ],
          "data": "0x00000000000000000000000000000000000000000000000006f05b59d3b20000",
          "blockHash": "0x70c463d46401457aca2f206d53f602487596d62d6b9f538a264bda315693b2c0",
          "blockNumber": "0x4920e70",
          "transactionHash": "0x82bce6962ec9dcffbebc66bc41777abcc95b5d043bcd5a50e2bec8ab70cb048b",
          "transactionIndex": "0x3",
          "logIndex": "0x30",
          "removed": false
        },
        {
          "address": "0x3d4cf5232061744ca5e72eab6624c96750d71ec2",
          "topics": [
            "0x90576f1ad407b163ccea052b2d55bac158025af10ac5895369e8956eeab83434",
            "0x000000000000000000000000a500c712e7ebdd5040f1a212800f5f6fa20d05f8"
          ],
          "data": "0x00000000000000000000000000000000000000000000000006f05b59d3b20000",
          "blockHash": "0x70c463d46401457aca2f206d53f602487596d62d6b9f538a264bda315693b2c0",
          "blockNumber": "0x4920e70",
          "transactionHash": "0x82bce6962ec9dcffbebc66bc41777abcc95b5d043bcd5a50e2bec8ab70cb048b",
          "transactionIndex": "0x3",
          "logIndex": "0x31",
          "removed": false
        }
      ],
      "logsBloom": "0x00000000000000000000000000000000000000000200000000000800000000000000000000000000000000000000000000000000000800400000000000000000000000000000000000000008100000000000000000000100800000000000000010000000020000000000000000000800000000000000000000000010000000000000002000000000000000000000000008000000000200000000000000000000000000000000000000000000000000000000000000000000000000000000000000000002000000004000000800000000000000000000000000000000000020000000000000002000000000000000002000000000000000000000000000000000",
      "type": "0x2",
      "transactionHash": "0x82bce6962ec9dcffbebc66bc41777abcc95b5d043bcd5a50e2bec8ab70cb048b",
      "transactionIndex": "0x3",
      "blockHash": "0x70c463d46401457aca2f206d53f602487596d62d6b9f538a264bda315693b2c0",
      "blockNumber": "0x4920e70",
      "gasUsed": "0x5f705",
      "effectiveGasPrice": "0x5f5e100",
      "from": "0xe0d6f93151091f24ea09474e9271bd60f2624d99",
      "to": "0x3d4cf5232061744ca5e72eab6624c96750d71ec2",
      "contractAddress": null,
      "gasUsedForL1": "0x485ea",
      "l1BlockNumber": "0x650ddf"
    },
    {
      "status": "0x1",
      "cumulativeGasUsed": "0xec874",
      "logs": [
        {
          "address": "0x3e19bbee16243f36b331ce550f3ff2685e972944",
          "topics": [
            "0xdffbd9ded1c09446f09377de547142dcce7dc541c8b0b028142b1eba7026b9e7",
            "0x000000000000000000000000980b62da83eff3d4576c647993b0c1d7faf17c73",
            "0x000000000000000000000000a500c712e7ebdd5040f1a212800f5f6fa20d05f8"
          ],
          "data": "0x",
          "blockHash": "0x9b6ae24ef0e6b8cab6943a609250ea99868da6c7268e1b9cdd344a9effc8f4d0",
          "blockNumber": "0x4920e76",
          "transactionHash": "0xf48af11474d817b45717b2560ab3300f72d4a7a0690308203cd7dada0fecb8cb",
          "transactionIndex": "0x2",
          "logIndex": "0x0",
          "removed": false
        }
      ],
      "logsBloom": "0x00000000000000000000000000000000000000000000000000000000000000000000000000000000000000000000000000000000008000400000000000000000000020000000000000000000000000000000000000000000000000200000000010020000000000000000000400000000000000000000000000002000000000000000000000002000000000000000000000000000000000000000000000000000000000000000000000000000000000000000000000000000000000000000000000000000000000000000000a00000000000000000000000000000000004000000000000000000000000000000000000000000000000000000000000000000000",
      "type": "0x2",
      "transactionHash": "0xf48af11474d817b45717b2560ab3300f72d4a7a0690308203cd7dada0fecb8cb",
      "transactionIndex": "0x2",
      "blockHash": "0x9b6ae24ef0e6b8cab6943a609250ea99868da6c7268e1b9cdd344a9effc8f4d0",
      "blockNumber": "0x4920e76",
      "gasUsed": "0x60cfa",
      "effectiveGasPrice": "0x5f5e100",
      "from": "0xe0d6f93151091f24ea09474e9271bd60f2624d99",
      "to": "0x3e19bbee16243f36b331ce550f3ff2685e972944",
      "contractAddress": null,
      "gasUsedForL1": "0x53e4c",
      "l1BlockNumber": "0x650ddf"
    },
    {
      "status": "0x1",
      "cumulativeGasUsed": "0x60cfa",
      "logs": [
        {
          "address": "0x3e19bbee16243f36b331ce550f3ff2685e972944",
          "topics": [
            "0xdffbd9ded1c09446f09377de547142dcce7dc541c8b0b028142b1eba7026b9e7",
            "0x000000000000000000000000df52714c191e8c4ec26ccd5b1578a904724e93b6",
            "0x000000000000000000000000a500c712e7ebdd5040f1a212800f5f6fa20d05f8"
          ],
          "data": "0x",
          "blockHash": "0x8fd43011e6c35a5c7e3dd126f8647161ee53a862a818e926f6fba8a0bc58ac58",
          "blockNumber": "0x4920e7b",
          "transactionHash": "0x01dc468d28a3f2baf8f0a087d2fb0d0ae972eab657644a89d7d330f259d7116c",
          "transactionIndex": "0x1",
          "logIndex": "0x0",
          "removed": false
        }
      ],
      "logsBloom": "0x00000000000000000000000000000010000000000000000000000000000000000000000000000000000000000000000000000000008000400000000000000000000000000000000000000000000000000000000000000080000000200000000010000000000000000000000400000000000000000000000000002000000000000000000000002000000000000000000000000000000000000000000000000000000000000000000000000000000000000000000000000000000000000000000000000000000000000000000800000000000000000000000000000000004000000000000000000000000200000000000000000000000000000000000000000000",
      "type": "0x2",
      "transactionHash": "0x01dc468d28a3f2baf8f0a087d2fb0d0ae972eab657644a89d7d330f259d7116c",
      "transactionIndex": "0x1",
      "blockHash": "0x8fd43011e6c35a5c7e3dd126f8647161ee53a862a818e926f6fba8a0bc58ac58",
      "blockNumber": "0x4920e7b",
      "gasUsed": "0x60cfa",
      "effectiveGasPrice": "0x5f5e100",
      "from": "0xe0d6f93151091f24ea09474e9271bd60f2624d99",
      "to": "0x3e19bbee16243f36b331ce550f3ff2685e972944",
      "contractAddress": null,
      "gasUsedForL1": "0x53e4c",
      "l1BlockNumber": "0x650ddf"
    }
  ],
  "libraries": [],
  "pending": [],
  "returns": {},
  "timestamp": 1725332302,
  "chain": 421614,
  "commit": "5cf640c"
}