{
  "transactions": [
    {
      "hash": "0x4431c59f4029a5129b66ae495400de87b3c80fc980164c217c0a2521ea0915ce",
      "transactionType": "CALL",
      "contractName": null,
      "contractAddress": "0x9f1b8d30d9e86b3bf65fa9f91722b4a3e9802382",
      "function": "poolDeposit(address)",
      "arguments": [
        "0x34e7CEBC535C30Aceeb63a63C20b0C42A80B215A"
      ],
      "transaction": {
        "from": "0xe0d6f93151091f24ea09474e9271bd60f2624d99",
        "to": "0x9f1b8d30d9e86b3bf65fa9f91722b4a3e9802382",
        "gas": "0xd0978",
        "value": "0x6f05b59d3b20000",
        "input": "0x5698afa500000000000000000000000034e7cebc535c30aceeb63a63c20b0c42a80b215a",
        "nonce": "0x38",
        "chainId": "0x66eee"
      },
      "additionalContracts": [],
      "isFixedGasLimit": false
    },
    {
      "hash": "0x9b0f1a14d199b260e071f64efb043d5efa7d350e5de3bca975148ecce43f21f5",
      "transactionType": "CALL",
      "contractName": null,
      "contractAddress": "0xced5018d9c2d1088907581a7c24c670667f0079b",
      "function": "addSupportedToken(address,address)",
      "arguments": [
        "0x980B62Da83eFf3D4576C647993b0c1D7faf17c73",
        "0x34e7CEBC535C30Aceeb63a63C20b0C42A80B215A"
      ],
      "transaction": {
        "from": "0xe0d6f93151091f24ea09474e9271bd60f2624d99",
        "to": "0xced5018d9c2d1088907581a7c24c670667f0079b",
        "gas": "0xdb3c6",
        "value": "0x0",
        "input": "0xc2b7be16000000000000000000000000980b62da83eff3d4576c647993b0c1d7faf17c7300000000000000000000000034e7cebc535c30aceeb63a63c20b0c42a80b215a",
        "nonce": "0x39",
        "chainId": "0x66eee"
      },
      "additionalContracts": [],
      "isFixedGasLimit": false
    },
    {
      "hash": "0x32b4e5f94b43c8a52711d443877efc40efd6bfdf7e28fea12a07b3dc90a80c7b",
      "transactionType": "CALL",
      "contractName": null,
      "contractAddress": "0xced5018d9c2d1088907581a7c24c670667f0079b",
      "function": "addSupportedToken(address,address)",
      "arguments": [
        "0xDF52714C191e8C4EC26cCD5B1578a904724e93b6",
        "0x34e7CEBC535C30Aceeb63a63C20b0C42A80B215A"
      ],
      "transaction": {
        "from": "0xe0d6f93151091f24ea09474e9271bd60f2624d99",
        "to": "0xced5018d9c2d1088907581a7c24c670667f0079b",
        "gas": "0xdb3c6",
        "value": "0x0",
        "input": "0xc2b7be16000000000000000000000000df52714c191e8c4ec26ccd5b1578a904724e93b600000000000000000000000034e7cebc535c30aceeb63a63c20b0c42a80b215a",
        "nonce": "0x3a",
        "chainId": "0x66eee"
      },
      "additionalContracts": [],
      "isFixedGasLimit": false
    }
  ],
  "receipts": [
    {
      "status": "0x1",
      "cumulativeGasUsed": "0x7e4d9",
      "logs": [
        {
          "address": "0x980b62da83eff3d4576c647993b0c1d7faf17c73",
          "topics": [
            "0xddf252ad1be2c89b69c2b068fc378daa952ba7f163c4a11628f55a4df523b3ef",
            "0x0000000000000000000000000000000000000000000000000000000000000000",
            "0x0000000000000000000000009f1b8d30d9e86b3bf65fa9f91722b4a3e9802382"
          ],
          "data": "0x00000000000000000000000000000000000000000000000006f05b59d3b20000",
          "blockHash": "0x87ee47705c40e3f6c559f3c7c85277068ae695b888ff922c4a70e80f03f9ec0a",
          "blockNumber": "0x4716d4e",
          "transactionHash": "0x4431c59f4029a5129b66ae495400de87b3c80fc980164c217c0a2521ea0915ce",
          "transactionIndex": "0x1",
          "logIndex": "0x0",
          "removed": false
        },
        {
          "address": "0x9f1b8d30d9e86b3bf65fa9f91722b4a3e9802382",
          "topics": [
            "0x90576f1ad407b163ccea052b2d55bac158025af10ac5895369e8956eeab83434",
            "0x00000000000000000000000034e7cebc535c30aceeb63a63c20b0c42a80b215a"
          ],
          "data": "0x00000000000000000000000000000000000000000000000006f05b59d3b20000",
          "blockHash": "0x87ee47705c40e3f6c559f3c7c85277068ae695b888ff922c4a70e80f03f9ec0a",
          "blockNumber": "0x4716d4e",
          "transactionHash": "0x4431c59f4029a5129b66ae495400de87b3c80fc980164c217c0a2521ea0915ce",
          "transactionIndex": "0x1",
          "logIndex": "0x1",
          "removed": false
        }
      ],
      "logsBloom": "0x00000000000000000000000000000000000000000000000000000800000000100000000000000000000000000000000000000000000000000000000000000000000000000000000000400008120000000000000000010000800000000000000000000000020000000000000000000800000000000000000000000010000000000000002000000000000000000000000008000000000000000000000200000000000000000000000000000000000000000000000000000000000000000000000000000002000000004000000000000000000000000001000000100000000020000000000000000000000000000000000000000000020000000010000000000000",
      "type": "0x2",
      "transactionHash": "0x4431c59f4029a5129b66ae495400de87b3c80fc980164c217c0a2521ea0915ce",
      "transactionIndex": "0x1",
      "blockHash": "0x87ee47705c40e3f6c559f3c7c85277068ae695b888ff922c4a70e80f03f9ec0a",
      "blockNumber": "0x4716d4e",
      "gasUsed": "0x7e4d9",
      "effectiveGasPrice": "0x5f5e100",
      "from": "0xe0d6f93151091f24ea09474e9271bd60f2624d99",
      "to": "0x9f1b8d30d9e86b3bf65fa9f91722b4a3e9802382",
      "contractAddress": null,
      "gasUsedForL1": "0x67391",
      "l1BlockNumber": "0x6462d2"
    },
    {
      "status": "0x1",
      "cumulativeGasUsed": "0x849a0",
      "logs": [
        {
          "address": "0xced5018d9c2d1088907581a7c24c670667f0079b",
          "topics": [
            "0xdffbd9ded1c09446f09377de547142dcce7dc541c8b0b028142b1eba7026b9e7",
            "0x000000000000000000000000980b62da83eff3d4576c647993b0c1d7faf17c73",
            "0x00000000000000000000000034e7cebc535c30aceeb63a63c20b0c42a80b215a"
          ],
          "data": "0x",
          "blockHash": "0x36aef5a79a46fc8c8cf8ca82f0c92eedf39d7c088669a66333103e8d39ff8b9e",
          "blockNumber": "0x4716d53",
          "transactionHash": "0x9b0f1a14d199b260e071f64efb043d5efa7d350e5de3bca975148ecce43f21f5",
          "transactionIndex": "0x1",
          "logIndex": "0x0",
          "removed": false
        }
      ],
      "logsBloom": "0x00000000000000000000000000000000000000000000000000000000000000000000000000000000000000000000000000000000008000000000000000000000000020000000000000000000000000000000000000010000000000200000000000020000000000000000000008000000000000000000000000000000000000000000000000002000000000000000000000000000000000000000000200000000800000000000000000000000000000000000000000000000000000000000000000000000000000000000000200000000000000000000000000000000000000400000000000000000000000000000000000000000000000000010000000000000",
      "type": "0x2",
      "transactionHash": "0x9b0f1a14d199b260e071f64efb043d5efa7d350e5de3bca975148ecce43f21f5",
      "transactionIndex": "0x1",
      "blockHash": "0x36aef5a79a46fc8c8cf8ca82f0c92eedf39d7c088669a66333103e8d39ff8b9e",
      "blockNumber": "0x4716d53",
      "gasUsed": "0x849a0",
      "effectiveGasPrice": "0x5f5e100",
      "from": "0xe0d6f93151091f24ea09474e9271bd60f2624d99",
      "to": "0xced5018d9c2d1088907581a7c24c670667f0079b",
      "contractAddress": null,
      "gasUsedForL1": "0x77a8e",
      "l1BlockNumber": "0x6462d3"
    },
    {
      "status": "0x1",
      "cumulativeGasUsed": "0x11f1de9",
      "logs": [
        {
          "address": "0xced5018d9c2d1088907581a7c24c670667f0079b",
          "topics": [
            "0xdffbd9ded1c09446f09377de547142dcce7dc541c8b0b028142b1eba7026b9e7",
            "0x000000000000000000000000df52714c191e8c4ec26ccd5b1578a904724e93b6",
            "0x00000000000000000000000034e7cebc535c30aceeb63a63c20b0c42a80b215a"
          ],
          "data": "0x",
          "blockHash": "0xad85a85eeedb21f1be241ebade27a6e2ec35a5e5a6bbf20bb55aa1fc23defa5d",
          "blockNumber": "0x4716d59",
          "transactionHash": "0x32b4e5f94b43c8a52711d443877efc40efd6bfdf7e28fea12a07b3dc90a80c7b",
          "transactionIndex": "0x2",
          "logIndex": "0x51",
          "removed": false
        }
      ],
      "logsBloom": "0x00000000000000000000000000000010000000000000000000000000000000000000000000000000000000000000000000000000008000000000000000000000000000000000000000000000000000000000000000010080000000200000000000000000000000000000000008000000000000000000000000000000000000000000000000002000000000000000000000000000000000000000000200000000800000000000000000000000000000000000000000000000000000000000000000000000000000000000000000000000000000000000000000000000000000400000000000000000000200000000000000000000000000000010000000000000",
      "type": "0x2",
      "transactionHash": "0x32b4e5f94b43c8a52711d443877efc40efd6bfdf7e28fea12a07b3dc90a80c7b",
      "transactionIndex": "0x2",
      "blockHash": "0xad85a85eeedb21f1be241ebade27a6e2ec35a5e5a6bbf20bb55aa1fc23defa5d",
      "blockNumber": "0x4716d59",
      "gasUsed": "0x849a0",
      "effectiveGasPrice": "0x5f5e100",
      "from": "0xe0d6f93151091f24ea09474e9271bd60f2624d99",
      "to": "0xced5018d9c2d1088907581a7c24c670667f0079b",
      "contractAddress": null,
      "gasUsedForL1": "0x77a8e",
      "l1BlockNumber": "0x6462d3"
    }
  ],
  "libraries": [],
  "pending": [],
  "returns": {},
  "timestamp": 1724730007,
  "chain": 421614,
  "commit": "66ac525"
}