{
  "transactions": [
    {
      "hash": "0x8602e6030f533f1ee0fa77c994bbd918ac95f05fdf864f28d6fbb5e30b8fcba4",
      "transactionType": "CALL",
      "contractName": null,
      "contractAddress": "0xacdb62538db30ef5f9cdb4f7e0640f856708449d",
      "function": "addIssuer(address,address,uint256,uint256,uint256,uint256)",
      "arguments": [
        "0x3e19BBEe16243F36b331Ce550f3fF2685e972944",
        "0xE0D6f93151091f24EA09474e9271BD60F2624d99",
        "1000",
        "1000000000000000",
        "1000000000000000",
        "2"
      ],
      "transaction": {
        "from": "0x03773f85756acac65a869e89e3b7b2fcda6be140",
        "to": "0xacdb62538db30ef5f9cdb4f7e0640f856708449d",
        "gas": "0x2d1f3",
        "value": "0x0",
        "input": "0x86582d9a0000000000000000000000003e19bbee16243f36b331ce550f3ff2685e972944000000000000000000000000e0d6f93151091f24ea09474e9271bd60f2624d9900000000000000000000000000000000000000000000000000000000000003e800000000000000000000000000000000000000000000000000038d7ea4c6800000000000000000000000000000000000000000000000000000038d7ea4c680000000000000000000000000000000000000000000000000000000000000000002",
        "nonce": "0xb1",
        "chainId": "0x66eee"
      },
      "additionalContracts": [],
      "isFixedGasLimit": false
    },
    {
      "hash": "0xffdfeb4d6732f54dc709a120190fdc7d6d0408a29e795f09f69723b52a111352",
      "transactionType": "CALL",
      "contractName": null,
      "contractAddress": "0xd5ce1f4a923b90dc9556bc17fbb65781cd71f5ae",
      "function": "setPeer(uint32,bytes32)",
      "arguments": [
        "40245",
        "0x0000000000000000000000003d4cf5232061744ca5e72eab6624c96750d71ec2"
      ],
      "transaction": {
        "from": "0x03773f85756acac65a869e89e3b7b2fcda6be140",
        "to": "0xd5ce1f4a923b90dc9556bc17fbb65781cd71f5ae",
        "gas": "0xa8d1",
        "value": "0x0",
        "input": "0x3400288b0000000000000000000000000000000000000000000000000000000000009d350000000000000000000000003d4cf5232061744ca5e72eab6624c96750d71ec2",
        "nonce": "0xb2",
        "chainId": "0x66eee"
      },
      "additionalContracts": [],
      "isFixedGasLimit": false
    }
  ],
  "receipts": [
    {
      "status": "0x1",
      "cumulativeGasUsed": "0x22430",
      "logs": [
        {
          "address": "0xacdb62538db30ef5f9cdb4f7e0640f856708449d",
          "topics": [
            "0x81f5a5da0823b41cbf403c631b7efa6c2ec9a7742d7c9cf86de6300fbaf3e00e"
          ],
          "data": "0x0000000000000000000000003e19bbee16243f36b331ce550f3ff2685e972944000000000000000000000000e0d6f93151091f24ea09474e9271bd60f2624d99",
          "blockHash": "0x86f8cd7641a726aa1a0b2007f98d101178e8a9c2b5f7e1803ef584618558c40f",
          "blockNumber": "0x4cbaf30",
          "transactionHash": "0x8602e6030f533f1ee0fa77c994bbd918ac95f05fdf864f28d6fbb5e30b8fcba4",
          "transactionIndex": "0x1",
          "logIndex": "0x0",
          "removed": false
        }
      ],
      "logsBloom": "0x00000000000000000000000000000002000000000000000000000000020000000000000000000000000000000000000000000000000000000000000000000000000000000000000000000000000000000000000000040000000000000010000000000000000000000000000000000000000002000000000000000000000000000000000000000000000000000000000000000000000000000000000000000000000000000000000000000000000000000000000000000000000000000000000000000000000000000000000000000000000000000000000000000000000000000000000000000000000000000000000000000000000000000000080000000000",
      "type": "0x2",
      "transactionHash": "0x8602e6030f533f1ee0fa77c994bbd918ac95f05fdf864f28d6fbb5e30b8fcba4",
      "transactionIndex": "0x1",
      "blockHash": "0x86f8cd7641a726aa1a0b2007f98d101178e8a9c2b5f7e1803ef584618558c40f",
      "blockNumber": "0x4cbaf30",
      "gasUsed": "0x22430",
      "effectiveGasPrice": "0x5f5e100",
      "from": "0x03773f85756acac65a869e89e3b7b2fcda6be140",
      "to": "0xacdb62538db30ef5f9cdb4f7e0640f856708449d",
      "contractAddress": null,
      "gasUsedForL1": "0xaea",
      "l1BlockNumber": "0x660fa3"
    },
    {
      "status": "0x1",
      "cumulativeGasUsed": "0x7e79",
      "logs": [
        {
          "address": "0xd5ce1f4a923b90dc9556bc17fbb65781cd71f5ae",
          "topics": [
            "0x238399d427b947898edb290f5ff0f9109849b1c3ba196a42e35f00c50a54b98b"
          ],
          "data": "0x0000000000000000000000000000000000000000000000000000000000009d350000000000000000000000003d4cf5232061744ca5e72eab6624c96750d71ec2",
          "blockHash": "0x009ca07fe9668ca134486ef9b3e57bb67ffe27e548d5385830b300a4b759b4c5",
          "blockNumber": "0x4cbaf37",
          "transactionHash": "0xffdfeb4d6732f54dc709a120190fdc7d6d0408a29e795f09f69723b52a111352",
          "transactionIndex": "0x1",
          "logIndex": "0x0",
          "removed": false
        }
      ],
      "logsBloom": "0x00000000000010000000000000000000000000000000000000000000000000000000000000000000000000000000000000000000000000000800000000000000000000000000000000000000000000000000000000000000000000000000000000000000000000000000000000000000000000000000000000000000000000000000000000800000000000000000000000000000000000000000000000000000000000000000000000000000000000000000000000000000000002000000000000000000000000000000000000000000000000000000000000040000000000004000000000000000000000000000000000000000000000000000000000000000",
      "type": "0x2",
      "transactionHash": "0xffdfeb4d6732f54dc709a120190fdc7d6d0408a29e795f09f69723b52a111352",
      "transactionIndex": "0x1",
      "blockHash": "0x009ca07fe9668ca134486ef9b3e57bb67ffe27e548d5385830b300a4b759b4c5",
      "blockNumber": "0x4cbaf37",
      "gasUsed": "0x7e79",
      "effectiveGasPrice": "0x5f5e100",
      "from": "0x03773f85756acac65a869e89e3b7b2fcda6be140",
      "to": "0xd5ce1f4a923b90dc9556bc17fbb65781cd71f5ae",
      "contractAddress": null,
      "gasUsedForL1": "0x6f2",
      "l1BlockNumber": "0x660fa3"
    }
  ],
  "libraries": [],
  "pending": [],
  "returns": {},
  "timestamp": 1726299719,
  "chain": 421614,
  "commit": "5fcd4f3"
}