{
  "transactions": [
    {
      "hash": "0x8d1a5ff0ea1967cf802da9bd87034c85395e685a38979fb5fca5d2ef59bd907e",
      "transactionType": "CALL",
      "contractName": null,
      "contractAddress": "0xbfa2901f914a6a4f005d85181349f50a4981a776",
      "function": "poolDeposit(address)",
      "arguments": [
        "0x6d5ecc0aa8DcE64045b1053A2480D82A61Ad86Bc"
      ],
      "transaction": {
        "from": "0xe0d6f93151091f24ea09474e9271bd60f2624d99",
        "to": "0xbfa2901f914a6a4f005d85181349f50a4981a776",
        "gas": "0x1e4c3",
        "value": "0x6f05b59d3b20000",
        "input": "0x5698afa50000000000000000000000006d5ecc0aa8dce64045b1053a2480d82a61ad86bc",
        "nonce": "0x3c",
        "chainId": "0x66eee"
      },
      "additionalContracts": [],
      "isFixedGasLimit": false
    },
    {
      "hash": "0x2c6723d0604e1e242c04fe4ad604159c1c2f164a11eedda27855698d265793c5",
      "transactionType": "CALL",
      "contractName": null,
      "contractAddress": "0x873f2667bd24982626a7e4a12d71491b89812e6b",
      "function": "addSupportedToken(address,address)",
      "arguments": [
        "0x980B62Da83eFf3D4576C647993b0c1D7faf17c73",
        "0x6d5ecc0aa8DcE64045b1053A2480D82A61Ad86Bc"
      ],
      "transaction": {
        "from": "0xe0d6f93151091f24ea09474e9271bd60f2624d99",
        "to": "0x873f2667bd24982626a7e4a12d71491b89812e6b",
        "gas": "0x110c5",
        "value": "0x0",
        "input": "0xc2b7be16000000000000000000000000980b62da83eff3d4576c647993b0c1d7faf17c730000000000000000000000006d5ecc0aa8dce64045b1053a2480d82a61ad86bc",
        "nonce": "0x3d",
        "chainId": "0x66eee"
      },
      "additionalContracts": [],
      "isFixedGasLimit": false
    },
    {
      "hash": "0x5e0b73dc342a0cbbef737951baf900353b65a6da0c56a0a3345a63c78df6caf6",
      "transactionType": "CALL",
      "contractName": null,
      "contractAddress": "0x873f2667bd24982626a7e4a12d71491b89812e6b",
      "function": "addSupportedToken(address,address)",
      "arguments": [
        "0xDF52714C191e8C4EC26cCD5B1578a904724e93b6",
        "0x6d5ecc0aa8DcE64045b1053A2480D82A61Ad86Bc"
      ],
      "transaction": {
        "from": "0xe0d6f93151091f24ea09474e9271bd60f2624d99",
        "to": "0x873f2667bd24982626a7e4a12d71491b89812e6b",
        "gas": "0x110c5",
        "value": "0x0",
        "input": "0xc2b7be16000000000000000000000000df52714c191e8c4ec26ccd5b1578a904724e93b60000000000000000000000006d5ecc0aa8dce64045b1053a2480d82a61ad86bc",
        "nonce": "0x3e",
        "chainId": "0x66eee"
      },
      "additionalContracts": [],
      "isFixedGasLimit": false
    }
  ],
  "receipts": [
    {
      "status": "0x1",
      "cumulativeGasUsed": "0x17127",
      "logs": [
        {
          "address": "0x980b62da83eff3d4576c647993b0c1d7faf17c73",
          "topics": [
            "0xddf252ad1be2c89b69c2b068fc378daa952ba7f163c4a11628f55a4df523b3ef",
            "0x0000000000000000000000000000000000000000000000000000000000000000",
            "0x000000000000000000000000bfa2901f914a6a4f005d85181349f50a4981a776"
          ],
          "data": "0x00000000000000000000000000000000000000000000000006f05b59d3b20000",
          "blockHash": "0xe4b6d16f77f5cb45b5d6cdccdfb21b1d563640eb1ef6e160a44bb185188f9b93",
          "blockNumber": "0x47f2e78",
          "transactionHash": "0x8d1a5ff0ea1967cf802da9bd87034c85395e685a38979fb5fca5d2ef59bd907e",
          "transactionIndex": "0x1",
          "logIndex": "0x0",
          "removed": false
        },
        {
          "address": "0xbfa2901f914a6a4f005d85181349f50a4981a776",
          "topics": [
            "0x90576f1ad407b163ccea052b2d55bac158025af10ac5895369e8956eeab83434",
            "0x0000000000000000000000006d5ecc0aa8dce64045b1053a2480d82a61ad86bc"
          ],
          "data": "0x00000000000000000000000000000000000000000000000006f05b59d3b20000",
          "blockHash": "0xe4b6d16f77f5cb45b5d6cdccdfb21b1d563640eb1ef6e160a44bb185188f9b93",
          "blockNumber": "0x47f2e78",
          "transactionHash": "0x8d1a5ff0ea1967cf802da9bd87034c85395e685a38979fb5fca5d2ef59bd907e",
          "transactionIndex": "0x1",
          "logIndex": "0x1",
          "removed": false
        }
      ],
      "logsBloom": "0x00000000000000000000000000000000000000000000000000000802000000040000080000000000000000000000000000000008000000000002000000000000000040010000000000000008100000000000000000000000800000000000000000000000020000000000000000000800000000000000000000000010000000000000002000000000000000000000000008000000000000000000000000000000000000000000000000000000000000000000000000000000000000000000000000000002400000004000000000000000000000000000000000000000000020000000000000004000000000000000000000000000000000000000000000000000",
      "type": "0x2",
      "transactionHash": "0x8d1a5ff0ea1967cf802da9bd87034c85395e685a38979fb5fca5d2ef59bd907e",
      "transactionIndex": "0x1",
      "blockHash": "0xe4b6d16f77f5cb45b5d6cdccdfb21b1d563640eb1ef6e160a44bb185188f9b93",
      "blockNumber": "0x47f2e78",
      "gasUsed": "0x17127",
      "effectiveGasPrice": "0x5f5e100",
      "from": "0xe0d6f93151091f24ea09474e9271bd60f2624d99",
      "to": "0xbfa2901f914a6a4f005d85181349f50a4981a776",
      "contractAddress": null,
      "gasUsedForL1": "0x0",
      "l1BlockNumber": "0x64afd1"
    },
    {
      "status": "0x1",
      "cumulativeGasUsed": "0xceba",
      "logs": [
        {
          "address": "0x873f2667bd24982626a7e4a12d71491b89812e6b",
          "topics": [
            "0xdffbd9ded1c09446f09377de547142dcce7dc541c8b0b028142b1eba7026b9e7",
            "0x000000000000000000000000980b62da83eff3d4576c647993b0c1d7faf17c73",
            "0x0000000000000000000000006d5ecc0aa8dce64045b1053a2480d82a61ad86bc"
          ],
          "data": "0x",
          "blockHash": "0x5f714fc83918fa998c489574b85916d2f3bd5fa900150602bf70756cd9cfcc74",
          "blockNumber": "0x47f2e7e",
          "transactionHash": "0x2c6723d0604e1e242c04fe4ad604159c1c2f164a11eedda27855698d265793c5",
          "transactionIndex": "0x1",
          "logIndex": "0x0",
          "removed": false
        }
      ],
      "logsBloom": "0x00000000000000000000000000000000000000000000000000000002000000040000080000000000000000000000000000000000008000000000000000000000000020000000000000000000000000000000400000000000000000200000000000020000000200000000000000000000000000000000000000000000000000000000000000002000000000000000000000000000000000000000000000000000000000000000000000000000000000000000000000000000000000000000000000000000000000000000000200000000000000000000000000000000000020000000000000000000000000000000000000000000000000000000000000000000",
      "type": "0x2",
      "transactionHash": "0x2c6723d0604e1e242c04fe4ad604159c1c2f164a11eedda27855698d265793c5",
      "transactionIndex": "0x1",
      "blockHash": "0x5f714fc83918fa998c489574b85916d2f3bd5fa900150602bf70756cd9cfcc74",
      "blockNumber": "0x47f2e7e",
      "gasUsed": "0xceba",
      "effectiveGasPrice": "0x5f5e100",
      "from": "0xe0d6f93151091f24ea09474e9271bd60f2624d99",
      "to": "0x873f2667bd24982626a7e4a12d71491b89812e6b",
      "contractAddress": null,
      "gasUsedForL1": "0x0",
      "l1BlockNumber": "0x64afd1"
    },
    {
      "status": "0x1",
      "cumulativeGasUsed": "0x2eb6d",
      "logs": [
        {
          "address": "0x873f2667bd24982626a7e4a12d71491b89812e6b",
          "topics": [
            "0xdffbd9ded1c09446f09377de547142dcce7dc541c8b0b028142b1eba7026b9e7",
            "0x000000000000000000000000df52714c191e8c4ec26ccd5b1578a904724e93b6",
            "0x0000000000000000000000006d5ecc0aa8dce64045b1053a2480d82a61ad86bc"
          ],
          "data": "0x",
          "blockHash": "0xc1eefac7957c22a48f5d95401517adf2238130dd61187f269cf7255d82e61d63",
          "blockNumber": "0x47f2e83",
          "transactionHash": "0x5e0b73dc342a0cbbef737951baf900353b65a6da0c56a0a3345a63c78df6caf6",
          "transactionIndex": "0x2",
          "logIndex": "0x1",
          "removed": false
        }
      ],
      "logsBloom": "0x00000000000000000000000000000010000000000000000000000002000000040000080000000000000000000000000000000000008000000000000000000000000000000000000000000000000000000000400000000080000000200000000000000000000200000000000000000000000000000000000000000000000000000000000000002000000000000000000000000000000000000000000000000000000000000000000000000000000000000000000000000000000000000000000000000000000000000000000000000000000000000000000000000000000020000000000000000000000200000000000000000000000000000000000000000000",
      "type": "0x2",
      "transactionHash": "0x5e0b73dc342a0cbbef737951baf900353b65a6da0c56a0a3345a63c78df6caf6",
      "transactionIndex": "0x2",
      "blockHash": "0xc1eefac7957c22a48f5d95401517adf2238130dd61187f269cf7255d82e61d63",
      "blockNumber": "0x47f2e83",
      "gasUsed": "0xceba",
      "effectiveGasPrice": "0x5f5e100",
      "from": "0xe0d6f93151091f24ea09474e9271bd60f2624d99",
      "to": "0x873f2667bd24982626a7e4a12d71491b89812e6b",
      "contractAddress": null,
      "gasUsedForL1": "0x0",
      "l1BlockNumber": "0x64afd1"
    }
  ],
  "libraries": [],
  "pending": [],
  "returns": {},
  "timestamp": 1725000263,
  "chain": 421614,
  "commit": "bc014d5"
}