{
  "transactions": [
    {
      "hash": "0xda59c7b8ab7e5d7a3a2afaf67f2bcc7b8125923affaeb9fca428cfe26fc6b52c",
      "transactionType": "CALL",
      "contractName": null,
      "contractAddress": "0xacdb62538db30ef5f9cdb4f7e0640f856708449d",
      "function": "poolDeposit(address)",
      "arguments": [
        "0x3e19BBEe16243F36b331Ce550f3fF2685e972944"
      ],
      "transaction": {
        "from": "0xe0d6f93151091f24ea09474e9271bd60f2624d99",
        "to": "0xacdb62538db30ef5f9cdb4f7e0640f856708449d",
        "gas": "0x1ef29",
        "value": "0x6f05b59d3b20000",
        "input": "0x5698afa50000000000000000000000003e19bbee16243f36b331ce550f3ff2685e972944",
        "nonce": "0x7e",
        "chainId": "0x66eee"
      },
      "additionalContracts": [],
      "isFixedGasLimit": false
    },
    {
      "hash": "0xa55df7574317812efa385c589b41f1929816efadf1f32693ab4920f156fcfbd0",
      "transactionType": "CALL",
      "contractName": null,
      "contractAddress": "0xd5ce1f4a923b90dc9556bc17fbb65781cd71f5ae",
      "function": "addSupportedToken(address,address)",
      "arguments": [
        "0x980B62Da83eFf3D4576C647993b0c1D7faf17c73",
        "0x3e19BBEe16243F36b331Ce550f3fF2685e972944"
      ],
      "transaction": {
        "from": "0xe0d6f93151091f24ea09474e9271bd60f2624d99",
        "to": "0xd5ce1f4a923b90dc9556bc17fbb65781cd71f5ae",
        "gas": "0x11ce3",
        "value": "0x0",
        "input": "0xc2b7be16000000000000000000000000980b62da83eff3d4576c647993b0c1d7faf17c730000000000000000000000003e19bbee16243f36b331ce550f3ff2685e972944",
        "nonce": "0x7f",
        "chainId": "0x66eee"
      },
      "additionalContracts": [],
      "isFixedGasLimit": false
    },
    {
      "hash": "0xc758589eb1b56c3ad4316647dde1f18a09a325187b9d5a12275c8aa106d1b8a5",
      "transactionType": "CALL",
      "contractName": null,
      "contractAddress": "0xd5ce1f4a923b90dc9556bc17fbb65781cd71f5ae",
      "function": "addSupportedToken(address,address)",
      "arguments": [
        "0xDF52714C191e8C4EC26cCD5B1578a904724e93b6",
        "0x3e19BBEe16243F36b331Ce550f3fF2685e972944"
      ],
      "transaction": {
        "from": "0xe0d6f93151091f24ea09474e9271bd60f2624d99",
        "to": "0xd5ce1f4a923b90dc9556bc17fbb65781cd71f5ae",
        "gas": "0x11ce3",
        "value": "0x0",
        "input": "0xc2b7be16000000000000000000000000df52714c191e8c4ec26ccd5b1578a904724e93b60000000000000000000000003e19bbee16243f36b331ce550f3ff2685e972944",
        "nonce": "0x80",
        "chainId": "0x66eee"
      },
      "additionalContracts": [],
      "isFixedGasLimit": false
    }
  ],
  "receipts": [
    {
      "status": "0x1",
      "cumulativeGasUsed": "0x1773a",
      "logs": [
        {
          "address": "0x980b62da83eff3d4576c647993b0c1d7faf17c73",
          "topics": [
            "0xddf252ad1be2c89b69c2b068fc378daa952ba7f163c4a11628f55a4df523b3ef",
            "0x0000000000000000000000000000000000000000000000000000000000000000",
            "0x000000000000000000000000acdb62538db30ef5f9cdb4f7e0640f856708449d"
          ],
          "data": "0x00000000000000000000000000000000000000000000000006f05b59d3b20000",
          "blockHash": "0x71a9dc04ea5db8f68a6d5fe4f6ea100f44a499814660a549a2767cd1dafc0754",
          "blockNumber": "0x4cbb116",
          "transactionHash": "0xda59c7b8ab7e5d7a3a2afaf67f2bcc7b8125923affaeb9fca428cfe26fc6b52c",
          "transactionIndex": "0x1",
          "logIndex": "0x0",
          "removed": false
        },
        {
          "address": "0xacdb62538db30ef5f9cdb4f7e0640f856708449d",
          "topics": [
            "0x90576f1ad407b163ccea052b2d55bac158025af10ac5895369e8956eeab83434",
            "0x0000000000000000000000003e19bbee16243f36b331ce550f3ff2685e972944"
          ],
          "data": "0x00000000000000000000000000000000000000000000000006f05b59d3b20000",
          "blockHash": "0x71a9dc04ea5db8f68a6d5fe4f6ea100f44a499814660a549a2767cd1dafc0754",
          "blockNumber": "0x4cbb116",
          "transactionHash": "0xda59c7b8ab7e5d7a3a2afaf67f2bcc7b8125923affaeb9fca428cfe26fc6b52c",
          "transactionIndex": "0x1",
          "logIndex": "0x1",
          "removed": false
        }
      ],
      "logsBloom": "0x00800000010000000000000000000002000000000000000000000800000000000000000400000000000000000000000004000000000000000000000000000000000000000000000000000008100000000000000000000000820000000000000000000000020000000000000000000800000002000000000000000010000000000000002000000000000000000000000008002000000000000000000000000000000000000000000000000000000000000000000000000000000000000000000000000002000000004000000000000000000000000000000000000000000020000000000000000000000000000000000000000000000000000000080000000000",
      "type": "0x2",
      "transactionHash": "0xda59c7b8ab7e5d7a3a2afaf67f2bcc7b8125923affaeb9fca428cfe26fc6b52c",
      "transactionIndex": "0x1",
      "blockHash": "0x71a9dc04ea5db8f68a6d5fe4f6ea100f44a499814660a549a2767cd1dafc0754",
      "blockNumber": "0x4cbb116",
      "gasUsed": "0x1773a",
      "effectiveGasPrice": "0x5f5e100",
      "from": "0xe0d6f93151091f24ea09474e9271bd60f2624d99",
      "to": "0xacdb62538db30ef5f9cdb4f7e0640f856708449d",
      "contractAddress": null,
      "gasUsedForL1": "0x5fd",
      "l1BlockNumber": "0x660fae"
    },
    {
      "status": "0x1",
      "cumulativeGasUsed": "0xd604",
      "logs": [
        {
          "address": "0xd5ce1f4a923b90dc9556bc17fbb65781cd71f5ae",
          "topics": [
            "0xdffbd9ded1c09446f09377de547142dcce7dc541c8b0b028142b1eba7026b9e7",
            "0x000000000000000000000000980b62da83eff3d4576c647993b0c1d7faf17c73",
            "0x0000000000000000000000003e19bbee16243f36b331ce550f3ff2685e972944"
          ],
          "data": "0x",
          "blockHash": "0x051e7b15171d281ac74314fdfd178686bf395bb43c01b6a87ca09f2b7fc1f511",
          "blockNumber": "0x4cbb11b",
          "transactionHash": "0xa55df7574317812efa385c589b41f1929816efadf1f32693ab4920f156fcfbd0",
          "transactionIndex": "0x1",
          "logIndex": "0x0",
          "removed": false
        }
      ],
      "logsBloom": "0x00000000010010000000000000000000000000000000000000000000000000000000000400000000000000000000000000000000008000000000000000000000000020000000000000000000000000000000000000000000000000200000000000020000000000000000000000000000000000000000000000000000000000000000000000802000000000000000000000002000000000000000000000000000000000000000000000000000000000000000000000000000000000000000000000000000000000000000000200000000000000000000000000000000000000004000000000000000000000000000000000000000000000000000000000000000",
      "type": "0x2",
      "transactionHash": "0xa55df7574317812efa385c589b41f1929816efadf1f32693ab4920f156fcfbd0",
      "transactionIndex": "0x1",
      "blockHash": "0x051e7b15171d281ac74314fdfd178686bf395bb43c01b6a87ca09f2b7fc1f511",
      "blockNumber": "0x4cbb11b",
      "gasUsed": "0xd604",
      "effectiveGasPrice": "0x5f5e100",
      "from": "0xe0d6f93151091f24ea09474e9271bd60f2624d99",
      "to": "0xd5ce1f4a923b90dc9556bc17fbb65781cd71f5ae",
      "contractAddress": null,
      "gasUsedForL1": "0x6f2",
      "l1BlockNumber": "0x660fae"
    },
    {
      "status": "0x1",
      "cumulativeGasUsed": "0xd60d",
      "logs": [
        {
          "address": "0xd5ce1f4a923b90dc9556bc17fbb65781cd71f5ae",
          "topics": [
            "0xdffbd9ded1c09446f09377de547142dcce7dc541c8b0b028142b1eba7026b9e7",
            "0x000000000000000000000000df52714c191e8c4ec26ccd5b1578a904724e93b6",
            "0x0000000000000000000000003e19bbee16243f36b331ce550f3ff2685e972944"
          ],
          "data": "0x",
          "blockHash": "0x1f283c2043190991b044cc57fe23ce40b527a55989906733144773366dace692",
          "blockNumber": "0x4cbb123",
          "transactionHash": "0xc758589eb1b56c3ad4316647dde1f18a09a325187b9d5a12275c8aa106d1b8a5",
          "transactionIndex": "0x1",
          "logIndex": "0x0",
          "removed": false
        }
      ],
      "logsBloom": "0x00000000010010000000000000000010000000000000000000000000000000000000000400000000000000000000000000000000008000000000000000000000000000000000000000000000000000000000000000000080000000200000000000000000000000000000000000000000000000000000000000000000000000000000000000802000000000000000000000002000000000000000000000000000000000000000000000000000000000000000000000000000000000000000000000000000000000000000000000000000000000000000000000000000000000004000000000000000000200000000000000000000000000000000000000000000",
      "type": "0x2",
      "transactionHash": "0xc758589eb1b56c3ad4316647dde1f18a09a325187b9d5a12275c8aa106d1b8a5",
      "transactionIndex": "0x1",
      "blockHash": "0x1f283c2043190991b044cc57fe23ce40b527a55989906733144773366dace692",
      "blockNumber": "0x4cbb123",
      "gasUsed": "0xd60d",
      "effectiveGasPrice": "0x5f5e100",
      "from": "0xe0d6f93151091f24ea09474e9271bd60f2624d99",
      "to": "0xd5ce1f4a923b90dc9556bc17fbb65781cd71f5ae",
      "contractAddress": null,
      "gasUsedForL1": "0x6fb",
      "l1BlockNumber": "0x660fb0"
    }
  ],
  "libraries": [],
  "pending": [],
  "returns": {},
  "timestamp": 1726299856,
  "chain": 421614,
  "commit": "5fcd4f3"
}