{
  "transactions": [
    {
      "hash": "0xf133261d92a686f7752173abbedb250fe0ba7c061b44d7fae9f8bc7a56d667a4",
      "transactionType": "CALL",
      "contractName": null,
      "contractAddress": "0x85a5a8aff78df7097907952a366c6f86f3d4aa10",
      "function": "approveChain(uint256)",
      "arguments": [
        "40231"
      ],
      "transaction": {
        "from": "0x03773f85756acac65a869e89e3b7b2fcda6be140",
        "to": "0x85a5a8aff78df7097907952a366c6f86f3d4aa10",
        "gas": "0x15195c",
        "value": "0x0",
        "input": "0xeb87840d0000000000000000000000000000000000000000000000000000000000009d27",
        "nonce": "0xb",
        "chainId": "0x66eee"
      },
      "additionalContracts": [],
      "isFixedGasLimit": false
    },
    {
      "hash": "0x0f6067bb46901232fdfb4d5a7a63d5edf49137368e3913b9ab0a9488be2d8fa9",
      "transactionType": "CALL",
      "contractName": null,
      "contractAddress": "0x85a5a8aff78df7097907952a366c6f86f3d4aa10",
      "function": "approveChain(uint256)",
      "arguments": [
        "40161"
      ],
      "transaction": {
        "from": "0x03773f85756acac65a869e89e3b7b2fcda6be140",
        "to": "0x85a5a8aff78df7097907952a366c6f86f3d4aa10",
        "gas": "0x153eed",
        "value": "0x0",
        "input": "0xeb87840d0000000000000000000000000000000000000000000000000000000000009ce1",
        "nonce": "0xc",
        "chainId": "0x66eee"
      },
      "additionalContracts": [],
      "isFixedGasLimit": false
    },
    {
      "hash": "0x69af7eb3e30c09756509ad59eb8b4d7711bc1e7986dcc13bf4d822ff9829d6c9",
      "transactionType": "CALL",
      "contractName": null,
      "contractAddress": "0x85a5a8aff78df7097907952a366c6f86f3d4aa10",
      "function": "approveChain(uint256)",
      "arguments": [
        "40232"
      ],
      "transaction": {
        "from": "0x03773f85756acac65a869e89e3b7b2fcda6be140",
        "to": "0x85a5a8aff78df7097907952a366c6f86f3d4aa10",
        "gas": "0x1525e2",
        "value": "0x0",
        "input": "0xeb87840d0000000000000000000000000000000000000000000000000000000000009d28",
        "nonce": "0xd",
        "chainId": "0x66eee"
      },
      "additionalContracts": [],
      "isFixedGasLimit": false
    },
    {
      "hash": "0x07c4e1f409f92129636d33c644d739cc3278b5ec825a8d9d4fc74e44e0b963fe",
      "transactionType": "CALL",
      "contractName": null,
      "contractAddress": "0x85a5a8aff78df7097907952a366c6f86f3d4aa10",
      "function": "approveChain(uint256)",
      "arguments": [
        "40245"
      ],
      "transaction": {
        "from": "0x03773f85756acac65a869e89e3b7b2fcda6be140",
        "to": "0x85a5a8aff78df7097907952a366c6f86f3d4aa10",
        "gas": "0x153267",
        "value": "0x0",
        "input": "0xeb87840d0000000000000000000000000000000000000000000000000000000000009d35",
        "nonce": "0xe",
        "chainId": "0x66eee"
      },
      "additionalContracts": [],
      "isFixedGasLimit": false
    },
    {
      "hash": "0x6eb0f689a63c836addad05d7092b9f22bf2fee53fc770a122f8d873f2901303a",
      "transactionType": "CALL",
      "contractName": null,
      "contractAddress": "0x73f0b82ea0c7268866bb39e5a30f3f4e348e3feb",
      "function": "addSupportedToken(address)",
      "arguments": [
        "0x980B62Da83eFf3D4576C647993b0c1D7faf17c73"
      ],
      "transaction": {
        "from": "0x03773f85756acac65a869e89e3b7b2fcda6be140",
        "to": "0x73f0b82ea0c7268866bb39e5a30f3f4e348e3feb",
        "gas": "0x156b2a",
        "value": "0x0",
        "input": "0x6d69fcaf000000000000000000000000980b62da83eff3d4576c647993b0c1d7faf17c73",
        "nonce": "0xf",
        "chainId": "0x66eee"
      },
      "additionalContracts": [],
      "isFixedGasLimit": false
    },
    {
      "hash": "0x5749a782576fe0ff09cc9023851356e09b9d14fcff6c7edd080a932bf1096bde",
      "transactionType": "CALL",
      "contractName": null,
      "contractAddress": "0x73f0b82ea0c7268866bb39e5a30f3f4e348e3feb",
      "function": "addSupportedToken(address)",
      "arguments": [
        "0xDF52714C191e8C4EC26cCD5B1578a904724e93b6"
      ],
      "transaction": {
        "from": "0x03773f85756acac65a869e89e3b7b2fcda6be140",
        "to": "0x73f0b82ea0c7268866bb39e5a30f3f4e348e3feb",
        "gas": "0x156b2a",
        "value": "0x0",
        "input": "0x6d69fcaf000000000000000000000000df52714c191e8c4ec26ccd5b1578a904724e93b6",
        "nonce": "0x10",
        "chainId": "0x66eee"
      },
      "additionalContracts": [],
      "isFixedGasLimit": false
    },
    {
      "hash": "0xe49447b5588725e4d58879656d6c7e19dbaed666358bf62704e239f29ba8fc26",
      "transactionType": "CALL",
      "contractName": null,
      "contractAddress": "0x472cf1b83213ded59db4fc643532d07450d8f40b",
      "function": "poolDeposit(uint256)",
      "arguments": [
        "500000000000000000"
      ],
      "transaction": {
        "from": "0x03773f85756acac65a869e89e3b7b2fcda6be140",
        "to": "0x472cf1b83213ded59db4fc643532d07450d8f40b",
        "gas": "0x16d02c",
        "value": "0x6f05b59d3b20000",
        "input": "0x2d02462b00000000000000000000000000000000000000000000000006f05b59d3b20000",
        "nonce": "0x11",
        "chainId": "0x66eee"
      },
      "additionalContracts": [],
      "isFixedGasLimit": false
    },
    {
      "hash": "0x85b48ddfd694c0fd27b16b5abd008b0d57e3d17320c81dc60240f0d1f9ec457c",
      "transactionType": "CALL",
      "contractName": null,
      "contractAddress": "0xf430ac9b73c5fb875d8350a300e95049a19cabb1",
      "function": "setDepositContract(uint256,address)",
      "arguments": [
        "40231",
        "0x73f0b82ea0C7268866Bb39E5a30f3f4E348E3FeB"
      ],
      "transaction": {
        "from": "0x03773f85756acac65a869e89e3b7b2fcda6be140",
        "to": "0xf430ac9b73c5fb875d8350a300e95049a19cabb1",
        "gas": "0x19306f",
        "value": "0x0",
        "input": "0x06c77cb40000000000000000000000000000000000000000000000000000000000009d2700000000000000000000000073f0b82ea0c7268866bb39e5a30f3f4e348e3feb",
        "nonce": "0x12",
        "chainId": "0x66eee"
      },
      "additionalContracts": [],
      "isFixedGasLimit": false
    },
    {
      "hash": "0xa75774587cfcb302207ee6111af57ccc4db4d6e24e174756a9cded9589fc4ef9",
      "transactionType": "CALL",
      "contractName": null,
      "contractAddress": "0xf430ac9b73c5fb875d8350a300e95049a19cabb1",
      "function": "setDepositContract(uint256,address)",
      "arguments": [
        "40161",
        "0x0cFbC9aaEF1fbCA9bbeF916aD4dABf0d6103451b"
      ],
      "transaction": {
        "from": "0x03773f85756acac65a869e89e3b7b2fcda6be140",
        "to": "0xf430ac9b73c5fb875d8350a300e95049a19cabb1",
        "gas": "0x19306f",
        "value": "0x0",
        "input": "0x06c77cb40000000000000000000000000000000000000000000000000000000000009ce10000000000000000000000000cfbc9aaef1fbca9bbef916ad4dabf0d6103451b",
        "nonce": "0x13",
        "chainId": "0x66eee"
      },
      "additionalContracts": [],
      "isFixedGasLimit": false
    },
    {
      "hash": "0x258fb20ece45c997da21ec45ca480016cc53ea99fcde0f90d95f238b91f116af",
      "transactionType": "CALL",
      "contractName": null,
      "contractAddress": "0xf430ac9b73c5fb875d8350a300e95049a19cabb1",
      "function": "setDepositContract(uint256,address)",
      "arguments": [
        "40232",
        "0xD76702b575bA815B2537F4f19Bc856B74536eC9B"
      ],
      "transaction": {
        "from": "0x03773f85756acac65a869e89e3b7b2fcda6be140",
        "to": "0xf430ac9b73c5fb875d8350a300e95049a19cabb1",
        "gas": "0x19306f",
        "value": "0x0",
        "input": "0x06c77cb40000000000000000000000000000000000000000000000000000000000009d28000000000000000000000000d76702b575ba815b2537f4f19bc856b74536ec9b",
        "nonce": "0x14",
        "chainId": "0x66eee"
      },
      "additionalContracts": [],
      "isFixedGasLimit": false
    },
    {
      "hash": "0x66c4891ba58eb5af3df1e02e22407e6ebb127c112f654a0393dac972722f5c4a",
      "transactionType": "CALL",
      "contractName": null,
      "contractAddress": "0xf430ac9b73c5fb875d8350a300e95049a19cabb1",
      "function": "setDepositContract(uint256,address)",
      "arguments": [
        "40245",
        "0x85a5A8AfF78df7097907952A366C6F86F3d4Aa10"
      ],
      "transaction": {
        "from": "0x03773f85756acac65a869e89e3b7b2fcda6be140",
        "to": "0xf430ac9b73c5fb875d8350a300e95049a19cabb1",
        "gas": "0x19306f",
        "value": "0x0",
        "input": "0x06c77cb40000000000000000000000000000000000000000000000000000000000009d3500000000000000000000000085a5a8aff78df7097907952a366c6f86f3d4aa10",
        "nonce": "0x15",
        "chainId": "0x66eee"
      },
      "additionalContracts": [],
      "isFixedGasLimit": false
    },
    {
      "hash": "0x0c58dd7fce45526460fd84674361ac7d0be6b95894fa73a060619937abb4388d",
      "transactionType": "CALL",
      "contractName": null,
      "contractAddress": "0xf430ac9b73c5fb875d8350a300e95049a19cabb1",
      "function": "setPeer(uint32,bytes32)",
      "arguments": [
        "40161",
        "0x0000000000000000000000000cfbc9aaef1fbca9bbef916ad4dabf0d6103451b"
      ],
      "transaction": {
        "from": "0x03773f85756acac65a869e89e3b7b2fcda6be140",
        "to": "0xf430ac9b73c5fb875d8350a300e95049a19cabb1",
        "gas": "0x193628",
        "value": "0x0",
        "input": "0x3400288b0000000000000000000000000000000000000000000000000000000000009ce10000000000000000000000000cfbc9aaef1fbca9bbef916ad4dabf0d6103451b",
        "nonce": "0x16",
        "chainId": "0x66eee"
      },
      "additionalContracts": [],
      "isFixedGasLimit": false
    },
    {
      "hash": "0xe91d23301a3900a3b5f0327551426f0d36d9433f6ec7126b9a32cc1badf475a3",
      "transactionType": "CALL",
      "contractName": null,
      "contractAddress": "0xf430ac9b73c5fb875d8350a300e95049a19cabb1",
      "function": "setPeer(uint32,bytes32)",
      "arguments": [
        "40232",
        "0x000000000000000000000000d76702b575ba815b2537f4f19bc856b74536ec9b"
      ],
      "transaction": {
        "from": "0x03773f85756acac65a869e89e3b7b2fcda6be140",
        "to": "0xf430ac9b73c5fb875d8350a300e95049a19cabb1",
        "gas": "0x193628",
        "value": "0x0",
        "input": "0x3400288b0000000000000000000000000000000000000000000000000000000000009d28000000000000000000000000d76702b575ba815b2537f4f19bc856b74536ec9b",
        "nonce": "0x17",
        "chainId": "0x66eee"
      },
      "additionalContracts": [],
      "isFixedGasLimit": false
    },
    {
      "hash": "0xf069aa8967b37f1a2b7d730b8e829f8acd7341e1b6f0583bade141325c80e43b",
      "transactionType": "CALL",
      "contractName": null,
      "contractAddress": "0xf430ac9b73c5fb875d8350a300e95049a19cabb1",
      "function": "setPeer(uint32,bytes32)",
      "arguments": [
        "40245",
        "0x00000000000000000000000085a5a8aff78df7097907952a366c6f86f3d4aa10"
      ],
      "transaction": {
        "from": "0x03773f85756acac65a869e89e3b7b2fcda6be140",
        "to": "0xf430ac9b73c5fb875d8350a300e95049a19cabb1",
        "gas": "0x193628",
        "value": "0x0",
        "input": "0x3400288b0000000000000000000000000000000000000000000000000000000000009d3500000000000000000000000085a5a8aff78df7097907952a366c6f86f3d4aa10",
        "nonce": "0x18",
        "chainId": "0x66eee"
      },
      "additionalContracts": [],
      "isFixedGasLimit": false
    }
  ],
  "receipts": [
    {
      "status": "0x1",
      "cumulativeGasUsed": "0xc3d4c",
      "logs": [
        {
          "address": "0x85a5a8aff78df7097907952a366c6f86f3d4aa10",
          "topics": [
            "0xe012bf0e1630512126bccbc050ebf66c62af3753e3cd64d533ddf97f65f621c8"
          ],
          "data": "0x0000000000000000000000000000000000000000000000000000000000009d27",
          "blockHash": "0xb37f5b90d3799d622ad45a080da9d906b09d04e0e38925f5c755c600c2c44ed8",
          "blockNumber": "0x4044a6b",
          "transactionHash": "0xf133261d92a686f7752173abbedb250fe0ba7c061b44d7fae9f8bc7a56d667a4",
          "transactionIndex": "0x1",
          "logIndex": "0x0",
          "removed": false
        }
      ],
      "logsBloom": "0x02000000000000000000000000000000000000000000000000000000000000000000000000000000000000000000000000000000000000000000000000000000000000000000000000000002000000000000000000000000000020000000000000000000000000000000000000000000000000000000000000000000000000000000000000000080000000000000000000000000000000000000000000000000000000000000000000000000000000000000200000000000000000000000000000000000000000000000000000000000000000000000000000000000000000000000000000000000000000000000000000000000000000000000000000000080",
      "type": "0x2",
      "transactionHash": "0xf133261d92a686f7752173abbedb250fe0ba7c061b44d7fae9f8bc7a56d667a4",
      "transactionIndex": "0x1",
      "blockHash": "0xb37f5b90d3799d622ad45a080da9d906b09d04e0e38925f5c755c600c2c44ed8",
      "blockNumber": "0x4044a6b",
      "gasUsed": "0xc3d4c",
      "effectiveGasPrice": "0x5f5e100",
      "from": "0x03773f85756acac65a869e89e3b7b2fcda6be140",
      "to": "0x85a5a8aff78df7097907952a366c6f86f3d4aa10",
      "contractAddress": null,
      "gasUsedForL1": "0xbc226",
      "l1BlockNumber": "0x619aec"
    },
    {
      "status": "0x1",
      "cumulativeGasUsed": "0xc59f6",
      "logs": [
        {
          "address": "0x85a5a8aff78df7097907952a366c6f86f3d4aa10",
          "topics": [
            "0xe012bf0e1630512126bccbc050ebf66c62af3753e3cd64d533ddf97f65f621c8"
          ],
          "data": "0x0000000000000000000000000000000000000000000000000000000000009ce1",
          "blockHash": "0xf772d51c8adb7ba92430f9f4ee50e54b6be9cac71ddc4013983667eea01d0f0c",
          "blockNumber": "0x4044a6e",
          "transactionHash": "0x0f6067bb46901232fdfb4d5a7a63d5edf49137368e3913b9ab0a9488be2d8fa9",
          "transactionIndex": "0x1",
          "logIndex": "0x0",
          "removed": false
        }
      ],
      "logsBloom": "0x02000000000000000000000000000000000000000000000000000000000000000000000000000000000000000000000000000000000000000000000000000000000000000000000000000002000000000000000000000000000020000000000000000000000000000000000000000000000000000000000000000000000000000000000000000080000000000000000000000000000000000000000000000000000000000000000000000000000000000000200000000000000000000000000000000000000000000000000000000000000000000000000000000000000000000000000000000000000000000000000000000000000000000000000000000080",
      "type": "0x2",
      "transactionHash": "0x0f6067bb46901232fdfb4d5a7a63d5edf49137368e3913b9ab0a9488be2d8fa9",
      "transactionIndex": "0x1",
      "blockHash": "0xf772d51c8adb7ba92430f9f4ee50e54b6be9cac71ddc4013983667eea01d0f0c",
      "blockNumber": "0x4044a6e",
      "gasUsed": "0xc59f6",
      "effectiveGasPrice": "0x5f5e100",
      "from": "0x03773f85756acac65a869e89e3b7b2fcda6be140",
      "to": "0x85a5a8aff78df7097907952a366c6f86f3d4aa10",
      "contractAddress": null,
      "gasUsedForL1": "0xbc226",
      "l1BlockNumber": "0x619aec"
    },
    {
      "status": "0x1",
      "cumulativeGasUsed": "0xc46da",
      "logs": [
        {
          "address": "0x85a5a8aff78df7097907952a366c6f86f3d4aa10",
          "topics": [
            "0xe012bf0e1630512126bccbc050ebf66c62af3753e3cd64d533ddf97f65f621c8"
          ],
          "data": "0x0000000000000000000000000000000000000000000000000000000000009d28",
          "blockHash": "0x976fba54384bd63d3df2f9332bd48343dda143a740142342aea96c39ceaa26cb",
          "blockNumber": "0x4044a74",
          "transactionHash": "0x69af7eb3e30c09756509ad59eb8b4d7711bc1e7986dcc13bf4d822ff9829d6c9",
          "transactionIndex": "0x1",
          "logIndex": "0x0",
          "removed": false
        }
      ],
      "logsBloom": "0x02000000000000000000000000000000000000000000000000000000000000000000000000000000000000000000000000000000000000000000000000000000000000000000000000000002000000000000000000000000000020000000000000000000000000000000000000000000000000000000000000000000000000000000000000000080000000000000000000000000000000000000000000000000000000000000000000000000000000000000200000000000000000000000000000000000000000000000000000000000000000000000000000000000000000000000000000000000000000000000000000000000000000000000000000000080",
      "type": "0x2",
      "transactionHash": "0x69af7eb3e30c09756509ad59eb8b4d7711bc1e7986dcc13bf4d822ff9829d6c9",
      "transactionIndex": "0x1",
      "blockHash": "0x976fba54384bd63d3df2f9332bd48343dda143a740142342aea96c39ceaa26cb",
      "blockNumber": "0x4044a74",
      "gasUsed": "0xc46da",
      "effectiveGasPrice": "0x5f5e100",
      "from": "0x03773f85756acac65a869e89e3b7b2fcda6be140",
      "to": "0x85a5a8aff78df7097907952a366c6f86f3d4aa10",
      "contractAddress": null,
      "gasUsedForL1": "0xbc226",
      "l1BlockNumber": "0x619aec"
    },
    {
      "status": "0x1",
      "cumulativeGasUsed": "0xc5068",
      "logs": [
        {
          "address": "0x85a5a8aff78df7097907952a366c6f86f3d4aa10",
          "topics": [
            "0xe012bf0e1630512126bccbc050ebf66c62af3753e3cd64d533ddf97f65f621c8"
          ],
          "data": "0x0000000000000000000000000000000000000000000000000000000000009d35",
          "blockHash": "0xf3c6ef2798c7537252ac2c753cf9c81a5c86763c38b361363af22f80db1569ca",
          "blockNumber": "0x4044a7a",
          "transactionHash": "0x07c4e1f409f92129636d33c644d739cc3278b5ec825a8d9d4fc74e44e0b963fe",
          "transactionIndex": "0x1",
          "logIndex": "0x0",
          "removed": false
        }
      ],
      "logsBloom": "0x02000000000000000000000000000000000000000000000000000000000000000000000000000000000000000000000000000000000000000000000000000000000000000000000000000002000000000000000000000000000020000000000000000000000000000000000000000000000000000000000000000000000000000000000000000080000000000000000000000000000000000000000000000000000000000000000000000000000000000000200000000000000000000000000000000000000000000000000000000000000000000000000000000000000000000000000000000000000000000000000000000000000000000000000000000080",
      "type": "0x2",
      "transactionHash": "0x07c4e1f409f92129636d33c644d739cc3278b5ec825a8d9d4fc74e44e0b963fe",
      "transactionIndex": "0x1",
      "blockHash": "0xf3c6ef2798c7537252ac2c753cf9c81a5c86763c38b361363af22f80db1569ca",
      "blockNumber": "0x4044a7a",
      "gasUsed": "0xc5068",
      "effectiveGasPrice": "0x5f5e100",
      "from": "0x03773f85756acac65a869e89e3b7b2fcda6be140",
      "to": "0x85a5a8aff78df7097907952a366c6f86f3d4aa10",
      "contractAddress": null,
      "gasUsedForL1": "0xbc226",
      "l1BlockNumber": "0x619aed"
    },
    {
      "status": "0x1",
      "cumulativeGasUsed": "0xc7bba",
      "logs": [
        {
          "address": "0x73f0b82ea0c7268866bb39e5a30f3f4e348e3feb",
          "topics": [
            "0x784c8f4dbf0ffedd6e72c76501c545a70f8b203b30a26ce542bf92ba87c248a4"
          ],
          "data": "0x000000000000000000000000980b62da83eff3d4576c647993b0c1d7faf17c73",
          "blockHash": "0xbf177ba1e84edb02b4645fc8cbc7c6fc3c3f06c195e7e2741113bbae3c6f6e28",
          "blockNumber": "0x4044a7e",
          "transactionHash": "0x6eb0f689a63c836addad05d7092b9f22bf2fee53fc770a122f8d873f2901303a",
          "transactionIndex": "0x1",
          "logIndex": "0x0",
          "removed": false
        }
      ],
      "logsBloom": "0x00000000000000000000000000000000000000000000000000000000000000000000000000000000000000000000000000000000000000000000000000000000000000000000000000000000000000000000200000000000000000000000000000000000000000000000000000000000000000000000200000000000000000000000000000000000000000000000000000000000000000000000000000000000000000000000000000200000000000000000000000000000000000000000000000000000000100000000000000000000000000000000000000000000000008000000000000000000000000000000000000000000000000001000000000000000",
      "type": "0x2",
      "transactionHash": "0x6eb0f689a63c836addad05d7092b9f22bf2fee53fc770a122f8d873f2901303a",
      "transactionIndex": "0x1",
      "blockHash": "0xbf177ba1e84edb02b4645fc8cbc7c6fc3c3f06c195e7e2741113bbae3c6f6e28",
      "blockNumber": "0x4044a7e",
      "gasUsed": "0xc7bba",
      "effectiveGasPrice": "0x5f5e100",
      "from": "0x03773f85756acac65a869e89e3b7b2fcda6be140",
      "to": "0x73f0b82ea0c7268866bb39e5a30f3f4e348e3feb",
      "contractAddress": null,
      "gasUsedForL1": "0xbc226",
      "l1BlockNumber": "0x619aed"
    },
    {
      "status": "0x1",
      "cumulativeGasUsed": "0xc7bba",
      "logs": [
        {
          "address": "0x73f0b82ea0c7268866bb39e5a30f3f4e348e3feb",
          "topics": [
            "0x784c8f4dbf0ffedd6e72c76501c545a70f8b203b30a26ce542bf92ba87c248a4"
          ],
          "data": "0x000000000000000000000000df52714c191e8c4ec26ccd5b1578a904724e93b6",
          "blockHash": "0x456c520c436789010b77e99e8f05509c67c89d3b369cc9fa68776f6371878b8d",
          "blockNumber": "0x4044a82",
          "transactionHash": "0x5749a782576fe0ff09cc9023851356e09b9d14fcff6c7edd080a932bf1096bde",
          "transactionIndex": "0x1",
          "logIndex": "0x0",
          "removed": false
        }
      ],
      "logsBloom": "0x00000000000000000000000000000000000000000000000000000000000000000000000000000000000000000000000000000000000000000000000000000000000000000000000000000000000000000000200000000000000000000000000000000000000000000000000000000000000000000000200000000000000000000000000000000000000000000000000000000000000000000000000000000000000000000000000000200000000000000000000000000000000000000000000000000000000100000000000000000000000000000000000000000000000008000000000000000000000000000000000000000000000000001000000000000000",
      "type": "0x2",
      "transactionHash": "0x5749a782576fe0ff09cc9023851356e09b9d14fcff6c7edd080a932bf1096bde",
      "transactionIndex": "0x1",
      "blockHash": "0x456c520c436789010b77e99e8f05509c67c89d3b369cc9fa68776f6371878b8d",
      "blockNumber": "0x4044a82",
      "gasUsed": "0xc7bba",
      "effectiveGasPrice": "0x5f5e100",
      "from": "0x03773f85756acac65a869e89e3b7b2fcda6be140",
      "to": "0x73f0b82ea0c7268866bb39e5a30f3f4e348e3feb",
      "contractAddress": null,
      "gasUsedForL1": "0xbc226",
      "l1BlockNumber": "0x619aed"
    },
    {
      "status": "0x1",
      "cumulativeGasUsed": "0x294581",
      "logs": [
        {
          "address": "0x980b62da83eff3d4576c647993b0c1d7faf17c73",
          "topics": [
            "0xddf252ad1be2c89b69c2b068fc378daa952ba7f163c4a11628f55a4df523b3ef",
            "0x0000000000000000000000000000000000000000000000000000000000000000",
            "0x000000000000000000000000472cf1b83213ded59db4fc643532d07450d8f40b"
          ],
          "data": "0x00000000000000000000000000000000000000000000000006f05b59d3b20000",
          "blockHash": "0x4c1d326df6f1ba78b9bee40b75555912206d2240000b68baf3d1a8a9b016b822",
          "blockNumber": "0x4044a86",
          "transactionHash": "0xe49447b5588725e4d58879656d6c7e19dbaed666358bf62704e239f29ba8fc26",
          "transactionIndex": "0x2",
          "logIndex": "0x7",
          "removed": false
        },
        {
          "address": "0x472cf1b83213ded59db4fc643532d07450d8f40b",
          "topics": [
            "0xf426864a01eab571c4f4f49d1f6a62570576cc8c263ee6a7b888aeae007e0d37"
          ],
          "data": "0x00000000000000000000000000000000000000000000000006f05b59d3b20000",
          "blockHash": "0x4c1d326df6f1ba78b9bee40b75555912206d2240000b68baf3d1a8a9b016b822",
          "blockNumber": "0x4044a86",
          "transactionHash": "0xe49447b5588725e4d58879656d6c7e19dbaed666358bf62704e239f29ba8fc26",
          "transactionIndex": "0x2",
          "logIndex": "0x8",
          "removed": false
        }
      ],
      "logsBloom": "0x00000000000000010000000000000000000000000000000000000800000000000000000000000000000040000000000000000000000000000000000000000000000000000000000000000008100000000000004000000000000000000000000000000000020000000000000000000800000000000000000000010010000000800100000000000000000000000000000000000000000000000000000000000000000000000000000000000001000000000000000000000000000000000000000000000002000000004200000000000000000000000000000000000000000020000000000000000000000000200000000000000000000000000000000000000000",
      "type": "0x2",
      "transactionHash": "0xe49447b5588725e4d58879656d6c7e19dbaed666358bf62704e239f29ba8fc26",
      "transactionIndex": "0x2",
      "blockHash": "0x4c1d326df6f1ba78b9bee40b75555912206d2240000b68baf3d1a8a9b016b822",
      "blockNumber": "0x4044a86",
      "gasUsed": "0xd7aa2",
      "effectiveGasPrice": "0x5f5e100",
      "from": "0x03773f85756acac65a869e89e3b7b2fcda6be140",
      "to": "0x472cf1b83213ded59db4fc643532d07450d8f40b",
      "contractAddress": null,
      "gasUsedForL1": "0xc63c4",
      "l1BlockNumber": "0x619aed"
    },
    {
      "status": "0x1",
      "cumulativeGasUsed": "0x2808d2",
      "logs": [],
      "logsBloom": "0x00000000000000000000000000000000000000000000000000000000000000000000000000000000000000000000000000000000000000000000000000000000000000000000000000000000000000000000000000000000000000000000000000000000000000000000000000000000000000000000000000000000000000000000000000000000000000000000000000000000000000000000000000000000000000000000000000000000000000000000000000000000000000000000000000000000000000000000000000000000000000000000000000000000000000000000000000000000000000000000000000000000000000000000000000000000",
      "type": "0x2",
      "transactionHash": "0x85b48ddfd694c0fd27b16b5abd008b0d57e3d17320c81dc60240f0d1f9ec457c",
      "transactionIndex": "0x2",
      "blockHash": "0x1b01d82f0fca4f53d95693ffc07e7bd7fca5a2d5b58c7b38035d8248230c8fed",
      "blockNumber": "0x4044a8b",
      "gasUsed": "0xf12c8",
      "effectiveGasPrice": "0x5f5e100",
      "from": "0x03773f85756acac65a869e89e3b7b2fcda6be140",
      "to": "0xf430ac9b73c5fb875d8350a300e95049a19cabb1",
      "contractAddress": null,
      "gasUsedForL1": "0xe5cd3",
      "l1BlockNumber": "0x619aed"
    },
    {
      "status": "0x1",
      "cumulativeGasUsed": "0xf12c8",
      "logs": [],
      "logsBloom": "0x00000000000000000000000000000000000000000000000000000000000000000000000000000000000000000000000000000000000000000000000000000000000000000000000000000000000000000000000000000000000000000000000000000000000000000000000000000000000000000000000000000000000000000000000000000000000000000000000000000000000000000000000000000000000000000000000000000000000000000000000000000000000000000000000000000000000000000000000000000000000000000000000000000000000000000000000000000000000000000000000000000000000000000000000000000000",
      "type": "0x2",
      "transactionHash": "0xa75774587cfcb302207ee6111af57ccc4db4d6e24e174756a9cded9589fc4ef9",
      "transactionIndex": "0x1",
      "blockHash": "0x0971e0b394f27cfeed4e3d8336fb1195a25018737aca155c05fdc63037e6c94b",
      "blockNumber": "0x4044a91",
      "gasUsed": "0xf12c8",
      "effectiveGasPrice": "0x5f5e100",
      "from": "0x03773f85756acac65a869e89e3b7b2fcda6be140",
      "to": "0xf430ac9b73c5fb875d8350a300e95049a19cabb1",
      "contractAddress": null,
      "gasUsedForL1": "0xe5cd3",
      "l1BlockNumber": "0x619aed"
    },
    {
      "status": "0x1",
      "cumulativeGasUsed": "0xf12c8",
      "logs": [],
      "logsBloom": "0x00000000000000000000000000000000000000000000000000000000000000000000000000000000000000000000000000000000000000000000000000000000000000000000000000000000000000000000000000000000000000000000000000000000000000000000000000000000000000000000000000000000000000000000000000000000000000000000000000000000000000000000000000000000000000000000000000000000000000000000000000000000000000000000000000000000000000000000000000000000000000000000000000000000000000000000000000000000000000000000000000000000000000000000000000000000",
      "type": "0x2",
      "transactionHash": "0x258fb20ece45c997da21ec45ca480016cc53ea99fcde0f90d95f238b91f116af",
      "transactionIndex": "0x1",
      "blockHash": "0xfdb89e2781400a1e34a8787e29de324cc76a9f9400f8ec883882766ef683d315",
      "blockNumber": "0x4044a95",
      "gasUsed": "0xf12c8",
      "effectiveGasPrice": "0x5f5e100",
      "from": "0x03773f85756acac65a869e89e3b7b2fcda6be140",
      "to": "0xf430ac9b73c5fb875d8350a300e95049a19cabb1",
      "contractAddress": null,
      "gasUsedForL1": "0xe5cd3",
      "l1BlockNumber": "0x619aed"
    },
    {
      "status": "0x1",
      "cumulativeGasUsed": "0x2d6023",
      "logs": [],
      "logsBloom": "0x00000000000000000000000000000000000000000000000000000000000000000000000000000000000000000000000000000000000000000000000000000000000000000000000000000000000000000000000000000000000000000000000000000000000000000000000000000000000000000000000000000000000000000000000000000000000000000000000000000000000000000000000000000000000000000000000000000000000000000000000000000000000000000000000000000000000000000000000000000000000000000000000000000000000000000000000000000000000000000000000000000000000000000000000000000000",
      "type": "0x2",
      "transactionHash": "0x66c4891ba58eb5af3df1e02e22407e6ebb127c112f654a0393dac972722f5c4a",
      "transactionIndex": "0x2",
      "blockHash": "0xd11383c92a304722bf7ee507b73fb0dc934825f7be8f5e2cdbc5e314e3d59ea0",
      "blockNumber": "0x4044a9b",
      "gasUsed": "0xf12c8",
      "effectiveGasPrice": "0x5f5e100",
      "from": "0x03773f85756acac65a869e89e3b7b2fcda6be140",
      "to": "0xf430ac9b73c5fb875d8350a300e95049a19cabb1",
      "contractAddress": null,
      "gasUsedForL1": "0xe5cd3",
      "l1BlockNumber": "0x619aed"
    },
    {
      "status": "0x1",
      "cumulativeGasUsed": "0xf1726",
      "logs": [
        {
          "address": "0xf430ac9b73c5fb875d8350a300e95049a19cabb1",
          "topics": [
            "0x238399d427b947898edb290f5ff0f9109849b1c3ba196a42e35f00c50a54b98b"
          ],
          "data": "0x0000000000000000000000000000000000000000000000000000000000009ce10000000000000000000000000cfbc9aaef1fbca9bbef916ad4dabf0d6103451b",
          "blockHash": "0xcc9d9b8585db104d4526ff4667cc7d8946b8691a6aa73159001764a313ee0273",
          "blockNumber": "0x4044aa0",
          "transactionHash": "0x0c58dd7fce45526460fd84674361ac7d0be6b95894fa73a060619937abb4388d",
          "transactionIndex": "0x1",
          "logIndex": "0x0",
          "removed": false
        }
      ],
      "logsBloom": "0x00000000000000000000000000002000000000000000000000000000000000000000000000000000000000000000000000000000000000000800000000000000000000000000000000000000000000000000000000000000000000000000000000000000000000000000000000000000000000000000000000000000000000000000100000000000000000000000000000000000000000000000000000000000000000000000000000000200000000000000000000000000000002000000000000000000000000000000000000000000000000000000000000040000000000000000000000000000000000000000000000000000000000000000000000000000",
      "type": "0x2",
      "transactionHash": "0x0c58dd7fce45526460fd84674361ac7d0be6b95894fa73a060619937abb4388d",
      "transactionIndex": "0x1",
      "blockHash": "0xcc9d9b8585db104d4526ff4667cc7d8946b8691a6aa73159001764a313ee0273",
      "blockNumber": "0x4044aa0",
      "gasUsed": "0xf1726",
      "effectiveGasPrice": "0x5f5e100",
      "from": "0x03773f85756acac65a869e89e3b7b2fcda6be140",
      "to": "0xf430ac9b73c5fb875d8350a300e95049a19cabb1",
      "contractAddress": null,
      "gasUsedForL1": "0xe5cd3",
      "l1BlockNumber": "0x619aed"
    },
    {
      "status": "0x1",
      "cumulativeGasUsed": "0xf1726",
      "logs": [
        {
          "address": "0xf430ac9b73c5fb875d8350a300e95049a19cabb1",
          "topics": [
            "0x238399d427b947898edb290f5ff0f9109849b1c3ba196a42e35f00c50a54b98b"
          ],
          "data": "0x0000000000000000000000000000000000000000000000000000000000009d28000000000000000000000000d76702b575ba815b2537f4f19bc856b74536ec9b",
          "blockHash": "0x5d1a7e1bd43cf050336271cad66a06f2ffbfcc5061466f0454fa2f952a10d12a",
          "blockNumber": "0x4044aa6",
          "transactionHash": "0xe91d23301a3900a3b5f0327551426f0d36d9433f6ec7126b9a32cc1badf475a3",
          "transactionIndex": "0x1",
          "logIndex": "0x0",
          "removed": false
        }
      ],
      "logsBloom": "0x00000000000000000000000000002000000000000000000000000000000000000000000000000000000000000000000000000000000000000800000000000000000000000000000000000000000000000000000000000000000000000000000000000000000000000000000000000000000000000000000000000000000000000000100000000000000000000000000000000000000000000000000000000000000000000000000000000200000000000000000000000000000002000000000000000000000000000000000000000000000000000000000000040000000000000000000000000000000000000000000000000000000000000000000000000000",
      "type": "0x2",
      "transactionHash": "0xe91d23301a3900a3b5f0327551426f0d36d9433f6ec7126b9a32cc1badf475a3",
      "transactionIndex": "0x1",
      "blockHash": "0x5d1a7e1bd43cf050336271cad66a06f2ffbfcc5061466f0454fa2f952a10d12a",
      "blockNumber": "0x4044aa6",
      "gasUsed": "0xf1726",
      "effectiveGasPrice": "0x5f5e100",
      "from": "0x03773f85756acac65a869e89e3b7b2fcda6be140",
      "to": "0xf430ac9b73c5fb875d8350a300e95049a19cabb1",
      "contractAddress": null,
      "gasUsedForL1": "0xe5cd3",
      "l1BlockNumber": "0x619aee"
    },
    {
      "status": "0x1",
      "cumulativeGasUsed": "0x6b2624",
      "logs": [
        {
          "address": "0xf430ac9b73c5fb875d8350a300e95049a19cabb1",
          "topics": [
            "0x238399d427b947898edb290f5ff0f9109849b1c3ba196a42e35f00c50a54b98b"
          ],
          "data": "0x0000000000000000000000000000000000000000000000000000000000009d3500000000000000000000000085a5a8aff78df7097907952a366c6f86f3d4aa10",
          "blockHash": "0x43b11a95391fccdf229ddcd7316b357e681be82f1fe223746a1d1d491be61d44",
          "blockNumber": "0x4044aac",
          "transactionHash": "0xf069aa8967b37f1a2b7d730b8e829f8acd7341e1b6f0583bade141325c80e43b",
          "transactionIndex": "0x2",
          "logIndex": "0x5",
          "removed": false
        }
      ],
      "logsBloom": "0x00000000000000000000000000002000000000000000000000000000000000000000000000000000000000000000000000000000000000000800000000000000000000000000000000000000000000000000000000000000000000000000000000000000000000000000000000000000000000000000000000000000000000000000100000000000000000000000000000000000000000000000000000000000000000000000000000000200000000000000000000000000000002000000000000000000000000000000000000000000000000000000000000040000000000000000000000000000000000000000000000000000000000000000000000000000",
      "type": "0x2",
      "transactionHash": "0xf069aa8967b37f1a2b7d730b8e829f8acd7341e1b6f0583bade141325c80e43b",
      "transactionIndex": "0x2",
      "blockHash": "0x43b11a95391fccdf229ddcd7316b357e681be82f1fe223746a1d1d491be61d44",
      "blockNumber": "0x4044aac",
      "gasUsed": "0xf1726",
      "effectiveGasPrice": "0x5f5e100",
      "from": "0x03773f85756acac65a869e89e3b7b2fcda6be140",
      "to": "0xf430ac9b73c5fb875d8350a300e95049a19cabb1",
      "contractAddress": null,
      "gasUsedForL1": "0xe5cd3",
      "l1BlockNumber": "0x619aee"
    }
  ],
  "libraries": [],
  "pending": [],
  "returns": {},
  "timestamp": 1722244507,
  "chain": 421614,
  "commit": "bfd3004"
}