{
  "transactions": [
    {
      "hash": "0xdaf5143ac8be1ee26c854aa72cfd100adcb81ed0bc704a0e645ec7a01cba65f3",
      "transactionType": "CALL",
      "contractName": null,
      "contractAddress": "0x6d08b0aa7eecb491c61190418df9235d1b53fcd8",
      "function": "setPeer(uint32,bytes32)",
      "arguments": [
        "40231",
        "0x000000000000000000000000981830d1946e6fc9d5f893327a2819fd5e2c5819"
      ],
      "transaction": {
        "from": "0x03773f85756acac65a869e89e3b7b2fcda6be140",
        "to": "0x6d08b0aa7eecb491c61190418df9235d1b53fcd8",
        "gas": "0xaf0e",
        "value": "0x0",
        "input": "0x3400288b0000000000000000000000000000000000000000000000000000000000009d27000000000000000000000000981830d1946e6fc9d5f893327a2819fd5e2c5819",
        "nonce": "0x20",
        "chainId": "0xaa37dc"
      },
      "additionalContracts": [],
      "isFixedGasLimit": false
    }
  ],
  "receipts": [
    {
      "status": "0x1",
      "cumulativeGasUsed": "0x34b28f",
      "logs": [
        {
          "address": "0x6d08b0aa7eecb491c61190418df9235d1b53fcd8",
          "topics": [
            "0x238399d427b947898edb290f5ff0f9109849b1c3ba196a42e35f00c50a54b98b"
          ],
          "data": "0x0000000000000000000000000000000000000000000000000000000000009d27000000000000000000000000981830d1946e6fc9d5f893327a2819fd5e2c5819",
          "blockHash": "0x6293dcb03f1bd79df299d670e0ac2d10b910ea5c4c52d27ab44e6830643bce2d",
          "blockNumber": "0xe84fdb",
          "transactionHash": "0xdaf5143ac8be1ee26c854aa72cfd100adcb81ed0bc704a0e645ec7a01cba65f3",
          "transactionIndex": "0x13",
          "logIndex": "0x41",
          "removed": false
        }
      ],
      "logsBloom": "0x00000000000000000000000000000000000000000000000000000000000000000000000000000000000000000000000000000400000000040800000000000000000000000000000000000000000000000000000000040000000000000000000000000000000000000000000000000000000000000000000000000000000000000000000000000000000000000000000000000000000000000000000000000000000000000000000000000000000000000000000000000000000002000000000000000000000000000000000000000000000000000000000000040000000000000000000000000000000000000000000000000000000000000000000000000000",
      "type": "0x2",
      "transactionHash": "0xdaf5143ac8be1ee26c854aa72cfd100adcb81ed0bc704a0e645ec7a01cba65f3",
      "transactionIndex": "0x13",
      "blockHash": "0x6293dcb03f1bd79df299d670e0ac2d10b910ea5c4c52d27ab44e6830643bce2d",
      "blockNumber": "0xe84fdb",
      "gasUsed": "0x77b3",
      "effectiveGasPrice": "0x845cb0",
      "from": "0x03773f85756acac65a869e89e3b7b2fcda6be140",
      "to": "0x6d08b0aa7eecb491c61190418df9235d1b53fcd8",
      "contractAddress": null,
      "l1BaseFeeScalar": "0x1db0",
      "l1BlobBaseFee": "0x2dd581e6f22",
      "l1BlobBaseFeeScalar": "0xd2730",
      "l1Fee": "0xf70282c5a0ff",
      "l1GasPrice": "0x1aa1882b4",
      "l1GasUsed": "0x640"
    }
  ],
  "libraries": [],
  "pending": [],
  "returns": {},
  "timestamp": 1722252137,
  "chain": 11155420,
  "commit": "bfd3004"
}