{
  "transactions": [
    {
      "hash": "0x79993c20b8ff6a293e2f93b789f551dad067d9f6e887ca86dc4eae658a714e0a",
      "transactionType": "CALL",
      "contractName": null,
      "contractAddress": "0xbfe686a5bd487b52943d9e550e42c4910ab33888",
      "function": "poolWithdraw(uint256,address)",
      "arguments": [
        "477294499874666000",
        "0xA500C712e7EbDd5040f1A212800f5f6fa20d05F8"
      ],
      "transaction": {
        "from": "0xe0d6f93151091f24ea09474e9271bd60f2624d99",
        "to": "0xbfe686a5bd487b52943d9e550e42c4910ab33888",
        "gas": "0x1015e",
        "value": "0x0",
        "input": "0x5b1ca168000000000000000000000000000000000000000000000000069fb0d19e46f610000000000000000000000000a500c712e7ebdd5040f1a212800f5f6fa20d05f8",
        "nonce": "0x5b",
        "chainId": "0xaa37dc"
      },
      "additionalContracts": [],
      "isFixedGasLimit": false
    }
  ],
  "receipts": [
    {
      "status": "0x1",
      "cumulativeGasUsed": "0xbad15",
      "logs": [
        {
          "address": "0x74a4a85c611679b73f402b36c0f84a7d2ccdfda3",
          "topics": [
            "0x7fcf532c15f0a6db0bd6d0e038bea71d30d808c7d98cb3bf7268a95bf5081b65",
            "0x000000000000000000000000bfe686a5bd487b52943d9e550e42c4910ab33888"
          ],
          "data": "0x000000000000000000000000000000000000000000000000069fb0d19e46f610",
          "blockHash": "0x13770ee191b0bb7a54cc1cbb1195a44d8756da19cc723ff4833cf057a684bd16",
          "blockNumber": "0x1072991",
          "transactionHash": "0x79993c20b8ff6a293e2f93b789f551dad067d9f6e887ca86dc4eae658a714e0a",
          "transactionIndex": "0x4",
          "logIndex": "0x9",
          "removed": false
        },
        {
          "address": "0xbfe686a5bd487b52943d9e550e42c4910ab33888",
          "topics": [
            "0x6f07e6169c1653554eb707b6f6cd8f7ccf9cc29e54a0d8a71d9d5867d2057ac2",
            "0x000000000000000000000000a500c712e7ebdd5040f1a212800f5f6fa20d05f8"
          ],
          "data": "0x000000000000000000000000000000000000000000000000069fb0d19e46f610",
          "blockHash": "0x13770ee191b0bb7a54cc1cbb1195a44d8756da19cc723ff4833cf057a684bd16",
          "blockNumber": "0x1072991",
          "transactionHash": "0x79993c20b8ff6a293e2f93b789f551dad067d9f6e887ca86dc4eae658a714e0a",
          "transactionIndex": "0x4",
          "logIndex": "0xa",
          "removed": false
        }
      ],
      "logsBloom": "0x00000000000000000000000000020018000000000000000000000000000000000000000000000000000000000000000000000000000000400400000000000000000000000000000002002000000000000000000000400000000000000000000010000000000000000001000000000000000000000000040000000000000000000000000000000000000000000000001000000000000000000000000000000000001000000000000000080000000000000000000000000000000000008000000000000000000000000000000800000080000000000000000000000002000000000000000000000000000000000000000000000000000000000000000000000000",
      "type": "0x2",
      "transactionHash": "0x79993c20b8ff6a293e2f93b789f551dad067d9f6e887ca86dc4eae658a714e0a",
      "transactionIndex": "0x4",
      "blockHash": "0x13770ee191b0bb7a54cc1cbb1195a44d8756da19cc723ff4833cf057a684bd16",
      "blockNumber": "0x1072991",
      "gasUsed": "0xba55",
      "effectiveGasPrice": "0xf6a50",
      "from": "0xe0d6f93151091f24ea09474e9271bd60f2624d99",
      "to": "0xbfe686a5bd487b52943d9e550e42c4910ab33888",
      "contractAddress": null,
      "l1BaseFeeScalar": "0x1db0",
      "l1BlobBaseFee": "0x1",
      "l1BlobBaseFeeScalar": "0xd2730",
      "l1Fee": "0x393539af1",
      "l1GasPrice": "0x4b460881",
      "l1GasUsed": "0x640"
    }
  ],
  "libraries": [],
  "pending": [],
  "returns": {},
  "timestamp": 1726295764,
  "chain": 11155420,
  "commit": "5fcd4f3"
}