{
  "transactions": [
    {
      "hash": "0xd6f60c8990fc929ae312ab8f3c1bda7a6a337e3657f6a739bcf8bd9949e0dee2",
      "transactionType": "CALL",
      "contractName": null,
      "contractAddress": "0x6d08b0aa7eecb491c61190418df9235d1b53fcd8",
      "function": "addSupportedToken(address)",
      "arguments": [
        "0x74A4A85C611679B73F402B36c0F84A7D2CcdFDa3"
      ],
      "transaction": {
        "from": "0x03773f85756acac65a869e89e3b7b2fcda6be140",
        "to": "0x6d08b0aa7eecb491c61190418df9235d1b53fcd8",
        "gas": "0x10054",
        "value": "0x0",
        "input": "0x6d69fcaf00000000000000000000000074a4a85c611679b73f402b36c0f84a7d2ccdfda3",
        "nonce": "0x1d",
        "chainId": "0xaa37dc"
      },
      "additionalContracts": [],
      "isFixedGasLimit": false
    },
    {
      "hash": "0xb833f8570d0299b850bc82613d621e42fa174f398fddd1dbe36a46282f69e2f5",
      "transactionType": "CALL",
      "contractName": null,
      "contractAddress": "0x6d08b0aa7eecb491c61190418df9235d1b53fcd8",
      "function": "addSupportedToken(address)",
      "arguments": [
        "0xeEbe5E1bD522BbD9a64f28d923c0680F89DB5c59"
      ],
      "transaction": {
        "from": "0x03773f85756acac65a869e89e3b7b2fcda6be140",
        "to": "0x6d08b0aa7eecb491c61190418df9235d1b53fcd8",
        "gas": "0x10054",
        "value": "0x0",
        "input": "0x6d69fcaf000000000000000000000000eebe5e1bd522bbd9a64f28d923c0680f89db5c59",
        "nonce": "0x1e",
        "chainId": "0xaa37dc"
      },
      "additionalContracts": [],
      "isFixedGasLimit": false
    },
    {
      "hash": "0xbf3f41616a3195e83acabb2b49e37dd49b3cbcf07257f2adb312799d9ab33358",
      "transactionType": "CALL",
      "contractName": null,
      "contractAddress": "0x6d08b0aa7eecb491c61190418df9235d1b53fcd8",
      "function": "setPeer(uint32,bytes32)",
      "arguments": [
        "40231",
        "0x000000000000000000000000f430ac9b73c5fb875d8350a300e95049a19cabb1"
      ],
      "transaction": {
        "from": "0x03773f85756acac65a869e89e3b7b2fcda6be140",
        "to": "0x6d08b0aa7eecb491c61190418df9235d1b53fcd8",
        "gas": "0x110ae",
        "value": "0x0",
        "input": "0x3400288b0000000000000000000000000000000000000000000000000000000000009d27000000000000000000000000f430ac9b73c5fb875d8350a300e95049a19cabb1",
        "nonce": "0x1f",
        "chainId": "0xaa37dc"
      },
      "additionalContracts": [],
      "isFixedGasLimit": false
    }
  ],
  "receipts": [
    {
      "status": "0x1",
      "cumulativeGasUsed": "0x272d55",
      "logs": [
        {
          "address": "0x6d08b0aa7eecb491c61190418df9235d1b53fcd8",
          "topics": [
            "0x784c8f4dbf0ffedd6e72c76501c545a70f8b203b30a26ce542bf92ba87c248a4"
          ],
          "data": "0x00000000000000000000000074a4a85c611679b73f402b36c0f84a7d2ccdfda3",
          "blockHash": "0x1f42f9cb021cf8ccba05f0b24f60abdb3271bba655e688658b176989c167dd4c",
          "blockNumber": "0xe847a2",
          "transactionHash": "0xd6f60c8990fc929ae312ab8f3c1bda7a6a337e3657f6a739bcf8bd9949e0dee2",
          "transactionIndex": "0x10",
          "logIndex": "0x2e",
          "removed": false
        }
      ],
      "logsBloom": "0x00000000000000000000000000000000000000000000000000000000000000000000000000000000000000000000000000000400000000040000000000000000000000000000000000000000000000000000000000040000000000000000000000000000000000000000000000000000000000000000200000000000000000000000000000000000000000000000000000000000000000000000000000000000000000000000000000200000000000000000000000000000000000000000000000000000000000000000000000000000000000000000000000000000000000000000000000000000000000000000000000000000000000001000000000000000",
      "type": "0x2",
      "transactionHash": "0xd6f60c8990fc929ae312ab8f3c1bda7a6a337e3657f6a739bcf8bd9949e0dee2",
      "transactionIndex": "0x10",
      "blockHash": "0x1f42f9cb021cf8ccba05f0b24f60abdb3271bba655e688658b176989c167dd4c",
      "blockNumber": "0xe847a2",
      "gasUsed": "0xb994",
      "effectiveGasPrice": "0x2369957",
      "from": "0x03773f85756acac65a869e89e3b7b2fcda6be140",
      "to": "0x6d08b0aa7eecb491c61190418df9235d1b53fcd8",
      "contractAddress": null,
      "l1BaseFeeScalar": "0x1db0",
      "l1BlobBaseFee": "0x35a0c1d6a6a",
      "l1BlobBaseFeeScalar": "0xd2730",
      "l1Fee": "0x1211d24b72759",
      "l1GasPrice": "0x411597cad",
      "l1GasUsed": "0x640"
    },
    {
      "status": "0x1",
      "cumulativeGasUsed": "0x368e87",
      "logs": [
        {
          "address": "0x6d08b0aa7eecb491c61190418df9235d1b53fcd8",
          "topics": [
            "0x784c8f4dbf0ffedd6e72c76501c545a70f8b203b30a26ce542bf92ba87c248a4"
          ],
          "data": "0x000000000000000000000000eebe5e1bd522bbd9a64f28d923c0680f89db5c59",
          "blockHash": "0x1f42f9cb021cf8ccba05f0b24f60abdb3271bba655e688658b176989c167dd4c",
          "blockNumber": "0xe847a2",
          "transactionHash": "0xb833f8570d0299b850bc82613d621e42fa174f398fddd1dbe36a46282f69e2f5",
          "transactionIndex": "0x17",
          "logIndex": "0x41",
          "removed": false
        }
      ],
      "logsBloom": "0x00000000000000000000000000000000000000000000000000000000000000000000000000000000000000000000000000000400000000040000000000000000000000000000000000000000000000000000000000040000000000000000000000000000000000000000000000000000000000000000200000000000000000000000000000000000000000000000000000000000000000000000000000000000000000000000000000200000000000000000000000000000000000000000000000000000000000000000000000000000000000000000000000000000000000000000000000000000000000000000000000000000000000001000000000000000",
      "type": "0x2",
      "transactionHash": "0xb833f8570d0299b850bc82613d621e42fa174f398fddd1dbe36a46282f69e2f5",
      "transactionIndex": "0x17",
      "blockHash": "0x1f42f9cb021cf8ccba05f0b24f60abdb3271bba655e688658b176989c167dd4c",
      "blockNumber": "0xe847a2",
      "gasUsed": "0xb994",
      "effectiveGasPrice": "0x2369957",
      "from": "0x03773f85756acac65a869e89e3b7b2fcda6be140",
      "to": "0x6d08b0aa7eecb491c61190418df9235d1b53fcd8",
      "contractAddress": null,
      "l1BaseFeeScalar": "0x1db0",
      "l1BlobBaseFee": "0x35a0c1d6a6a",
      "l1BlobBaseFeeScalar": "0xd2730",
      "l1Fee": "0x1211d24b72759",
      "l1GasPrice": "0x411597cad",
      "l1GasUsed": "0x640"
    },
    {
      "status": "0x1",
      "cumulativeGasUsed": "0x3748fa",
      "logs": [
        {
          "address": "0x6d08b0aa7eecb491c61190418df9235d1b53fcd8",
          "topics": [
            "0x238399d427b947898edb290f5ff0f9109849b1c3ba196a42e35f00c50a54b98b"
          ],
          "data": "0x0000000000000000000000000000000000000000000000000000000000009d27000000000000000000000000f430ac9b73c5fb875d8350a300e95049a19cabb1",
          "blockHash": "0x1f42f9cb021cf8ccba05f0b24f60abdb3271bba655e688658b176989c167dd4c",
          "blockNumber": "0xe847a2",
          "transactionHash": "0xbf3f41616a3195e83acabb2b49e37dd49b3cbcf07257f2adb312799d9ab33358",
          "transactionIndex": "0x18",
          "logIndex": "0x42",
          "removed": false
        }
      ],
      "logsBloom": "0x00000000000000000000000000000000000000000000000000000000000000000000000000000000000000000000000000000400000000040800000000000000000000000000000000000000000000000000000000040000000000000000000000000000000000000000000000000000000000000000000000000000000000000000000000000000000000000000000000000000000000000000000000000000000000000000000000000000000000000000000000000000000002000000000000000000000000000000000000000000000000000000000000040000000000000000000000000000000000000000000000000000000000000000000000000000",
      "type": "0x2",
      "transactionHash": "0xbf3f41616a3195e83acabb2b49e37dd49b3cbcf07257f2adb312799d9ab33358",
      "transactionIndex": "0x18",
      "blockHash": "0x1f42f9cb021cf8ccba05f0b24f60abdb3271bba655e688658b176989c167dd4c",
      "blockNumber": "0xe847a2",
      "gasUsed": "0xba73",
      "effectiveGasPrice": "0x2369957",
      "from": "0x03773f85756acac65a869e89e3b7b2fcda6be140",
      "to": "0x6d08b0aa7eecb491c61190418df9235d1b53fcd8",
      "contractAddress": null,
      "l1BaseFeeScalar": "0x1db0",
      "l1BlobBaseFee": "0x35a0c1d6a6a",
      "l1BlobBaseFeeScalar": "0xd2730",
      "l1Fee": "0x1211d24b72759",
      "l1GasPrice": "0x411597cad",
      "l1GasUsed": "0x640"
    }
  ],
  "libraries": [],
  "pending": [],
  "returns": {},
  "timestamp": 1722247927,
  "chain": 11155420,
  "commit": "bfd3004"
}