{
  "transactions": [
    {
      "hash": "0xa98446b114b7419b51126cc2546cf1658a4d9e4c59d7b1921102c3424541b9a1",
      "transactionType": "CALL",
      "contractName": null,
      "contractAddress": "0x73a257e356dd6eb65c2ce9753c67f43ae3e33a6b",
      "function": "addSupportedToken(address,address)",
      "arguments": [
        "0x74A4A85C611679B73F402B36c0F84A7D2CcdFDa3",
        "0xA500C712e7EbDd5040f1A212800f5f6fa20d05F8"
      ],
      "transaction": {
        "from": "0xe0d6f93151091f24ea09474e9271bd60f2624d99",
        "to": "0x73a257e356dd6eb65c2ce9753c67f43ae3e33a6b",
        "gas": "0x11d78",
        "value": "0x0",
        "input": "0xc2b7be1600000000000000000000000074a4a85c611679b73f402b36c0f84a7d2ccdfda3000000000000000000000000a500c712e7ebdd5040f1a212800f5f6fa20d05f8",
        "nonce": "0x3b",
        "chainId": "0xaa37dc"
      },
      "additionalContracts": [],
      "isFixedGasLimit": false
    },
    {
      "hash": "0xf0dcbf3d6c67463513e93c654faabef0de81b726acf4a0d9388d9b3d3f6f271f",
      "transactionType": "CALL",
      "contractName": null,
      "contractAddress": "0x73a257e356dd6eb65c2ce9753c67f43ae3e33a6b",
      "function": "addSupportedToken(address,address)",
      "arguments": [
        "0xeEbe5E1bD522BbD9a64f28d923c0680F89DB5c59",
        "0xA500C712e7EbDd5040f1A212800f5f6fa20d05F8"
      ],
      "transaction": {
        "from": "0xe0d6f93151091f24ea09474e9271bd60f2624d99",
        "to": "0x73a257e356dd6eb65c2ce9753c67f43ae3e33a6b",
        "gas": "0x11d78",
        "value": "0x0",
        "input": "0xc2b7be16000000000000000000000000eebe5e1bd522bbd9a64f28d923c0680f89db5c59000000000000000000000000a500c712e7ebdd5040f1a212800f5f6fa20d05f8",
        "nonce": "0x3c",
        "chainId": "0xaa37dc"
      },
      "additionalContracts": [],
      "isFixedGasLimit": false
    },
    {
      "hash": "0x2a497fc44bef8fb8b8fded4f85422338b4de4493a13b06035cdeb7028d43794b",
      "transactionType": "CALL",
      "contractName": null,
      "contractAddress": "0xbfe686a5bd487b52943d9e550e42c4910ab33888",
      "function": "poolDeposit(address)",
      "arguments": [
        "0xA500C712e7EbDd5040f1A212800f5f6fa20d05F8"
      ],
      "transaction": {
        "from": "0xe0d6f93151091f24ea09474e9271bd60f2624d99",
        "to": "0xbfe686a5bd487b52943d9e550e42c4910ab33888",
        "gas": "0x1d07d",
        "value": "0x6f05b59d3b20000",
        "input": "0x5698afa5000000000000000000000000a500c712e7ebdd5040f1a212800f5f6fa20d05f8",
        "nonce": "0x3d",
        "chainId": "0xaa37dc"
      },
      "additionalContracts": [],
      "isFixedGasLimit": false
    }
  ],
  "receipts": [
    {
      "status": "0x1",
      "cumulativeGasUsed": "0x2bcd9d",
      "logs": [
        {
          "address": "0x73a257e356dd6eb65c2ce9753c67f43ae3e33a6b",
          "topics": [
            "0xdffbd9ded1c09446f09377de547142dcce7dc541c8b0b028142b1eba7026b9e7",
            "0x00000000000000000000000074a4a85c611679b73f402b36c0f84a7d2ccdfda3",
            "0x000000000000000000000000a500c712e7ebdd5040f1a212800f5f6fa20d05f8"
          ],
          "data": "0x",
          "blockHash": "0xcd4049044094fae3658040714abe5e7bdec238ef4ad7547c48739df712582523",
          "blockNumber": "0xffcfd5",
          "transactionHash": "0xa98446b114b7419b51126cc2546cf1658a4d9e4c59d7b1921102c3424541b9a1",
          "transactionIndex": "0x8",
          "logIndex": "0x41",
          "removed": false
        }
      ],
      "logsBloom": "0x00000000000000000000000000000000000000000000000000000000000000000000000000000000000000000000000000000000008000400000000000000000000000000000000000000000000000000000000000000000000000200000000010000000000000000008000000000000000000000000002000000000020000000000000000002000000000000000000000000000000000000000000000000000000000000000000000080000000000000000000000010000000000000000000000000000000000000000000800000000000000000000000000000000000000000000000000000000000000000000000000000000000400000000000000000000",
      "type": "0x2",
      "transactionHash": "0xa98446b114b7419b51126cc2546cf1658a4d9e4c59d7b1921102c3424541b9a1",
      "transactionIndex": "0x8",
      "blockHash": "0xcd4049044094fae3658040714abe5e7bdec238ef4ad7547c48739df712582523",
      "blockNumber": "0xffcfd5",
      "gasUsed": "0xceae",
      "effectiveGasPrice": "0xf6b40",
      "from": "0xe0d6f93151091f24ea09474e9271bd60f2624d99",
      "to": "0x73a257e356dd6eb65c2ce9753c67f43ae3e33a6b",
      "contractAddress": null,
      "l1BaseFeeScalar": "0x1db0",
      "l1BlobBaseFee": "0x42ddbd76a6",
      "l1BlobBaseFeeScalar": "0xd2730",
      "l1Fee": "0x16b47c3459d4",
      "l1GasPrice": "0x3ff9a4942",
      "l1GasUsed": "0x640"
    },
    {
      "status": "0x1",
      "cumulativeGasUsed": "0x2c9c4b",
      "logs": [
        {
          "address": "0x73a257e356dd6eb65c2ce9753c67f43ae3e33a6b",
          "topics": [
            "0xdffbd9ded1c09446f09377de547142dcce7dc541c8b0b028142b1eba7026b9e7",
            "0x000000000000000000000000eebe5e1bd522bbd9a64f28d923c0680f89db5c59",
            "0x000000000000000000000000a500c712e7ebdd5040f1a212800f5f6fa20d05f8"
          ],
          "data": "0x",
          "blockHash": "0xcd4049044094fae3658040714abe5e7bdec238ef4ad7547c48739df712582523",
          "blockNumber": "0xffcfd5",
          "transactionHash": "0xf0dcbf3d6c67463513e93c654faabef0de81b726acf4a0d9388d9b3d3f6f271f",
          "transactionIndex": "0x9",
          "logIndex": "0x42",
          "removed": false
        }
      ],
      "logsBloom": "0x00000000000000000000000000000000000000000000000040000000000000000000000000000000000000000000000000000000008000400000000000000000000000000000000000000000000000000000000000000000000000200000000010000000000000000000000000000000000000000000002000000000020000000000000000002000000000000000000000000000400000000000000000000000000000000000000000000000000000000000000000000000000000000000000000000000000000000000000800000000000000000000000000000000000000000000000000000000020000000000000000000000000400000000000000000000",
      "type": "0x2",
      "transactionHash": "0xf0dcbf3d6c67463513e93c654faabef0de81b726acf4a0d9388d9b3d3f6f271f",
      "transactionIndex": "0x9",
      "blockHash": "0xcd4049044094fae3658040714abe5e7bdec238ef4ad7547c48739df712582523",
      "blockNumber": "0xffcfd5",
      "gasUsed": "0xceae",
      "effectiveGasPrice": "0xf6b40",
      "from": "0xe0d6f93151091f24ea09474e9271bd60f2624d99",
      "to": "0x73a257e356dd6eb65c2ce9753c67f43ae3e33a6b",
      "contractAddress": null,
      "l1BaseFeeScalar": "0x1db0",
      "l1BlobBaseFee": "0x42ddbd76a6",
      "l1BlobBaseFeeScalar": "0xd2730",
      "l1Fee": "0x16b47c3459d4",
      "l1GasPrice": "0x3ff9a4942",
      "l1GasUsed": "0x640"
    },
    {
      "status": "0x1",
      "cumulativeGasUsed": "0x2dd9e5",
      "logs": [
        {
          "address": "0x74a4a85c611679b73f402b36c0f84a7d2ccdfda3",
          "topics": [
            "0xe1fffcc4923d04b559f4d29a8bfc6cda04eb5b0d3c460751c2402c5c5cc9109c",
            "0x000000000000000000000000bfe686a5bd487b52943d9e550e42c4910ab33888"
          ],
          "data": "0x00000000000000000000000000000000000000000000000006f05b59d3b20000",
          "blockHash": "0xcd4049044094fae3658040714abe5e7bdec238ef4ad7547c48739df712582523",
          "blockNumber": "0xffcfd5",
          "transactionHash": "0x2a497fc44bef8fb8b8fded4f85422338b4de4493a13b06035cdeb7028d43794b",
          "transactionIndex": "0xa",
          "logIndex": "0x43",
          "removed": false
        },
        {
          "address": "0xbfe686a5bd487b52943d9e550e42c4910ab33888",
          "topics": [
            "0x90576f1ad407b163ccea052b2d55bac158025af10ac5895369e8956eeab83434",
            "0x000000000000000000000000a500c712e7ebdd5040f1a212800f5f6fa20d05f8"
          ],
          "data": "0x00000000000000000000000000000000000000000000000006f05b59d3b20000",
          "blockHash": "0xcd4049044094fae3658040714abe5e7bdec238ef4ad7547c48739df712582523",
          "blockNumber": "0xffcfd5",
          "transactionHash": "0x2a497fc44bef8fb8b8fded4f85422338b4de4493a13b06035cdeb7028d43794b",
          "transactionIndex": "0xa",
          "logIndex": "0x44",
          "removed": false
        }
      ],
      "logsBloom": "0x00000000000000000000000000000008000000000000000000000000000000000000000000000000000000000000000000000000000000400400000000000000000000000000000002002000000000000000000000000000800000008000000010000000000000000001000000000000000000000000000000000000000000000000002000000000000000000000001008000001000000000000000000000000001000000000000000080000000000000000000000000000000000000000000000000000000000000000000800000080000000000000000000000000000000000000000000000000000000000000000000000000000000400000000000000000",
      "type": "0x2",
      "transactionHash": "0x2a497fc44bef8fb8b8fded4f85422338b4de4493a13b06035cdeb7028d43794b",
      "transactionIndex": "0xa",
      "blockHash": "0xcd4049044094fae3658040714abe5e7bdec238ef4ad7547c48739df712582523",
      "blockNumber": "0xffcfd5",
      "gasUsed": "0x13d9a",
      "effectiveGasPrice": "0xf6b40",
      "from": "0xe0d6f93151091f24ea09474e9271bd60f2624d99",
      "to": "0xbfe686a5bd487b52943d9e550e42c4910ab33888",
      "contractAddress": null,
      "l1BaseFeeScalar": "0x1db0",
      "l1BlobBaseFee": "0x42ddbd76a6",
      "l1BlobBaseFeeScalar": "0xd2730",
      "l1Fee": "0x16b47c3459d4",
      "l1GasPrice": "0x3ff9a4942",
      "l1GasUsed": "0x640"
    }
  ],
  "libraries": [],
  "pending": [],
  "returns": {},
  "timestamp": 1725332316,
  "chain": 11155420,
  "commit": "5cf640c"
}