{
  "transactions": [
    {
      "hash": "0xd707b8b3f6236e23a4b7130b4c1499114e85339ad7ccddf79b9a5e2b3b63396b",
      "transactionType": "CALL",
      "contractName": null,
      "contractAddress": "0x0f9f8abfd3689a76916e7d19a8573f0899e0da14",
      "function": "addSupportedToken(address,address)",
      "arguments": [
        "0x74A4A85C611679B73F402B36c0F84A7D2CcdFDa3",
        "0x6d5ecc0aa8DcE64045b1053A2480D82A61Ad86Bc"
      ],
      "transaction": {
        "from": "0xe0d6f93151091f24ea09474e9271bd60f2624d99",
        "to": "0x0f9f8abfd3689a76916e7d19a8573f0899e0da14",
        "gas": "0x12e56",
        "value": "0x0",
        "input": "0xc2b7be1600000000000000000000000074a4a85c611679b73f402b36c0f84a7d2ccdfda30000000000000000000000006d5ecc0aa8dce64045b1053a2480d82a61ad86bc",
        "nonce": "0x1d",
        "chainId": "0xaa37dc"
      },
      "additionalContracts": [],
      "isFixedGasLimit": false
    },
    {
      "hash": "0x69853370e9370ed3094f3207a6523ce2eea317aef88c094de84fabb58cfea46a",
      "transactionType": "CALL",
      "contractName": null,
      "contractAddress": "0x0f9f8abfd3689a76916e7d19a8573f0899e0da14",
      "function": "addSupportedToken(address,address)",
      "arguments": [
        "0xeEbe5E1bD522BbD9a64f28d923c0680F89DB5c59",
        "0x6d5ecc0aa8DcE64045b1053A2480D82A61Ad86Bc"
      ],
      "transaction": {
        "from": "0xe0d6f93151091f24ea09474e9271bd60f2624d99",
        "to": "0x0f9f8abfd3689a76916e7d19a8573f0899e0da14",
        "gas": "0x12e56",
        "value": "0x0",
        "input": "0xc2b7be16000000000000000000000000eebe5e1bd522bbd9a64f28d923c0680f89db5c590000000000000000000000006d5ecc0aa8dce64045b1053a2480d82a61ad86bc",
        "nonce": "0x1e",
        "chainId": "0xaa37dc"
      },
      "additionalContracts": [],
      "isFixedGasLimit": false
    },
    {
      "hash": "0xb1d3d8f2a16d485f5f393ed436e2a11a5d50c10705189609e5fc7c65170fb094",
      "transactionType": "CALL",
      "contractName": null,
      "contractAddress": "0x6698928094a6ac338ea71d66a9bcdba028b81d4f",
      "function": "poolDeposit(address)",
      "arguments": [
        "0x6d5ecc0aa8DcE64045b1053A2480D82A61Ad86Bc"
      ],
      "transaction": {
        "from": "0xe0d6f93151091f24ea09474e9271bd60f2624d99",
        "to": "0x6698928094a6ac338ea71d66a9bcdba028b81d4f",
        "gas": "0x1b6c0",
        "value": "0x6f05b59d3b20000",
        "input": "0x5698afa50000000000000000000000006d5ecc0aa8dce64045b1053a2480d82a61ad86bc",
        "nonce": "0x1f",
        "chainId": "0xaa37dc"
      },
      "additionalContracts": [],
      "isFixedGasLimit": false
    }
  ],
  "receipts": [
    {
      "status": "0x1",
      "cumulativeGasUsed": "0x1b9d8f",
      "logs": [
        {
          "address": "0x0f9f8abfd3689a76916e7d19a8573f0899e0da14",
          "topics": [
            "0xdffbd9ded1c09446f09377de547142dcce7dc541c8b0b028142b1eba7026b9e7",
            "0x00000000000000000000000074a4a85c611679b73f402b36c0f84a7d2ccdfda3",
            "0x0000000000000000000000006d5ecc0aa8dce64045b1053a2480d82a61ad86bc"
          ],
          "data": "0x",
          "blockHash": "0xe94a4751d801049dbcedd78373814a4639bddbb518b2d6df1abe8cb336066258",
          "blockNumber": "0xfd4754",
          "transactionHash": "0xd707b8b3f6236e23a4b7130b4c1499114e85339ad7ccddf79b9a5e2b3b63396b",
          "transactionIndex": "0x3",
          "logIndex": "0x27",
          "removed": false
        }
      ],
      "logsBloom": "0x00000000000000000000000000000000000000000000000000000002000000040000080000000000000000000000000000000000008000000000000000000000000000000000000000000000000000000000000000000000000000200000000000000020000000000008000000000000000000000000000000000000000000000000000000002000000000000000000000000000000000000000000000000000000000000000000000080000000000000000000000010000000000000000000000000000000000100000000000000000000000000000000000000000000000000002000000000000000000000000000000000000000000000000000000000000",
      "type": "0x2",
      "transactionHash": "0xd707b8b3f6236e23a4b7130b4c1499114e85339ad7ccddf79b9a5e2b3b63396b",
      "transactionIndex": "0x3",
      "blockHash": "0xe94a4751d801049dbcedd78373814a4639bddbb518b2d6df1abe8cb336066258",
      "blockNumber": "0xfd4754",
      "gasUsed": "0xceba",
      "effectiveGasPrice": "0x68e788a",
      "from": "0xe0d6f93151091f24ea09474e9271bd60f2624d99",
      "to": "0x0f9f8abfd3689a76916e7d19a8573f0899e0da14",
      "contractAddress": null,
      "l1BaseFeeScalar": "0x1db0",
      "l1BlobBaseFee": "0x37772ed0",
      "l1BlobBaseFeeScalar": "0xd2730",
      "l1Fee": "0x33c9a76f76",
      "l1GasPrice": "0x2ab2bf0d9",
      "l1GasUsed": "0x654"
    },
    {
      "status": "0x1",
      "cumulativeGasUsed": "0x1c6c49",
      "logs": [
        {
          "address": "0x0f9f8abfd3689a76916e7d19a8573f0899e0da14",
          "topics": [
            "0xdffbd9ded1c09446f09377de547142dcce7dc541c8b0b028142b1eba7026b9e7",
            "0x000000000000000000000000eebe5e1bd522bbd9a64f28d923c0680f89db5c59",
            "0x0000000000000000000000006d5ecc0aa8dce64045b1053a2480d82a61ad86bc"
          ],
          "data": "0x",
          "blockHash": "0xe94a4751d801049dbcedd78373814a4639bddbb518b2d6df1abe8cb336066258",
          "blockNumber": "0xfd4754",
          "transactionHash": "0x69853370e9370ed3094f3207a6523ce2eea317aef88c094de84fabb58cfea46a",
          "transactionIndex": "0x4",
          "logIndex": "0x28",
          "removed": false
        }
      ],
      "logsBloom": "0x00000000000000000000000000000000000000000000000040000002000000040000080000000000000000000000000000000000008000000000000000000000000000000000000000000000000000000000000000000000000000200000000000000020000000000000000000000000000000000000000000000000000000000000000000002000000000000000000000000000400000000000000000000000000000000000000000000000000000000000000000000000000000000000000000000000000000100000000000000000000000000000000000000000000000000002000000000000020000000000000000000000000000000000000000000000",
      "type": "0x2",
      "transactionHash": "0x69853370e9370ed3094f3207a6523ce2eea317aef88c094de84fabb58cfea46a",
      "transactionIndex": "0x4",
      "blockHash": "0xe94a4751d801049dbcedd78373814a4639bddbb518b2d6df1abe8cb336066258",
      "blockNumber": "0xfd4754",
      "gasUsed": "0xceba",
      "effectiveGasPrice": "0x68e788a",
      "from": "0xe0d6f93151091f24ea09474e9271bd60f2624d99",
      "to": "0x0f9f8abfd3689a76916e7d19a8573f0899e0da14",
      "contractAddress": null,
      "l1BaseFeeScalar": "0x1db0",
      "l1BlobBaseFee": "0x37772ed0",
      "l1BlobBaseFeeScalar": "0xd2730",
      "l1Fee": "0x33c9a76f76",
      "l1GasPrice": "0x2ab2bf0d9",
      "l1GasUsed": "0x654"
    },
    {
      "status": "0x1",
      "cumulativeGasUsed": "0x1da9ef",
      "logs": [
        {
          "address": "0x74a4a85c611679b73f402b36c0f84a7d2ccdfda3",
          "topics": [
            "0xe1fffcc4923d04b559f4d29a8bfc6cda04eb5b0d3c460751c2402c5c5cc9109c",
            "0x0000000000000000000000006698928094a6ac338ea71d66a9bcdba028b81d4f"
          ],
          "data": "0x00000000000000000000000000000000000000000000000006f05b59d3b20000",
          "blockHash": "0xe94a4751d801049dbcedd78373814a4639bddbb518b2d6df1abe8cb336066258",
          "blockNumber": "0xfd4754",
          "transactionHash": "0xb1d3d8f2a16d485f5f393ed436e2a11a5d50c10705189609e5fc7c65170fb094",
          "transactionIndex": "0x5",
          "logIndex": "0x29",
          "removed": false
        },
        {
          "address": "0x6698928094a6ac338ea71d66a9bcdba028b81d4f",
          "topics": [
            "0x90576f1ad407b163ccea052b2d55bac158025af10ac5895369e8956eeab83434",
            "0x0000000000000000000000006d5ecc0aa8dce64045b1053a2480d82a61ad86bc"
          ],
          "data": "0x00000000000000000000000000000000000000000000000006f05b59d3b20000",
          "blockHash": "0xe94a4751d801049dbcedd78373814a4639bddbb518b2d6df1abe8cb336066258",
          "blockNumber": "0xfd4754",
          "transactionHash": "0xb1d3d8f2a16d485f5f393ed436e2a11a5d50c10705189609e5fc7c65170fb094",
          "transactionIndex": "0x5",
          "logIndex": "0x2a",
          "removed": false
        }
      ],
      "logsBloom": "0x00000000000000000000000000000000000000000000000000000002000000040000080000000000000008000000000000000000000000000400000000000000000000000000000002000000000000000000000000000000800000008100000000000000000004000000000000000000000000000000000000000000000000000000002000000000000000000000000008000001000000000000000000000000001000000000000000000000000000000000000000000000000000000000000000000000080000000000000000000000000000000004000000000000000000000000000000020000000000000000000000000000000000400000000000000000",
      "type": "0x2",
      "transactionHash": "0xb1d3d8f2a16d485f5f393ed436e2a11a5d50c10705189609e5fc7c65170fb094",
      "transactionIndex": "0x5",
      "blockHash": "0xe94a4751d801049dbcedd78373814a4639bddbb518b2d6df1abe8cb336066258",
      "blockNumber": "0xfd4754",
      "gasUsed": "0x13da6",
      "effectiveGasPrice": "0x68e788a",
      "from": "0xe0d6f93151091f24ea09474e9271bd60f2624d99",
      "to": "0x6698928094a6ac338ea71d66a9bcdba028b81d4f",
      "contractAddress": null,
      "l1BaseFeeScalar": "0x1db0",
      "l1BlobBaseFee": "0x37772ed0",
      "l1BlobBaseFeeScalar": "0xd2730",
      "l1Fee": "0x33207f901a",
      "l1GasPrice": "0x2ab2bf0d9",
      "l1GasUsed": "0x640"
    }
  ],
  "libraries": [],
  "pending": [],
  "returns": {},
  "timestamp": 1725000283,
  "chain": 11155420,
  "commit": "bc014d5"
}