{
  "transactions": [
    {
      "hash": "0x81bcccba6416ec4fa0d56644d908046cada7a719ed69cb98bc7a5a3b1adfe2f4",
      "transactionType": "CALL",
      "contractName": null,
      "contractAddress": "0xc6ba506f9e029104896f5b739487b67d4d19c1ad",
      "function": "addSupportedToken(address,address)",
      "arguments": [
        "0x74A4A85C611679B73F402B36c0F84A7D2CcdFDa3",
        "0x3e19BBEe16243F36b331Ce550f3fF2685e972944"
      ],
      "transaction": {
        "from": "0xe0d6f93151091f24ea09474e9271bd60f2624d99",
        "to": "0xc6ba506f9e029104896f5b739487b67d4d19c1ad",
        "gas": "0x12ed6",
        "value": "0x0",
        "input": "0xc2b7be1600000000000000000000000074a4a85c611679b73f402b36c0f84a7d2ccdfda30000000000000000000000003e19bbee16243f36b331ce550f3ff2685e972944",
        "nonce": "0x5c",
        "chainId": "0xaa37dc"
      },
      "additionalContracts": [],
      "isFixedGasLimit": false
    },
    {
      "hash": "0xd3bc6bfdbc5a41f4f89df19eaa9fd2a3da958105047c346055c93795c7cc8329",
      "transactionType": "CALL",
      "contractName": null,
      "contractAddress": "0xc6ba506f9e029104896f5b739487b67d4d19c1ad",
      "function": "addSupportedToken(address,address)",
      "arguments": [
        "0xeEbe5E1bD522BbD9a64f28d923c0680F89DB5c59",
        "0x3e19BBEe16243F36b331Ce550f3fF2685e972944"
      ],
      "transaction": {
        "from": "0xe0d6f93151091f24ea09474e9271bd60f2624d99",
        "to": "0xc6ba506f9e029104896f5b739487b67d4d19c1ad",
        "gas": "0x12ed6",
        "value": "0x0",
        "input": "0xc2b7be16000000000000000000000000eebe5e1bd522bbd9a64f28d923c0680f89db5c590000000000000000000000003e19bbee16243f36b331ce550f3ff2685e972944",
        "nonce": "0x5d",
        "chainId": "0xaa37dc"
      },
      "additionalContracts": [],
      "isFixedGasLimit": false
    },
    {
      "hash": "0x1fb27e496a00aecb642f3bbfd038157ea026de5ac6ba0b4389a9774fc5614897",
      "transactionType": "CALL",
      "contractName": null,
      "contractAddress": "0xa1971bf0cea6a6fe47447914b0ab20118cf7b845",
      "function": "poolDeposit(address)",
      "arguments": [
        "0x3e19BBEe16243F36b331Ce550f3fF2685e972944"
      ],
      "transaction": {
        "from": "0xe0d6f93151091f24ea09474e9271bd60f2624d99",
        "to": "0xa1971bf0cea6a6fe47447914b0ab20118cf7b845",
        "gas": "0x1b6dd",
        "value": "0x6f05b59d3b20000",
        "input": "0x5698afa50000000000000000000000003e19bbee16243f36b331ce550f3ff2685e972944",
        "nonce": "0x5e",
        "chainId": "0xaa37dc"
      },
      "additionalContracts": [],
      "isFixedGasLimit": false
    }
  ],
  "receipts": [
    {
      "status": "0x1",
      "cumulativeGasUsed": "0x2e659b",
      "logs": [
        {
          "address": "0xc6ba506f9e029104896f5b739487b67d4d19c1ad",
          "topics": [
            "0xdffbd9ded1c09446f09377de547142dcce7dc541c8b0b028142b1eba7026b9e7",
            "0x00000000000000000000000074a4a85c611679b73f402b36c0f84a7d2ccdfda3",
            "0x0000000000000000000000003e19bbee16243f36b331ce550f3ff2685e972944"
          ],
          "data": "0x",
          "blockHash": "0x9223442a16298a5c10749950f17fe45900dfca3086373521bcbed33af2670752",
          "blockNumber": "0x1073195",
          "transactionHash": "0x81bcccba6416ec4fa0d56644d908046cada7a719ed69cb98bc7a5a3b1adfe2f4",
          "transactionIndex": "0x5",
          "logIndex": "0x20",
          "removed": false
        }
      ],
      "logsBloom": "0x00000000010000000000000000000000200000000000000000000000000000000000000400000000000000000000000000000000008000000000000000000000000000000000000000000000000000000000000000000000000000200000000000000000000000000008000000000000000000000000000000000080000000000000000000002000000000000000000000002000000000000000000000000000000000000000000000080000000000000000000000010000000000000000000000000000000000000000000000000000000000040000000000000000000000000000000000000000000000000000000000000000000000000000000000000000",
      "type": "0x2",
      "transactionHash": "0x81bcccba6416ec4fa0d56644d908046cada7a719ed69cb98bc7a5a3b1adfe2f4",
      "transactionIndex": "0x5",
      "blockHash": "0x9223442a16298a5c10749950f17fe45900dfca3086373521bcbed33af2670752",
      "blockNumber": "0x1073195",
      "gasUsed": "0xcf12",
      "effectiveGasPrice": "0xf56ce",
      "from": "0xe0d6f93151091f24ea09474e9271bd60f2624d99",
      "to": "0xc6ba506f9e029104896f5b739487b67d4d19c1ad",
      "contractAddress": null,
      "l1BaseFeeScalar": "0x1db0",
      "l1BlobBaseFee": "0x1",
      "l1BlobBaseFeeScalar": "0xd2730",
      "l1Fee": "0x5c42bc921",
      "l1GasPrice": "0x796548ef",
      "l1GasUsed": "0x640"
    },
    {
      "status": "0x1",
      "cumulativeGasUsed": "0x2f34ad",
      "logs": [
        {
          "address": "0xc6ba506f9e029104896f5b739487b67d4d19c1ad",
          "topics": [
            "0xdffbd9ded1c09446f09377de547142dcce7dc541c8b0b028142b1eba7026b9e7",
            "0x000000000000000000000000eebe5e1bd522bbd9a64f28d923c0680f89db5c59",
            "0x0000000000000000000000003e19bbee16243f36b331ce550f3ff2685e972944"
          ],
          "data": "0x",
          "blockHash": "0x9223442a16298a5c10749950f17fe45900dfca3086373521bcbed33af2670752",
          "blockNumber": "0x1073195",
          "transactionHash": "0xd3bc6bfdbc5a41f4f89df19eaa9fd2a3da958105047c346055c93795c7cc8329",
          "transactionIndex": "0x6",
          "logIndex": "0x21",
          "removed": false
        }
      ],
      "logsBloom": "0x00000000010000000000000000000000200000000000000040000000000000000000000400000000000000000000000000000000008000000000000000000000000000000000000000000000000000000000000000000000000000200000000000000000000000000000000000000000000000000000000000000080000000000000000000002000000000000000000000002000400000000000000000000000000000000000000000000000000000000000000000000000000000000000000000000000000000000000000000000000000000040000000000000000000000000000000000000000020000000000000000000000000000000000000000000000",
      "type": "0x2",
      "transactionHash": "0xd3bc6bfdbc5a41f4f89df19eaa9fd2a3da958105047c346055c93795c7cc8329",
      "transactionIndex": "0x6",
      "blockHash": "0x9223442a16298a5c10749950f17fe45900dfca3086373521bcbed33af2670752",
      "blockNumber": "0x1073195",
      "gasUsed": "0xcf12",
      "effectiveGasPrice": "0xf56ce",
      "from": "0xe0d6f93151091f24ea09474e9271bd60f2624d99",
      "to": "0xc6ba506f9e029104896f5b739487b67d4d19c1ad",
      "contractAddress": null,
      "l1BaseFeeScalar": "0x1db0",
      "l1BlobBaseFee": "0x1",
      "l1BlobBaseFeeScalar": "0xd2730",
      "l1Fee": "0x5c42bc921",
      "l1GasPrice": "0x796548ef",
      "l1GasUsed": "0x640"
    },
    {
      "status": "0x1",
      "cumulativeGasUsed": "0x307269",
      "logs": [
        {
          "address": "0x74a4a85c611679b73f402b36c0f84a7d2ccdfda3",
          "topics": [
            "0xe1fffcc4923d04b559f4d29a8bfc6cda04eb5b0d3c460751c2402c5c5cc9109c",
            "0x000000000000000000000000a1971bf0cea6a6fe47447914b0ab20118cf7b845"
          ],
          "data": "0x00000000000000000000000000000000000000000000000006f05b59d3b20000",
          "blockHash": "0x9223442a16298a5c10749950f17fe45900dfca3086373521bcbed33af2670752",
          "blockNumber": "0x1073195",
          "transactionHash": "0x1fb27e496a00aecb642f3bbfd038157ea026de5ac6ba0b4389a9774fc5614897",
          "transactionIndex": "0x7",
          "logIndex": "0x22",
          "removed": false
        },
        {
          "address": "0xa1971bf0cea6a6fe47447914b0ab20118cf7b845",
          "topics": [
            "0x90576f1ad407b163ccea052b2d55bac158025af10ac5895369e8956eeab83434",
            "0x0000000000000000000000003e19bbee16243f36b331ce550f3ff2685e972944"
          ],
          "data": "0x00000000000000000000000000000000000000000000000006f05b59d3b20000",
          "blockHash": "0x9223442a16298a5c10749950f17fe45900dfca3086373521bcbed33af2670752",
          "blockNumber": "0x1073195",
          "transactionHash": "0x1fb27e496a00aecb642f3bbfd038157ea026de5ac6ba0b4389a9774fc5614897",
          "transactionIndex": "0x7",
          "logIndex": "0x23",
          "removed": false
        }
      ],
      "logsBloom": "0x08000200010000000000000020000000000000000000000000000000000000000000000400000000000010000000000000000000000000000400000000000000000000000000000002000000000000000000000000000000800000008000000000000000000000000000000000000000000000000000000000000000000000000000002000000000000000000000000008002001000000000000000000000000001000000000000000000000000000200000000000000000000000000000000000000000000000000000000000000000000000000000000000000000000000000000000000000000000000000000000000000000000000400000000000200000",
      "type": "0x2",
      "transactionHash": "0x1fb27e496a00aecb642f3bbfd038157ea026de5ac6ba0b4389a9774fc5614897",
      "transactionIndex": "0x7",
      "blockHash": "0x9223442a16298a5c10749950f17fe45900dfca3086373521bcbed33af2670752",
      "blockNumber": "0x1073195",
      "gasUsed": "0x13dbc",
      "effectiveGasPrice": "0xf56ce",
      "from": "0xe0d6f93151091f24ea09474e9271bd60f2624d99",
      "to": "0xa1971bf0cea6a6fe47447914b0ab20118cf7b845",
      "contractAddress": null,
      "l1BaseFeeScalar": "0x1db0",
      "l1BlobBaseFee": "0x1",
      "l1BlobBaseFeeScalar": "0xd2730",
      "l1Fee": "0x5c42bc921",
      "l1GasPrice": "0x796548ef",
      "l1GasUsed": "0x640"
    }
  ],
  "libraries": [],
  "pending": [],
  "returns": {},
  "timestamp": 1726299869,
  "chain": 11155420,
  "commit": "5fcd4f3"
}