{
  "transactions": [
    {
      "hash": "0x474226b4852bfc9bd2c61995b627a645fe0b58ef1ee53492d3016b86053156a3",
      "transactionType": "CALL",
      "contractName": null,
      "contractAddress": "0x9c2e3e224f0f5bfab7b3c454f0b4357d424ef030",
      "function": "poolDeposit(uint256)",
      "arguments": [
        "500000000000000000"
      ],
      "transaction": {
        "from": "0x03773f85756acac65a869e89e3b7b2fcda6be140",
        "to": "0x9c2e3e224f0f5bfab7b3c454f0b4357d424ef030",
        "gas": "0x13a0a",
        "value": "0x6f05b59d3b20000",
        "input": "0x2d02462b00000000000000000000000000000000000000000000000006f05b59d3b20000",
        "nonce": "0x1b",
        "chainId": "0xaa37dc"
      },
      "additionalContracts": [],
      "isFixedGasLimit": false
    }
  ],
  "receipts": [
    {
      "status": "0x1",
      "cumulativeGasUsed": "0x73daa4",
      "logs": [
        {
          "address": "0x74a4a85c611679b73f402b36c0f84a7d2ccdfda3",
          "topics": [
            "0xe1fffcc4923d04b559f4d29a8bfc6cda04eb5b0d3c460751c2402c5c5cc9109c",
            "0x0000000000000000000000009c2e3e224f0f5bfab7b3c454f0b4357d424ef030"
          ],
          "data": "0x00000000000000000000000000000000000000000000000006f05b59d3b20000",
          "blockHash": "0xcc7aa908c7eebc3e172d75dfe0900d9892779efc3077ffd7ed36dfb97274f8f2",
          "blockNumber": "0xe84760",
          "transactionHash": "0x474226b4852bfc9bd2c61995b627a645fe0b58ef1ee53492d3016b86053156a3",
          "transactionIndex": "0x1a",
          "logIndex": "0x5e",
          "removed": false
        },
        {
          "address": "0x9c2e3e224f0f5bfab7b3c454f0b4357d424ef030",
          "topics": [
            "0xf426864a01eab571c4f4f49d1f6a62570576cc8c263ee6a7b888aeae007e0d37"
          ],
          "data": "0x00000000000000000000000000000000000000000000000006f05b59d3b20000",
          "blockHash": "0xcc7aa908c7eebc3e172d75dfe0900d9892779efc3077ffd7ed36dfb97274f8f2",
          "blockNumber": "0xe84760",
          "transactionHash": "0x474226b4852bfc9bd2c61995b627a645fe0b58ef1ee53492d3016b86053156a3",
          "transactionIndex": "0x1a",
          "logIndex": "0x5f",
          "removed": false
        }
      ],
      "logsBloom": "0x00000000001000000000000000000000000000000000000000000000000000000000000000000000000000000000000000000000000000000400000000000000000000000000000002000000000010000000004000000000000000008000000000000000000000000000000000000000000000000000000000000000000000000001000000000000000000000000000000000001000000000000000000000000001000000000000000000001000200000000000000000000000000000000000000000000000000000200000000000000000000000000000000000000000000000000000000000000020000000000000000000000000000400000000800000000",
      "type": "0x2",
      "transactionHash": "0x474226b4852bfc9bd2c61995b627a645fe0b58ef1ee53492d3016b86053156a3",
      "transactionIndex": "0x1a",
      "blockHash": "0xcc7aa908c7eebc3e172d75dfe0900d9892779efc3077ffd7ed36dfb97274f8f2",
      "blockNumber": "0xe84760",
      "gasUsed": "0xe35d",
      "effectiveGasPrice": "0x24b4084",
      "from": "0x03773f85756acac65a869e89e3b7b2fcda6be140",
      "to": "0x9c2e3e224f0f5bfab7b3c454f0b4357d424ef030",
      "contractAddress": null,
      "l1BaseFeeScalar": "0x1db0",
      "l1BlobBaseFee": "0x43df75719fb",
      "l1BlobBaseFeeScalar": "0xd2730",
      "l1Fee": "0x16de6d4f3302b",
      "l1GasPrice": "0x4fab07287",
      "l1GasUsed": "0x640"
    }
  ],
  "libraries": [],
  "pending": [],
  "returns": {},
  "timestamp": 1722247795,
  "chain": 11155420,
  "commit": "bfd3004"
}