{
  "transactions": [
    {
      "hash": "0x19e428421de19fd06a60433a8dbac5f5c940a8fe4703b0ab3e047790a7363bb4",
      "transactionType": "CALL",
      "contractName": null,
      "contractAddress": "0x34e7cebc535c30aceeb63a63c20b0c42a80b215a",
      "function": "addSupportedToken(address,address)",
      "arguments": [
        "0x74A4A85C611679B73F402B36c0F84A7D2CcdFDa3",
        "0x9C2e3e224F0f5BFaB7B3C454F0b4357d424EF030"
      ],
      "transaction": {
        "from": "0xe0d6f93151091f24ea09474e9271bd60f2624d99",
        "to": "0x34e7cebc535c30aceeb63a63c20b0c42a80b215a",
        "gas": "0x12ed6",
        "value": "0x0",
        "input": "0xc2b7be1600000000000000000000000074a4a85c611679b73f402b36c0f84a7d2ccdfda30000000000000000000000009c2e3e224f0f5bfab7b3c454f0b4357d424ef030",
        "nonce": "0x18",
        "chainId": "0xaa37dc"
      },
      "additionalContracts": [],
      "isFixedGasLimit": false
    },
    {
      "hash": "0xa3218491f90d3746f2089febd2e880e08fc9de0a964581cdf5e23d704c9243db",
      "transactionType": "CALL",
      "contractName": null,
      "contractAddress": "0x34e7cebc535c30aceeb63a63c20b0c42a80b215a",
      "function": "addSupportedToken(address,address)",
      "arguments": [
        "0xeEbe5E1bD522BbD9a64f28d923c0680F89DB5c59",
        "0x9C2e3e224F0f5BFaB7B3C454F0b4357d424EF030"
      ],
      "transaction": {
        "from": "0xe0d6f93151091f24ea09474e9271bd60f2624d99",
        "to": "0x34e7cebc535c30aceeb63a63c20b0c42a80b215a",
        "gas": "0x12ed6",
        "value": "0x0",
        "input": "0xc2b7be16000000000000000000000000eebe5e1bd522bbd9a64f28d923c0680f89db5c590000000000000000000000009c2e3e224f0f5bfab7b3c454f0b4357d424ef030",
        "nonce": "0x19",
        "chainId": "0xaa37dc"
      },
      "additionalContracts": [],
      "isFixedGasLimit": false
    },
    {
      "hash": "0x217edd5e59f05a9e636b06969c66c125619e754fd4f5b85881549760b21b3b34",
      "transactionType": "CALL",
      "contractName": null,
      "contractAddress": "0x4aa5f077688ba0d53836a3b9e9fdc3bfb16b1362",
      "function": "poolDeposit(address)",
      "arguments": [
        "0x9C2e3e224F0f5BFaB7B3C454F0b4357d424EF030"
      ],
      "transaction": {
        "from": "0xe0d6f93151091f24ea09474e9271bd60f2624d99",
        "to": "0x4aa5f077688ba0d53836a3b9e9fdc3bfb16b1362",
        "gas": "0x1b6ed",
        "value": "0x6f05b59d3b20000",
        "input": "0x5698afa50000000000000000000000009c2e3e224f0f5bfab7b3c454f0b4357d424ef030",
        "nonce": "0x1a",
        "chainId": "0xaa37dc"
      },
      "additionalContracts": [],
      "isFixedGasLimit": false
    }
  ],
  "receipts": [
    {
      "status": "0x1",
      "cumulativeGasUsed": "0x29bbf6",
      "logs": [
        {
          "address": "0x34e7cebc535c30aceeb63a63c20b0c42a80b215a",
          "topics": [
            "0xdffbd9ded1c09446f09377de547142dcce7dc541c8b0b028142b1eba7026b9e7",
            "0x00000000000000000000000074a4a85c611679b73f402b36c0f84a7d2ccdfda3",
            "0x0000000000000000000000009c2e3e224f0f5bfab7b3c454f0b4357d424ef030"
          ],
          "data": "0x",
          "blockHash": "0xd2d45098e8deae355673d531cde944a35108f3ae050de5cdb01df4801fc26efd",
          "blockNumber": "0xfb3759",
          "transactionHash": "0x19e428421de19fd06a60433a8dbac5f5c940a8fe4703b0ab3e047790a7363bb4",
          "transactionIndex": "0x4",
          "logIndex": "0x37",
          "removed": false
        }
      ],
      "logsBloom": "0x00000000001000000000000000000000000000000000000000000000000000000000000000000000000000000000000000000000008000000000000000000000000000000000000000000000000000000000000000000000000000200000000000000000000000000008000000000000000000000000000000000000000000000001000000002000000000000000000000000000000000000000000000000000000000000000000000080000000200000000000000014000000000000000000200000000000000000000000000000000000000000000000000000000000000000000000000000000000200000000000000000000000000000000000000000000",
      "type": "0x2",
      "transactionHash": "0x19e428421de19fd06a60433a8dbac5f5c940a8fe4703b0ab3e047790a7363bb4",
      "transactionIndex": "0x4",
      "blockHash": "0xd2d45098e8deae355673d531cde944a35108f3ae050de5cdb01df4801fc26efd",
      "blockNumber": "0xfb3759",
      "gasUsed": "0xcf12",
      "effectiveGasPrice": "0x68e7909",
      "from": "0xe0d6f93151091f24ea09474e9271bd60f2624d99",
      "to": "0x34e7cebc535c30aceeb63a63c20b0c42a80b215a",
      "contractAddress": null,
      "l1BaseFeeScalar": "0x1db0",
      "l1BlobBaseFee": "0x42ddbd76a6",
      "l1BlobBaseFeeScalar": "0xd2730",
      "l1Fee": "0x16ef9eebc0ad",
      "l1GasPrice": "0x2b35f0902",
      "l1GasUsed": "0x654"
    },
    {
      "status": "0x1",
      "cumulativeGasUsed": "0x2a8b08",
      "logs": [
        {
          "address": "0x34e7cebc535c30aceeb63a63c20b0c42a80b215a",
          "topics": [
            "0xdffbd9ded1c09446f09377de547142dcce7dc541c8b0b028142b1eba7026b9e7",
            "0x000000000000000000000000eebe5e1bd522bbd9a64f28d923c0680f89db5c59",
            "0x0000000000000000000000009c2e3e224f0f5bfab7b3c454f0b4357d424ef030"
          ],
          "data": "0x",
          "blockHash": "0xd2d45098e8deae355673d531cde944a35108f3ae050de5cdb01df4801fc26efd",
          "blockNumber": "0xfb3759",
          "transactionHash": "0xa3218491f90d3746f2089febd2e880e08fc9de0a964581cdf5e23d704c9243db",
          "transactionIndex": "0x5",
          "logIndex": "0x38",
          "removed": false
        }
      ],
      "logsBloom": "0x00000000001000000000000000000000000000000000000040000000000000000000000000000000000000000000000000000000008000000000000000000000000000000000000000000000000000000000000000000000000000200000000000000000000000000000000000000000000000000000000000000000000000000001000000002000000000000000000000000000400000000000000000000000000000000000000000000000000200000000000000004000000000000000000200000000000000000000000000000000000000000000000000000000000000000000000000000000020200000000000000000000000000000000000000000000",
      "type": "0x2",
      "transactionHash": "0xa3218491f90d3746f2089febd2e880e08fc9de0a964581cdf5e23d704c9243db",
      "transactionIndex": "0x5",
      "blockHash": "0xd2d45098e8deae355673d531cde944a35108f3ae050de5cdb01df4801fc26efd",
      "blockNumber": "0xfb3759",
      "gasUsed": "0xcf12",
      "effectiveGasPrice": "0x68e7909",
      "from": "0xe0d6f93151091f24ea09474e9271bd60f2624d99",
      "to": "0x34e7cebc535c30aceeb63a63c20b0c42a80b215a",
      "contractAddress": null,
      "l1BaseFeeScalar": "0x1db0",
      "l1BlobBaseFee": "0x42ddbd76a6",
      "l1BlobBaseFeeScalar": "0xd2730",
      "l1Fee": "0x16ef9eebc0ad",
      "l1GasPrice": "0x2b35f0902",
      "l1GasUsed": "0x654"
    },
    {
      "status": "0x1",
      "cumulativeGasUsed": "0x2bc8cf",
      "logs": [
        {
          "address": "0x74a4a85c611679b73f402b36c0f84a7d2ccdfda3",
          "topics": [
            "0xe1fffcc4923d04b559f4d29a8bfc6cda04eb5b0d3c460751c2402c5c5cc9109c",
            "0x0000000000000000000000004aa5f077688ba0d53836a3b9e9fdc3bfb16b1362"
          ],
          "data": "0x00000000000000000000000000000000000000000000000006f05b59d3b20000",
          "blockHash": "0xd2d45098e8deae355673d531cde944a35108f3ae050de5cdb01df4801fc26efd",
          "blockNumber": "0xfb3759",
          "transactionHash": "0x217edd5e59f05a9e636b06969c66c125619e754fd4f5b85881549760b21b3b34",
          "transactionIndex": "0x6",
          "logIndex": "0x39",
          "removed": false
        },
        {
          "address": "0x4aa5f077688ba0d53836a3b9e9fdc3bfb16b1362",
          "topics": [
            "0x90576f1ad407b163ccea052b2d55bac158025af10ac5895369e8956eeab83434",
            "0x0000000000000000000000009c2e3e224f0f5bfab7b3c454f0b4357d424ef030"
          ],
          "data": "0x00000000000000000000000000000000000000000000000006f05b59d3b20000",
          "blockHash": "0xd2d45098e8deae355673d531cde944a35108f3ae050de5cdb01df4801fc26efd",
          "blockNumber": "0xfb3759",
          "transactionHash": "0x217edd5e59f05a9e636b06969c66c125619e754fd4f5b85881549760b21b3b34",
          "transactionIndex": "0x6",
          "logIndex": "0x3a",
          "removed": false
        }
      ],
      "logsBloom": "0x00100000001000000000000000000000000000000000000000000000000000000000000000000000000000000000000000000000000000000400000000000000000000000200000002000000000000000000000000000000800000008000000000000000000000000000000000000000000000000000000000000000000000000001002000040000000000000000000008000001000000000000000000008000001000000000000040000000000200000008000000000000000000000000000000000000000000000000000000000000000000000000000000000000000000000000000000000000000000000000000000000000000000400000000000000000",
      "type": "0x2",
      "transactionHash": "0x217edd5e59f05a9e636b06969c66c125619e754fd4f5b85881549760b21b3b34",
      "transactionIndex": "0x6",
      "blockHash": "0xd2d45098e8deae355673d531cde944a35108f3ae050de5cdb01df4801fc26efd",
      "blockNumber": "0xfb3759",
      "gasUsed": "0x13dc7",
      "effectiveGasPrice": "0x68e7909",
      "from": "0xe0d6f93151091f24ea09474e9271bd60f2624d99",
      "to": "0x4aa5f077688ba0d53836a3b9e9fdc3bfb16b1362",
      "contractAddress": null,
      "l1BaseFeeScalar": "0x1db0",
      "l1BlobBaseFee": "0x42ddbd76a6",
      "l1BlobBaseFeeScalar": "0xd2730",
      "l1Fee": "0x16a4b4452397",
      "l1GasPrice": "0x2b35f0902",
      "l1GasUsed": "0x640"
    }
  ],
  "libraries": [],
  "pending": [],
  "returns": {},
  "timestamp": 1724729956,
  "chain": 11155420,
  "commit": "66ac525"
}