{
  "transactions": [
    {
      "hash": "0x20b582dd0e521545f97edfd4fbecf683471c8d396ad509c708e08760ad6078e6",
      "transactionType": "CALL",
      "contractName": null,
      "contractAddress": "0x39278f562d0fe835bb46dfee8f49000821c98d14",
      "function": "poolDeposit(address)",
      "arguments": [
        "0x3e19BBEe16243F36b331Ce550f3fF2685e972944"
      ],
      "transaction": {
        "from": "0x8558519ad14b443949149577024a92c036beb7bb",
        "to": "0x39278f562d0fe835bb46dfee8f49000821c98d14",
        "gas": "0x13a4b",
        "value": "0x11c37937e08000",
        "input": "0x5698afa50000000000000000000000003e19bbee16243f36b331ce550f3ff2685e972944",
        "nonce": "0x10",
        "chainId": "0x66eee"
      },
      "additionalContracts": [],
      "isFixedGasLimit": false
    },
    {
      "hash": "0xf521c2bc9603e955bed0e5fdb3a2895e10706e68e04568f146f2c6d2b244d059",
      "transactionType": "CALL",
      "contractName": null,
      "contractAddress": "0x2a8db1dfd78f31c824caed9f38b084db11d40330",
      "function": "addSupportedToken(address,address)",
      "arguments": [
        "0x980B62Da83eFf3D4576C647993b0c1D7faf17c73",
        "0x3e19BBEe16243F36b331Ce550f3fF2685e972944"
      ],
      "transaction": {
        "from": "0x8558519ad14b443949149577024a92c036beb7bb",
        "to": "0x2a8db1dfd78f31c824caed9f38b084db11d40330",
        "gas": "0xaff3",
        "value": "0x0",
        "input": "0xc2b7be16000000000000000000000000980b62da83eff3d4576c647993b0c1d7faf17c730000000000000000000000003e19bbee16243f36b331ce550f3ff2685e972944",
        "nonce": "0x11",
        "chainId": "0x66eee"
      },
      "additionalContracts": [],
      "isFixedGasLimit": false
    },
    {
      "hash": "0xe2d63624f61ac947058a2858bf8ff8983809b18c00d5daf8badff96e053462b3",
      "transactionType": "CALL",
      "contractName": null,
      "contractAddress": "0x2a8db1dfd78f31c824caed9f38b084db11d40330",
      "function": "addSupportedToken(address,address)",
      "arguments": [
        "0xDF52714C191e8C4EC26cCD5B1578a904724e93b6",
        "0x3e19BBEe16243F36b331Ce550f3fF2685e972944"
      ],
      "transaction": {
        "from": "0x8558519ad14b443949149577024a92c036beb7bb",
        "to": "0x2a8db1dfd78f31c824caed9f38b084db11d40330",
        "gas": "0xaff3",
        "value": "0x0",
        "input": "0xc2b7be16000000000000000000000000df52714c191e8c4ec26ccd5b1578a904724e93b60000000000000000000000003e19bbee16243f36b331ce550f3ff2685e972944",
        "nonce": "0x12",
        "chainId": "0x66eee"
      },
      "additionalContracts": [],
      "isFixedGasLimit": false
    }
  ],
  "receipts": [
    {
      "status": "0x1",
      "cumulativeGasUsed": "0xeddd",
      "logs": [
        {
          "address": "0x980b62da83eff3d4576c647993b0c1d7faf17c73",
          "topics": [
            "0xddf252ad1be2c89b69c2b068fc378daa952ba7f163c4a11628f55a4df523b3ef",
            "0x0000000000000000000000000000000000000000000000000000000000000000",
            "0x00000000000000000000000039278f562d0fe835bb46dfee8f49000821c98d14"
          ],
          "data": "0x0000000000000000000000000000000000000000000000000011c37937e08000",
          "blockHash": "0x67a8e51bd342790ee629f8081a2a29d666b9471bde69864f1c300284fefb3945",
          "blockNumber": "0x61da39e",
          "transactionHash": "0x20b582dd0e521545f97edfd4fbecf683471c8d396ad509c708e08760ad6078e6",
          "transactionIndex": "0x1",
          "logIndex": "0x0",
          "removed": false
        },
        {
          "address": "0x39278f562d0fe835bb46dfee8f49000821c98d14",
          "topics": [
            "0x90576f1ad407b163ccea052b2d55bac158025af10ac5895369e8956eeab83434",
            "0x0000000000000000000000003e19bbee16243f36b331ce550f3ff2685e972944"
          ],
          "data": "0x0000000000000000000000000000000000000000000000000011c37937e08000",
          "blockHash": "0x67a8e51bd342790ee629f8081a2a29d666b9471bde69864f1c300284fefb3945",
          "blockNumber": "0x61da39e",
          "transactionHash": "0x20b582dd0e521545f97edfd4fbecf683471c8d396ad509c708e08760ad6078e6",
          "transactionIndex": "0x1",
          "logIndex": "0x1",
          "removed": false
        }
      ],
      "logsBloom": "0x00000000010000000000000000000000000000000000000000000800000000000002000400000000000000000000000000000000000000000000000000000000000000000000000000000088100000000000000000000000800000000000000000000000020000000000000000000800000000000000000000000010000000000000002000000000000000000000000008002000000000000000000000000000000000000000000000000000020000000000000000000000000000040000000000000002000000004000000000000040000000000000000000000000800020000000000000000000000000000000000000000000000000000000000000000000",
      "type": "0x2",
      "transactionHash": "0x20b582dd0e521545f97edfd4fbecf683471c8d396ad509c708e08760ad6078e6",
      "transactionIndex": "0x1",
      "blockHash": "0x67a8e51bd342790ee629f8081a2a29d666b9471bde69864f1c300284fefb3945",
      "blockNumber": "0x61da39e",
      "gasUsed": "0xeddd",
      "effectiveGasPrice": "0x5f5e100",
      "from": "0x8558519ad14b443949149577024a92c036beb7bb",
      "to": "0x39278f562d0fe835bb46dfee8f49000821c98d14",
      "contractAddress": null,
      "gasUsedForL1": "0x222",
      "l1BlockNumber": "0x6dc310"
    },
    {
      "status": "0x1",
      "cumulativeGasUsed": "0x83d0",
      "logs": [
        {
          "address": "0x2a8db1dfd78f31c824caed9f38b084db11d40330",
          "topics": [
            "0xdffbd9ded1c09446f09377de547142dcce7dc541c8b0b028142b1eba7026b9e7",
            "0x000000000000000000000000980b62da83eff3d4576c647993b0c1d7faf17c73",
            "0x0000000000000000000000003e19bbee16243f36b331ce550f3ff2685e972944"
          ],
          "data": "0x",
          "blockHash": "0x4f0d6c8e8e40d9cd4fe073a05c5f364bb12ebd8a505aaae39df198649c226696",
          "blockNumber": "0x61da3a6",
          "transactionHash": "0xf521c2bc9603e955bed0e5fdb3a2895e10706e68e04568f146f2c6d2b244d059",
          "transactionIndex": "0x1",
          "logIndex": "0x0",
          "removed": false
        }
      ],
      "logsBloom": "0x00000000010000000000000000000000000000000000000000000000000000000000002400000000000000000000000000000000008000000000000000000020000020000000000000000000000020000000000000000000000000200000000000020000000000000000000000000000000000000000000000000000000000000000000000002000000000000000000000002000000000000000000000000000000000000000000000000000000000000000000000000000000000000000000000000000000000000000000200000000000000000000000000000000000000000000000000000000000000000000000000000000000000000000000000000000",
      "type": "0x2",
      "transactionHash": "0xf521c2bc9603e955bed0e5fdb3a2895e10706e68e04568f146f2c6d2b244d059",
      "transactionIndex": "0x1",
      "blockHash": "0x4f0d6c8e8e40d9cd4fe073a05c5f364bb12ebd8a505aaae39df198649c226696",
      "blockNumber": "0x61da3a6",
      "gasUsed": "0x83d0",
      "effectiveGasPrice": "0x5f5e100",
      "from": "0x8558519ad14b443949149577024a92c036beb7bb",
      "to": "0x2a8db1dfd78f31c824caed9f38b084db11d40330",
      "contractAddress": null,
      "gasUsedForL1": "0x27a",
      "l1BlockNumber": "0x6dc310"
    },
    {
      "status": "0x1",
      "cumulativeGasUsed": "0x83d0",
      "logs": [
        {
          "address": "0x2a8db1dfd78f31c824caed9f38b084db11d40330",
          "topics": [
            "0xdffbd9ded1c09446f09377de547142dcce7dc541c8b0b028142b1eba7026b9e7",
            "0x000000000000000000000000df52714c191e8c4ec26ccd5b1578a904724e93b6",
            "0x0000000000000000000000003e19bbee16243f36b331ce550f3ff2685e972944"
          ],
          "data": "0x",
          "blockHash": "0x80b0691e27cfe3273a67fb0c795764a7ab17c5fad39f28fa058f6a02f4324e69",
          "blockNumber": "0x61da3ae",
          "transactionHash": "0xe2d63624f61ac947058a2858bf8ff8983809b18c00d5daf8badff96e053462b3",
          "transactionIndex": "0x1",
          "logIndex": "0x0",
          "removed": false
        }
      ],
      "logsBloom": "0x00000000010000000000000000000010000000000000000000000000000000000000002400000000000000000000000000000000008000000000000000000020000000000000000000000000000020000000000000000080000000200000000000000000000000000000000000000000000000000000000000000000000000000000000000002000000000000000000000002000000000000000000000000000000000000000000000000000000000000000000000000000000000000000000000000000000000000000000000000000000000000000000000000000000000000000000000000000000200000000000000000000000000000000000000000000",
      "type": "0x2",
      "transactionHash": "0xe2d63624f61ac947058a2858bf8ff8983809b18c00d5daf8badff96e053462b3",
      "transactionIndex": "0x1",
      "blockHash": "0x80b0691e27cfe3273a67fb0c795764a7ab17c5fad39f28fa058f6a02f4324e69",
      "blockNumber": "0x61da3ae",
      "gasUsed": "0x83d0",
      "effectiveGasPrice": "0x5f5e100",
      "from": "0x8558519ad14b443949149577024a92c036beb7bb",
      "to": "0x2a8db1dfd78f31c824caed9f38b084db11d40330",
      "contractAddress": null,
      "gasUsedForL1": "0x27a",
      "l1BlockNumber": "0x6dc310"
    }
  ],
  "libraries": [],
  "pending": [],
  "returns": {},
  "timestamp": 1733106737,
  "chain": 421614,
  "commit": "a84f3db"
}