{
  "transactions": [
    {
      "hash": "0xb2549554120045b16cf39fae0ca8668c45819cef6a10573aaadf895f2935c2b1",
      "transactionType": "CALL",
      "contractName": null,
      "contractAddress": "0x67077b70711026ce9d7c3f591d45924264a0c65b",
      "function": "borrowWithSignature((address,address,uint256,uint256,uint256,uint256,uint256,uint256,bool,address,uint256),bytes,bytes)",
      "arguments": [
        "(0xa2A53973a147F2996F3f33c363Af0f22Dc46c549, 0x3e19BBEe16243F36b331Ce550f3fF2685e972944, 1, 2000000000000000, 1726326912, 1200, 4, 0, false, 0x8ddA813a12c011fB49104EcA097B8dE0E0Ec51B8, 0)",
        "0xd105328a60c9c0809252945d65d7bb8bdf816a306f97d5d4f2d8d4092a60826b7656f4b1188b799134269bac18cb7908e49111cbd9cc2007265fc0742c3b06ec1b",
        "0x9e4bc582499a6c12fb82f1fa739aa108149b8915dfcf4d1b38e3eeeec8be39bb4eabfe1134ba527e38edc1095c64e7223baddbacab0194c6502b9d21c3e868541b"
      ],
      "transaction": {
        "from": "0xe0d6f93151091f24ea09474e9271bd60f2624d99",
        "to": "0x67077b70711026ce9d7c3f591d45924264a0c65b",
        "gas": "0x27a31",
        "value": "0x0",
        "input": "0xbed1b253000000000000000000000000a2a53973a147f2996f3f33c363af0f22dc46c5490000000000000000000000003e19bbee16243f36b331ce550f3ff2685e972944000000000000000000000000000000000000000000000000000000000000000100000000000000000000000000000000000000000000000000071afd498d00000000000000000000000000000000000000000000000000000000000066e5a88000000000000000000000000000000000000000000000000000000000000004b00000000000000000000000000000000000000000000000000000000000000004000000000000000000000000000000000000000000000000000000000000000000000000000000000000000000000000000000000000000000000000000000000000000000000000000000008dda813a12c011fb49104eca097b8de0e0ec51b8000000000000000000000000000000000000000000000000000000000000000000000000000000000000000000000000000000000000000000000000000001a000000000000000000000000000000000000000000000000000000000000002200000000000000000000000000000000000000000000000000000000000000041d105328a60c9c0809252945d65d7bb8bdf816a306f97d5d4f2d8d4092a60826b7656f4b1188b799134269bac18cb7908e49111cbd9cc2007265fc0742c3b06ec1b0000000000000000000000000000000000000000000000000000000000000000000000000000000000000000000000000000000000000000000000000000419e4bc582499a6c12fb82f1fa739aa108149b8915dfcf4d1b38e3eeeec8be39bb4eabfe1134ba527e38edc1095c64e7223baddbacab0194c6502b9d21c3e868541b00000000000000000000000000000000000000000000000000000000000000",
        "nonce": "0xe9",
        "chainId": "0x14a34"
      },
      "additionalContracts": [],
      "isFixedGasLimit": false
    }
  ],
  "receipts": [
    {
      "status": "0x1",
      "cumulativeGasUsed": "0x587d2",
      "logs": [
        {
          "address": "0x4200000000000000000000000000000000000006",
          "topics": [
            "0x7fcf532c15f0a6db0bd6d0e038bea71d30d808c7d98cb3bf7268a95bf5081b65",
            "0x00000000000000000000000067077b70711026ce9d7c3f591d45924264a0c65b"
          ],
          "data": "0x00000000000000000000000000000000000000000000000000071afd498d0000",
          "blockHash": "0xd8736fd5fd18daf773247d79d4847f17faf134e385dea0a0ab3b99f5c3c09bcc",
          "blockNumber": "0xe924e5",
          "transactionHash": "0xb2549554120045b16cf39fae0ca8668c45819cef6a10573aaadf895f2935c2b1",
          "transactionIndex": "0x3",
          "logIndex": "0x7",
          "removed": false
        },
        {
          "address": "0x67077b70711026ce9d7c3f591d45924264a0c65b",
          "topics": [
            "0x53595c129ede1ce82f467b6b1fa70d20550589ac4320cf8bc0bb20901a8b658d",
            "0x0000000000000000000000003e19bbee16243f36b331ce550f3ff2685e972944",
            "0x0000000000000000000000000000000000000000000000000000000000000001",
            "0x000000000000000000000000a2a53973a147f2996f3f33c363af0f22dc46c549"
          ],
          "data": "0x00000000000000000000000000000000000000000000000000071afd498d00000000000000000000000000008dda813a12c011fb49104eca097b8de0e0ec51b80000000000000000000000000000000000000000000000000000000000000000",
          "blockHash": "0xd8736fd5fd18daf773247d79d4847f17faf134e385dea0a0ab3b99f5c3c09bcc",
          "blockNumber": "0xe924e5",
          "transactionHash": "0xb2549554120045b16cf39fae0ca8668c45819cef6a10573aaadf895f2935c2b1",
          "transactionIndex": "0x3",
          "logIndex": "0x8",
          "removed": false
        }
      ],
      "logsBloom": "0x00000000010000000000000000000000000000000000000000040000000000000000000400000000000000100000000000000000000001000000000000040000000000000000000000000000000800000000008000440000000000000000000000000000040000000000000000000000000000800000040000000000000000000000000000000000000000000000000000002000002100000000000000000008200000000000000000000000000001000000000000000000000000000000000000000000020010000000000000000000000000000000000000000002000040000000000000000200000000000000000000000000000000000000000000000000",
      "type": "0x2",
      "transactionHash": "0xb2549554120045b16cf39fae0ca8668c45819cef6a10573aaadf895f2935c2b1",
      "transactionIndex": "0x3",
      "blockHash": "0xd8736fd5fd18daf773247d79d4847f17faf134e385dea0a0ab3b99f5c3c09bcc",
      "blockNumber": "0xe924e5",
      "gasUsed": "0x1ca86",
      "effectiveGasPrice": "0x912b91",
      "from": "0xe0d6f93151091f24ea09474e9271bd60f2624d99",
      "to": "0x67077b70711026ce9d7c3f591d45924264a0c65b",
      "contractAddress": null,
      "l1BaseFeeScalar": "0x44d",
      "l1BlobBaseFee": "0x12",
      "l1BlobBaseFeeScalar": "0xa118b",
      "l1Fee": "0x18d9784fa",
      "l1GasPrice": "0x4ca1c244",
      "l1GasUsed": "0x1268"
    }
  ],
  "libraries": [],
  "pending": [],
  "returns": {},
  "timestamp": 1726326960,
  "chain": 84532,
  "commit": "5fcd4f3"
}