{
  "transactions": [
    {
      "hash": "0x337df8108c5288e7dae8f8374dd8eb594e66532c2f541f78a23727e4beeac98a",
      "transactionType": "CALL",
      "contractName": null,
      "contractAddress": "0x9ca9d67f613c50741e30e5ef88418891e254604d",
      "function": "poolDeposit(address)",
      "arguments": [
        "0x794F11F77cd0D4eE60885A1a1857d796f0D08fd7"
      ],
      "transaction": {
        "from": "0x8558519ad14b443949149577024a92c036beb7bb",
        "to": "0x9ca9d67f613c50741e30e5ef88418891e254604d",
        "gas": "0x3f654",
        "value": "0xeebe0b40e8000",
        "input": "0x5698afa5000000000000000000000000794f11f77cd0d4ee60885a1a1857d796f0d08fd7",
        "nonce": "0x0",
        "chainId": "0xa4b1"
      },
      "additionalContracts": [],
      "isFixedGasLimit": false
    },
    {
      "hash": "0x9bbd7057727acfce50172d3ea0313b7339a7e0928e146435961c322fe59b31de",
      "transactionType": "CALL",
      "contractName": null,
      "contractAddress": "0xeebe5e1bd522bbd9a64f28d923c0680f89db5c59",
      "function": "addSupportedToken(address,address)",
      "arguments": [
        "0x82aF49447D8a07e3bd95BD0d56f35241523fBab1",
        "0x794F11F77cd0D4eE60885A1a1857d796f0D08fd7"
      ],
      "transaction": {
        "from": "0x8558519ad14b443949149577024a92c036beb7bb",
        "to": "0xeebe5e1bd522bbd9a64f28d923c0680f89db5c59",
        "gas": "0x370ca",
        "value": "0x0",
        "input": "0xc2b7be1600000000000000000000000082af49447d8a07e3bd95bd0d56f35241523fbab1000000000000000000000000794f11f77cd0d4ee60885a1a1857d796f0d08fd7",
        "nonce": "0x1",
        "chainId": "0xa4b1"
      },
      "additionalContracts": [],
      "isFixedGasLimit": false
    },
    {
      "hash": "0x3e3ddf615c4a401c9868ad06b33b9209a20e667c92d62f0e9dce395505a86f30",
      "transactionType": "CALL",
      "contractName": null,
      "contractAddress": "0xeebe5e1bd522bbd9a64f28d923c0680f89db5c59",
      "function": "addSupportedToken(address,address)",
      "arguments": [
        "0x0fBcbaEA96Ce0cF7Ee00A8c19c3ab6f5Dc8E1921",
        "0x794F11F77cd0D4eE60885A1a1857d796f0D08fd7"
      ],
      "transaction": {
        "from": "0x8558519ad14b443949149577024a92c036beb7bb",
        "to": "0xeebe5e1bd522bbd9a64f28d923c0680f89db5c59",
        "gas": "0x3706a",
        "value": "0x0",
        "input": "0xc2b7be160000000000000000000000000fbcbaea96ce0cf7ee00a8c19c3ab6f5dc8e1921000000000000000000000000794f11f77cd0d4ee60885a1a1857d796f0d08fd7",
        "nonce": "0x2",
        "chainId": "0xa4b1"
      },
      "additionalContracts": [],
      "isFixedGasLimit": false
    }
  ],
  "receipts": [
    {
      "status": "0x1",
      "cumulativeGasUsed": "0x27ca6",
      "logs": [
        {
          "address": "0x82af49447d8a07e3bd95bd0d56f35241523fbab1",
          "topics": [
            "0xddf252ad1be2c89b69c2b068fc378daa952ba7f163c4a11628f55a4df523b3ef",
            "0x0000000000000000000000000000000000000000000000000000000000000000",
            "0x0000000000000000000000009ca9d67f613c50741e30e5ef88418891e254604d"
          ],
          "data": "0x000000000000000000000000000000000000000000000000000eebe0b40e8000",
          "blockHash": "0xedde9e60cdb9e8e00184e12e275b2ff6a575165202dc9a1960f02073520a058d",
          "blockNumber": "0x10b6c2a5",
          "transactionHash": "0x337df8108c5288e7dae8f8374dd8eb594e66532c2f541f78a23727e4beeac98a",
          "transactionIndex": "0x1",
          "logIndex": "0x0",
          "removed": false
        },
        {
          "address": "0x9ca9d67f613c50741e30e5ef88418891e254604d",
          "topics": [
            "0x90576f1ad407b163ccea052b2d55bac158025af10ac5895369e8956eeab83434",
            "0x000000000000000000000000794f11f77cd0d4ee60885a1a1857d796f0d08fd7"
          ],
          "data": "0x000000000000000000000000000000000000000000000000000eebe0b40e8000",
          "blockHash": "0xedde9e60cdb9e8e00184e12e275b2ff6a575165202dc9a1960f02073520a058d",
          "blockNumber": "0x10b6c2a5",
          "transactionHash": "0x337df8108c5288e7dae8f8374dd8eb594e66532c2f541f78a23727e4beeac98a",
          "transactionIndex": "0x1",
          "logIndex": "0x1",
          "removed": false
        }
      ],
      "logsBloom": "0x00000000000000000000000000000000000000000000000000000000000000000000000000000000000000000000000000004000000000000000000000000000000000010000002000000008000000000000000000000000800000000000000000000000020000000008200400000800000000000000000000000010000000000000002000000000000000000000800008001000000000000000000000002000000000000000000000000000000000000000000000000000000000000000000001000002000000000000000000000000000000000000000000000000000020040000000000000000010000000000000000000000000000000000000000000000",
      "type": "0x2",
      "transactionHash": "0x337df8108c5288e7dae8f8374dd8eb594e66532c2f541f78a23727e4beeac98a",
      "transactionIndex": "0x1",
      "blockHash": "0xedde9e60cdb9e8e00184e12e275b2ff6a575165202dc9a1960f02073520a058d",
      "blockNumber": "0x10b6c2a5",
      "gasUsed": "0x27ca6",
      "effectiveGasPrice": "0xcb3388",
      "from": "0x8558519ad14b443949149577024a92c036beb7bb",
      "to": "0x9ca9d67f613c50741e30e5ef88418891e254604d",
      "contractAddress": null,
      "gasUsedForL1": "0x10b9f",
      "l1BlockNumber": "0x14530b6"
    },
    {
      "status": "0x1",
      "cumulativeGasUsed": "0x209aa",
      "logs": [
        {
          "address": "0xeebe5e1bd522bbd9a64f28d923c0680f89db5c59",
          "topics": [
            "0xdffbd9ded1c09446f09377de547142dcce7dc541c8b0b028142b1eba7026b9e7",
            "0x00000000000000000000000082af49447d8a07e3bd95bd0d56f35241523fbab1",
            "0x000000000000000000000000794f11f77cd0d4ee60885a1a1857d796f0d08fd7"
          ],
          "data": "0x",
          "blockHash": "0xdb5872085019744d4be293d69eedf8e7e22c60c9df79966f7c35464cf4ed273c",
          "blockNumber": "0x10b6c2ac",
          "transactionHash": "0x9bbd7057727acfce50172d3ea0313b7339a7e0928e146435961c322fe59b31de",
          "transactionIndex": "0x1",
          "logIndex": "0x0",
          "removed": false
        }
      ],
      "logsBloom": "0x00000000000000000000000000000000000000000000010000000000000000000000000000000000000000000000000000000000008000000000000020000000000000000000000000000000000000010000000000000000000000200000000000000000000000000000200000000000000000000000000000000000000000000000000000002000000000000000800000000000001000000000000000000000000000000000000000000000000000000000000000000000000000000000000000000000000000000000000000000000000000000000000000000000000000000000000000000000030000000000000000000000000000800000000000000000",
      "type": "0x2",
      "transactionHash": "0x9bbd7057727acfce50172d3ea0313b7339a7e0928e146435961c322fe59b31de",
      "transactionIndex": "0x1",
      "blockHash": "0xdb5872085019744d4be293d69eedf8e7e22c60c9df79966f7c35464cf4ed273c",
      "blockNumber": "0x10b6c2ac",
      "gasUsed": "0x209aa",
      "effectiveGasPrice": "0xc9dbc8",
      "from": "0x8558519ad14b443949149577024a92c036beb7bb",
      "to": "0xeebe5e1bd522bbd9a64f28d923c0680f89db5c59",
      "contractAddress": null,
      "gasUsedForL1": "0x13a98",
      "l1BlockNumber": "0x14530b6"
    },
    {
      "status": "0x1",
      "cumulativeGasUsed": "0x89d5c",
      "logs": [
        {
          "address": "0xeebe5e1bd522bbd9a64f28d923c0680f89db5c59",
          "topics": [
            "0xdffbd9ded1c09446f09377de547142dcce7dc541c8b0b028142b1eba7026b9e7",
            "0x0000000000000000000000000fbcbaea96ce0cf7ee00a8c19c3ab6f5dc8e1921",
            "0x000000000000000000000000794f11f77cd0d4ee60885a1a1857d796f0d08fd7"
          ],
          "data": "0x",
          "blockHash": "0xaae0dfce2fd357ca725a2ec66420615c4282947fdec25f0b9a11b5ff05dcc1bb",
          "blockNumber": "0x10b6c2b3",
          "transactionHash": "0x3e3ddf615c4a401c9868ad06b33b9209a20e667c92d62f0e9dce395505a86f30",
          "transactionIndex": "0x2",
          "logIndex": "0x1",
          "removed": false
        }
      ],
      "logsBloom": "0x00000000000000000000000000000000000000000000010000000000000000000000000000000000000000000000000000000000008000000000000020000000000000000000000000000000000000000000000000000000000000200000000000000000000000000000200000000000000000000000000000000000000000000000000000002000000000000000800000000000001000000000000000000000000000000000000000000000000000000000000000000000000000000000000000000000000000000100000000000000000000000000000000000000000000000000010000000000010000000000000000000000000000000000100000000000",
      "type": "0x2",
      "transactionHash": "0x3e3ddf615c4a401c9868ad06b33b9209a20e667c92d62f0e9dce395505a86f30",
      "transactionIndex": "0x2",
      "blockHash": "0xaae0dfce2fd357ca725a2ec66420615c4282947fdec25f0b9a11b5ff05dcc1bb",
      "blockNumber": "0x10b6c2b3",
      "gasUsed": "0x20b32",
      "effectiveGasPrice": "0xc8d9f8",
      "from": "0x8558519ad14b443949149577024a92c036beb7bb",
      "to": "0xeebe5e1bd522bbd9a64f28d923c0680f89db5c59",
      "contractAddress": null,
      "gasUsedForL1": "0x13c2c",
      "l1BlockNumber": "0x14530b6"
    }
  ],
  "libraries": [],
  "pending": [],
  "returns": {},
  "timestamp": 1733104418,
  "chain": 42161,
  "commit": "a84f3db"
}