{
  "transactions": [
    {
      "hash": "0x37a66658744a5fa461a94d7a8b3b905e45f580cb940dddff7e1574471b21fd10",
      "transactionType": "CALL",
      "contractName": null,
      "contractAddress": "0x2cbe484b1e2fe4ffa28fef0caa0c9e0d724fe183",
      "function": "addSupportedToken(address,address)",
      "arguments": [
        "0x4200000000000000000000000000000000000006",
        "0xA500C712e7EbDd5040f1A212800f5f6fa20d05F8"
      ],
      "transaction": {
        "from": "0xe0d6f93151091f24ea09474e9271bd60f2624d99",
        "to": "0x2cbe484b1e2fe4ffa28fef0caa0c9e0d724fe183",
        "gas": "0x11c4f",
        "value": "0x0",
        "input": "0xc2b7be160000000000000000000000004200000000000000000000000000000000000006000000000000000000000000a500c712e7ebdd5040f1a212800f5f6fa20d05f8",
        "nonce": "0x0",
        "chainId": "0x3b9ac9ff"
      },
      "additionalContracts": [],
      "isFixedGasLimit": false
    },
    {
      "hash": "0xc9138c0636323ad46919287bbcf09029ecedf95e097f2998ef5ad611a82073ed",
      "transactionType": "CALL",
      "contractName": null,
      "contractAddress": "0x2cbe484b1e2fe4ffa28fef0caa0c9e0d724fe183",
      "function": "addSupportedToken(address,address)",
      "arguments": [
        "0x14440344256002a5afaA1403EbdAf4bf9a5499E3",
        "0xA500C712e7EbDd5040f1A212800f5f6fa20d05F8"
      ],
      "transaction": {
        "from": "0xe0d6f93151091f24ea09474e9271bd60f2624d99",
        "to": "0x2cbe484b1e2fe4ffa28fef0caa0c9e0d724fe183",
        "gas": "0x11d78",
        "value": "0x0",
        "input": "0xc2b7be1600000000000000000000000014440344256002a5afaa1403ebdaf4bf9a5499e3000000000000000000000000a500c712e7ebdd5040f1a212800f5f6fa20d05f8",
        "nonce": "0x1",
        "chainId": "0x3b9ac9ff"
      },
      "additionalContracts": [],
      "isFixedGasLimit": false
    },
    {
      "hash": "0x588232d39be2b0a7361a4402edd8093461602f78512334e04e3dcf7c1bf06e68",
      "transactionType": "CALL",
      "contractName": null,
      "contractAddress": "0xdf52714c191e8c4ec26ccd5b1578a904724e93b6",
      "function": "poolDeposit(address)",
      "arguments": [
        "0xA500C712e7EbDd5040f1A212800f5f6fa20d05F8"
      ],
      "transaction": {
        "from": "0xe0d6f93151091f24ea09474e9271bd60f2624d99",
        "to": "0xdf52714c191e8c4ec26ccd5b1578a904724e93b6",
        "gas": "0x1d07d",
        "value": "0x2c68af0bb140000",
        "input": "0x5698afa5000000000000000000000000a500c712e7ebdd5040f1a212800f5f6fa20d05f8",
        "nonce": "0x2",
        "chainId": "0x3b9ac9ff"
      },
      "additionalContracts": [],
      "isFixedGasLimit": false
    }
  ],
  "receipts": [
    {
      "status": "0x1",
      "cumulativeGasUsed": "0x1a4f9",
      "logs": [
        {
          "address": "0x2cbe484b1e2fe4ffa28fef0caa0c9e0d724fe183",
          "topics": [
            "0xdffbd9ded1c09446f09377de547142dcce7dc541c8b0b028142b1eba7026b9e7",
            "0x0000000000000000000000004200000000000000000000000000000000000006",
            "0x000000000000000000000000a500c712e7ebdd5040f1a212800f5f6fa20d05f8"
          ],
          "data": "0x",
          "blockHash": "0x5756a8caecf9ab1e11c97cfbb9b1d1e80be203dd72a9a958898be42b654272e4",
          "blockNumber": "0xcfec7e",
          "transactionHash": "0x37a66658744a5fa461a94d7a8b3b905e45f580cb940dddff7e1574471b21fd10",
          "transactionIndex": "0x1",
          "logIndex": "0x0",
          "removed": false
        }
      ],
      "logsBloom": "0x00000000000000000000000000000000000000000000000000000000000000000000000000000000000000000000000000000000008000400020000000000000000000000000000000000000000000000000000000001000000000200000000010000000000000000000000000000000000010000000000000000000000000000000000000002000000000000000000000000000000000000000000000000000000000000000000000000000000000000000000000000000000000000000000020000000000004000000000800000000000000000000000000000000000000000010000000000000000000000000000000000000000000000000000000000000",
      "type": "0x2",
      "transactionHash": "0x37a66658744a5fa461a94d7a8b3b905e45f580cb940dddff7e1574471b21fd10",
      "transactionIndex": "0x1",
      "blockHash": "0x5756a8caecf9ab1e11c97cfbb9b1d1e80be203dd72a9a958898be42b654272e4",
      "blockNumber": "0xcfec7e",
      "gasUsed": "0xcdd6",
      "effectiveGasPrice": "0xfd",
      "from": "0xe0d6f93151091f24ea09474e9271bd60f2624d99",
      "to": "0x2cbe484b1e2fe4ffa28fef0caa0c9e0d724fe183",
      "contractAddress": null,
      "l1BaseFeeScalar": "0x3f4",
      "l1BlobBaseFee": "0x5b8a5d29fb",
      "l1BlobBaseFeeScalar": "0x941ad",
      "l1Fee": "0x15b8f644c69a",
      "l1GasPrice": "0x4cda5e21a",
      "l1GasUsed": "0x640"
    },
    {
      "status": "0x1",
      "cumulativeGasUsed": "0x273a7",
      "logs": [
        {
          "address": "0x2cbe484b1e2fe4ffa28fef0caa0c9e0d724fe183",
          "topics": [
            "0xdffbd9ded1c09446f09377de547142dcce7dc541c8b0b028142b1eba7026b9e7",
            "0x00000000000000000000000014440344256002a5afaa1403ebdaf4bf9a5499e3",
            "0x000000000000000000000000a500c712e7ebdd5040f1a212800f5f6fa20d05f8"
          ],
          "data": "0x",
          "blockHash": "0x5756a8caecf9ab1e11c97cfbb9b1d1e80be203dd72a9a958898be42b654272e4",
          "blockNumber": "0xcfec7e",
          "transactionHash": "0xc9138c0636323ad46919287bbcf09029ecedf95e097f2998ef5ad611a82073ed",
          "transactionIndex": "0x2",
          "logIndex": "0x1",
          "removed": false
        }
      ],
      "logsBloom": "0x00000000000000000000000000000000000000000000000000000000000000000000000000000000000000000000000000000000008000400020000000000000000000000000000000000000000000000000000000001000000000200000000010000000000000000000000000000000400000000000000000000000000000000000000000002000000000000000000000000000000000000000000000000000000000000000000000000000000000000000000000000000000000000000000020000000000000000000000800000000000000000000000000000000000000000010000002000000000000000000000000000000000000000000000000000000",
      "type": "0x2",
      "transactionHash": "0xc9138c0636323ad46919287bbcf09029ecedf95e097f2998ef5ad611a82073ed",
      "transactionIndex": "0x2",
      "blockHash": "0x5756a8caecf9ab1e11c97cfbb9b1d1e80be203dd72a9a958898be42b654272e4",
      "blockNumber": "0xcfec7e",
      "gasUsed": "0xceae",
      "effectiveGasPrice": "0xfd",
      "from": "0xe0d6f93151091f24ea09474e9271bd60f2624d99",
      "to": "0x2cbe484b1e2fe4ffa28fef0caa0c9e0d724fe183",
      "contractAddress": null,
      "l1BaseFeeScalar": "0x3f4",
      "l1BlobBaseFee": "0x5b8a5d29fb",
      "l1BlobBaseFeeScalar": "0x941ad",
      "l1Fee": "0x15b8f644c69a",
      "l1GasPrice": "0x4cda5e21a",
      "l1GasUsed": "0x640"
    },
    {
      "status": "0x1",
      "cumulativeGasUsed": "0x3b141",
      "logs": [
        {
          "address": "0x4200000000000000000000000000000000000006",
          "topics": [
            "0xe1fffcc4923d04b559f4d29a8bfc6cda04eb5b0d3c460751c2402c5c5cc9109c",
            "0x000000000000000000000000df52714c191e8c4ec26ccd5b1578a904724e93b6"
          ],
          "data": "0x00000000000000000000000000000000000000000000000002c68af0bb140000",
          "blockHash": "0x5756a8caecf9ab1e11c97cfbb9b1d1e80be203dd72a9a958898be42b654272e4",
          "blockNumber": "0xcfec7e",
          "transactionHash": "0x588232d39be2b0a7361a4402edd8093461602f78512334e04e3dcf7c1bf06e68",
          "transactionIndex": "0x3",
          "logIndex": "0x2",
          "removed": false
        },
        {
          "address": "0xdf52714c191e8c4ec26ccd5b1578a904724e93b6",
          "topics": [
            "0x90576f1ad407b163ccea052b2d55bac158025af10ac5895369e8956eeab83434",
            "0x000000000000000000000000a500c712e7ebdd5040f1a212800f5f6fa20d05f8"
          ],
          "data": "0x00000000000000000000000000000000000000000000000002c68af0bb140000",
          "blockHash": "0x5756a8caecf9ab1e11c97cfbb9b1d1e80be203dd72a9a958898be42b654272e4",
          "blockNumber": "0xcfec7e",
          "transactionHash": "0x588232d39be2b0a7361a4402edd8093461602f78512334e04e3dcf7c1bf06e68",
          "transactionIndex": "0x3",
          "logIndex": "0x3",
          "removed": false
        }
      ],
      "logsBloom": "0x00000000000000000000020000000010000000000000000000040000000000000000000000000000000000100000000000000000000000400000000000000000000000000000000000000000000000000000000000000080800000008000000010000000000000000000000000000000000000000000000000000000000000000000002000000000000000000000000008000001002000000000000000000000000000000000020000000000000000000000000000000000000000000000000000000000000000000000000800000000000000000000000000000000000000000000000000000000000200000000000000000008000000400000000000000000",
      "type": "0x2",
      "transactionHash": "0x588232d39be2b0a7361a4402edd8093461602f78512334e04e3dcf7c1bf06e68",
      "transactionIndex": "0x3",
      "blockHash": "0x5756a8caecf9ab1e11c97cfbb9b1d1e80be203dd72a9a958898be42b654272e4",
      "blockNumber": "0xcfec7e",
      "gasUsed": "0x13d9a",
      "effectiveGasPrice": "0xfd",
      "from": "0xe0d6f93151091f24ea09474e9271bd60f2624d99",
      "to": "0xdf52714c191e8c4ec26ccd5b1578a904724e93b6",
      "contractAddress": null,
      "l1BaseFeeScalar": "0x3f4",
      "l1BlobBaseFee": "0x5b8a5d29fb",
      "l1BlobBaseFeeScalar": "0x941ad",
      "l1Fee": "0x15b8f644c69a",
      "l1GasPrice": "0x4cda5e21a",
      "l1GasUsed": "0x640"
    }
  ],
  "libraries": [],
  "pending": [],
  "returns": {},
  "timestamp": 1725332996,
  "chain": 999999999,
  "commit": "5cf640c"
}