{
  "transactions": [
    {
      "hash": "0xc656f0db3cf36bf74da4e6340e5fb4f9189dab851126967ea807c9bce3700fa2",
      "transactionType": "CALL",
      "contractName": null,
      "contractAddress": "0x73f0b82ea0c7268866bb39e5a30f3f4e348e3feb",
      "function": "addIssuer(address,address,uint256,uint256,uint256,uint256)",
      "arguments": [
        "0x3e19BBEe16243F36b331Ce550f3fF2685e972944",
        "0xE0D6f93151091f24EA09474e9271BD60F2624d99",
        "1000",
        "1000000000000000",
        "1000000000000000",
        "2"
      ],
      "transaction": {
        "from": "0x03773f85756acac65a869e89e3b7b2fcda6be140",
        "to": "0x73f0b82ea0c7268866bb39e5a30f3f4e348e3feb",
        "gas": "0x2e61b",
        "value": "0x0",
        "input": "0x86582d9a0000000000000000000000003e19bbee16243f36b331ce550f3ff2685e972944000000000000000000000000e0d6f93151091f24ea09474e9271bd60f2624d9900000000000000000000000000000000000000000000000000000000000003e800000000000000000000000000000000000000000000000000038d7ea4c6800000000000000000000000000000000000000000000000000000038d7ea4c680000000000000000000000000000000000000000000000000000000000000000002",
        "nonce": "0xa",
        "chainId": "0x3b9ac9ff"
      },
      "additionalContracts": [],
      "isFixedGasLimit": false
    },
    {
      "hash": "0x435a5186795a3a95daa154c9a3d6bf201365b364f92122bd6e8684a3907f5e57",
      "transactionType": "CALL",
      "contractName": null,
      "contractAddress": "0x74f96ed7d11e9028352f44345f4a1d35bdf7d0e4",
      "function": "setPeer(uint32,bytes32)",
      "arguments": [
        "40245",
        "0x0000000000000000000000003d4cf5232061744ca5e72eab6624c96750d71ec2"
      ],
      "transaction": {
        "from": "0x03773f85756acac65a869e89e3b7b2fcda6be140",
        "to": "0x74f96ed7d11e9028352f44345f4a1d35bdf7d0e4",
        "gas": "0xa518",
        "value": "0x0",
        "input": "0x3400288b0000000000000000000000000000000000000000000000000000000000009d350000000000000000000000003d4cf5232061744ca5e72eab6624c96750d71ec2",
        "nonce": "0xb",
        "chainId": "0x3b9ac9ff"
      },
      "additionalContracts": [],
      "isFixedGasLimit": false
    }
  ],
  "receipts": [
    {
      "status": "0x1",
      "cumulativeGasUsed": "0x2c479",
      "logs": [
        {
          "address": "0x73f0b82ea0c7268866bb39e5a30f3f4e348e3feb",
          "topics": [
            "0x81f5a5da0823b41cbf403c631b7efa6c2ec9a7742d7c9cf86de6300fbaf3e00e"
          ],
          "data": "0x0000000000000000000000003e19bbee16243f36b331ce550f3ff2685e972944000000000000000000000000e0d6f93151091f24ea09474e9271bd60f2624d99",
          "blockHash": "0xfd8ab6d755ce5e6372a6737abae6cb25219ddaa19760c1d374269cfe943dd26e",
          "blockNumber": "0xd74cbd",
          "transactionHash": "0xc656f0db3cf36bf74da4e6340e5fb4f9189dab851126967ea807c9bce3700fa2",
          "transactionIndex": "0x1",
          "logIndex": "0x0",
          "removed": false
        }
      ],
      "logsBloom": "0x00000000000000000000000000000000000000000000000000000000020000000000000000000000000000000000000000000000000000000000000000000000000000000000000000000000000000000000200000040000000000000010000000000000000000000000000000000000000000000000000000000000000000000000000000000000000000000000000000000000000000000000000000000000000000000000000000000000000000000000000000000000000000000000000000000000000100000000000000000000000000000000000000000000000008000000000000000000000000000000000000000000000000000000000000000000",
      "type": "0x2",
      "transactionHash": "0xc656f0db3cf36bf74da4e6340e5fb4f9189dab851126967ea807c9bce3700fa2",
      "transactionIndex": "0x1",
      "blockHash": "0xfd8ab6d755ce5e6372a6737abae6cb25219ddaa19760c1d374269cfe943dd26e",
      "blockNumber": "0xd74cbd",
      "gasUsed": "0x21946",
      "effectiveGasPrice": "0xfd",
      "from": "0x03773f85756acac65a869e89e3b7b2fcda6be140",
      "to": "0x73f0b82ea0c7268866bb39e5a30f3f4e348e3feb",
      "contractAddress": null,
      "l1BaseFeeScalar": "0x3f4",
      "l1BlobBaseFee": "0x1",
      "l1BlobBaseFeeScalar": "0x941ad",
      "l1Fee": "0xfe1f6bae",
      "l1GasPrice": "0x814fc33f",
      "l1GasUsed": "0x795"
    },
    {
      "status": "0x1",
      "cumulativeGasUsed": "0x33c00",
      "logs": [
        {
          "address": "0x74f96ed7d11e9028352f44345f4a1d35bdf7d0e4",
          "topics": [
            "0x238399d427b947898edb290f5ff0f9109849b1c3ba196a42e35f00c50a54b98b"
          ],
          "data": "0x0000000000000000000000000000000000000000000000000000000000009d350000000000000000000000003d4cf5232061744ca5e72eab6624c96750d71ec2",
          "blockHash": "0xfd8ab6d755ce5e6372a6737abae6cb25219ddaa19760c1d374269cfe943dd26e",
          "blockNumber": "0xd74cbd",
          "transactionHash": "0x435a5186795a3a95daa154c9a3d6bf201365b364f92122bd6e8684a3907f5e57",
          "transactionIndex": "0x2",
          "logIndex": "0x1",
          "removed": false
        }
      ],
      "logsBloom": "0x00000000000000000000000000000000000000000000000000000000000000000000000000000000000000000000000000000000000000000800000000000000000000000000000000000000000000000000000800000000000000000000000000000000000000000000000000000000000000000000000000000000000000000000000000000000000000000000000000000000000000000000000000000000000000080000000000000000000000000000000000000000000002000000000000000000000000000000000000000000400000000000000000040000000000000000000000000000000000000000000000000000000000000000000000000000",
      "type": "0x2",
      "transactionHash": "0x435a5186795a3a95daa154c9a3d6bf201365b364f92122bd6e8684a3907f5e57",
      "transactionIndex": "0x2",
      "blockHash": "0xfd8ab6d755ce5e6372a6737abae6cb25219ddaa19760c1d374269cfe943dd26e",
      "blockNumber": "0xd74cbd",
      "gasUsed": "0x7787",
      "effectiveGasPrice": "0xfd",
      "from": "0x03773f85756acac65a869e89e3b7b2fcda6be140",
      "to": "0x74f96ed7d11e9028352f44345f4a1d35bdf7d0e4",
      "contractAddress": null,
      "l1BaseFeeScalar": "0x3f4",
      "l1BlobBaseFee": "0x1",
      "l1BlobBaseFeeScalar": "0x941ad",
      "l1Fee": "0xd1619d0b",
      "l1GasPrice": "0x814fc33f",
      "l1GasUsed": "0x640"
    }
  ],
  "libraries": [],
  "pending": [],
  "returns": {},
  "timestamp": 1726299779,
  "chain": 999999999,
  "commit": "5fcd4f3"
}