{
  "transactions": [
    {
      "hash": "0x93f28a95a2a5f32eda864af2ae4aa3fc732bdb602cb2906e8966a0f967fa38b3",
      "transactionType": "CALL",
      "contractName": null,
      "contractAddress": "0x74f96ed7d11e9028352f44345f4a1d35bdf7d0e4",
      "function": "addSupportedToken(address,address)",
      "arguments": [
        "0x4200000000000000000000000000000000000006",
        "0x3e19BBEe16243F36b331Ce550f3fF2685e972944"
      ],
      "transaction": {
        "from": "0xe0d6f93151091f24ea09474e9271bd60f2624d99",
        "to": "0x74f96ed7d11e9028352f44345f4a1d35bdf7d0e4",
        "gas": "0x12d9a",
        "value": "0x0",
        "input": "0xc2b7be1600000000000000000000000042000000000000000000000000000000000000060000000000000000000000003e19bbee16243f36b331ce550f3ff2685e972944",
        "nonce": "0x22",
        "chainId": "0x3b9ac9ff"
      },
      "additionalContracts": [],
      "isFixedGasLimit": false
    },
    {
      "hash": "0x6d768c7c12788411b367a00a48a1aca540b9a4dd3ee5b9f7999aa08086291b81",
      "transactionType": "CALL",
      "contractName": null,
      "contractAddress": "0x74f96ed7d11e9028352f44345f4a1d35bdf7d0e4",
      "function": "addSupportedToken(address,address)",
      "arguments": [
        "0x14440344256002a5afaA1403EbdAf4bf9a5499E3",
        "0x3e19BBEe16243F36b331Ce550f3fF2685e972944"
      ],
      "transaction": {
        "from": "0xe0d6f93151091f24ea09474e9271bd60f2624d99",
        "to": "0x74f96ed7d11e9028352f44345f4a1d35bdf7d0e4",
        "gas": "0x12ed6",
        "value": "0x0",
        "input": "0xc2b7be1600000000000000000000000014440344256002a5afaa1403ebdaf4bf9a5499e30000000000000000000000003e19bbee16243f36b331ce550f3ff2685e972944",
        "nonce": "0x23",
        "chainId": "0x3b9ac9ff"
      },
      "additionalContracts": [],
      "isFixedGasLimit": false
    },
    {
      "hash": "0x2e7901686e8c75dce8c8639a917a24ed2fc2e23d5e1ed7f97e8e7c6c8f03ee32",
      "transactionType": "CALL",
      "contractName": null,
      "contractAddress": "0x73f0b82ea0c7268866bb39e5a30f3f4e348e3feb",
      "function": "poolDeposit(address)",
      "arguments": [
        "0x3e19BBEe16243F36b331Ce550f3fF2685e972944"
      ],
      "transaction": {
        "from": "0xe0d6f93151091f24ea09474e9271bd60f2624d99",
        "to": "0x73f0b82ea0c7268866bb39e5a30f3f4e348e3feb",
        "gas": "0x1b6dd",
        "value": "0x2c68af0bb140000",
        "input": "0x5698afa50000000000000000000000003e19bbee16243f36b331ce550f3ff2685e972944",
        "nonce": "0x24",
        "chainId": "0x3b9ac9ff"
      },
      "additionalContracts": [],
      "isFixedGasLimit": false
    }
  ],
  "receipts": [
    {
      "status": "0x1",
      "cumulativeGasUsed": "0x19a31",
      "logs": [
        {
          "address": "0x74f96ed7d11e9028352f44345f4a1d35bdf7d0e4",
          "topics": [
            "0xdffbd9ded1c09446f09377de547142dcce7dc541c8b0b028142b1eba7026b9e7",
            "0x0000000000000000000000004200000000000000000000000000000000000006",
            "0x0000000000000000000000003e19bbee16243f36b331ce550f3ff2685e972944"
          ],
          "data": "0x",
          "blockHash": "0x059783c10d3df386e1c7061b44e6afdfdaa786038e5f8fa8b7bf08df365cd005",
          "blockNumber": "0xd74d07",
          "transactionHash": "0x93f28a95a2a5f32eda864af2ae4aa3fc732bdb602cb2906e8966a0f967fa38b3",
          "transactionIndex": "0x1",
          "logIndex": "0x0",
          "removed": false
        }
      ],
      "logsBloom": "0x00000000010000000000000000000000000000000000000000000000000000000000000400000000000000000000000000000000008000000020000000000000000000000000000000000000000000000000000800000000000000200000000000000000000000000000000000000000000010000000000000000000000000000000000000002000000000000000000000002000000000000000000000000000000000080000000000000000000000000000000000000000000000000000000000000000000004000000000000000000400000000000000000000000000000000000000000000000000000000000000000000000000000000000000000000000",
      "type": "0x2",
      "transactionHash": "0x93f28a95a2a5f32eda864af2ae4aa3fc732bdb602cb2906e8966a0f967fa38b3",
      "transactionIndex": "0x1",
      "blockHash": "0x059783c10d3df386e1c7061b44e6afdfdaa786038e5f8fa8b7bf08df365cd005",
      "blockNumber": "0xd74d07",
      "gasUsed": "0xce3a",
      "effectiveGasPrice": "0xfd",
      "from": "0xe0d6f93151091f24ea09474e9271bd60f2624d99",
      "to": "0x74f96ed7d11e9028352f44345f4a1d35bdf7d0e4",
      "contractAddress": null,
      "l1BaseFeeScalar": "0x3f4",
      "l1BlobBaseFee": "0x1",
      "l1BlobBaseFeeScalar": "0x941ad",
      "l1Fee": "0xb8d7e296",
      "l1GasPrice": "0x72283c9d",
      "l1GasUsed": "0x640"
    },
    {
      "status": "0x1",
      "cumulativeGasUsed": "0x26943",
      "logs": [
        {
          "address": "0x74f96ed7d11e9028352f44345f4a1d35bdf7d0e4",
          "topics": [
            "0xdffbd9ded1c09446f09377de547142dcce7dc541c8b0b028142b1eba7026b9e7",
            "0x00000000000000000000000014440344256002a5afaa1403ebdaf4bf9a5499e3",
            "0x0000000000000000000000003e19bbee16243f36b331ce550f3ff2685e972944"
          ],
          "data": "0x",
          "blockHash": "0x059783c10d3df386e1c7061b44e6afdfdaa786038e5f8fa8b7bf08df365cd005",
          "blockNumber": "0xd74d07",
          "transactionHash": "0x6d768c7c12788411b367a00a48a1aca540b9a4dd3ee5b9f7999aa08086291b81",
          "transactionIndex": "0x2",
          "logIndex": "0x1",
          "removed": false
        }
      ],
      "logsBloom": "0x00000000010000000000000000000000000000000000000000000000000000000000000400000000000000000000000000000000008000000020000000000000000000000000000000000000000000000000000800000000000000200000000000000000000000000000000000000000400000000000000000000000000000000000000000002000000000000000000000002000000000000000000000000000000000080000000000000000000000000000000000000000000000000000000000000000000000000000000000000000400000000000000000000000000000000000000002000000000000000000000000000000000000000000000000000000",
      "type": "0x2",
      "transactionHash": "0x6d768c7c12788411b367a00a48a1aca540b9a4dd3ee5b9f7999aa08086291b81",
      "transactionIndex": "0x2",
      "blockHash": "0x059783c10d3df386e1c7061b44e6afdfdaa786038e5f8fa8b7bf08df365cd005",
      "blockNumber": "0xd74d07",
      "gasUsed": "0xcf12",
      "effectiveGasPrice": "0xfd",
      "from": "0xe0d6f93151091f24ea09474e9271bd60f2624d99",
      "to": "0x74f96ed7d11e9028352f44345f4a1d35bdf7d0e4",
      "contractAddress": null,
      "l1BaseFeeScalar": "0x3f4",
      "l1BlobBaseFee": "0x1",
      "l1BlobBaseFeeScalar": "0x941ad",
      "l1Fee": "0xb8d7e296",
      "l1GasPrice": "0x72283c9d",
      "l1GasUsed": "0x640"
    },
    {
      "status": "0x1",
      "cumulativeGasUsed": "0x3a6ff",
      "logs": [
        {
          "address": "0x4200000000000000000000000000000000000006",
          "topics": [
            "0xe1fffcc4923d04b559f4d29a8bfc6cda04eb5b0d3c460751c2402c5c5cc9109c",
            "0x00000000000000000000000073f0b82ea0c7268866bb39e5a30f3f4e348e3feb"
          ],
          "data": "0x00000000000000000000000000000000000000000000000002c68af0bb140000",
          "blockHash": "0x059783c10d3df386e1c7061b44e6afdfdaa786038e5f8fa8b7bf08df365cd005",
          "blockNumber": "0xd74d07",
          "transactionHash": "0x2e7901686e8c75dce8c8639a917a24ed2fc2e23d5e1ed7f97e8e7c6c8f03ee32",
          "transactionIndex": "0x3",
          "logIndex": "0x2",
          "removed": false
        },
        {
          "address": "0x73f0b82ea0c7268866bb39e5a30f3f4e348e3feb",
          "topics": [
            "0x90576f1ad407b163ccea052b2d55bac158025af10ac5895369e8956eeab83434",
            "0x0000000000000000000000003e19bbee16243f36b331ce550f3ff2685e972944"
          ],
          "data": "0x00000000000000000000000000000000000000000000000002c68af0bb140000",
          "blockHash": "0x059783c10d3df386e1c7061b44e6afdfdaa786038e5f8fa8b7bf08df365cd005",
          "blockNumber": "0xd74d07",
          "transactionHash": "0x2e7901686e8c75dce8c8639a917a24ed2fc2e23d5e1ed7f97e8e7c6c8f03ee32",
          "transactionIndex": "0x3",
          "logIndex": "0x3",
          "removed": false
        }
      ],
      "logsBloom": "0x00000000010000000200000000000000000000000000000000040000000000000000000400000000000000100000000000000000000000000000000000000000000000000000000000000000000000000000200000000000800000008000000000020002000000000000000000000000000000000000000000000000000000000000002000000000000000000000000008002001002000000000000000000000000000000000000000000000000000000000000000000000000000000000000000000000000100000000000000000000000000000000000000000000000008000000000000000000000000000000000000000000000000400000000000000000",
      "type": "0x2",
      "transactionHash": "0x2e7901686e8c75dce8c8639a917a24ed2fc2e23d5e1ed7f97e8e7c6c8f03ee32",
      "transactionIndex": "0x3",
      "blockHash": "0x059783c10d3df386e1c7061b44e6afdfdaa786038e5f8fa8b7bf08df365cd005",
      "blockNumber": "0xd74d07",
      "gasUsed": "0x13dbc",
      "effectiveGasPrice": "0xfd",
      "from": "0xe0d6f93151091f24ea09474e9271bd60f2624d99",
      "to": "0x73f0b82ea0c7268866bb39e5a30f3f4e348e3feb",
      "contractAddress": null,
      "l1BaseFeeScalar": "0x3f4",
      "l1BlobBaseFee": "0x1",
      "l1BlobBaseFeeScalar": "0x941ad",
      "l1Fee": "0xb8d7e296",
      "l1GasPrice": "0x72283c9d",
      "l1GasUsed": "0x640"
    }
  ],
  "libraries": [],
  "pending": [],
  "returns": {},
  "timestamp": 1726299927,
  "chain": 999999999,
  "commit": "5fcd4f3"
}