{
  "transactions": [
    {
      "hash": "0x7511bb68d44648c13936a50855d76667b0706a29e124b7503ad6f89ffcf1e805",
      "transactionType": "CALL",
      "contractName": null,
      "contractAddress": "0xf430ac9b73c5fb875d8350a300e95049a19cabb1",
      "function": "poolDeposit(address)",
      "arguments": [
        "0x794F11F77cd0D4eE60885A1a1857d796f0D08fd7"
      ],
      "transaction": {
        "from": "0x8558519ad14b443949149577024a92c036beb7bb",
        "to": "0xf430ac9b73c5fb875d8350a300e95049a19cabb1",
        "gas": "0x1d0cf",
        "value": "0xeebe0b40e8000",
        "input": "0x5698afa5000000000000000000000000794f11f77cd0d4ee60885a1a1857d796f0d08fd7",
        "nonce": "0x0",
        "chainId": "0x2105"
      },
      "additionalContracts": [],
      "isFixedGasLimit": false
    },
    {
      "hash": null,
      "transactionType": "CALL",
      "contractName": null,
      "contractAddress": "0x794f11f77cd0d4ee60885a1a1857d796f0d08fd7",
      "function": "approveChain(uint256)",
      "arguments": [
        "30184"
      ],
      "transaction": {
        "from": "0x8558519ad14b443949149577024a92c036beb7bb",
        "to": "0x794f11f77cd0d4ee60885a1a1857d796f0d08fd7",
        "gas": "0x21061",
        "value": "0x0",
        "input": "0xeb87840d00000000000000000000000000000000000000000000000000000000000075e8",
        "nonce": "0x1",
        "chainId": "0x2105"
      },
      "additionalContracts": [],
      "isFixedGasLimit": false
    },
    {
      "hash": null,
      "transactionType": "CALL",
      "contractName": null,
      "contractAddress": "0x794f11f77cd0d4ee60885a1a1857d796f0d08fd7",
      "function": "approveChain(uint256)",
      "arguments": [
        "30110"
      ],
      "transaction": {
        "from": "0x8558519ad14b443949149577024a92c036beb7bb",
        "to": "0x794f11f77cd0d4ee60885a1a1857d796f0d08fd7",
        "gas": "0x1bca9",
        "value": "0x0",
        "input": "0xeb87840d000000000000000000000000000000000000000000000000000000000000759e",
        "nonce": "0x2",
        "chainId": "0x2105"
      },
      "additionalContracts": [],
      "isFixedGasLimit": false
    },
    {
      "hash": null,
      "transactionType": "CALL",
      "contractName": null,
      "contractAddress": "0x794f11f77cd0d4ee60885a1a1857d796f0d08fd7",
      "function": "approveChain(uint256)",
      "arguments": [
        "30111"
      ],
      "transaction": {
        "from": "0x8558519ad14b443949149577024a92c036beb7bb",
        "to": "0x794f11f77cd0d4ee60885a1a1857d796f0d08fd7",
        "gas": "0x1caa2",
        "value": "0x0",
        "input": "0xeb87840d000000000000000000000000000000000000000000000000000000000000759f",
        "nonce": "0x3",
        "chainId": "0x2105"
      },
      "additionalContracts": [],
      "isFixedGasLimit": false
    },
    {
      "hash": null,
      "transactionType": "CALL",
      "contractName": null,
      "contractAddress": "0x794f11f77cd0d4ee60885a1a1857d796f0d08fd7",
      "function": "setDefaultNativeCredit(uint256)",
      "arguments": [
        "2000000000000000"
      ],
      "transaction": {
        "from": "0x8558519ad14b443949149577024a92c036beb7bb",
        "to": "0x794f11f77cd0d4ee60885a1a1857d796f0d08fd7",
        "gas": "0xf765",
        "value": "0x0",
        "input": "0x0f4efd8d00000000000000000000000000000000000000000000000000071afd498d0000",
        "nonce": "0x4",
        "chainId": "0x2105"
      },
      "additionalContracts": [],
      "isFixedGasLimit": false
    },
    {
      "hash": null,
      "transactionType": "CALL",
      "contractName": null,
      "contractAddress": "0x472cf1b83213ded59db4fc643532d07450d8f40b",
      "function": "addSupportedToken(address,address)",
      "arguments": [
        "0x4200000000000000000000000000000000000006",
        "0x794F11F77cd0D4eE60885A1a1857d796f0D08fd7"
      ],
      "transaction": {
        "from": "0x8558519ad14b443949149577024a92c036beb7bb",
        "to": "0x472cf1b83213ded59db4fc643532d07450d8f40b",
        "gas": "0x12d9a",
        "value": "0x0",
        "input": "0xc2b7be160000000000000000000000004200000000000000000000000000000000000006000000000000000000000000794f11f77cd0d4ee60885a1a1857d796f0d08fd7",
        "nonce": "0x5",
        "chainId": "0x2105"
      },
      "additionalContracts": [],
      "isFixedGasLimit": false
    },
    {
      "hash": null,
      "transactionType": "CALL",
      "contractName": null,
      "contractAddress": "0x472cf1b83213ded59db4fc643532d07450d8f40b",
      "function": "addSupportedToken(address,address)",
      "arguments": [
        "0xc1CBa3fCea344f92D9239c08C0568f6F2F0ee452",
        "0x794F11F77cd0D4eE60885A1a1857d796f0D08fd7"
      ],
      "transaction": {
        "from": "0x8558519ad14b443949149577024a92c036beb7bb",
        "to": "0x472cf1b83213ded59db4fc643532d07450d8f40b",
        "gas": "0x12ed6",
        "value": "0x0",
        "input": "0xc2b7be16000000000000000000000000c1cba3fcea344f92d9239c08c0568f6f2f0ee452000000000000000000000000794f11f77cd0d4ee60885a1a1857d796f0d08fd7",
        "nonce": "0x6",
        "chainId": "0x2105"
      },
      "additionalContracts": [],
      "isFixedGasLimit": false
    }
  ],
  "receipts": [],
  "libraries": [],
  "pending": [
    "0x7511bb68d44648c13936a50855d76667b0706a29e124b7503ad6f89ffcf1e805"
  ],
  "returns": {},
  "timestamp": 1733052506,
  "chain": 8453,
  "commit": "a84f3db"
}