{
  "transactions": [
    {
      "hash": "0x47a44d96ff9fbfe65cfcd5e18eac4701932fe02d99fb09871c3ad09ffe72d33d",
      "transactionType": "CALL",
      "contractName": null,
      "contractAddress": "0x794f11f77cd0d4ee60885a1a1857d796f0d08fd7",
      "function": "approveChain(uint256)",
      "arguments": [
        "30184"
      ],
      "transaction": {
        "from": "0x8558519ad14b443949149577024a92c036beb7bb",
        "to": "0x794f11f77cd0d4ee60885a1a1857d796f0d08fd7",
        "gas": "0x21061",
        "value": "0x0",
        "input": "0xeb87840d00000000000000000000000000000000000000000000000000000000000075e8",
        "nonce": "0x1",
        "chainId": "0x2105"
      },
      "additionalContracts": [],
      "isFixedGasLimit": false
    },
    {
      "hash": "0x469e7c924b39b0738d2da1ac56af52417b696a47750a177016f58f4d662c1f37",
      "transactionType": "CALL",
      "contractName": null,
      "contractAddress": "0x794f11f77cd0d4ee60885a1a1857d796f0d08fd7",
      "function": "approveChain(uint256)",
      "arguments": [
        "30110"
      ],
      "transaction": {
        "from": "0x8558519ad14b443949149577024a92c036beb7bb",
        "to": "0x794f11f77cd0d4ee60885a1a1857d796f0d08fd7",
        "gas": "0x1bca9",
        "value": "0x0",
        "input": "0xeb87840d000000000000000000000000000000000000000000000000000000000000759e",
        "nonce": "0x2",
        "chainId": "0x2105"
      },
      "additionalContracts": [],
      "isFixedGasLimit": false
    },
    {
      "hash": "0xbab0ff82d8fb3c54876feb5ae0e7d768be7fd54ee7a76e9f26b05a1b2070ac4c",
      "transactionType": "CALL",
      "contractName": null,
      "contractAddress": "0x794f11f77cd0d4ee60885a1a1857d796f0d08fd7",
      "function": "approveChain(uint256)",
      "arguments": [
        "30111"
      ],
      "transaction": {
        "from": "0x8558519ad14b443949149577024a92c036beb7bb",
        "to": "0x794f11f77cd0d4ee60885a1a1857d796f0d08fd7",
        "gas": "0x1caa2",
        "value": "0x0",
        "input": "0xeb87840d000000000000000000000000000000000000000000000000000000000000759f",
        "nonce": "0x3",
        "chainId": "0x2105"
      },
      "additionalContracts": [],
      "isFixedGasLimit": false
    },
    {
      "hash": "0x8fe86f3f6b144c8dbc262fb15ace4f2b4b5b8647715fd26c781dbe4bab5592fa",
      "transactionType": "CALL",
      "contractName": null,
      "contractAddress": "0x794f11f77cd0d4ee60885a1a1857d796f0d08fd7",
      "function": "setDefaultNativeCredit(uint256)",
      "arguments": [
        "2000000000000000"
      ],
      "transaction": {
        "from": "0x8558519ad14b443949149577024a92c036beb7bb",
        "to": "0x794f11f77cd0d4ee60885a1a1857d796f0d08fd7",
        "gas": "0xf765",
        "value": "0x0",
        "input": "0x0f4efd8d00000000000000000000000000000000000000000000000000071afd498d0000",
        "nonce": "0x4",
        "chainId": "0x2105"
      },
      "additionalContracts": [],
      "isFixedGasLimit": false
    },
    {
      "hash": "0x46b8c848833bebf662f430124f304ccfb7b67e61b59aad9e27e5fb56db95e478",
      "transactionType": "CALL",
      "contractName": null,
      "contractAddress": "0x472cf1b83213ded59db4fc643532d07450d8f40b",
      "function": "addSupportedToken(address,address)",
      "arguments": [
        "0x4200000000000000000000000000000000000006",
        "0x794F11F77cd0D4eE60885A1a1857d796f0D08fd7"
      ],
      "transaction": {
        "from": "0x8558519ad14b443949149577024a92c036beb7bb",
        "to": "0x472cf1b83213ded59db4fc643532d07450d8f40b",
        "gas": "0x12d9a",
        "value": "0x0",
        "input": "0xc2b7be160000000000000000000000004200000000000000000000000000000000000006000000000000000000000000794f11f77cd0d4ee60885a1a1857d796f0d08fd7",
        "nonce": "0x5",
        "chainId": "0x2105"
      },
      "additionalContracts": [],
      "isFixedGasLimit": false
    },
    {
      "hash": "0xb06dee5816f52d190a09c7059e5b2ab7ace2e3a9a91a1a026a5dc51914ba67d9",
      "transactionType": "CALL",
      "contractName": null,
      "contractAddress": "0x472cf1b83213ded59db4fc643532d07450d8f40b",
      "function": "addSupportedToken(address,address)",
      "arguments": [
        "0xc1CBa3fCea344f92D9239c08C0568f6F2F0ee452",
        "0x794F11F77cd0D4eE60885A1a1857d796f0D08fd7"
      ],
      "transaction": {
        "from": "0x8558519ad14b443949149577024a92c036beb7bb",
        "to": "0x472cf1b83213ded59db4fc643532d07450d8f40b",
        "gas": "0x12ed6",
        "value": "0x0",
        "input": "0xc2b7be16000000000000000000000000c1cba3fcea344f92d9239c08c0568f6f2f0ee452000000000000000000000000794f11f77cd0d4ee60885a1a1857d796f0d08fd7",
        "nonce": "0x6",
        "chainId": "0x2105"
      },
      "additionalContracts": [],
      "isFixedGasLimit": false
    }
  ],
  "receipts": [
    {
      "status": "0x1",
      "cumulativeGasUsed": "0x1b29870",
      "logs": [
        {
          "address": "0x794f11f77cd0d4ee60885a1a1857d796f0d08fd7",
          "topics": [
            "0xbba9d55e9fd1a441b1617724e2fdb76777d15ec77ab2b72ac15952cbe97085db"
          ],
          "data": "0x00000000000000000000000000000000000000000000000000000000000075e8",
          "blockHash": "0x99f601b0a245d017fadbe89c53c995f740707d2609c284649fa6a6681fd9c780",
          "blockNumber": "0x160f61a",
          "transactionHash": "0x47a44d96ff9fbfe65cfcd5e18eac4701932fe02d99fb09871c3ad09ffe72d33d",
          "transactionIndex": "0x87",
          "logIndex": "0x111",
          "removed": false
        },
        {
          "address": "0x794f11f77cd0d4ee60885a1a1857d796f0d08fd7",
          "topics": [
            "0xe012bf0e1630512126bccbc050ebf66c62af3753e3cd64d533ddf97f65f621c8"
          ],
          "data": "0x00000000000000000000000000000000000000000000000000000000000075e8",
          "blockHash": "0x99f601b0a245d017fadbe89c53c995f740707d2609c284649fa6a6681fd9c780",
          "blockNumber": "0x160f61a",
          "transactionHash": "0x47a44d96ff9fbfe65cfcd5e18eac4701932fe02d99fb09871c3ad09ffe72d33d",
          "transactionIndex": "0x87",
          "logIndex": "0x112",
          "removed": false
        }
      ],
      "logsBloom": "0x02000000000000000000000000000000000008000000000002000000000000000100000000000000000000000000000000000000000000000000000000000000000000000000000000000000004000000000000000000000000000000000000000000000000000000000000000000000000000000000000000000000000000000000000000000000000000000000000000000000000000000000000000000000000000000000000000000000000010000000200000000000000000000000000000000000000000000000000000000000000000000000000000000000000000000000000040000000000000000000000000000000000000000000000000000080",
      "type": "0x2",
      "transactionHash": "0x47a44d96ff9fbfe65cfcd5e18eac4701932fe02d99fb09871c3ad09ffe72d33d",
      "transactionIndex": "0x87",
      "blockHash": "0x99f601b0a245d017fadbe89c53c995f740707d2609c284649fa6a6681fd9c780",
      "blockNumber": "0x160f61a",
      "gasUsed": "0x16949",
      "effectiveGasPrice": "0x3036427",
      "from": "0x8558519ad14b443949149577024a92c036beb7bb",
      "to": "0x794f11f77cd0d4ee60885a1a1857d796f0d08fd7",
      "contractAddress": null,
      "l1BaseFeeScalar": "0x8dd",
      "l1BlobBaseFee": "0xf2ebd8f",
      "l1BlobBaseFeeScalar": "0x101c12",
      "l1Fee": "0xe5152ca84",
      "l1GasPrice": "0x23817c575",
      "l1GasUsed": "0x640"
    },
    {
      "status": "0x1",
      "cumulativeGasUsed": "0x1d20d07",
      "logs": [
        {
          "address": "0x794f11f77cd0d4ee60885a1a1857d796f0d08fd7",
          "topics": [
            "0xbba9d55e9fd1a441b1617724e2fdb76777d15ec77ab2b72ac15952cbe97085db"
          ],
          "data": "0x000000000000000000000000000000000000000000000000000000000000759e",
          "blockHash": "0x99f601b0a245d017fadbe89c53c995f740707d2609c284649fa6a6681fd9c780",
          "blockNumber": "0x160f61a",
          "transactionHash": "0x469e7c924b39b0738d2da1ac56af52417b696a47750a177016f58f4d662c1f37",
          "transactionIndex": "0x8c",
          "logIndex": "0x11f",
          "removed": false
        },
        {
          "address": "0x794f11f77cd0d4ee60885a1a1857d796f0d08fd7",
          "topics": [
            "0xe012bf0e1630512126bccbc050ebf66c62af3753e3cd64d533ddf97f65f621c8"
          ],
          "data": "0x000000000000000000000000000000000000000000000000000000000000759e",
          "blockHash": "0x99f601b0a245d017fadbe89c53c995f740707d2609c284649fa6a6681fd9c780",
          "blockNumber": "0x160f61a",
          "transactionHash": "0x469e7c924b39b0738d2da1ac56af52417b696a47750a177016f58f4d662c1f37",
          "transactionIndex": "0x8c",
          "logIndex": "0x120",
          "removed": false
        }
      ],
      "logsBloom": "0x02000000000000000000000000000000000008000000000002000000000000000100000000000000000000000000000000000000000000000000000000000000000000000000000000000000004000000000000000000000000000000000000000000000000000000000000000000000000000000000000000000000000000000000000000000000000000000000000000000000000000000000000000000000000000000000000000000000000010000000200000000000000000000000000000000000000000000000000000000000000000000000000000000000000000000000000040000000000000000000000000000000000000000000000000000080",
      "type": "0x2",
      "transactionHash": "0x469e7c924b39b0738d2da1ac56af52417b696a47750a177016f58f4d662c1f37",
      "transactionIndex": "0x8c",
      "blockHash": "0x99f601b0a245d017fadbe89c53c995f740707d2609c284649fa6a6681fd9c780",
      "blockNumber": "0x160f61a",
      "gasUsed": "0x1300b",
      "effectiveGasPrice": "0x3036427",
      "from": "0x8558519ad14b443949149577024a92c036beb7bb",
      "to": "0x794f11f77cd0d4ee60885a1a1857d796f0d08fd7",
      "contractAddress": null,
      "l1BaseFeeScalar": "0x8dd",
      "l1BlobBaseFee": "0xf2ebd8f",
      "l1BlobBaseFeeScalar": "0x101c12",
      "l1Fee": "0xe5152ca84",
      "l1GasPrice": "0x23817c575",
      "l1GasUsed": "0x640"
    },
    {
      "status": "0x1",
      "cumulativeGasUsed": "0x1d346a0",
      "logs": [
        {
          "address": "0x794f11f77cd0d4ee60885a1a1857d796f0d08fd7",
          "topics": [
            "0xbba9d55e9fd1a441b1617724e2fdb76777d15ec77ab2b72ac15952cbe97085db"
          ],
          "data": "0x000000000000000000000000000000000000000000000000000000000000759f",
          "blockHash": "0x99f601b0a245d017fadbe89c53c995f740707d2609c284649fa6a6681fd9c780",
          "blockNumber": "0x160f61a",
          "transactionHash": "0xbab0ff82d8fb3c54876feb5ae0e7d768be7fd54ee7a76e9f26b05a1b2070ac4c",
          "transactionIndex": "0x8d",
          "logIndex": "0x121",
          "removed": false
        },
        {
          "address": "0x794f11f77cd0d4ee60885a1a1857d796f0d08fd7",
          "topics": [
            "0xe012bf0e1630512126bccbc050ebf66c62af3753e3cd64d533ddf97f65f621c8"
          ],
          "data": "0x000000000000000000000000000000000000000000000000000000000000759f",
          "blockHash": "0x99f601b0a245d017fadbe89c53c995f740707d2609c284649fa6a6681fd9c780",
          "blockNumber": "0x160f61a",
          "transactionHash": "0xbab0ff82d8fb3c54876feb5ae0e7d768be7fd54ee7a76e9f26b05a1b2070ac4c",
          "transactionIndex": "0x8d",
          "logIndex": "0x122",
          "removed": false
        }
      ],
      "logsBloom": "0x02000000000000000000000000000000000008000000000002000000000000000100000000000000000000000000000000000000000000000000000000000000000000000000000000000000004000000000000000000000000000000000000000000000000000000000000000000000000000000000000000000000000000000000000000000000000000000000000000000000000000000000000000000000000000000000000000000000000010000000200000000000000000000000000000000000000000000000000000000000000000000000000000000000000000000000000040000000000000000000000000000000000000000000000000000080",
      "type": "0x2",
      "transactionHash": "0xbab0ff82d8fb3c54876feb5ae0e7d768be7fd54ee7a76e9f26b05a1b2070ac4c",
      "transactionIndex": "0x8d",
      "blockHash": "0x99f601b0a245d017fadbe89c53c995f740707d2609c284649fa6a6681fd9c780",
      "blockNumber": "0x160f61a",
      "gasUsed": "0x13999",
      "effectiveGasPrice": "0x3036427",
      "from": "0x8558519ad14b443949149577024a92c036beb7bb",
      "to": "0x794f11f77cd0d4ee60885a1a1857d796f0d08fd7",
      "contractAddress": null,
      "l1BaseFeeScalar": "0x8dd",
      "l1BlobBaseFee": "0xf2ebd8f",
      "l1BlobBaseFeeScalar": "0x101c12",
      "l1Fee": "0xe5152ca84",
      "l1GasPrice": "0x23817c575",
      "l1GasUsed": "0x640"
    },
    {
      "status": "0x1",
      "cumulativeGasUsed": "0x1ef3f4b",
      "logs": [],
      "logsBloom": "0x00000000000000000000000000000000000000000000000000000000000000000000000000000000000000000000000000000000000000000000000000000000000000000000000000000000000000000000000000000000000000000000000000000000000000000000000000000000000000000000000000000000000000000000000000000000000000000000000000000000000000000000000000000000000000000000000000000000000000000000000000000000000000000000000000000000000000000000000000000000000000000000000000000000000000000000000000000000000000000000000000000000000000000000000000000000",
      "type": "0x2",
      "transactionHash": "0x8fe86f3f6b144c8dbc262fb15ace4f2b4b5b8647715fd26c781dbe4bab5592fa",
      "transactionIndex": "0x90",
      "blockHash": "0x99f601b0a245d017fadbe89c53c995f740707d2609c284649fa6a6681fd9c780",
      "blockNumber": "0x160f61a",
      "gasUsed": "0xb31d",
      "effectiveGasPrice": "0x3036427",
      "from": "0x8558519ad14b443949149577024a92c036beb7bb",
      "to": "0x794f11f77cd0d4ee60885a1a1857d796f0d08fd7",
      "contractAddress": null,
      "l1BaseFeeScalar": "0x8dd",
      "l1BlobBaseFee": "0xf2ebd8f",
      "l1BlobBaseFeeScalar": "0x101c12",
      "l1Fee": "0xe5152ca84",
      "l1GasPrice": "0x23817c575",
      "l1GasUsed": "0x640"
    },
    {
      "status": "0x1",
      "cumulativeGasUsed": "0x1f00d85",
      "logs": [
        {
          "address": "0x472cf1b83213ded59db4fc643532d07450d8f40b",
          "topics": [
            "0xdffbd9ded1c09446f09377de547142dcce7dc541c8b0b028142b1eba7026b9e7",
            "0x0000000000000000000000004200000000000000000000000000000000000006",
            "0x000000000000000000000000794f11f77cd0d4ee60885a1a1857d796f0d08fd7"
          ],
          "data": "0x",
          "blockHash": "0x99f601b0a245d017fadbe89c53c995f740707d2609c284649fa6a6681fd9c780",
          "blockNumber": "0x160f61a",
          "transactionHash": "0x46b8c848833bebf662f430124f304ccfb7b67e61b59aad9e27e5fb56db95e478",
          "transactionIndex": "0x91",
          "logIndex": "0x144",
          "removed": false
        }
      ],
      "logsBloom": "0x00000000000000010000000000000000000000000000000000000000000000000000000000000000000000000000000000000000008000000020000000000000000000000000000000000000000000000000000000000000000000200000000000000000000000000000200000000000000010000000000000000000000000800000000000002000000000000000800000000000000000000000000000000000000000000000000000000000000000000000000000000000000000000000000000000000000004000000000000000000000000000000000000000000000000000000000000000000010000200000000000000000000000000000000000000000",
      "type": "0x2",
      "transactionHash": "0x46b8c848833bebf662f430124f304ccfb7b67e61b59aad9e27e5fb56db95e478",
      "transactionIndex": "0x91",
      "blockHash": "0x99f601b0a245d017fadbe89c53c995f740707d2609c284649fa6a6681fd9c780",
      "blockNumber": "0x160f61a",
      "gasUsed": "0xce3a",
      "effectiveGasPrice": "0x3036427",
      "from": "0x8558519ad14b443949149577024a92c036beb7bb",
      "to": "0x472cf1b83213ded59db4fc643532d07450d8f40b",
      "contractAddress": null,
      "l1BaseFeeScalar": "0x8dd",
      "l1BlobBaseFee": "0xf2ebd8f",
      "l1BlobBaseFeeScalar": "0x101c12",
      "l1Fee": "0xe5152ca84",
      "l1GasPrice": "0x23817c575",
      "l1GasUsed": "0x640"
    },
    {
      "status": "0x1",
      "cumulativeGasUsed": "0x1f99499",
      "logs": [
        {
          "address": "0x472cf1b83213ded59db4fc643532d07450d8f40b",
          "topics": [
            "0xdffbd9ded1c09446f09377de547142dcce7dc541c8b0b028142b1eba7026b9e7",
            "0x000000000000000000000000c1cba3fcea344f92d9239c08c0568f6f2f0ee452",
            "0x000000000000000000000000794f11f77cd0d4ee60885a1a1857d796f0d08fd7"
          ],
          "data": "0x",
          "blockHash": "0x99f601b0a245d017fadbe89c53c995f740707d2609c284649fa6a6681fd9c780",
          "blockNumber": "0x160f61a",
          "transactionHash": "0xb06dee5816f52d190a09c7059e5b2ab7ace2e3a9a91a1a026a5dc51914ba67d9",
          "transactionIndex": "0x96",
          "logIndex": "0x151",
          "removed": false
        }
      ],
      "logsBloom": "0x00000000000000010000000000000000000000000000000000000000000000000000000000000000000000000000000000000000008000000000000000000000000000000000000000800000000000000000000000000000000000200000000000000000000000000000200000000000000000000000000000000000000000800000000000002000000000000000800000000000000000000000800000000000000000000000000000000000000000000000000000000040000000000000000000000000000000000000000000000000000000000000000000000000000000000000000000000000010000200000000000000000000000000000000000000000",
      "type": "0x2",
      "transactionHash": "0xb06dee5816f52d190a09c7059e5b2ab7ace2e3a9a91a1a026a5dc51914ba67d9",
      "transactionIndex": "0x96",
      "blockHash": "0x99f601b0a245d017fadbe89c53c995f740707d2609c284649fa6a6681fd9c780",
      "blockNumber": "0x160f61a",
      "gasUsed": "0xcf12",
      "effectiveGasPrice": "0x3036427",
      "from": "0x8558519ad14b443949149577024a92c036beb7bb",
      "to": "0x472cf1b83213ded59db4fc643532d07450d8f40b",
      "contractAddress": null,
      "l1BaseFeeScalar": "0x8dd",
      "l1BlobBaseFee": "0xf2ebd8f",
      "l1BlobBaseFeeScalar": "0x101c12",
      "l1Fee": "0xe5152ca84",
      "l1GasPrice": "0x23817c575",
      "l1GasUsed": "0x640"
    }
  ],
  "libraries": [],
  "pending": [],
  "returns": {},
  "timestamp": 1733052701,
  "chain": 8453,
  "commit": "a84f3db"
}