{
  "transactions": [
    {
      "hash": "0x6d6978d9cf02967cea8d2aced0e211c675ee47d70e729ce34e48fda47d8fd1da",
      "transactionType": "CALL",
      "contractName": null,
      "contractAddress": "0x472cf1b83213ded59db4fc643532d07450d8f40b",
      "function": "addSupportedToken(address,address)",
      "arguments": [
        "0x4200000000000000000000000000000000000006",
        "0x794F11F77cd0D4eE60885A1a1857d796f0D08fd7"
      ],
      "transaction": {
        "from": "0x8558519ad14b443949149577024a92c036beb7bb",
        "to": "0x472cf1b83213ded59db4fc643532d07450d8f40b",
        "gas": "0xb179",
        "value": "0x0",
        "input": "0xc2b7be160000000000000000000000004200000000000000000000000000000000000006000000000000000000000000794f11f77cd0d4ee60885a1a1857d796f0d08fd7",
        "nonce": "0x6",
        "chainId": "0xa"
      },
      "additionalContracts": [],
      "isFixedGasLimit": false
    },
    {
      "hash": "0xd787528f8909626c676a408861767e2ce583e66ce8d3fc2d914ce4393c052449",
      "transactionType": "CALL",
      "contractName": null,
      "contractAddress": "0x472cf1b83213ded59db4fc643532d07450d8f40b",
      "function": "addSupportedToken(address,address)",
      "arguments": [
        "0x1F32b1c2345538c0c6f582fCB022739c4A194Ebb",
        "0x794F11F77cd0D4eE60885A1a1857d796f0D08fd7"
      ],
      "transaction": {
        "from": "0x8558519ad14b443949149577024a92c036beb7bb",
        "to": "0x472cf1b83213ded59db4fc643532d07450d8f40b",
        "gas": "0x12ed6",
        "value": "0x0",
        "input": "0xc2b7be160000000000000000000000001f32b1c2345538c0c6f582fcb022739c4a194ebb000000000000000000000000794f11f77cd0d4ee60885a1a1857d796f0d08fd7",
        "nonce": "0x7",
        "chainId": "0xa"
      },
      "additionalContracts": [],
      "isFixedGasLimit": false
    }
  ],
  "receipts": [
    {
      "status": "0x1",
      "cumulativeGasUsed": "0x78c01c",
      "logs": [
        {
          "address": "0x472cf1b83213ded59db4fc643532d07450d8f40b",
          "topics": [
            "0xdffbd9ded1c09446f09377de547142dcce7dc541c8b0b028142b1eba7026b9e7",
            "0x0000000000000000000000004200000000000000000000000000000000000006",
            "0x000000000000000000000000794f11f77cd0d4ee60885a1a1857d796f0d08fd7"
          ],
          "data": "0x",
          "blockHash": "0x4bc731ef479edec926c0faee1517df425d77e0ca3b875f478230dd3af29cc403",
          "blockNumber": "0x7ac9d19",
          "transactionHash": "0x6d6978d9cf02967cea8d2aced0e211c675ee47d70e729ce34e48fda47d8fd1da",
          "transactionIndex": "0x1c",
          "logIndex": "0x78",
          "removed": false
        }
      ],
      "logsBloom": "0x00000000000000010000000000000000000000000000000000000000000000000000000000000000000000000000000000000000008000000020000000000000000000000000000000000000000000000000000000000000000000200000000000000000000000000000200000000000000010000000000000000000000000800000000000002000000000000000800000000000000000000000000000000000000000000000000000000000000000000000000000000000000000000000000000000000000004000000000000000000000000000000000000000000000000000000000000000000010000200000000000000000000000000000000000000000",
      "type": "0x2",
      "transactionHash": "0x6d6978d9cf02967cea8d2aced0e211c675ee47d70e729ce34e48fda47d8fd1da",
      "transactionIndex": "0x1c",
      "blockHash": "0x4bc731ef479edec926c0faee1517df425d77e0ca3b875f478230dd3af29cc403",
      "blockNumber": "0x7ac9d19",
      "gasUsed": "0x807e",
      "effectiveGasPrice": "0x189b1",
      "from": "0x8558519ad14b443949149577024a92c036beb7bb",
      "to": "0x472cf1b83213ded59db4fc643532d07450d8f40b",
      "contractAddress": null,
      "l1BaseFeeScalar": "0x146b",
      "l1BlobBaseFee": "0x4220",
      "l1BlobBaseFeeScalar": "0xf79c5",
      "l1Fee": "0x1c06a8f70d",
      "l1GasPrice": "0x359df4f95",
      "l1GasUsed": "0x640"
    },
    {
      "status": "0x1",
      "cumulativeGasUsed": "0x798f2e",
      "logs": [
        {
          "address": "0x472cf1b83213ded59db4fc643532d07450d8f40b",
          "topics": [
            "0xdffbd9ded1c09446f09377de547142dcce7dc541c8b0b028142b1eba7026b9e7",
            "0x0000000000000000000000001f32b1c2345538c0c6f582fcb022739c4a194ebb",
            "0x000000000000000000000000794f11f77cd0d4ee60885a1a1857d796f0d08fd7"
          ],
          "data": "0x",
          "blockHash": "0x4bc731ef479edec926c0faee1517df425d77e0ca3b875f478230dd3af29cc403",
          "blockNumber": "0x7ac9d19",
          "transactionHash": "0xd787528f8909626c676a408861767e2ce583e66ce8d3fc2d914ce4393c052449",
          "transactionIndex": "0x1d",
          "logIndex": "0x79",
          "removed": false
        }
      ],
      "logsBloom": "0x00000000000000010000000000000000000000000000000000000000000000000000000000000000000000000000000000000000008000000000000000000000000000000000000000000000000000000000000000040000000000200000000000000000000000000001200000000000000000000000000000000000000000800000000000002000000000000000800000100000000000000000000000000000000000000000000000000000000000000000000000000000000000000000000000000000000000000000000000000000000000000000000000000000000000000000000000000000010000200000000000000000000000000000000000000000",
      "type": "0x2",
      "transactionHash": "0xd787528f8909626c676a408861767e2ce583e66ce8d3fc2d914ce4393c052449",
      "transactionIndex": "0x1d",
      "blockHash": "0x4bc731ef479edec926c0faee1517df425d77e0ca3b875f478230dd3af29cc403",
      "blockNumber": "0x7ac9d19",
      "gasUsed": "0xcf12",
      "effectiveGasPrice": "0x189b1",
      "from": "0x8558519ad14b443949149577024a92c036beb7bb",
      "to": "0x472cf1b83213ded59db4fc643532d07450d8f40b",
      "contractAddress": null,
      "l1BaseFeeScalar": "0x146b",
      "l1BlobBaseFee": "0x4220",
      "l1BlobBaseFeeScalar": "0xf79c5",
      "l1Fee": "0x1c06a8f70d",
      "l1GasPrice": "0x359df4f95",
      "l1GasUsed": "0x640"
    }
  ],
  "libraries": [],
  "pending": [],
  "returns": {},
  "timestamp": 1733104627,
  "chain": 10,
  "commit": "a84f3db"
}