{
  "transactions": [
    {
      "hash": "0xca1fb9cc0edc28a0314e613d39520f8a150644add50fe1a480fe9415bf980b3a",
      "transactionType": "CALL",
      "contractName": null,
      "contractAddress": "0x9c2e3e224f0f5bfab7b3c454f0b4357d424ef030",
      "function": "approveChain(uint256)",
      "arguments": [
        "40291"
      ],
      "transaction": {
        "from": "0x03773f85756acac65a869e89e3b7b2fcda6be140",
        "to": "0x9c2e3e224f0f5bfab7b3c454f0b4357d424ef030",
        "gas": "0x1b953",
        "value": "0x0",
        "input": "0xeb87840d0000000000000000000000000000000000000000000000000000000000009d63",
        "nonce": "0x46",
        "chainId": "0x66eee"
      },
      "additionalContracts": [],
      "isFixedGasLimit": false
    },
    {
      "hash": "0x5b94a861201343e316a69411d6031ddc1dfe8f548dc3d7ccf50807e981448bc1",
      "transactionType": "CALL",
      "contractName": null,
      "contractAddress": "0x981830d1946e6fc9d5f893327a2819fd5e2c5819",
      "function": "setDepositContract(uint256,address)",
      "arguments": [
        "40291",
        "0xDF52714C191e8C4EC26cCD5B1578a904724e93b6"
      ],
      "transaction": {
        "from": "0x03773f85756acac65a869e89e3b7b2fcda6be140",
        "to": "0x981830d1946e6fc9d5f893327a2819fd5e2c5819",
        "gas": "0xf3c9",
        "value": "0x0",
        "input": "0x06c77cb40000000000000000000000000000000000000000000000000000000000009d63000000000000000000000000df52714c191e8c4ec26ccd5b1578a904724e93b6",
        "nonce": "0x47",
        "chainId": "0x66eee"
      },
      "additionalContracts": [],
      "isFixedGasLimit": false
    },
    {
      "hash": "0xe3a6932ef2d49afbba5ea8e625014dc027f4f69288c229b2266e0c8b6d74a96b",
      "transactionType": "CALL",
      "contractName": null,
      "contractAddress": "0x981830d1946e6fc9d5f893327a2819fd5e2c5819",
      "function": "setPeer(uint32,bytes32)",
      "arguments": [
        "40291",
        "0x000000000000000000000000df52714c191e8c4ec26ccd5b1578a904724e93b6"
      ],
      "transaction": {
        "from": "0x03773f85756acac65a869e89e3b7b2fcda6be140",
        "to": "0x981830d1946e6fc9d5f893327a2819fd5e2c5819",
        "gas": "0xf979",
        "value": "0x0",
        "input": "0x3400288b0000000000000000000000000000000000000000000000000000000000009d63000000000000000000000000df52714c191e8c4ec26ccd5b1578a904724e93b6",
        "nonce": "0x48",
        "chainId": "0x66eee"
      },
      "additionalContracts": [],
      "isFixedGasLimit": false
    }
  ],
  "receipts": [
    {
      "status": "0x1",
      "cumulativeGasUsed": "0x14f06",
      "logs": [
        {
          "address": "0x9c2e3e224f0f5bfab7b3c454f0b4357d424ef030",
          "topics": [
            "0xbba9d55e9fd1a441b1617724e2fdb76777d15ec77ab2b72ac15952cbe97085db"
          ],
          "data": "0x0000000000000000000000000000000000000000000000000000000000009d63",
          "blockHash": "0xb608a102291f63311fcaf240ee94a7ee30e4807340b6569d1d5be450ea8e1e53",
          "blockNumber": "0x422232c",
          "transactionHash": "0xca1fb9cc0edc28a0314e613d39520f8a150644add50fe1a480fe9415bf980b3a",
          "transactionIndex": "0x1",
          "logIndex": "0x0",
          "removed": false
        },
        {
          "address": "0x9c2e3e224f0f5bfab7b3c454f0b4357d424ef030",
          "topics": [
            "0xe012bf0e1630512126bccbc050ebf66c62af3753e3cd64d533ddf97f65f621c8"
          ],
          "data": "0x0000000000000000000000000000000000000000000000000000000000009d63",
          "blockHash": "0xb608a102291f63311fcaf240ee94a7ee30e4807340b6569d1d5be450ea8e1e53",
          "blockNumber": "0x422232c",
          "transactionHash": "0xca1fb9cc0edc28a0314e613d39520f8a150644add50fe1a480fe9415bf980b3a",
          "transactionIndex": "0x1",
          "logIndex": "0x1",
          "removed": false
        }
      ],
      "logsBloom": "0x02000000000000000000000000000000000008000000000000000000000000000000000000000000000000000000000000000000000000000000000000000000000000000000000000000000004010000000000000000000000000000000000000000000000000000000000000000000000000000000000000000000000000000000000000000000000000000000000000000000000000000000000000000000000000000000000000000000000010000000200000000000000000000000000000000000000000000000000000000000000000000000000000000000000000000000000000000000020000000000000000000000000000000000000800000080",
      "type": "0x2",
      "transactionHash": "0xca1fb9cc0edc28a0314e613d39520f8a150644add50fe1a480fe9415bf980b3a",
      "transactionIndex": "0x1",
      "blockHash": "0xb608a102291f63311fcaf240ee94a7ee30e4807340b6569d1d5be450ea8e1e53",
      "blockNumber": "0x422232c",
      "gasUsed": "0x14f06",
      "effectiveGasPrice": "0x5f5e100",
      "from": "0x03773f85756acac65a869e89e3b7b2fcda6be140",
      "to": "0x9c2e3e224f0f5bfab7b3c454f0b4357d424ef030",
      "contractAddress": null,
      "gasUsedForL1": "0x295",
      "l1BlockNumber": "0x626943"
    },
    {
      "status": "0x1",
      "cumulativeGasUsed": "0xb919",
      "logs": [],
      "logsBloom": "0x00000000000000000000000000000000000000000000000000000000000000000000000000000000000000000000000000000000000000000000000000000000000000000000000000000000000000000000000000000000000000000000000000000000000000000000000000000000000000000000000000000000000000000000000000000000000000000000000000000000000000000000000000000000000000000000000000000000000000000000000000000000000000000000000000000000000000000000000000000000000000000000000000000000000000000000000000000000000000000000000000000000000000000000000000000000",
      "type": "0x2",
      "transactionHash": "0x5b94a861201343e316a69411d6031ddc1dfe8f548dc3d7ccf50807e981448bc1",
      "transactionIndex": "0x1",
      "blockHash": "0x7b87f195e0f57b43c16e4bcd015b3e082b915b23fab00b5597a639ec94ada4a8",
      "blockNumber": "0x4222330",
      "gasUsed": "0xb919",
      "effectiveGasPrice": "0x5f5e100",
      "from": "0x03773f85756acac65a869e89e3b7b2fcda6be140",
      "to": "0x981830d1946e6fc9d5f893327a2819fd5e2c5819",
      "contractAddress": null,
      "gasUsedForL1": "0x324",
      "l1BlockNumber": "0x626943"
    },
    {
      "status": "0x1",
      "cumulativeGasUsed": "0xbd77",
      "logs": [
        {
          "address": "0x981830d1946e6fc9d5f893327a2819fd5e2c5819",
          "topics": [
            "0x238399d427b947898edb290f5ff0f9109849b1c3ba196a42e35f00c50a54b98b"
          ],
          "data": "0x0000000000000000000000000000000000000000000000000000000000009d63000000000000000000000000df52714c191e8c4ec26ccd5b1578a904724e93b6",
          "blockHash": "0x7a6fa9d3e4179a3d73fd17378551e28a0f7f9820d9b142edc1e6fde096ff4ed3",
          "blockNumber": "0x4222332",
          "transactionHash": "0xe3a6932ef2d49afbba5ea8e625014dc027f4f69288c229b2266e0c8b6d74a96b",
          "transactionIndex": "0x1",
          "logIndex": "0x0",
          "removed": false
        }
      ],
      "logsBloom": "0x00000000000000000000000000000000000000000000000000000000000000000000000000000000000000000000000000000000000000000800000000000000000000000000000000000000000000000000000000000000000000000000000000000000004000000000000000000000000000000000000000000000000000000000000000000000000000000000000000000000000000000000000002000000000000000000000000000000000000000000000000000000000002000000000000000000000000000000000000000000000000000000000000840000000000000000000000000000000000000000000000000000000000000000000000000000",
      "type": "0x2",
      "transactionHash": "0xe3a6932ef2d49afbba5ea8e625014dc027f4f69288c229b2266e0c8b6d74a96b",
      "transactionIndex": "0x1",
      "blockHash": "0x7a6fa9d3e4179a3d73fd17378551e28a0f7f9820d9b142edc1e6fde096ff4ed3",
      "blockNumber": "0x4222332",
      "gasUsed": "0xbd77",
      "effectiveGasPrice": "0x5f5e100",
      "from": "0x03773f85756acac65a869e89e3b7b2fcda6be140",
      "to": "0x981830d1946e6fc9d5f893327a2819fd5e2c5819",
      "contractAddress": null,
      "gasUsedForL1": "0x324",
      "l1BlockNumber": "0x626943"
    }
  ],
  "libraries": [],
  "pending": [],
  "returns": {},
  "timestamp": 1722967553,
  "chain": 421614,
  "commit": "0d3500a"
}